:020000040800F2
:1000000000000C20C5560008C1020008C10200080B
:10001000C1020008C1020008C1020008B55600086C
:10002000000000000000000000000000A5AB000878
:10003000155700080000000049AB0008D9A80008C7
:1000400015570008155700081557000815570008E0
:1000500015570008155700081557000815570008D0
:10006000155700081557000815570008B95600081D
:1000700015570008155700081557000815570008B0
:1000800015570008155700081557000815570008A0
:100090001557000815570008155700081557000890
:1000A0001557000815570008155700081557000880
:1000B0001557000815570008155700081557000870
:1000C0001557000815570008155700081557000860
:1000D0001557000815570008155700081557000850
:1000E0001557000815570008155700081557000840
:1000F0001557000815570008155700081557000830
:10010000155700081557000815570008155700081F
:10011000155700081557000815570008155700080F
:1001200015570008155700081557000815570008FF
:1001300015570008155700081557000815570008EF
:1001400015570008155700081557000815570008DF
:1001500015570008155700081557000815570008CF
:1001600015570008155700081557000815570008BF
:1001700015570008155700081557000815570008AF
:10018000155700081557000815570008155700089F
:10019000155700081557000815570008155700088F
:1001A000155700081557000815570008155700087F
:1001B000155700081557000815570008155700086F
:1001C000155700081557000815570008155700085F
:1001D000155700081557000815570008155700084F
:1001E000155700081557000815570008155700083F
:1001F000155700081557000815570008155700082F
:10020000155700081557000815570008155700081E
:10021000155700081557000815570008155700080E
:1002200015570008155700081557000815570008FE
:080230001557000815570008DE
:1002380088B01E4801680091416801918168029167
:10024800C168039101690491CDF814E07146A1F1E8
:10025800040121F001010691EFF3038141F080715F
:1002680007911349C1F800D0EFF3038343F080737B
:10027800EFF30982EFF30881DFF8380085462DE9AE
:10028800FE4FEFF31481C1F340014FF6B872CFF679
:10029800FF7242EA81020B92684604F043FA0CB0FE
:1002A8000349096848698D4608B00047EC4A0020B0
:1002B800004B0020D44F00202DE9005003F0F2F944
:1002C800BDE80050EFF30383EFF30982EFF30881F1
:1002D800DFF820D02DE9FE4F684604F023FABDE888
:1002E800FE4F8D462DE9005003F0FAF9BDE80050A5
:1002F80070470000D44F0020F1EE101AA0EC200A3D
:1003080001607047A0EC108A704700BF53B94AB922
:10031800002908BF00281CBF4FF0FF314FF0FF3005
:1003280000F06AB9ADF1080C6DE904CE00F006F8EA
:10033800DDF804E0DDE9022304B070472DE9F04759
:100348008C468E46089E154604461946002B40F0FA
:10035800D080724547D9B2FA82F74FB1C7F120036E
:100368000EFA07FCBD40BC4020FA03F343EA0C0C2C
:100378004FEA154EA8B2230CBCFBFEF80EFB18CCB6
:1003880008FB00F943EA0C43994528D9EB1808F112
:10039800FF3204D2994502D9A8F102022B44A3EBFB
:1003A8000903A4B2B3FBFEFC0EFB1C330CFB00F0EC
:1003B80044EA0344A04214D92C190CF1FF3304D2A7
:1003C800A04202D9ACF102032C44241A43EA0240A9
:1003D8001EB1FC40002334607360BDE8F0874246DC
:1003E800DDE76346F1E7002A79D0B2FA82F3002B01
:1003F8003FD01946C1F1200302FA01F500FA01F4D1
:100408002EFA03F20EFA01FE20FA03F3AFB243EA22
:100418000E034FEA154EB2FBFEFC0EFB1C201A0C15
:100428000CFB07F842EA004290455AD9AA180CF189
:10043800FF3004D2904502D9ACF102002A44A2EB65
:1004480008029BB2B2FBFEFC0EFB1C220CFB07F75A
:1004580043EA02439F4246D9EB180CF1FF3204D21B
:100468009F4202D9ACF102022B44DB1B42EA004254
:1004780002E0AEEB020301224FEA154EAFB2200CA8
:10048800B3FBFEFC0EFB1C330CFB07F840EA0343EE
:1004980098452AD9EB180CF1FF3004D2984502D9B7
:1004A800ACF102002B44A3EB0803A4B2B3FBFEFC9F
:1004B8000EFB1C330CFB07F744EA0344A74216D98A
:1004C8002C190CF1FF3304D2A74202D9ACF1020374
:1004D8002C44E41B43EA00400F46114678E71F21ED
:1004E80088E76046ABE76246BFE76046DBE76346FE
:1004F800EFE7734506D916B9002108466DE7C6E946
:10050800000EF9E7B3FA83F787B9734501D382423E
:1005180007D8841A6EEB030301209C461EB90021FC
:100528005BE73846FAE7C6E9004CF8E7C7F1200C64
:10053800BB4000FA07F422FA0CF520FA0CF1BA4095
:100548001D432EFA0CF30EFA07FE4FEA154941EA4D
:100558000E011FFA85FEB3FBF9F809FB18300B0CE6
:1005680008FB0EFA43EA00439A4540D9EB1808F114
:10057800FF3004D29A4502D9A8F102002B44A3EB1C
:100588000A0389B2B3FBF9F809FB183308FB0EFE1E
:1005980041EA03418E452CD9691808F1FF3304D28A
:1005A8008E4502D9A8F10203294443EA0040A1EB91
:1005B8000E01A0FB02984145CE46434602D306D120
:1005C8004C4504D20138B9EB020E68EB0503002E46
:1005D800A5D0B4EB0E0261EB030101FA0CFC22FA80
:1005E80007F3F9404CEA0303C6E9003197E74046B0
:1005F800C5E74346D9E70000704700BF844641EA93
:10060800000313F0030349D1403A23D30B68036076
:100618004B6843608B688360CB68C3600B69036178
:100628004B6943618B698361CB69C3610B6A036260
:100638004B6A43628B6A8362CB6AC3620B6B036348
:100648004B6B43638B6B8363CB6BC363403040312D
:10065800403ADBD230320BD30B6803604B684360FF
:100668008B688360CB68C36010301031103AF3D2C6
:100678000C3205D351F8043B40F8043B043AF9D254
:10068800043208D0D2071CBF11F8013B00F8013B27
:1006980001D30B8803806046704700BF082A13D334
:1006A8008B07B1D010F00303AED0C3F10403D21A04
:1006B800DB071CBF11F8013B00F8013BA4D331F85C
:1006C800023B20F8023B9FE7043AD9D3013A11F8DC
:1006D800013B00F8013BF9D20B7803704B7843706B
:1006E8008B7883706046704770B4840746D0541E78
:1006F800002A41D0CDB2034602E0621EE4B314469C
:1007080003F8015B9A07F8D1032C2ED9CDB245EA3C
:1007180005250F2C45EA054519D9264603F110028F
:10072800103E0F2E42F8105C42F80C5C42F8085C50
:1007380042F8045C02F11002F2D8A4F1100222F08F
:100748000F0204F00F041032032C13440DD91E4677
:100758002246043A032A46F8045BFAD8221F22F0FC
:1007680003020432134404F003042CB1C9B21C443C
:1007780003F8011BA342FBD170BC70471446034623
:10078800C2E7000080B400AF0346064A10600020AC
:100798001860054A136843F480031360BD465DF88A
:1007A800047B704760000020EC04002080B400AF98
:1007B800094B1860002303E0002240F8232001338E
:1007C800042BF9D9054A136843F008031360002085
:1007D800BD465DF8047B704764000020EC040020EF
:1007E80080B400AF054B1A6852F820300B4442F829
:1007F80020300020BD465DF8047B7047640000206F
:1008080080B500AF0121FFF7EBFF80BD80B400AFDA
:10081800064B1B6853F820208A4201DA43F820105F
:100828000020BD465DF8047B704700BF64000020CF
:100838001F4B1B6813F0080F37D080B500AF1D4B56
:100848001B685B68002B10DC1A4B1B681B681C2B91
:1008580013DC184B1B689B68002B16DC154B1B68B8
:10086800DB68002B19DC002080BD082000F024FA8A
:10087800104B1B6800225A60E6E7092000F01CFABA
:100888000C4B1B6800221A60E3E70A2000F014FAF8
:10089800084B1B6800229A60E0E70E2000F00CFA73
:1008A800044B1B680020D860DEE70120704700BFBA
:1008B800EC0400206400002080B400AF002303E0B3
:1008C800074A1268D3540133372BF9D9044B1B68F4
:1008D80038229A630020BD465DF8047B704700BF4C
:1008E8006800002080B400AF0B4B1A68936B83B18B
:1008F8001178013B936312F803C082F800C04FF0EF
:10090800FF0C02F803C001700020BD465DF8047BAF
:1009180070470120F9E700BF6800002080B500AFEC
:10092800024B1860FFF7C8FF80BD00BF68000020B9
:1009380080B400AF8446184B1860382303601C232A
:10094800436003238360002113E001EB410302EBC2
:10095800830302330CEB8303002098600132022AE0
:10096800F3D901EB41030CEB0313002283F8202099
:100978000131372906D801EB41030CEB03130022A0
:10098800DA60ECE7054A136843F0100313600020AF
:10099800BD465DF8047B70476C000020EC04002025
:1009A800F0B583B000AF294B1B687B604FF00003A4
:1009B800274B1B6813F0100F0AD10120234B1A682C
:1009C8007B685A404FF000033ED10C37BD46F0BD5E
:1009D8000446EFF31085012383F31088F81CFFF712
:1009E80081FF80B91B4BD3F800C0FA7802EB4206AE
:1009F800360108366644043602EB42030CEB031357
:100A0800DE60014612E00120FFF7FAFE85F3108848
:100A18000120D3E702EB420301EB830302330CEB23
:100A280083034FF0000EC3F808E001310229F1D921
:100A380002EB42030CEB03130021D96183F8201069
:100A4800266085F31088B9E702F062FE30000020C6
:100A5800EC0400206C00002080B400AF114B1B6830
:100A68000C33C31A104AA2FB0323C3F34713EFF353
:100A7800108C012282F31088026872B10022026091
:100A88000A490868816B4354013181638CF31088EB
:100A98001046BD465DF8047B70478CF31088012032
:100AA800F7E700BF6C000020ABAAAAAA68000020E4
:100AB8000022372A1AD890B400AF0D4B1C6802EBFD
:100AC80042031B0108332344043302EB420C04EBBA
:100AD8000C14E468844204D00132372AEDD901208D
:100AE80001E00B600020BD4690BC704701207047B4
:100AF8006C000020F8B500AF054614460E4669B1F3
:100B080021460020FFF782FE1B2C0AD8621C3146C2
:100B180005F11400FFF772FD0020F8BD0024024E15
:100B2800EEE71C22F3E700BFE0D9000880B400AF6D
:100B38000E2844D8DFE800F0473F2B2F33373B27F8
:100B4800080F13171B1F2300204B0B600020BD4606
:100B58005DF8047B70471E4B0B600020F7E71D4BC8
:100B68000B600020F3E71C4B0B600020EFE71B4BEA
:100B78000B600020EBE71A4B0B600020E7E7194BEE
:100B88000B600020E3E7154B0B600020DFE7164BF6
:100B98000B600020DBE7154B0B600020D7E7144BF8
:100BA8000B600020D3E7134B0B600020CFE7124BFC
:100BB8000B600020CBE7114B0B600020C7E7104B00
:100BC8000B600020C3E70120C1E700BF70D3000815
:100BD80090D30008BCD30008D0D30008FCD3000889
:100BE80028D4000844D4000864D4000878D4000845
:100BF80090D40008A4D40008C0D40008D8D40008B1
:100C0800E8D4000890B583B000AF04461B4B1B68BE
:100C18007B604FF000031A4B19688B68D3B13946D3
:100C28002046FFF783FF012C24D0D4B1A31E0C2B40
:100C380017D8134B1B683968986801F067FA0020C9
:100C48000E4B1A687B685A404FF0000314D10C37DA
:100C5800BD4690BD08310B4801F0C4FC0128DED127
:100C6800EEE7074B1B6822460749986801F09EFA91
:100C78000120E5E72046E3E702F04AFD30000020C6
:100C88007000002004D50008E8D4000880B400AF44
:100C98000346074A10600020186058609860054AAB
:100CA800136843F020031360BD465DF8047B70476A
:100CB80070000020EC04002098B500AF0D4B1B68B5
:100CC80013F0200F14D00C4B1A681368411E23FA36
:100CD80001F414F0010402D00024204698BD4FF01E
:100CE800010C0CFA01F10B431360FFF78BFFF4E7DB
:100CF8000124F2E7EC04002070000020B0B500AF3A
:100D0800134B1B6813F0200F1FD0124B1B685C6835
:100D180014B100242046B0BD1A68451E0121A9401F
:100D28000A431A605860FFF76DFF0546012808D08E
:100D3800084B1B680849986801F0E8F901F018FCAD
:100D4800E8E701F015FC2C46E4E70124E2E700BFE0
:100D5800EC040020700000200CD5000880B400AF1F
:100D68000A4B186000234BB1094A136843F040034B
:100D780013600020BD465DF8047B7047034A126883
:100D8800002142F833100133EDE700BF7400002062
:100D9800EC040020F0B585B000AF2F4B1B68FB605A
:100DA8004FF0000300237B60BB602C4B1B6813F0E3
:100DB800010F44D004460D46294B1B685B680BB9EC
:100DC80001203DE0EFF31086012383F31088254BC3
:100DD8001A68136801331360234B1B683A1D0C21F2
:100DE800186800F0CBFD012826D0A4B244F4805442
:100DF8007B681C801B4B1B681A887B685A807C6840
:100E080004F05EFB606079684868184B1B685A6993
:100E1800904202D2DA680132DA604A685A618D601B
:100E2800114B186807F108030C22006800F044FE13
:100E380086F31088002003E086F3108800E0012084
:100E4800054B1A68FB685A404FF0000302D114376B
:100E5800BD46F0BD02F05CFC30000020EC04002030
:100E6800F404002074000020AC3B0020A83B0020C4
:100E78002DE9F04184B000AF304B1B68FB604FF0A8
:100E8800000300237B60BB602D4B1B6813F0010F30
:100E980046D004460E4615462A4B1B685B680BB9BC
:100EA80001203EE0EFF31088012383F31088264BDE
:100EB8001A68136801331360244B1B683A1D10210C
:100EC800186800F05BFD012827D0A4B244F4005450
:100ED8007B681C801C4B1B681A887B685A807C685E
:100EE80004F0EEFA606079684868194B1B685A6923
:100EF800904202D2DA680132DA604A685A618E603A
:100F0800CD60124B186807F108031022006800F042
:100F1800D3FD88F31088002003E088F3108800E0F0
:100F28000120064B1A68FB685A404FF0000303D1B2
:100F38001037BD46BDE8F08102F0EAFB3000002022
:100F4800EC040020F404002074000020AC3B0020D6
:100F5800A83B00202DE9F04385B000AF1D46324B79
:100F68001B68FB604FF0000300237B60BB602F4BC6
:100F78001B6813F0010F48D00446884616462C4BD0
:100F88001B685B680BB9012040E0EFF3108901236F
:100F980083F31088274B1A68136801331360264BB4
:100FA8001B683A1D1421186800F0E8FC012829D0B4
:100FB800A4B244F440547B681C801E4B1B681A88FA
:100FC8007B685A807C6804F07BFA606079684868BE
:100FD8001A4B1B685A69904202D2DA680132DA6009
:100FE8004A685A61C1F80880CE600D61124B1868D2
:100FF80007F108031422006800F05EFD89F31088E9
:10100800002003E089F3108800E00120064B1A68ED
:10101800FB685A404FF0000303D11437BD46BDE8C2
:10102800F08302F075FB00BF30000020EC040020C4
:10103800F404002074000020AC3B0020A83B0020F2
:101048002DE9F04385B000AF1D46334B1B68FB60AC
:101058004FF0000300237B60BB60304B1B6813F02C
:10106800010F4AD00446884616462D4B1B685B681C
:101078000BB9012042E0EFF31089012383F31088B4
:10108800284B1A68136801331360274B1B683A1DF5
:101098001821186800F072FC01282BD0A4B244F47F
:1010A80080447B681C801F4B1B681A887B685A80A9
:1010B8007C6804F005FA6060796848681B4B1B6817
:1010C8005A69904202D2DA680132DA604A685A6193
:1010D800C1F80880CE600D613B6B4B61124B1868FC
:1010E80007F108031822006800F0E6FC89F310886D
:1010F800002003E089F3108800E00120064B1A68FD
:10110800FB685A404FF0000303D11437BD46BDE8D1
:10111800F08302F0FDFA00BF30000020EC0400204C
:10112800F404002074000020AC3B0020A83B002001
:101138002DE9F04385B000AF05460E462F4B1B68DE
:10114800FB604FF0000300237B60BB60D41C24F0DD
:10115800030404F10803402B00D93824EFF3108965
:10116800012383F31088264B1A6813680133136030
:10117800244B1B6804F108083A1D4146186800F022
:10118800FDFB012835D02DB245EA84257B681D80FA
:101198001B4B1B681A887B685A807D6804F090F99D
:1011A800686078684168184B1B685A69914202D296
:1011B800DA680132DA6042685A61224631460830FC
:1011C800FFF71CFA0F4B186807F1080342467968C5
:1011D800006800F071FC89F310880020074B1A683A
:1011E800FB685A404FF0000306D11437BD46BDE8EE
:1011F800F08389F31088F1E702F08AFA30000020C2
:1012080074000020AC3B0020A83B00202DE9F047EB
:1012180084B000AF054688461646384A1268FA6018
:101228004FF0000200227A60BA60DC1C24F003044C
:1012380004F10C03402B00D93424314B1B6813F004
:10124800010F4DD02F4B1B685B680BB9012048E09C
:10125800EFF3108A012383F310882B4B1A68136865
:1012680001331360294B1B6804F10C093A1D4946E8
:10127800186800F083FB01282FD02DB2231D9B088E
:1012880045EA03357B681D801F4B1B681A887B68FD
:101298005A807D6804F014F96860786841681C4BCE
:1012A8001B685A69914202D2DA680132DA604268F0
:1012B8005A61C0F80880224631460C30FFF79EF983
:1012C800124B186807F108034A467968006800F06D
:1012D800F3FB8AF31088002003E08AF3108800E00B
:1012E8000120064B1A68FB685A404FF0000303D1EF
:1012F8001037BD46BDE8F08702F00AFA300000203A
:10130800EC040020F404002074000020AC3B002012
:10131800A83B00202DE9F04F85B000AF054689466F
:1013280090461E463A4B1B68FB604FF000030023B3
:101338007B60BB60BC6B033424F0030404F110032E
:10134800402B00D93024334B1B6813F0010F50D0C9
:10135800314B1B685B680BB901204BE0EFF3108B36
:10136800012383F310882D4B1A6813680133136027
:101378002B4B1B6804F1100A3A1D5146186800F0FF
:10138800FDFA012832D02DB204F108039B0845EA82
:1013980003357B681D80214B1B681A887B685A803F
:1013A8007D6804F08DF86860786841681D4B1B689B
:1013B8005A69914202D2DA680132DA6042685A61A7
:1013C800C0F80890C0F80C80224631461030FFF76C
:1013D80015F9134B186807F1080352467968006835
:1013E80000F06AFB8BF31088002003E08BF3108871
:1013F80000E00120064B1A68FB685A404FF00003D2
:1014080003D11437BD46BDE8F08F02F081F900BF63
:1014180030000020EC040020F404002074000020B8
:10142800AC3B0020A83B00202DE9F04F87B000AF6F
:1014380083460E4615467B60D7F840803C4B1B68B8
:101448007B614FF000030023FB603B617C6C03343D
:1014580024F0030404F11403402B00D92C24354B49
:101468001B6813F0010F55D0334B1B685B680BB931
:10147800012050E0EFF3108A012383F310882F4BEB
:101488001A681368013313602D4B1B6804F11409A3
:1014980007F10C024946186800F070FA012836D0A6
:1014A8000FFA8BFB04F10C039B084BEA033BFB6828
:1014B800A3F800B0214B1B681A88FB685A80D7F83C
:1014C8000CB003F0FDFFCBF80400F86841681D4B31
:1014D8001B685A69914202D2DA680132DA604268BE
:1014E8005A618660C5607B680361224641461430B4
:1014F800FFF784F8124B186807F110034A46F96899
:10150800006800F0D9FA8AF31088002003E08AF313
:10151800108800E00120064B1A687B695A404FF09A
:10152800000303D11C37BD46BDE8F08F02F0F0F888
:1015380030000020EC040020F40400207400002097
:10154800AC3B0020A83B00202DE9F04F87B000AF4E
:1015580083460E4615467B60D7F844803D4B1B6892
:101568007B614FF000030023FB603B61BC6C0334DC
:1015780024F0030404F11803402B00D92824364B27
:101588001B6813F0010F57D0344B1B685B680BB90D
:10159800012052E0EFF3108A012383F31088304BC7
:1015A8001A681368013313602E4B1B6804F118097D
:1015B80007F10C024946186800F0E0F9012838D014
:1015C8000FFA8BFB04F110039B084BEA033BFB6803
:1015D800A3F800B0224B1B681A88FB685A80D7F81A
:1015E8000CB003F06DFFCBF80400F86841681E4B9F
:1015F8001B685A69914202D2DA680132DA6042689D
:101608005A618660C5607B6803613B6C4361224612
:1016180041461830FEF7F2FF124B186807F1100325
:101628004A46F968006800F047FA8AF310880020F3
:1016380003E08AF3108800E00120064B1A687B69F2
:101648005A404FF0000303D11C37BD46BDE8F08F68
:1016580002F05EF830000020EC040020F4040020C2
:1016680074000020AC3B0020A83B00202DE9F04F7F
:1016780087B000AF83460E4615467B60D7F8488092
:101688003E4B1B687B614FF000030023FB603B610E
:10169800FC6C033424F0030404F11C03402B00D930
:1016A8002424374B1B6813F0010F59D0354B1B68A6
:1016B8005B680BB9012054E0EFF3108A012383F330
:1016C8001088314B1A681368013313602F4B1B685D
:1016D80004F11C0907F10C024946186800F04EF99C
:1016E80001283AD00FFA8BFB04F114039B084BEA4C
:1016F800033BFB68A3F800B0234B1B681A88FB6800
:101708005A80D7F80CB003F0DBFECBF80400F86879
:1017180041681F4B1B685A69914202D2DA6801324C
:10172800DA6042685A618660C5607B6803613B6C19
:1017380043617B6C8361224641461C30FEF75EFFA5
:10174800124B186807F110034A46F968006800F060
:10175800B3F98AF31088002003E08AF3108800E0C8
:101768000120064B1A687B695A404FF0000303D1E9
:101778001C37BD46BDE8F08F01F0CAFF30000020DD
:10178800EC040020F404002074000020AC3B00208E
:10179800A83B00202DE9F04F87B000AF83460E46E6
:1017A80015467B60D7F84C803F4B1B687B614FF038
:1017B80000030023FB603B613C6D033424F0030409
:1017C80004F12003402B00D92024384B1B6813F068
:1017D800010F5BD0364B1B685B680BB9012056E0E4
:1017E800EFF3108A012383F31088324B1A681368C9
:1017F80001331360304B1B6804F1200907F10C0218
:101808004946186800F0BAF801283CD00FFA8BFB5B
:1018180004F118039B084BEA033BFB68A3F800B0EC
:10182800244B1B681A88FB685A80D7F80CB003F061
:1018380047FECBF80400F8684168204B1B685A69DA
:10184800914202D2DA680132DA6042685A618660EF
:10185800C5607B6803613B6C43617B6C8361BB6CD7
:10186800C361224641462030FEF7C8FE124B186875
:1018780007F110034A46F968006800F01DF98AF379
:101888001088002003E08AF3108800E00120064B4E
:101898001A687B695A404FF0000303D11C37BD46D4
:1018A800BDE8F08F01F034FF30000020EC04002088
:1018B800F404002074000020AC3B0020A83B00206A
:1018C80080B400AF03881B0B02339B000B60002021
:1018D800BD465DF8047B704790B583B000AF044601
:1018E800154B1B687B604FF0000300233B60426888
:1018F800836881695B1A9A420CD3002343600E4BBC
:101908001A687B685A404FF0000312D100200C3748
:10191800BD4690BD806A39461044FFF7D1FF636821
:101928003A681344A268B3FBF2F102FB1133636017
:10193800E5E701F0EDFE00BF3000002080B400AF05
:101948008446C1600020CCF80000CCF80400CCF834
:101958000830CCF81430CCF82820CCF81800CCF893
:101968001C00CCF82000044A136843F0800313607D
:10197800BD465DF8047B7047EC0400202DE9F0417A
:1019880000AF04460D461646D0F80880C368012B00
:1019980016D00368426893427ED3A8EB03008118EF
:1019A80004398D4261D8A84263D9A26A1A443260C8
:1019B8002B44B3FBF8F208FB1233E361002075E017
:1019C800026843689A4226D3A8EB02038B420BD9DC
:1019D800836A1344336003680B44B3FBF8F208FBD3
:1019E8001233C361002061E02046FFF775FF63688A
:1019F800043B9D42F8D82368A8EB0303A3610020A9
:101A08002060A36A336023682B44B3FBF8F208FB19
:101A18001233E3614AE09B1A043B99421CD9A8EBB4
:101A280002028A420BD22046FFF756FF6368002B5A
:101A3800F9D0A36822689B1AA3610023236020467B
:101A4800FFF74AFF62682168531A043B9D42F6D8A3
:101A580012B9A36A0B443360A36A22681344336043
:101A680023682B44E361002020E000233360012039
:101A78001CE0AA420CD3A061A26A3260A269134496
:101A88002B44B3FBF8F208FB1233E36100200DE0AE
:101A980000233360012009E0D21A043A8A4207D3AE
:101AA800826A1A4432600B44C3610020BDE8F081A9
:101AB800002333600120F9E780B400AF05490968C5
:101AC800C9680162C16901601A600020BD465DF8FD
:101AD800047B7047A83B002080B400AF0346002079
:101AE800186058609A685A619861D861BD465DF877
:101AF800047B704780B400AF064B1860FD23036079
:101B0800054A136843F4807313600020BD465DF8EE
:101B1800047B704778000020EC04002080B588B072
:101B280004AFDFF844C0DCF800C0C7F80CC04FF0C1
:101B3800000C39607A60BB60BB6902934FF00043C8
:101B480001930097032302460021F22000F01EF9BA
:101B5800054B1A68FB685A404FF0000302D1103752
:101B6800BD4680BD01F0D4FD3000002060B180B5D5
:101B780000AF39B143689B1A43603920FFF778F901
:101B8800002080BDEA20F9E70120704790B400AF3B
:101B9800124B1860002141B1114A136843F4805375
:101BA80013600020BD4690BC70470C4B1C680B4668
:101BB80007E001EB810203EB4202002044F8220017
:101BC8000133072BF5D901EB810304EBC3044FF074
:101BD800FF332362002363620131DCE77C000020CD
:101BE800EC04002080B500AF00F0E2FC4FF4FA707E
:101BF80008F0E8F9F8E7000080B400AF48B1034600
:101C0800054A1060002018605860BD465DF8047BE6
:101C180070470120F9E700BF8000002090B585B02B
:101C280004AF164B1B681A683AB1144B1C686368FA
:101C38005BB100200437BD4690BD00934FF40033DC
:101C480011460F48FFF76AFFEFE70E4B02930E4B62
:101C58000193002300934FF480720C490C4807F05D
:101C6800D9FE6060054B1B685B680BB10020E1E79B
:101C78000620FFF743F80120DCE700BF80000020C2
:101C880034D5000884000020E400002040D5000876
:101C9800ED1B000858B198B500AF0C4649B10021BA
:101CA800216008F04BFB206028B1002098BD01207E
:101CB80070470120FAE70120F8E7000080B400AF80
:101CC800034B1B681868BD465DF8047B704700BF6E
:101CD800800000202DE9F84300AF8146884616466B
:101CE80023F00305002414B10020BDE8F88305FBA8
:101CF80004F2B01849F824002C32A5F12C03324420
:101D08004146FFF71BFE0128EFD00134EBE7B0B5E1
:101D180000AF054600240CB10020B0BD55F82400E2
:101D2800FFF7DAFE0134F6E72DE9F84300AF054680
:101D38000E469046024652F8149B0023D45C1CB110
:101D48007F2B01D80133F9E7013349460320FFF718
:101D58005DFA424649463046FFF78AF82846FEF7BC
:101D68007BFEBDE8F883000080B500AF31B10022EA
:101D78008B5C2BB17F2A03D80132F9E70249F6E7D9
:101D8800FEF7B8FE80BD00BFE0D900082DE9F04F8E
:101D980085B002AF814616461C46D7F83080D7F882
:101DA80038B03B4B1B687B604FF00003EFF3108AA1
:101DB800012383F31088B1B10D463846FEF7F0FDD4
:101DC80018B93B681D6000231FE08AF310880120C2
:101DD8002F4B1A687B685A404FF0000355D10C37D7
:101DE800BD46BDE8F08F3846FEF7DAFD012802D07F
:101DF8003B681D68E7E78AF31088E9E758F823107D
:101E08003A6802EB830251600133A342F6D33B6880
:101E18001A69796B0A431A61CBF800308AF3108883
:101E28000EB133782BB9032C2DD8DFE804F0070D59
:101E3800151F31463868FFF797FFF4E729464846EB
:101E4800FEF7A8FF2046C3E7D8F8002029464846F1
:101E5800FFF70EF80020BBE7D8F80430D8F80020C8
:101E680029464846FFF776F80020B1E7D8F8083049
:101E78000093D8F80430D8F8002029464846FFF7E0
:101E8800DFF80020A4E70120A2E701F041FC00BF31
:101E98003000002080B588B004AF7B600D4B1B6814
:101EA800FB604FF0000307F108030293002301933E
:101EB8003B1D00930123FFF769FF064B1A68FB6877
:101EC8005A404FF0000302D11037BD4680BD01F0E3
:101ED8001FFC00BF30000020F0B583B000AF0446FF
:101EE80008461646124B1B687B604FF00003EFF361
:101EF8001085012383F310883946FEF7D9FD0128A0
:101F080010D0324621463868FFF70EFF85F3108857
:101F1800074B1A687B685A404FF0000305D10C370D
:101F2800BD46F0BD85F31088F2E701F0F1FB00BF74
:101F3800300000202DE9F04182B000AF06460D4682
:101F4800174B1B687B604FF00003EFF310880123E9
:101F580083F310883946FEF7ABFD012812D02946D5
:101F68003868FFF701FF044688F310880C4B1A689D
:101F78007B685A404FF000030FD120460837BD4612
:101F8800BDE8F08104463846FEF70AFD10B93B6803
:101F98001E60E4E788F31088E8E701F0B9FB00BFAA
:101FA800300000202DE9F04387B006AF0E4690467A
:101FB8001C463D6A03F19109014638B1052C00F22F
:101FC8008980DFE804F0111A25344865424B196806
:101FD8000B681BB1404B1B681968EFE73F4800F0DE
:101FE80001FB0128F6D104E0434632464846FFF794
:101FF8000DF90437BD46BDE8F0832B681A1D2A6029
:102008001A68CDF8008033464846FFF783F9F0E7B1
:102018002868031D2B60026800F108032B604368E1
:10202800CDF8048000964846FFF7FEF9E1E72B68F3
:102038001C1D2C601A6803F1080028605B6804F115
:10204800080028606068CDF808800196009048462E
:10205800FFF77AFACDE72B6803F1040CC5F800C046
:102068001A6803F108042C605B680CF1080028600A
:10207800DCF804C004F1080028606068CDF80C8022
:1020880002960190CDF800C04846FFF7EFFAB0E796
:102098002B68181D28601A6803F1080CC5F800C0E1
:1020A8005B6800F108042C60D0F804E00C3028606C
:1020B800DCF804C004F1080028606068CDF81080DE
:1020C80003960290CDF804C0CDF800E04846FFF72B
:1020D80061FB8EE701208CE7E404002048D5000866
:1020E80080B400AF0346074A1060002018605860AB
:1020F800054A136843F400431360BD465DF8047B4A
:10210800704700BFE4040020EC0400200D4B1B685E
:1021180013F4004F13D080B582B002AF09B100228A
:1021280002E00949FBE701328B5C0BB17F2AFAD93F
:10213800002300930132FFF735FFBD4680BD012023
:10214800704700BFEC040020E0D90008154B1B685D
:1021580013F4004F24D0B0B582B002AF11B1002300
:102168009C4604E01049FAE7A4460CF1010C11F86A
:102178000C4074B1BCF17F0F0BD8252CF5D10CF1B4
:1021880001040D5D002DF0D0252DEDD00133A446BE
:10219800EBE700920CF10102FFF704FFBD46B0BD6A
:1021A80001207047EC040020E0D900080EB480B587
:1021B80083B000AF7969104B1B687B604FF0000358
:1021C8000E4B1B6813F4004F0DD101200A4B1A68FF
:1021D8007B685A404FF000030CD10C37BD46BDE870
:1021E800804003B0704707F118033B603A46FFF799
:1021F800ADFFEBE701F08CFA30000020EC04002082
:1022080080B400AF054B1860054A136843F4802377
:1022180013600020BD465DF8047B7047E804002089
:10222800EC04002080B400AF0020BD465DF8047BBC
:102238007047000080B400AF094B1B685B6853B15E
:10224800EFF31083012282F31088054A12680021F7
:10225800516083F31088BD465DF8047B704700BF6A
:10226800F404002080B400AF10F0030018BF012070
:10227800BD465DF8047B704780B582B000AF124B55
:102288001B687B604FF00003002373B104223946BA
:102298000120FEF74DFF0C4B1A687B685A404FF03F
:1022A80000030ED10837BD4680BD084A126852F8AF
:1022B800231007F1080202EB830242F8081C0133DD
:1022C800E3E701F025FA00BF30000020A03B002022
:1022D800114B1B685B68012B1DD0B0B500AF0F4BCD
:1022E8001B689A680AB90E4A9A605A6802B95A6015
:1022F800EFF31085012484F3108800F017FBFFF733
:10230800BBFF054A11680B6823440B6013685C60C7
:1023180085F31088B0BD7047F4040020A83B002066
:10232800000E27070378012B00D0704780B500AF57
:102338004378012B02D0FFF77DFF80BDFFF7C8FF70
:10234800FBE7000098B500AF484B1C680CB10020B3
:1023580098BD03F099F8464B464A136000221A606C
:102368005A602346002B7AD04348FEF7D7FA012853
:10237800EED0404B186800F557503030FEF702FA9F
:102388000128E5D03B4B186800F55750343000F071
:10239800A5F90128DCD0374B1868543000F058FAFA
:1023A8000128D5D0334B186800F557501830FEF780
:1023B800FDF90128CCD02F4B186800F557502C3068
:1023C800FFF798FB0128C3D02A4B186800F54D5039
:1023D8000430FFF715FF0128BAD0264B186800F51E
:1023E80056500430FEF7BAFC0128B1D0214B1868CA
:1023F80000F556500C30FFF773FE0128A8D01D4B8E
:10240800186800F556501430FEF740FC01289FD09C
:10241800184B186800F556502030FFF7B7FB012815
:1024280096D0144B186800F55750103000F00CF98E
:1024380001288DD00F4B186800F557500830FFF76A
:10244800DBFB012884D00B4B1B684FF0FF32DA60AE
:10245800064A136843F001031360204678E7991C85
:10246800034A002042F8210001337BE7EC040020F6
:10247800F8040020F40400200C050020002833D0C4
:1024880098B500AF044643F2F020FFF7EBFE0128B1
:1024980029D00820FFF7E6FE012824D0134B1C6042
:1024A800134B23600E23A38041F6A123E38000236E
:1024B800072B06D80F4AD25CE1180A760AB1013315
:1024C800F6E70023A3820222A2750122E275E260E8
:1024D80040F20132E2602361A360FFF7A3FE10B16E
:1024E8000823A360002098BD01207047F004002055
:1024F8000046535050D5000890B585B000AF04464B
:10250800194B1B68FB604FF0000300237B60BB6026
:10251800FFF718FF012809D0FFF780FB012805D035
:10252800022C0DD0012C12D0CCB920460E4B1A68C3
:10253800FB685A404FF0000313D11437BD4690BDD5
:102548000A4B1B685B68002BFAD00020EEE70123DA
:102558003B717B71381DFFF7E5FE0020E6E701209F
:10256800E4E701F0D5F800BF30000020F4040020B3
:1025780080B500AFFFF75EFE002080BD80B400AFDD
:102588000A4B1B685BB160B169B15433036043F215
:10259800F0230B600020BD465DF8047B70470120E6
:1025A800F9E70120F7E70120F5E700BFF404002070
:1025B80080B582B000AF00233B607B60074B1B688F
:1025C80013F0010F03D0064B1B685B681BB9002092
:1025D8000837BD4680BDFEF72BF9F8E7EC0400206C
:1025E800F4040020F0B583B000AF04460E46154B46
:1025F8001B687B604FF000033846FEF7D1F90128CD
:1026080013D0002300E001331D46E25C0AB11B2B06
:10261800F9DD2A4621463868FEF76CFA39683160D8
:102628006B1C22460320FEF7F1FD064B1A687B68F7
:102638005A404FF0000302D10C37BD46F0BD01F0FF
:1026480067F800BF3000002080B400AF0A4B186064
:102658000023002B09DD094A136843F48013136033
:102668000020BD465DF8047B7047034A12680221CA
:1026780042F823100133ECE7A03B0020EC040020D3
:1026880098B500AF124B1B6813F0010F1DD0114B0A
:102698001B685A6822B9104B1B681860012015E0A6
:1026A80001229A60EFF3108482F310880A4B1B68AA
:1026B80018600A4601463720FEF7DAFB054B1B680F
:1026C80002229A6084F3108800E0012098BD00BFC0
:1026D800EC040020F4040020A03B002080B400AFEC
:1026E800224B18600023036023B1204B1A68002393
:1026F80093601CE01D4A126802EB830200215160BE
:102708000133F1E703EB430102EBC1010020C8608C
:10271800086148618861013303EB430102EBC101A1
:10272800886003EB430102EBC10164204860042B7D
:10273800E8D900210DE00023C2F8843082F88830FF
:10274800C2F8A430C2F8A830C2F8AC30C2F8B03031
:1027580001310429EFD9064A136843F400031360D2
:102768000020BD465DF8047B704700BFA43B0020F5
:10277800EC04002080B400AF38B1054A12689060BC
:102788000020BD465DF8047B70470120F9E700BFD3
:10279800A43B0020B0B582B000AF04461A4B1B68BA
:1027A8007B604FF0000300233B6002F089FE174B6B
:1027B8001B685A69904202D2DA680132DA605861BD
:1027C800134B1B685A68851A5860B4B139462046BD
:1027D800FFF760FA012806D03B681A687AB15A6890
:1027E8002A445A600020084B1A687B685A404FF008
:1027F800000306D10837BD46B0BD0120F3E701202C
:10280800F1E700F085FF00BF30000020A83B002062
:10281800A43B002080B400AF03460B4A10600020A0
:10282800986058604FF47A7119619861D8600121F5
:10283800196013685861054A136843F4001313605C
:10284800BD465DF8047B7047A83B0020EC040020DF
:10285800002864D098B500AF0446324B1860031DB9
:10286800314A13604FF42053C0F8DC3A00F52E6269
:102878000121FFF72FFA012850D004F11400FFF7C7
:10288800FDFD01284AD004F15000FEF751F8012857
:1028980044D004F13400FFF7BDFF01283ED004F511
:1028A80040530A2283F8E0220B2283F8E1220C220B
:1028B80083F8E2220D2283F8E322712283F8E422CE
:1028C800722283F8E522732283F8E622742283F8C1
:1028D800E722F12283F8E822F22283F8E922F322A0
:1028E80083F8EA22F42283F8EB22052323720623D5
:1028F80063720723A3720823E37275232373762375
:1029080063737723A3737823E373F5232374F62380
:102918006374F723A374F823E374002098BD01209F
:10292800704700BFAC3B0020B03B002080B500AF33
:10293800024B1868FFF7EBF980BD00BFAC3B0020E5
:1029480098B500AF1446044A08F0B0FA08B9012057
:1029580098BD20600020FBE75CD5000898B500AF63
:102968001446044A08F0A2FA08B9012098BD20606C
:102978000020FBE770D50008F8B500AF00283DD06F
:102988000C46064600293FD0314D40F6344200211E
:102998002846FDF7A9FE2F4B1E602F4B1C60281DF3
:1029A80001F0C2F80446012834D02C4801F01AFC82
:1029B8000446012833D02A4800F0D8F904460128F3
:1029C80032D0284800F090FF0446012831D026482C
:1029D80000F00EFB0446012830D0244801F07AFAB2
:1029E800044601282FD001F0CDFB194B01221A60B3
:1029F800002001F003FA00242046F8BD1C491D48B8
:102A080008F042FA0124F7E71B491A4808F03CFA93
:102A18000124F1E71949174808F036FAECE7184994
:102A2800144808F031FAE7E71649124808F02CFA7A
:102A3800E2E715490F4808F027FADDE713490D4882
:102A480008F022FAD8E712490A4808F01DFAD3E735
:102A58003C3C0020383C0020343C0020E03C002076
:102A6800483E00201C400020EC3C0020E43C0020B4
:102A780084D50008B8D50008BCD50008E8D50008FA
:102A880020D600085CD6000890D60008C4D60008F6
:102A9800F8D6000880B500AF02490348FFF76CFF7D
:102AA80080BD00BF492900086529000880B400AF2F
:102AB800024B1868BD465DF8047B70473C3C00201B
:102AC80080B400AF00228271026106E0931C00EB23
:102AD800C3030021596099600132072AF6D9002200
:102AE800427280F89C200DE00D4B1B6802EB4201FE
:102AF80003EBC1030021C3F81011C3F8141183F8C4
:102B080018110132072AEFD9054B1A680023C2F8B9
:102B1800D031C0F80831BD465DF8047B704700BF6E
:102B28007048002080B400AF0020BD465DF8047BEB
:102B38007047000090B583B000AF04464820786025
:102B480028480068F8B124B34BB34FF0500C80F814
:102B580004C04FF0440C80F805C04FF0660C80F8B4
:102B680006C04FF06D0C80F807C04FF47F6CA0F8DA
:102B780008C08172082101737968C1726821817364
:102B88000261002212E01849184808F07DF9012076
:102B980025E01749154808F077F901201FE0154985
:102BA800124808F071F9012019E00132472A06D8C5
:102BB800995C04EB020C8CF854100029F5D12046DE
:102BC800FFF77EFF6D2384F80431662384F805310E
:102BD800442384F80631502384F8073100200C3749
:102BE800BD4690BD7048002030D70008B8D5000811
:102BF80068D7000898D7000880B500AF01F0FEF943
:102C0800002080BD80B500AF01F0B8F980BD80B567
:102C180000AF00F039FA002080BD80B500AF00F0A9
:102C2800FBF980BD2DE9F04F89B004AF79604C4BBA
:102C38001B68FB604FF000030023BB60494B1B6817
:102C480000287CD003F1040A0446002979D007F152
:102C58000801504600F066FE012873D0B868A04706
:102C680001286FD0002435E00136B6B204EB4402E7
:102C780003EBC202D2F81011414404EB4402D20023
:102C880002F58C72134407F108020392029301952E
:102C980000914B4632465946504600F0FDFE012849
:102CA80005D0B8687B68984701284BD0A8444E45A2
:102CB8000FD22C4B1B6804EB440203EBC202D2F880
:102CC8001451A5EB0805B5F5FA6FCDD34FF4FA65A5
:102CD800CAE70134234B1968D1F8D031A3422CD963
:102CE80004EB440301EBC303D3F8142102F1FF39C9
:102CF8001D4BA3FB0939C9F3CF1909F101091FFAC3
:102D080089F904F1010B1FFA8BFB04EB4403DB0088
:102D180003F58C7307F1080000900B4459465046A0
:102D280000F040FE0128D4D0B8687B689847012895
:102D380008D04FF000084646B9E7002002E001201D
:102D480000E00120064B1A68FB685A404FF0000368
:102D580003D11437BD46BDE8F08F00F0D9FC00BFA1
:102D68003000002070480020D34D621080B500AFBD
:102D780068B10A4908600022C0F8D0210122026027
:102D88000868074B03210430FFF7D4FE80BD0549CE
:102D9800054808F079F80120F8E700BF70480020DE
:102DA80004D80008D4D70008B8D500082DE9F8439E
:102DB80000AF80460C46164600F0E2FE30B3194BD1
:102DC8001D6835B32B6833B33EB344B323780BB9CE
:102DD80001201CE005F104094846FFF771FE0323B2
:102DE800AB72C5F8148000F083FF01280FD00023D0
:102DF80000E00133672B05D8E15CEA1882F8A010DF
:102E08000029F6D1C6F80090002000E00120BDE8B6
:102E1800F8830120FBE70120F9E70120F7E701200B
:102E2800F5E700BF70480020F8B500AF06460D462C
:102E3800144600F0A5FED8B1114B1B68D3B11A682F
:102E4800D2B1DEB15A7B072A0DD8023206EBC20294
:102E580055605A7B023206EBC20084605A7B01320D
:102E68005A73002005E0042000F072FF012000E002
:102E78000120F8BD0120FCE70120FAE70120F8E76E
:102E8800704800202DE9F04100AF05460E469046F7
:102E98001C4600F075FE80B3214B1B6883B31A688B
:102EA80082B38DB396B3B8F1000F31D094B32278C2
:102EB80092B3D3F8D021072A30D802EB420103EBB2
:102EC800C101C1F81061C1F81481002100E001318D
:102ED8000F290BD8D3F8D021605C02EB420203EB38
:102EE800C2020A4482F818010028F0D1D3F8D02190
:102EF8000132C3F8D021002000E00120BDE8F081B4
:102F08000120FBE70120F9E70120F7E70120F5E7B9
:102F18000120F3E70120F1E70120EFE70120EDE7C9
:102F280070480020B0B500AF04460D4600F028FEFA
:102F380050B10A4B1B684BB11B684BB154B15DB122
:102F48009C342C60002000E00120B0BD0120FCE78B
:102F58000120FAE70120F8E70120F6E77048002091
:102F6800F8B500AF04460E4600F00AFE60B31B4BEE
:102F78001B6863B31B6863B36CB34FF4847120465A
:102F8800FFF7D0FDC4F8080116F4807F0DD116F4C0
:102F9800007F05D012491348FFF744FE054678B173
:102FA8002046FFF78DFD01250FE00F490F48FFF779
:102FB80039FE05460028EAD12046FFF781FD04E0E6
:102FC8002046FFF77DFD00E001252846F8BD0125D4
:102FD800FBE70125F9E70125F7E700BF7048002066
:102FE800012C00080D2C0008172C0008232C0008C1
:102FF80068B198B500AF0446043001F0DDF9012846
:1030080004D0044B1C6001232360002098BD0120DC
:10301800704700BF7448002090B583B000AF184BCC
:103028001B687B604FF000030023FB70154B1B6887
:10303800F3B104461B6853B90120114B1A687B6829
:103048005A404FF0000319D10C37BD4690BD00F02F
:1030580097FD78B184B1F81C00F092FE0128ECD0FD
:10306800FB780BB90120E8E7204601F0B1F9E4E765
:103078000120E2E70120E0E70120DEE700F048FB5D
:10308800300000207448002090B583B000AF184B82
:103098001B687B604FF000030023FB70154B1B6817
:1030A800F3B104461B6853B90120114B1A687B68B9
:1030B8005A404FF0000319D10C37BD4690BD00F0BF
:1030C8005FFD78B184B1F81C00F05AFE0128ECD0FD
:1030D800FB780BB90120E8E7204601F07EF9E4E728
:1030E8000120E2E70120E0E70120DEE700F010FB25
:1030F800300000207448002080B400AFBFF34F8F29
:103108000549CA6802F4E062044B1343CB60BFF37D
:103118004F8F00BFFDE700BF00ED00E00400FA0597
:1031280080B400AFEFF3058333B9EFF3148010F0E8
:10313800020002D0012000E00020BD465DF8047BBB
:103148007047000080B584B000AF104B1B68FB606F
:103158004FF0000300237B60BB6007F10801381DB6
:10316800FFF70CFA0A4BBA6879680A480068FFF753
:1031780089FE064B1A68FB685A404FF0000302D1DB
:103188001037BD4680BD00F0C3FA00BF30000020F4
:1031980010D80008084B00202DE9F04182B000AF9C
:1031A80004468846114B1B687B604FF000030026DD
:1031B8000CE034F8023B7B800D4D0222B9182868D8
:1031C800FDF71CFA2B6802332B6001364645F0D315
:1031D800064B1A687B685A404FF0000303D1083742
:1031E800BD46BDE8F08100F093FA00BF3000002032
:1031F800E04A00202DE9F04182B000AF044688463D
:10320800114B1B687B604FF0000300260CE054F85C
:10321800043B3B600D4D042239462868FDF7EEF962
:103228002B6804332B6001364645F0D3064B1A68E9
:103238007B685A404FF0000303D10837BD46BDE80C
:10324800F08100F065FA00BF30000020E04A00205D
:103258000FB40648009901600199416002998160A4
:103268000399C160614601610FBC7047EC4A0020B8
:1032780080B400AF064B4FF0FF321A6000225A604C
:103288001A619A60DA60BD465DF8047B704700BF3A
:1032980034000020F8B500AF154B1B68154A1360C1
:1032A80003F59671516003F16043B3F5402F05D2E1
:1032B800114B994202D91346104A5A60104807F038
:1032C80077FD05460B4B1C6824F003045E6800E09C
:1032D8000434B4420AD22A460949204607F0A6FD1A
:1032E8000028F5D12C440134024B5C600148F8BD3C
:1032F8008048002000000020FFFF0B20FCFF0B206F
:103308005CD800082DE9F04385B002AF04465C4B59
:103318001B687B604FF0000300233B600168594A3B
:103328001160594A59491160594A1360594A136042
:10333800594B1B68002B7CDB574DA86800F02AFF0F
:103348000646EB68019300906B68544A8021544804
:1033580007F0ACFDD5F80090524B00221A60524B92
:103368001B6813F0010F0FD0504B1B685B685BB1F3
:103378004C4B01221A604E4B1B68002B66D0484903
:103388004B4B1868FEF7C2FE4A4D4B49284607F0DA
:103398007BFDDFF80C814146284607F075FD47495B
:1033A800284607F071FD3B4A41464846FFF7FEFCB8
:1033B80000285DD1384600F025FF364DD5F800804D
:1033C8002021386800F0FBFE024601214046FFF745
:1033D8002BFD226807212868FFF726FD2E4B1B6866
:1033E800002B38DB2C462D682021304600F0E7FE04
:1033F800024602212846FFF717FD274BDA68042109
:103408002068FFF711FD274B1B6873BB2C4929481F
:1034180007F03AFD2949274807F036FD184B1A6886
:103428007B685A404FF0000327D10C37BD46BDE8F2
:10343800F0834FF0E023D3F8283D224A8021184832
:1034480007F034FD002640F2014985E718491E4877
:10345800FFF7C8F893E74FF0E023D3F8282D0621AB
:103468000C4B1868FFF7E0FCCDE7FFF76BFECDE7E4
:103478001649104807F008FDCCE700F049F900BFED
:103488003000002080480020E04A002088480020C2
:10349800044B0020084B00203400002020D80008EE
:1034A800B43B0020E44A0020EC040020F40400208F
:1034B800E84A0020B8D500082CD8000858D80008D9
:1034C8008CD800086CD800083CD80008A8D8000898
:1034D800B0B500AF1F4B1D681F4BEB1A02FB013341
:1034E800B3F5167F16D214461C4B1A681C4B9A4229
:1034F80018D1E4B102291FD0042921D0012923D1F0
:10350800224601462846FDF779F8124A13682344F3
:10351800136006E0134B01221A601349134807F0A1
:10352800B3FCB0BD1249114807F0AEFCFEE71149E3
:103538000E4807F0A9FCF4E72146FFF72DFEF0E757
:103548002146FFF757FEECE70B49084807F09CFCBB
:10355800E7E700BFE04A002088480020244B00200D
:10356800ED55CEAC044B0020D4D80008B8D50008DF
:1035780004D9000854D9000880D9000890B583B050
:1035880000AF394B186800284CD0384B1A68384BB4
:10359800D21A384B1B68002B33DB374B3749096885
:1035A800002930D0364B1C685CB1364B1C6814F0CF
:1035B800010406D0344B1B685C6814B100225A60C1
:1035C80001244FF4E061284B1868FFF7C9FC20BBC1
:1035D800284B1B68B3F1FF3F36D0264B1B69012BE4
:1035E80022D01CB1284B1B6801225A60FFF740FE0D
:1035F80000231D4A1360224A136001200C37BD4680
:1036080090BD224BCAE71A49FFF73CFC0028C9D0F5
:103618001F49204807F038FCC4E71F491D4807F038
:1036280033FCD5E70024D3E71C491A4807F02CFCE3
:1036380000237B6002E07B6801337B607A68184B6B
:103648009A42F8DDFFF758FD1449124807F01CFCB0
:1036580000237B6002E07B6801337B607A68104B53
:103668009A42F8DDFFF748FD084B0020E04A0020A9
:103678008848002034000020A0D90008044B00200E
:10368800E44A0020EC040020F4040020ACD900082F
:10369800B8D90008B8D50008E4D9000844D800080B
:1036A8003F420F0080B500AFFFF73AFD012809D06F
:1036B800EFF30A82084B1A60002383F30A88BFF3EA
:1036C8006F8F80BDEFF30B82044B1A60002383F3E6
:1036D8000B88BFF36F8FF4E7784800207C48002000
:1036E80080B500AFFFF71CFD012806D0064B1B680C
:1036F80083F30A88BFF36F8F80BD044B1B6883F385
:103708000B88BFF36F8FF7E7784800207C480020CC
:1037180080B500AFFFF79CFD0C4B05221A600C4AE0
:103728005A600C4A9A6040F2ED12DA6001221A617E
:10373800FFF7BCF930B1FFF7B5FFFCF779FDFFF7EC
:10374800CFFFFEE7FFF794FDFBE700BF3400002042
:1037580000DA000814DA000880B400AF2020BD4663
:103768005DF8047B704700002DE9F04F87B000AF8B
:10377800786039601D467E6CD7F84890D7F850A01D
:10378800574B1B687B614FF00003564BD3F8008002
:103798000023BB60FB603B61002E00F0898014466B
:1037A80008F1040B3378002B00F08480B9F1000F86
:1037B80000F08C80FB6C002B00F08A80BAF1000FBF
:1037C80000F08880002A00F08780AA4201D90120F1
:1037D80071E007F1080000F0EDF901286BD007F15E
:1037E8000C0000F09DFA012865D007F1100000F0E8
:1037F80033FA01285FD0D12388F80430D22388F81F
:103808000530D32388F80630D42388F807304FF4DE
:103818007F63A8F808300123A8F80A307B68A8F865
:103828000C303B68A8F80E30A8F81040A8F81250E1
:10383800FB68C8F814302025A8F81850A8F81A50C2
:103848003B6CA8F81C30FB6CC8F82030254C20686D
:103858002A46B9682430FCF7D1FE20682A4639691F
:103868004430FCF7CBFE20683A6C31466430FCF7F4
:10387800C5FE3B6C03F1600520680430FA6C4946CC
:103888002844FCF7BBFEFB6C2B4422680432D11899
:1038980098F80700D05498F806304B7098F805301F
:1038A8008B7098F80430CB70CAF800B0002002E0A2
:1038B800012000E001200A4B1A687B695A404FF04A
:1038C80000030BD11C37BD46BDE8F08F0120F2E79D
:1038D8000120F0E70120EEE70120ECE7FFF718FFF1
:1038E800300000200C4B0020A0B198B500AF044672
:1038F8000B4B1860FFF730FF00F5DC73B3F5056F6D
:103908000AD800F62400B0F5056F07D80123236014
:10391800002098BD012070470120FAE70120F8E750
:103928000C4B0020B0B588B006AF1C4B1B687B6001
:103938004FF0000300233B60194B1B68EBB10446B2
:103948000D461B68DBB128B33946FFF7EBFA0128AF
:1039580016D004954FF48673039302943B68019341
:103968006823009301231A46002141F21250FFF701
:10397800FBFE012804D0002002E0012000E0012025
:10398800064B1A687B685A404FF0000304D1083789
:10399800BD46B0BD0120F3E7FFF7BAFE30000020B6
:1039A8000C4B00202DE9F04391B006AF064688463F
:1039B80015461C46D7F84890354B1B687B624FF07C
:1039C8000003242200213846FCF78EFE314B1B6889
:1039D800002B43D01B68002B42D0002E4CD0002D6A
:1039E8004CD0002C4CD02378002B4BD0B9F1000FD1
:1039F8004AD050233B7044227A706122BA70FB701F
:103A08004FF47F63BB800323BB711023FB71BD6040
:103A180000220F2A08D8A35C02F12801394401F8D2
:103A28001C3C0BB10132F4E750233B7761227A77D3
:103A38004422BA77FB77CDF810902423039302979A
:103A480001941023009301231A46414644F218605A
:103A5800FFF78AFE012804D0002002E0012000E0E0
:103A680001200B4B1A687B6A5A404FF000030DD1B6
:103A78002C37BD46BDE8F0830120F2E70120F0E7CE
:103A88000120EEE70120ECE70120EAE7FFF740FE1E
:103A9800300000200C4B002090B587B006AF104CCA
:103AA8002468B4B12468B4B1B8B1F86904907869ED
:103AB800039038690290B86901901020009048F28C
:103AC8007130FFF751FE012800D000200437BD46B1
:103AD80090BD0120FAE70120F8E70120F6E700BFD2
:103AE8000C4B002080B400AF0E4B1B688BB11B68D9
:103AF8008BB190B199B1838AC28A1344028B134463
:103B0800C269134424330B600020BD465DF8047B72
:103B180070470120F9E70120F7E70120F5E70120C8
:103B2800F3E700BF0C4B002010B390B400AF04467D
:103B3800104B18600023C0F89C300122C260037249
:103B48004272827202610C4A426080F87C3080F8CE
:103B58005C303F2B06D8094AD25CE1180A750AB1D5
:103B68000133F6E7012323600020BD4690BC70476F
:103B780001207047104B00200392287104D80008D8
:103B88000A4B1B6883B1186800B9704780B500AF4D
:103B9800FEF78CFF38B1054B1B685868044B9842F8
:103BA80014BF0020012080BD00207047104B00206A
:103BB80025271515B0B582B000AF0446234B1B6806
:103BC8007B604FF0000300233B60214B186818B35B
:103BD80002681AB36CB390F87C20BAB9827A012AC9
:103BE80029D11C4A156845B33A461F217C30A8479D
:103BF800012814D0164B1B6893F87C20FAB13A6858
:103C08001F2A1ED81344002283F87C20104B1B68FF
:103C18007C332360002002E0012000E001200B4BF0
:103C28001A687B685A404FF000030CD10837BD462C
:103C3800B0BD0120F3E70120F1E70120EFE7012003
:103C4800EDE70120EBE7FFF763FD00BF3000002040
:103C5800104B0020383C0020B0B582B000AF0446BD
:103C6800204B1B687B604FF0000300233B601E4B1A
:103C7800186848B302684AB354B390F85C20A2B9F4
:103C88001A4A156835B33A461F215C30A8470128FF
:103C980010D0154B1B6893F85C20EAB13A681F2ACC
:103CA8001CD81344002283F85C200F4B1B685C333C
:103CB800236000200B4B1A687B685A404FF00003C2
:103CC8000ED10837BD46B0BD0120F3E70120F1E76A
:103CD8000120EFE70120EDE70120EBE70120E9E70C
:103CE800FFF716FD30000020104B0020343C002068
:103CF80080B400AF094B1B685BB11A685AB1D3F89E
:103D08009C200132C3F89C200020BD465DF8047B4E
:103D180070470120F9E70120F7E700BF104B0020AA
:103D280080B400AF094B1B6853B11A6852B158B13F
:103D3800D3F89C3003600020BD465DF8047B7047D3
:103D48000120F9E70120F7E70120F5E7104B0020F3
:103D580080B400AF094B1B683BB11A683AB11A69C5
:103D6800012A09D11861002002E0012000E00120A9
:103D7800BD465DF8047B70470120F9E7104B002031
:103D880080B400AF094B1B684BB11A684AB150B1F7
:103D98005B7A03700020BD465DF8047B7047012004
:103DA800F9E70120F7E70120F5E700BF104B0020F5
:103DB80080B400AF094B1B684BB11A684AB150B1C7
:103DC8001B7A03700020BD465DF8047B7047012014
:103DD800F9E70120F7E70120F5E700BF104B0020C5
:103DE80080B400AF0368012B06D143680B60002044
:103DF800BD465DF8047B70470120F9E790B585B0B2
:103E080000AF2F4B1B68FB604FF0000300237B6063
:103E1800BB602C4B3B602C4B1B68002B46D00446E8
:103E28001B6853B90120264B1A68FB685A404FF0AB
:103E3800000343D11437BD4690BDFEF737FE002876
:103E480036D0214B1B685A68204B9A4232D0082141
:103E5800381D00F073F878B13B681A4A93421BD0BA
:103E6800012C12D03A681A4B9A4225D0164B1B687F
:103E7800164A5A600020D6E73946381DFFF7B0FFCA
:103E88000128E9D10F4B3B60E6E7A2F10752A2F502
:103E98001F126E3A9342E5D101237B600B4CBC6044
:103EA8000821381D00F02AF83C60DBE70120BAE75A
:103EB8000120B8E70020B6E70120B4E7FFF728FCA7
:103EC8003000002071521093104B00202527151543
:103ED8000392287170B180B500AF074A10600430B2
:103EE80000F080FA012804D0034B1B6801221A60F5
:103EF800002080BD01207047144B00200E4B1B682A
:103F08009BB1B0B500AF04460D461B680BB9012044
:103F1800B0BDFFF735FE50B15CB10DB90120F7E730
:103F28002946204600F065FAF2E701207047012093
:103F3800EEE70120ECE700BF144B00200E4B1B6896
:103F48009BB1B0B500AF04460D461B680BB9012004
:103F5800B0BDFFF715FE50B15CB10DB90120F7E710
:103F68002946204600F04CFAF2E70120704701206C
:103F7800EEE70120ECE700BF144B002090B583B0BA
:103F880000AF1C4B1B687B604FF000030223FB70E3
:103F9800194B1B682BB304461B6853B90120154BFA
:103FA8001A687B685A404FF0000320D10C37BD4691
:103FB80090BDFFF7E5FDB0B1BCB1F81CFFF7F8FE06
:103FC8000128ECD0F97809B90120E8E7012914BFE4
:103FD80000210121204600F01AFA0128DFD0002034
:103FE800DDE70120DBE70120D9E70120D7E7FFF76C
:103FF8008FFB00BF30000020144B002090B583B029
:1040080000AF1C4B1B687B604FF000030223FB7062
:10401800194B1B682BB304461B6853B90120154B79
:104028001A687B685A404FF0000320D10C37BD4610
:1040380090BDFFF7A5FDB0B1BCB1F81CFFF7B8FE05
:104048000128ECD0F97809B90120E8E7012914BF63
:1040580000210121204600F0E1F90128DFD00020ED
:10406800DDE70120DBE70120D9E70120D7E7FFF7EB
:104078004FFB00BF30000020144B0020B0B586B0C5
:1040880002AF0446354B1B68FB604FF0000300236A
:104098007B60BB60036A826A934242D8426A934259
:1040A80047D20093031D2E4A80212E4806F0FEFEBB
:1040B8003A462C490620FEF779FE40BB2A4B1B687E
:1040C800002B3ED02749284B1868FEF71FF8FEF74B
:1040D8004FFA07F10801381DFEF750FA234BBA686A
:1040E80079683868FEF7CEFE3D681C21201D00F077
:1040F80066F8024601212846FEF796FE4FF4E06175
:104108003868FEF72DFF08BB0120FEF7F5F9134BC1
:104118001A68FB685A404FF000031CD11037BD469F
:10412800B0BD0093031D124A80210E4806F0BEFE62
:10413800BEE70093031D0F4A80210A4806F0B6FE29
:10414800B6E709490C48FEF74DFABBE70B490C489E
:1041580006F09AFED8E7FFF7DBFA00BF3000002030
:10416800A0DA0008B43B0020184B002010D8000843
:1041780070DA0008D0DA00083CD80008E4D9000852
:10418800B8D5000880B500AF0148FEF7F3FA80BD46
:104198008540000898B500AF044606F009FE0346BE
:1041A80018B9204698BD1C44FBE7002BF9D0591ECE
:1041B800625C2F2AF7D05C2AF5D00B46F5E780B46D
:1041C80000AF50B184460023184601E01044013383
:1041D8001CF803200AB18B42F8D3BD465DF8047B76
:1041E8007047000080B400AF40B10346044A106035
:1041F80000201860BD465DF8047B70470120F9E790
:104208001C4B002050B198B500AF044606F0B2F838
:1042180030B105F047FD2060002098BD01207047AF
:104228000120FAE780B400AF4FF0000C0FE011F85E
:104238000C304340DBB283EA0313DBB2000A40EAE6
:10424800032080EAC30080EA13100CF1010C9445A6
:10425800EDD3BD465DF8047B704700002DE9F041C1
:1042680084B000AF0E461546294B1B68FB604FF023
:104278000003FFF7D7FF80460024AC422ADA335DFB
:10428800244A0A21384606F011FE234A82FB0432EA
:10429800E317C3EBE20303EB8303B4EB830F14D000
:1042A80039461E4806F0F0FD01341B4A82FB0432F1
:1042B800E317C3EBE20303EB8303B4EB830FDCD117
:1042C8001749164806F0E0FDD7E71649134806F0E7
:1042D800DBFDE5E7104A82FB0432E317C3EBE20398
:1042E80003EB8303B4EB830F0BD1094B1A68FB680C
:1042F8005A404FF0000309D140461037BD46BDE88B
:10430800F0810749054806F0BFFDEEE7FFF700FA20
:104318003000002010DB000867666666B8D5000824
:1043280068DB000818DB0008B0B582B000AF1D4B91
:104338001B687B604FF000031B4B1B681BB30446D4
:1043480018B33946FFF7CEFB01281FD03B68B3F5F9
:10435800803F01D3012019E0144D1549284606F085
:1043680093FD3A6821460020FFF778FF03460E4C7C
:10437800104A5021206806F099FD2168284606F069
:1043880083FD002002E0012000E00120054B1A68AF
:104398007B685A404FF0000302D10837BD46B0BDD4
:1043A800FFF7B6F930000020204B0020B8D50008F0
:1043B80024DB000844DB000880B400AF034B18601E
:1043C8000020BD465DF8047B704700BF204B0020ED
:1043D80080B500AFFFF7A8FF80BD80B500AFFFF73D
:1043E800A3FF80BD80B400AF0020BD465DF8047B0C
:1043F800704780B400AF0120BD465DF8047B70476C
:1044080080B400AF0120BD465DF8047B704780B4DE
:1044180000AF0120BD465DF8047B704780B400AF53
:104428000120BD465DF8047B704780B400AFC36AC5
:1044380013F0040F04D04068BD465DF8047B704754
:104448000068F9E780B400AFBD465DF8047B7047AB
:1044580098B500AF044608462160FFF7E6FFE06024
:10446800FFF7F0FF60600023A360204698BD80B48A
:1044780000AF0368D86A00F01000B0FA80F0400975
:10448800BD465DF8047B7047B0B500AF0446C5680B
:1044980005F12003C360FFF7EAFF08B16835E5605E
:1044A800E2686368DB69DB0903F004031A43E2602E
:1044B800B0BD80B400AF4FF0E023D3F8880D00F40E
:1044C800A000B0F5A00F14BF00200120BD465DF884
:1044D800047B704798B500AF0446FFF7EAFF18B1B0
:1044E800A36843F00103A36098BD80B400AF002324
:1044F8000361BD465DF8047B7047000080B400AFDF
:10450800034B044A1A60BD465DF8047B704700BF40
:10451800244B0020ED55CEAC80B400AF4FF0E02323
:10452800D3F8000D00F47020B0F5402F14BF002020
:104538000120BD465DF8047B704780B400AF036975
:104548001BB14268936902339361BD465DF8047BF1
:104558007047000080B500AF042201210148FEF732
:10456800B7FF80BD84E2000880B500AF04220121B6
:104578000830FEF7ADFF80BD80B500AF10220121E5
:104588004068FEF7A5FF80BD80B500AF0068202217
:1045980001210C30FEF79CFF80BD80B500AF40685C
:1045A800042201211030FEF793FF80BD80B500AFD3
:1045B800042201210C30FEF78BFF80BD80B500AFCF
:1045C80040680C2201211430FEF782FF80BD80B5BF
:1045D80000AF0C2201210068FEF77AFF80BDF8B514
:1045E80000AF044611E0082201212046FEF770FFC3
:1045F800656820682D1A267AB5FBF6F5FFF722FFC5
:104608002A463146FEF764FF0C341CB12368B3F127
:10461800FF3FE8D1F8BD000080B588B000AF104B6F
:104628001B68FB614FF000030E4B7B601433BB60CB
:1046380004233B734FF0FF333B617B6101233B76DF
:10464800381DFFF7CCFF064B1A68FB695A404FF03C
:10465800000302D12037BD4680BDFFF759F800BFDF
:104668003000002028ED00E080B582B000AF0F4B8D
:104678001B687B604FF000030D4B1A680D4B9A4284
:1046880009D10A4B1A687B685A404FF000030AD1D7
:104698000837BD4680BD084B3B60042201213846DF
:1046A800FEF716FFEDE7FFF733F800BF30000020F4
:1046B800244B0020ED55CEACACCE55ED90B5A3B053
:1046C80000AF0446164B1B68C7F884304FF0000350
:1046D800FFF7CDFEE8B107F14000FBF713FE616874
:1046E800402220313846FBF789FF63681B6EC7F804
:1046F8008030842201213846FEF7EAFE084B1A680A
:10470800D7F884305A404FF0000306D18C37BD46A5
:1047180090BD3846FBF7F0FDEBE7FEF7F9FF00BF69
:104728003000002090B587B000AF01462A4B1B68C7
:104738007B614FF000033846FFF78AFE3846FFF7E3
:10474800A3FE3846FFF7C6FE3846FFF7CEFE08E060
:104758003846FFF7B3FF25E0FFF786FFFEF70EFFA9
:1047680058BBFFF7CBFE07F10C00FEF7CBFDFFF7B8
:10477800F1FE3846FFF7F8FE3846FFF7FDFE3846EB
:10478800FFF702FF3846FFF708FF3846FFF70EFF2E
:104798003846FFF713FF3846FFF719FFBB6813F0D9
:1047A800010FD5D1FEF776FDFFF719FFFFF7B4FE2D
:1047B8000028D1D1FFF730FFCEE73846FFF7BDFE1E
:1047C800054B1A687B695A404FF0000302D11C3729
:1047D800BD4690BDFEF79CFF3000002080B400AFBE
:1047E800BFF34F8F0549CA6802F4E062044B1343D4
:1047F800CB60BFF34F8F00BFFDE700BF00ED00E0C7
:104808000400FA0580B400AF0248BD465DF8047B99
:10481800704700BF9FFBB392B0B500AF04468569EF
:104828004368BBB91B010C4AD15863692A460B4837
:1048380006F02AFB062D03D063680BB901336360C9
:104848000023A3600122E2606361A361204600F0B7
:10485800FBFAB0BD0249E8E788E2000878DB000807
:1048680070DB0008F8B500AF0446416859B90B0180
:10487800364AD258E368023B052B11D8DFE803F02B
:10488800591050110562324AF4E7A168314806F020
:10489800FBFA0023A3600123E360204600F0D4FA6A
:1048A800F8BD31B9294B03EB01135B68A568AB422E
:1048B80009D00023A3600122E2606361A36120465E
:1048C80000F0C2FAECE70901204B5E58A36962695F
:1048D8003146214806F0D8FA6369DBB91F4A204BF4
:1048E8003146204806F0D0FAA36913F0020F13D11D
:1048F8001A4A1D4B31461B4806F0C6FA6368013355
:1049080063605BB91B01114AD2582946114806F069
:10491800BBFACEE7154AE2E7144AEAE70C4AF4E79D
:104928004FF0FF3363610423A3612046FFF774FF50
:10493800B6E74FF0FF3363610223A3612046FFF718
:104948006BFFADE72046FFF767FFA9E788E200089D
:10495800B0DB0008C4DB0008D8DB0008B4DB0008C3
:1049680008DC000814DC00082CDC0008BCDB0008AC
:1049780080B582B000AF0C464A6882600322C260EC
:1049880002690132026100254561856100F05CFA27
:104998002168084806F078FA7D6003E000BF7B686C
:1049A80001337B607A6842F20F739A42F6D9FFF7B7
:1049B80015FF00BF3CDC000880B500AF194B1B6831
:1049C80013F0010F1ED0174B1B6813F0010F03D013
:1049D800154B1B685B684BB90120FDF78DFDE8B9E5
:1049E800124A134B1349144806F04EFA1349144857
:1049F800FDF7F8FDA0B90D4A124B0E490E4806F016
:104A080043FA80BDFDF79EFC30B9084A0E4B0949B0
:104A1800094806F039FAD6E70C4AF7E70B4AE0E707
:104A28000A4AE9E7EC040020F4040020B4DB00089B
:104A38007CDC000874DC000814DC000834900020DA
:104A48008CDC000898DC000860DC0008BCDB00088F
:104A580080B400AF024B1868BD465DF8047B704710
:104A6800349000202DE9F0418EB002AF634B1B68F3
:104A7800FB624FF00003624B07F11C040FCB07C425
:104A88002370384600F0B2F9D0B17968012924D9E9
:104A98005C4806F0F9F9FFF7B5FE00F02DFA384644
:104AA80000F0A4F93A685849584806F0EDF9FB684F
:104AB800082B1CD03846FFF7D5FEFFF77DFF49E0ED
:104AC800FFF7A0FE00F018FA384600F08FF93A68B0
:104AD8004D494E4806F0D8F9E9E73B690193009142
:104AE800FB683A6848494A4806F0CEF9DFE73A6871
:104AF8004549484806F0C8F9002005F003F8D9E709
:104B080041463846FFF734FF434C7B6801337B60EE
:104B18000623FB603B6901333B61384600F094F99A
:104B2800224629463D4806F0AFF9284600F00CFB1E
:104B3800024629463A4806F0A7F90023BB6001223D
:104B4800FA607B61BB61384600F07EF94FF49670DD
:104B580005F038FA7C68002C34D12301314A02EB85
:104B68000418D558224629462F4806F08DF998F89A
:104B78000860012EC4D0FFF76BFF2A4B03EB041328
:104B88005C6822462949FDF711FBBC6000237B6164
:104B9800BB61B31EDBB2012B03D8022EB4D0244C68
:104BA800B3E70223FB60384600F04EF9284600F0D0
:104BB800CBFA024629461F4806F066F97B6801339E
:104BC8007B60BAE70823FB600024BC60384600F02D
:104BD8003BF93A680C490F4806F056F9204604F0AC
:104BE80091FF064B1A68FB6A5A404FF0000303D145
:104BF8003037BD46BDE8F081FEF78AFD3000002061
:104C08005CD80008E4DC0008C0DC0008C8DC000848
:104C180014DD000844DD0008B4DC000884DD000869
:104C2800A0DD000888E2000864DD000878DD0008DF
:104C3800B8DC0008D4DD000880B584B004AF1C4897
:104C480006F022F900F086FAFDF77CFBE0B9FDF7E3
:104C580021FF00BB0120FDF74FFC00BB00F0CAFAA2
:104C6800144B0293144B01930323009300234FF436
:104C780080521249124804F0CDFEA0B104F0C4FFDE
:104C8800104806F001F902E00F4806F0FDF84FF071
:104C9800FF30BD4680BD0D4806F0F6F8F7E70C4832
:104CA80006F0F2F8F3E70B4806F0EEF8EFE700BF7E
:104CB800ECDD0008D48F0020D44F0020A4DE0008CB
:104CC8006D4A0008D4DE00082CDE000858DE000813
:104CD80080DE0008B0DE000890B589B000AF044659
:104CE8000F4B1B68FB614FF00003384600F07EF85D
:104CF80048B1FB68082B06D07C61BB610723FB60C9
:104D0800384600F0A1F8064B1A68FB695A404FF084
:104D1800000302D12437BD4690BDFEF7F9FC00BF61
:104D28003000002080B400AF0368426853408268B6
:104D38005340C268534002695340426953408269F4
:104D48005340C2695340026A5340426A5340034881
:104D58005840BD465DF8047B704700BFE5713CA92B
:104D680080B400AF0D4B1A6802605A6842609A68B6
:104D78008260DA68C2601A6902615A6942619A6996
:104D88008261DA69C2611A6A02625A6A42629B6A7D
:104D98008362BD465DF8047B704700BF90A0022087
:104DA80098B500AF02680F4B9A4212D14368022BA4
:104DB80011D182680C4B9A420FD18369013B072BB2
:104DC8000DD8846AFFF7AEFF844214BF002001208B
:104DD80000E0002098BD0020FCE70020FAE7002052
:104DE800F8E700BF4D465444D0BDE5D6B0B58CB009
:104DF80000AF0446134B1B68FB624FF000033846B4
:104E0800FFF7AEFF3846FFF7CBFF034668B1FA68F5
:104E180022603A6962607A69A260BA69E260FA69F6
:104E280022613A6A62617A6AA261064A1168FA6A7C
:104E380051404FF0000203D118463037BD46B0BD8F
:104E4800FEF766FC30000020B0B58CB000AF044619
:104E5800254B1B68FB624FF000032C2200213846CB
:104E6800FBF742FC214B3B6002237B60204BBB607D
:104E78002368FB6063683B61A3687B61E368BB618F
:104E88002369FB6163693B62A3697B623846FFF76C
:104E980049FFB862EFF3108272B6164B002199628F
:104EA8003968196079685960B9689960F968D96092
:104EB8003969196179695961B9699961F969D9617A
:104EC800396A1962796A5962B96A996202B962B62D
:104ED800054B1A68FB6A5A404FF0000302D130377D
:104EE800BD46B0BDFEF714FC300000204D465444CA
:104EF800D0BDE5D690A0022080B588B000AF0F4B9A
:104F08001B68FB614FF0000300223A607A60BA60C8
:104F1800FA603A617A61BA6138600122FA6038460B
:104F2800FFF792FF054B1A68FB695A404FF00003E0
:104F380002D12037BD4680BDFEF7EAFB30000020D5
:104F480090B589B000AF0446104B1B68FB614FF069
:104F580000033846FFF74AFF28B1FB68032B02D14C
:104F6800BB68A34209D0094B1A68FB695A404FF045
:104F7800000308D12437BD4690BD0423FB603846A2
:104F8800FFF762FFEFE7FEF7C3FB00BF300000202A
:104F9800F0B589B000AF06460D461446114B1B68A4
:104FA800FB614FF000033846FFF720FF28B1FB688C
:104FB800042B02D1BB68B34209D00A4B1A68FB69BB
:104FC8005A404FF000030AD12437BD46F0BD7D6139
:104FD800BC610523FB603846FFF736FFEDE7FEF7B7
:104FE80097FB00BF3000002090B583B000AFBC69CC
:104FF8000144114419442144FB6919443960504063
:1050080060407860FEF724F9104B40F2F5321A60E0
:105018000F4A5A600F4A9A601C22DA6000221A610D
:10502800FDF744FD70B1FEF73DFBFBF701F9FEF714
:1050380057FB3B687A685340074A136010680C377F
:10504800BD4690BDFEF714F9F3E700BF3400002019
:1050580008DF000814DF0008389000202DE9F0412F
:1050680084B002AF04460D46164698460A237B6074
:10507800FFF7EEFC0B49FDF749F87B6A01933B6AA1
:1050880000934346324629462046FFF7ADFF79682C
:10509800054A13684B4013607B6818440837BD46BF
:1050A800BDE8F0815CDF0008389000202DE9F04170
:1050B80084B002AF04460D461646984664237B60CA
:1050C800FFF7C6FC0B49FDF721F87B6A01933B6AA1
:1050D80000934346324629462046FFF7BFFF7968CA
:1050E800054A13680B4413607B6858400837BD466F
:1050F800BDE8F0817CDF00083890002080B582B0E0
:1051080002AFFFF7A5FC01220C49FDF74FF8FFF7A6
:105118009FFC06220A49FDF749F806230193052357
:1051280000930423032202210120FFF7BFFF054A51
:10513800136843401360BD4680BD00BFA0DF000870
:10514800B4DF00083890002080B500AFFFF7D6FF25
:10515800002080BDB0B588B000AF224B1B68FB6152
:105168004FF000033846FFF741FE38B1FB68032BC8
:1051780004D1BA6840F2F2339A4209D0194B1A683E
:10518800FB695A404FF000032AD12037BD46B0BD15
:105198001846FFF7D5FEEFF30584EFF31485FEF705
:1051A80057F8114B40F2F2321A60104A5A60104A0E
:1051B8009A601522DA6001221A61FDF777FC60B166
:1051C800FEF770FAFBF734F8FEF78AFA2A4621460A
:1051D80040F2F230FFF7DCFED0E7FEF749F8F5E7DA
:1051E800FEF796FA3000002034000020C8DF0008DF
:1051F800D4DF0008B0B588B000AF254B1B68FB6151
:105208004FF000033846FFF7F1FD38B1FB68032B78
:1052180004D1BA6840F2ED339A4209D01C4B1A689F
:10522800FB695A404FF000032FD12037BD46B0BD6F
:105238001846FFF785FEEFF30584EFF314852A4639
:105248002146144805F020FEFEF702F8124B40F202
:10525800ED321A60114A5A60114A9A602A22DA60BD
:1052680000221A61FDF722FC60B1FEF71BFAFAF77B
:10527800DFFFFEF735FA2A46214640F2ED30FFF708
:1052880087FECBE7FDF7F4FFF5E7FEF741FA00BF2D
:105298003000002018E000083400002048E0000832
:1052A800D4DF000898B500AFEFF30583124C2360F4
:1052B800FFF7CEFB22681149FCF778FFFDF7C8FF1E
:1052C8000F4B40F2EE321A600E4A5A600E4A9A604C
:1052D8003722DA6000221A61FDF7E8FB48B1FEF7D1
:1052E800E1F9FAF7A5FFFEF7FBF9084B01221A705E
:1052F80098BDFDF7BDFFF8E74090002054E0000896
:105308003400002070E00008D4DF00083C90002042
:1053180080B500AF00F0A0F800F0A6F9FFF78CFC0C
:1053280080BD000080B400AFBFF34F8F0549CA6845
:1053380002F4E062044B1343CB60BFF34F8F00BF0E
:10534800FDE700BF00ED00E00400FA0580B5A0B05D
:1053580000AF2A4B1B68FB674FF000030021796000
:10536800B960F96039617961B961602207F11C009F
:10537800FBF7BAF94FF4403000F0BEFB002832D1F9
:105388001023FB610121B963FB6300223A64022305
:105398007B65B9654FF4005139660321F9650F2122
:1053A8007966BB66FB663B670C237B67BA6707F1C8
:1053B8001C0000F0D7FEC8B91F237B600321B96029
:1053C8000023FB603B617B61BB61381D00F028FD59
:1053D80078B90A4B1A68FB6F5A404FF000030BD19B
:1053E8008037BD4680BD4FF0FF30F2E74FF0FF3009
:1053F800EFE74FF0FF30ECE7FEF78AF930000020C6
:1054080080B400AF0020BD465DF8047B7047000003
:1054180080B582B000AF0F4BD3F8942042F004025D
:10542800C3F89420D3F8942002F004023A603A6852
:10543800D3F8A82042F00202C3F8A820D3F8A83075
:1054480003F002037B607B6800F0B6FB0837BD46BB
:1054580080BD00BF000C024680B500AF00F080F9A7
:10546800FFF774FF00B1FEE7002000F021FB00F019
:1054780035FB044B4FF000629A60BFF34F8FBFF3C8
:105488006F8F80BD00ED00E080B400AF0A4AD2F80B
:10549800FC3043F08073C2F8FC30084B00225A609D
:1054A8001A6842F001021A60BFF34F8FBFF36F8F83
:1054B800BD465DF8047B704700ED00E0001000E099
:1054C80080B400AF024B5868BD465DF8047B704756
:1054D800001000E080B400AF054B0360054B0B6083
:1054E8004FF480731360BD465DF8047B704700BFBE
:1054F800A49C0020A498002080B400AF054B036052
:10550800054B0B604FF400731360BD465DF8047BD8
:10551800704700BF449800204490002080B500AF39
:10552800044805F0B1FC0520FFF7D6FB05F0F6FAB4
:10553800FFF7F8FE7CE0000880B500AF0A46014698
:10554800044805F0A1FC0120FFF7C6FB05F0E6FAC8
:10555800FFF7E8FE9CE0000880B582B000AF0C4B76
:105568001B687B604FF00003F8704FF0FF33012297
:10557800F91C084803F06BFC054B1A687B685A4015
:105588004FF0000302D10837BD4680BDFEF7C0F8D2
:1055980030000020049D002098B500AF0446FFF7B6
:1055A800DBFF204698BD000090B5BDB000AF0446B3
:1055B800294B1B68C7F8EC304FF000030021F96055
:1055C80039617961B961F961C82207F12000FBF7F7
:1055D8008BF82268214B9A420AD01F4B1A68D7F8D9
:1055E800EC305A404FF0000333D1F437BD4690BD3C
:1055F80001220023C7E9082307F1200001F01AFC63
:10560800174BD3F8A42042F48042C3F8A420D3F85F
:10561800A42002F480427A607A68D3F88C2042F0A1
:105628000102C3F88C20D3F88C3003F00103BB606F
:10563800BB684FF4C063FB6002233B6100227A61C0
:10564800BB610723FB6107F10C01064800F012F962
:10565800C3E7FEF75DF800BF3000002000380140C6
:10566800000C02460000024280B500AF0D480E4B08
:1056780003604FF4E123436000238360C360036148
:105688000C2242618361C36103624362836203F057
:10569800B2FC00B1FEE7034803F0DFFC0028F9D1B3
:1056A80080BD00BF049D002000380140FAF704BE09
:1056B80080B500AFFFF7F6FD80BD0000DFF834D0FD
:1056C80000F026F8002103E00B4B5B5843500431EF
:1056D8000A480B4B42189A42F6D30A4A02E00023C2
:1056E80042F8043B084B9A42F9D305F08FFBFFF7C9
:1056F8000FFEFEE700000C20D8E60008000000209E
:10570800600000206000002090A00220FEE700005A
:1057180080B400AF1048D0F8883043F47003C0F864
:1057280088300E4B01221A600022DA611A625A622E
:10573800196821F0A85121F4102119609A6219689A
:1057480021F4802119601A654FF000638360BD461B
:105758005DF8047B704700BF00ED00E0000C0246D6
:1057680098B500AF032000F029F800F097FA0B4B2A
:105778001B6A03F00F030A4AD35CD840094B186030
:10578800042000F033F80020FFF73AFE10B101249E
:10579800204698BD0446FFF73BFEF9E7000C024699
:1057A800E4E200085800002080B400AF024B1868FB
:1057B800BD465DF8047B70478C9D002080B400AF27
:1057C800094AD36823F4E0631B041B0C000200F4AD
:1057D800E060034343F0BF6343F40033D360BD4646
:1057E8005DF8047B704700BF00ED00E080B400AFB7
:1057F80004280AD8DFE800F00D1B2B0903004FF03E
:10580800E022136943F004031361BD465DF8047B8D
:1058180070474FF0E022136923F004031361144A20
:10582800D2F8E03023F44003C2F8E030EDE74FF05F
:10583800E022136923F0040313610D4AD2F8E03023
:1058480023F4400343F48003C2F8E030DDE74FF06F
:10585800E022136923F004031361054AD2F8E0300B
:1058680023F4400343F40003C2F8E030CDE700BF5F
:10587800000C02462DE9F04100AF04460023E6E0A3
:10588800056825EA0C054C6804F001049C402C438B
:105898000460834D55F8334005EBC3056D684FEA46
:1058A800D50C0CF1080C54F82C6005F0070E4FEAE3
:1058B8008E0E4FF00F0808FA0EF826EA08080B2695
:1058C80006FA0EF646EA080644F82C6026684FEAFF
:1058D800450E4FF0030C0CFA0EFC26EA0C0C0226BF
:1058E80006FA0EF646EA0C06266026E0DE080836BA
:1058F80050F8265003F0070C4FEA8C0C4FF00F0EAF
:105908000EFA0CFE25EA0E0E0D6905F00F0505FAD4
:105918000CF545EA0E0540F8265026684FEA430C78
:10592800032505FA0CF526EA05064D6805F003057A
:1059380005FA0CF5354325601D464E6806F1FF3C17
:10594800BCF1010F03D9112E01D0122E1CD1A6686B
:105958004FEA450E4FF0030C0CFA0EFC26EA0C0C2D
:10596800CE6806FA0EF646EA0C06A66066684FF0A0
:10597800010C0CFA05FC26EA0C0C4E68C6F300165E
:10598800AE4046EA0C0666604E68032E0CD0E66808
:105998006D004FF0030C0CFA05FC26EA0C0C8E681F
:1059A800AE4046EA0C06E6604D6815F0805F4DD0C3
:1059B8009E08DFF8F4E018365EF8265003F0030C72
:1059C8004FEACC0C4FF00F0808FA0CF825EA080843
:1059D800344D05EA902505FA0CF545EA08054EF818
:1059E8002650DEF800606FEA020E26EA020C4D68C7
:1059F80015F4801F01D042EA060C2B4EC6F800C0F1
:105A080076680EEA060C4D6815F4001F01D042EACC
:105A1800060C254EC6F804C0D6F884600EEA060CBB
:105A28004D6815F4003F01D042EA060C1E4EC6F838
:105A380084C0D6F880600EEA060C4D6815F4803FE5
:105A480001D042EA060C184AC2F880C001330A683D
:105A580032FA03F522D04FF0010C0CFA03FC1CEAD1
:105A68000202F3D0114DA8423FF40AAF4D68022D4F
:105A78003FF43CAF122D3FF439AF26684FEA430E8E
:105A88004FF0030C0CFA0EFC26EA0C0605F0030591
:105A980005FA0EF5354325601D464EE7BDE8F08151
:105AA800F4E200087F7F2F00002002460000024633
:105AB80080B400AF084B1B6813F0010F0AD1064AE7
:105AC800136823F00403034313600020BD465DF808
