:020000040800F2
:1000000000000C20F5780008C1020008C1020008B9
:10001000C1020008C1020008C1020008E37800081C
:10002000000000000000000000000000E1EE0008F9
:10003000457900080000000081EE00082DEB000863
:100040004579000845790008457900084579000898
:100050004579000845790008457900084579000888
:10006000457900084579000845790008E7780008D7
:100070004579000845790008457900084579000868
:100080004579000845790008457900084579000858
:100090004579000845790008457900084579000848
:1000A0004579000845790008457900084579000838
:1000B0004579000845790008457900084579000828
:1000C0004579000845790008457900084579000818
:1000D0004579000845790008457900084579000808
:1000E00045790008457900084579000845790008F8
:1000F00045790008457900084579000845790008E8
:1001000045790008457900084579000845790008D7
:1001100045790008457900084579000845790008C7
:1001200045790008457900084579000845790008B7
:1001300045790008457900084579000845790008A7
:100140004579000845790008457900084579000897
:100150004579000845790008457900084579000887
:100160004579000845790008457900084579000877
:100170004579000845790008457900084579000867
:100180004579000845790008457900084579000857
:100190004579000845790008457900084579000847
:1001A0004579000845790008457900084579000837
:1001B0004579000845790008457900084579000827
:1001C0004579000845790008457900084579000817
:1001D0004579000845790008457900084579000807
:1001E00045790008457900084579000845790008F7
:1001F00045790008457900084579000845790008E7
:1002000045790008457900084579000845790008D6
:1002100045790008457900084579000845790008C6
:1002200045790008457900084579000845790008B6
:0802300045790008457900083A
:1002380088B01E4801680091416801918168029167
:10024800C168039101690491CDF814E07146A1F1E8
:10025800040121F001010691EFF3038141F080715F
:1002680007911349C1F800D0EFF3038343F080737B
:10027800EFF30982EFF30881DFF8380085462DE9AE
:10028800FE4FEFF31481C1F340014FF6B872CFF679
:10029800FF7242EA81020B92684605F0A3FE0CB099
:1002A8000349096848698D4608B00047944800200A
:1002B80090480020384F00202DE9005004F0E8FC59
:1002C800BDE80050EFF30383EFF30982EFF30881F1
:1002D800DFF820D02DE9FE4F684605F083FEBDE823
:1002E800FE4F8D462DE9005004F000FDBDE800509A
:1002F80070470000384F0020F1EE101AA0EC200AD9
:1003080001607047A0EC108A704700BF53B94AB922
:10031800002908BF00281CBF4FF0FF314FF0FF3005
:1003280000F06AB9ADF1080C6DE904CE00F006F8EA
:10033800DDF804E0DDE9022304B070472DE9F04759
:100348008C468E46089E154604461946002B40F0FA
:10035800D080724547D9B2FA82F74FB1C7F120036E
:100368000EFA07FCBD40BC4020FA03F343EA0C0C2C
:100378004FEA154EA8B2230CBCFBFEF80EFB18CCB6
:1003880008FB00F943EA0C43994528D9EB1808F112
:10039800FF3204D2994502D9A8F102022B44A3EBFB
:1003A8000903A4B2B3FBFEFC0EFB1C330CFB00F0EC
:1003B80044EA0344A04214D92C190CF1FF3304D2A7
:1003C800A04202D9ACF102032C44241A43EA0240A9
:1003D8001EB1FC40002334607360BDE8F0874246DC
:1003E800DDE76346F1E7002A79D0B2FA82F3002B01
:1003F8003FD01946C1F1200302FA01F500FA01F4D1
:100408002EFA03F20EFA01FE20FA03F3AFB243EA22
:100418000E034FEA154EB2FBFEFC0EFB1C201A0C15
:100428000CFB07F842EA004290455AD9AA180CF189
:10043800FF3004D2904502D9ACF102002A44A2EB65
:1004480008029BB2B2FBFEFC0EFB1C220CFB07F75A
:1004580043EA02439F4246D9EB180CF1FF3204D21B
:100468009F4202D9ACF102022B44DB1B42EA004254
:1004780002E0AEEB020301224FEA154EAFB2200CA8
:10048800B3FBFEFC0EFB1C330CFB07F840EA0343EE
:1004980098452AD9EB180CF1FF3004D2984502D9B7
:1004A800ACF102002B44A3EB0803A4B2B3FBFEFC9F
:1004B8000EFB1C330CFB07F744EA0344A74216D98A
:1004C8002C190CF1FF3304D2A74202D9ACF1020374
:1004D8002C44E41B43EA00400F46114678E71F21ED
:1004E80088E76046ABE76246BFE76046DBE76346FE
:1004F800EFE7734506D916B9002108466DE7C6E946
:10050800000EF9E7B3FA83F787B9734501D382423E
:1005180007D8841A6EEB030301209C461EB90021FC
:100528005BE73846FAE7C6E9004CF8E7C7F1200C64
:10053800BB4000FA07F422FA0CF520FA0CF1BA4095
:100548001D432EFA0CF30EFA07FE4FEA154941EA4D
:100558000E011FFA85FEB3FBF9F809FB18300B0CE6
:1005680008FB0EFA43EA00439A4540D9EB1808F114
:10057800FF3004D29A4502D9A8F102002B44A3EB1C
:100588000A0389B2B3FBF9F809FB183308FB0EFE1E
:1005980041EA03418E452CD9691808F1FF3304D28A
:1005A8008E4502D9A8F10203294443EA0040A1EB91
:1005B8000E01A0FB02984145CE46434602D306D120
:1005C8004C4504D20138B9EB020E68EB0503002E46
:1005D800A5D0B4EB0E0261EB030101FA0CFC22FA80
:1005E80007F3F9404CEA0303C6E9003197E74046B0
:1005F800C5E74346D9E70000704700BF844641EA93
:10060800000313F0030349D1403A23D30B68036076
:100618004B6843608B688360CB68C3600B69036178
:100628004B6943618B698361CB69C3610B6A036260
:100638004B6A43628B6A8362CB6AC3620B6B036348
:100648004B6B43638B6B8363CB6BC363403040312D
:10065800403ADBD230320BD30B6803604B684360FF
:100668008B688360CB68C36010301031103AF3D2C6
:100678000C3205D351F8043B40F8043B043AF9D254
:10068800043208D0D2071CBF11F8013B00F8013B27
:1006980001D30B8803806046704700BF082A13D334
:1006A8008B07B1D010F00303AED0C3F10403D21A04
:1006B800DB071CBF11F8013B00F8013BA4D331F85C
:1006C800023B20F8023B9FE7043AD9D3013A11F8DC
:1006D800013B00F8013BF9D20B7803704B7843706B
:1006E8008B7883706046704770B4840746D0541E78
:1006F800002A41D0CDB2034602E0621EE4B314469C
:1007080003F8015B9A07F8D1032C2ED9CDB245EA3C
:1007180005250F2C45EA054519D9264603F110028F
:10072800103E0F2E42F8105C42F80C5C42F8085C50
:1007380042F8045C02F11002F2D8A4F1100222F08F
:100748000F0204F00F041032032C13440DD91E4677
:100758002246043A032A46F8045BFAD8221F22F0FC
:1007680003020432134404F003042CB1C9B21C443C
:1007780003F8011BA342FBD170BC70471446034623
:10078800C2E7000080B483B000AF7860094A7B6894
:100798001360084B1B6800221A60074B1B6843F460
:1007A8008003054A1360002318460C37BD465DF8E0
:1007B800047B704770000020AC3B002080B485B0FB
:1007C80000AF78600F4A7B6813600023FB6008E085
:1007D8000C4B1B68FA68002143F82210FB680133B0
:1007E800FB60FB68042BF3D9074B1B6843F0080335
:1007F800054A1360002318461437BD465DF8047B8C
:10080800704700BF74000020AC3B002080B483B068
:1008180000AF03463960FB71094B1B68FA7953F83E
:100828002200074B1B68FA793968014443F8221003
:10083800002318460C37BD465DF8047B704700BF9F
:100848007400002080B582B000AF0346FB71FB79CD
:1008580001211846FFF7DAFF034618460837BD4658
:1008680080BD000080B483B000AF03463960FB71DF
:100878000A4B1B68FA7953F822303A689A4205DD28
:10088800064B1B68FA79396843F82210002318468A
:100898000C37BD465DF8047B704700BF740000202C
:1008A80080B500AF1D4B1B6803F00803002B01D176
:1008B800012330E01A4B1B685B68002B06DD08201B
:1008C80000F01EFA164B1B6800225A60144B1B6876
:1008D8001B681C2B06DD092000F012FA104B1B6860
:1008E80000221A600E4B1B689B68002B06DD0A204D
:1008F80000F006FA0A4B1B6800229A60084B1B6836
:10090800DB68002B06DD0E2000F0FAF9044B1B68AB
:100918000022DA600023184680BD00BFAC3B0020EF
:100928007400002080B582B000AF7860044A7B680C
:10093800136000F06FF9034618460837BD4680BDBE
:100948007C00002080B485B000AF7860284A7B68BE
:100958001360274B1B6838221A60254B1B681C2222
:100968005A60234B1B6803229A600023BB602FE068
:100978001F4B1968BA6813465B0013441B010B44EC
:100988000C3300221A600023FB6010E0184B196832
:10099800BA6813465B0013449B00FA681344023399
:1009A8009B000B4400229A60FB680133FB60FB68E4
:1009B800022BEBD90E4B1968BA6813465B00134437
:1009C8001B010B44203300221A70BB680133BB6043
:1009D800BB68372BCCD9074B1B6843F01003054A7B
:1009E8001360002318461437BD465DF8047B704732
:1009F80078000020AC3B002080B58CB000AF786058
:100A0800324B1B68FB624FF00003314B1B6803F04D
:100A18001003002B01D101234BE0EFF310833B625D
:100A28003B6A7B610123FB61FB6983F3108800BF8C
:100A380007F10F03184600F00FF90346002B0AD000
:100A48000120FFF7FFFE7B697B627B6A83F31088D6
:100A580000BF01232DE01F4B1A68FB7B19460B468C
:100A68005B000B441B01083313440433BB61BB69AF
:100A7800BA691A6000233B6108E0BA693B699B00C8
:100A8800134400225A603B6901333B613B69022BE6
:100A9800F3D9BB6900221A61BB6900221A757B6809
:100AA800BA691A607B69BB62BB6A83F3108800BFAE
:100AB8000023064A1168FA6A51404FF0000201D03B
:100AC80004F09EF818463037BD4680BD1800002057
:100AD800AC3B00207800002080B489B000AF78607B
:100AE8007B681E4A12680C329B1A1D4AA2FB03231C
:100AF8005B09FB72EFF310837B617B69FB60012369
:100B08003B613B6983F3108800BF7B681B68002B3F
:100B180007D1FB68BB61BB6983F3108800BF012361
:100B280015E07B6800221A600E4B1A680D4B1B6893
:100B38009B6BF97AD1540B4B1B689A6B01329A6301
:100B4800FB68FB61FB6983F3108800BF002318462C
:100B58002437BD465DF8047B704700BF780000204D
:100B6800ABAAAAAA7C00002080B485B000AF786048
:100B780039600023BB6017E0104B1968BA68134648
:100B88005B0013441B0108330B440433FB60FB6810
:100B98001B687A689A4204D13B68FA681A60002395
:100BA80006E0BB680133BB60BB68372BE4D901237F
:100BB80018461437BD465DF8047B7047780000205E
:100BC80080B584B000AFF860B9607A60BB68002B6C
:100BD80003D10F4BBB6000237B607B681946002064
:100BE800FFF740FE7B681B2B02D91C237B6002E0C9
:100BF8007B6801337B60FB6814337A68B9681846F0
:100C0800FFF7FCFC002318461037BD4680BD00BF27
:100C1800F017010880B483B000AF00237B600AE0BE
:100C28000C4B1A687B68D9B27B6813440A461A7061
:100C38007B6801337B607B68372BF1D9054B1B68D8
:100C480038229A63002318460C37BD465DF8047BAA
:100C5800704700BF7C00002080B485B000AF78608A
:100C6800144B1B689B6B002B01D101231CE0114B1B
:100C78001B681B78FB730F4B1B689A6B013A9A63CE
:100C88000C4B19680B4B1B689A6B0A4B1B688A5CE8
:100C98001A70084B1A68074B1B689B6BFF21D154CD
:100CA8007B68FA7B1A70002318461437BD465DF836
:100CB800047B70477C00002080B483B000AF78606C
:100CC8000D4A7B6813600C4B1B6800221A600A4BA4
:100CD8001B6800225A60084B1B6800229A60074B69
:100CE8001B6843F02003054A1360002318460C379D
:100CF800BD465DF8047B704780000020AC3B0020B7
:100D080080B582B000AF7860124B1B6803F02003F7
:100D1800002B01D1012319E00F4B1B681A687B686F
:100D2800013B22FA03F303F00103002B0DD10A4B18
:100D38001B6819687B68013B01229A40064B1B68B7
:100D48000A431A60786800F047F800231846083705
:100D5800BD4680BDAC3B00208000002080B582B03D
:100D680000AF7860194B1B6803F02003002B01D1FA
:100D7800012327E0164B1B685B68002B21D1144B1D
:100D88001B6819687B68013B01229A40104B1B685D
:100D98000A431A600E4B1B687A685A60786800F03C
:100DA8001BF80346012B03D102F094F9012309E053
:100DB800074B1B689B680749184601F0F1FD02F0D4
:100DC80089F9002318460837BD4680BDAC3B002092
:100DD80080000020F417010880B584B000AF786067
:100DE800244B1B68FB604FF00003234B1B689B6878
:100DF800002B0BD1204B1B68083319461F4802F003
:100E080001FB0346012B01D1012325E007F108036B
:100E18001946786800F036F87B68012B11D07B689A
:100E2800002B10D07B68023B0C2B0CD8124B1B6894
:100E38009B68BA681146184601F0B2FD00BF00234E
:100E48000AE0012308E00C4B1B689B687A680C4990
:100E5800184601F0DBFD0123064A1168FA68514083
:100E68004FF0000201D003F0CBFE18461037BD4604
:100E780080BD00BF18000020800000201C18010859
:100E88002418010880B483B000AF786039607B68AB
:100E98000E2B5BD801A252F823F000BFE10E000828
:100EA8004D0F0008250F00082D0F0008350F00080A
:100EB8003D0F0008450F00081D0F0008E50E00084B
:100EC800ED0E0008F50E0008FD0E0008050F0008DD
:100ED8000D0F0008150F000801233CE03B68214A6C
:100EE8001A6037E03B68204A1A6033E03B681F4AC3
:100EF8001A602FE03B681E4A1A602BE03B681D4AC7
:100F08001A6027E03B681C4A1A6023E03B681B4ACA
:100F18001A601FE03B68174A1A601BE03B68184AD2
:100F28001A6017E03B68174A1A6013E03B68164AD4
:100F38001A600FE03B68154A1A600BE03B68144AD8
:100F48001A6007E03B68134A1A6003E03B68124ADC
:100F58001A6000BF002318460C37BD465DF8047BB5
:100F6800704700BF40180108601801088C18010874
:100F7800A0180108CC180108F8180108141901086C
:100F88003419010848190108601901087419010881
:100F980090190108A81901082418010880B485B01F
:100FA80000AF78600F4A7B6813600023FB6008E09D
:100FB8000C4B1B68FA68002143F83210FB680133B8
:100FC800FB60FB68002BF3D0074B1B6843F0400322
:100FD800054A1360002318461437BD465DF8047BA4
:100FE800704700BF84000020AC3B002090B58BB058
:100FF80000AF786039603E4B1B687B624FF000039E
:101008000023BB600023FB603A4B1B6803F001031D
:10101800002B04D0384B1B685B68002B01D10123DF
:1010280059E0EFF31083BB61BB693B6101237B612E
:101038007B6983F3108800BF304B1B681A68013244
:101048001A602F4B1B681B6807F108020C21184611
:1010580000F074FF0346012B07D13B69FB61FB6974
:1010680083F3108800BF012335E07B689AB2BB6820
:1010780042F4805292B21A80204B1B681A68BB68EF
:1010880092B25A80BC6806F0E3FA03466360BB6814
:101098005A681C4B1B685B699A4204D2194B1B683F
:1010A800DA680132DA60BA68164B1B6852685A610E
:1010B800BB683A689A60124B1B681868B96807F1F0
:1010C8000C030C2201F052F83B693B623B6A83F344
:1010D800108800BF0023064A11687A6A51404FF011
:1010E800000201D003F08CFD18462C37BD4690BD98
:1010F80018000020AC3B0020A43B00208400002006
:10110800C03B0020B83B002090B58DB000AFF86020
:10111800B9607A603F4B1B68FB624FF00003002305
:101128003B6100237B613C4B1B6803F00103002BF0
:1011380004D03A4B1B685B68002B01D101235CE0AB
:10114800EFF310833B623B6ABB610123FB61FB69E0
:1011580083F3108800BF324B1B681A6801321A608B
:10116800304B1B681B6807F110021021184600F06D
:10117800E5FE0346012B07D1BB697B627B6A83F3DB
:10118800108800BF012338E0FB689AB23B6942F43B
:10119800005292B21A80224B1B681A683B6992B2BD
:1011A8005A803C6906F054FA034663603B695A6802
:1011B8001D4B1B685B699A4204D21B4B1B68DA689B
:1011C8000132DA603A69184B1B6852685A613B6908
:1011D800BA689A603B697A68DA60124B1B681868CB
:1011E800396907F11403102200F0C0FFBB69BB6224
:1011F800BB6A83F3108800BF0023064A1168FA6AA5
:1012080051404FF0000201D003F0FAFC1846343781
:10121800BD4690BD18000020AC3B0020A43B002038
:1012280084000020C03B0020B83B002090B58DB062
:1012380000AFF860B9607A603B60414B1B68FB62A5
:101248004FF0000300233B6100237B613D4B1B688B
:1012580003F00103002B04D03B4B1B685B68002B99
:1012680001D101235FE0EFF310833B623B6ABB616E
:101278000123FB61FB6983F3108800BF334B1B68B4
:101288001A6801321A60324B1B681B6807F110029A
:101298001421184600F052FE0346012B07D1BB6902
:1012A8007B627B6A83F3108800BF01233BE0FB6805
:1012B8009AB23B6942F4405292B21A80234B1B689F
:1012C8001A683B6992B25A803C6906F0C1F9034634
:1012D80063603B695A681F4B1B685B699A4204D27A
:1012E8001C4B1B68DA680132DA603A69194B1B68D3
:1012F80052685A613B69BA689A603B697A68DA60F1
:101308003B693A681A61124B1B681868396907F11A
:101318001403142200F02AFFBB69BB62BB6A83F383
:10132800108800BF0023064A1168FA6A51404FF03E
:10133800000201D003F064FC18463437BD4690BD66
:1013480018000020AC3B0020A43B002084000020B3
:10135800C03B0020B83B002090B58DB000AFF860CE
:10136800B9607A603B60434B1B68FB624FF0000337
:1013780000233B6100237B613F4B1B6803F00103A3
:10138800002B04D03D4B1B685B68002B01D1012367
:1013980062E0EFF310833B623B6ABB610123FB61B0
:1013A800FB6983F3108800BF354B1B681A6801324C
:1013B8001A60344B1B681B6807F110021821184685
:1013C80000F0BCFD0346012B07D1BB697B627B6A39
:1013D80083F3108800BF01233EE0FB689AB23B69A3
:1013E80042F4804292B21A80254B1B681A683B6906
:1013F80092B25A803C6906F02BF9034663603B6958
:101408005A68214B1B685B699A4204D21E4B1B68C1
:10141800DA680132DA603A691B4B1B6852685A6114
:101428003B69BA689A603B697A68DA603B693A68EE
:101438001A613B693A6C5A61124B1B681868396922
:1014480007F11403182200F091FEBB69BB62BB6A66
:1014580083F3108800BF0023064A1168FA6A5140D6
:101468004FF0000201D003F0CBFB18463437BD46DD
:1014780090BD00BF18000020AC3B0020A43B00201A
:1014880084000020C03B0020B83B002090B58DB000
:1014980000AFF860B9607A60434B1B68FB624FF09D
:1014A800000300233B6100237B617B68033323F047
:1014B80003037B607B680833402B01D938237B60AA
:1014C800EFF310833B623B6ABB610123FB61FB695D
:1014D80083F3108800BF354B1B681A6801321A6005
:1014E800334B1B6818687B68083307F110021946EC
:1014F80000F024FD0346012B07D1BB697B627B6AA0
:1015080083F3108800BF012340E0FB681AB27B68B0
:101518009B081BB21B031BB213431AB23B6992B25E
:101528001A80224B1B681A683B6992B25A803C6940
:1015380006F08EF8034663603B695A681D4B1B68CA
:101548005B699A4204D21B4B1B68DA680132DA6085
:101558003A69184B1B6852685A613B6908337A68C4
:10156800B9681846FFF74AF8114B1B6818683969BB
:101578007B6803F1080207F1140300F0F7FDBB696B
:10158800BB62BB6A83F3108800BF0023064A116858
:10159800FA6A51404FF0000201D003F031FB1846BF
:1015A8003437BD4690BD00BF1800002084000020DD
:1015B800C03B0020B83B002090B58DB000AFF8606C
:1015C800B9607A603B604C4B1B68FB624FF00003CC
:1015D80000233B6100237B613B68033323F0030353
:1015E8003B603B680C33402B01D934233B60434BB1
:1015F8001B6803F00103002B04D0414B1B685B6898
:10160800002B01D1012369E0EFF310833B623B6AB1
:10161800BB610123FB61FB6983F3108800BF394B71
:101628001B681A6801321A60374B1B6818683B68D8
:101638000C3307F11002194600F080FC0346012B19
:1016480007D1BB697B627B6A83F3108800BF0123E3
:1016580044E0FB681AB23B6804339B081BB21B03C7
:101668001BB213431AB23B6992B21A80254B1B680E
:101678001A683B6992B25A803C6905F0E9FF034653
:1016880063603B695A68214B1B685B699A4204D2C4
:101698001E4B1B68DA680132DA603A691B4B1B681B
:1016A80052685A613B69BA689A603B690C333A6878
:1016B80079681846FEF7A2FF134B1B68186839694A
:1016C8003B6803F10C0207F1140300F04FFDBB69FE
:1016D800BB62BB6A83F3108800BF0023064A116807
:1016E800FA6A51404FF0000201D003F089FA184617
:1016F8003437BD4690BD00BF18000020AC3B002029
:10170800A43B002084000020C03B0020B83B002000
:1017180090B58DB000AFF860B9607A603B604D4B12
:101728001B68FB624FF0000300233B6100237B61D1
:101738003B6C033323F003033B643B6C1033402BB7
:1017480001D930233B64444B1B6803F00103002B91
:1017580004D0424B1B685B68002B01D101236CE06D
:10176800EFF310833B623B6ABB610123FB61FB69BA
:1017780083F3108800BF3A4B1B681A6801321A605D
:10178800384B1B6818683B6C103307F11002194678
:1017980000F0D4FB0346012B07D1BB697B627B6A4F
:1017A80083F3108800BF012347E0FB681AB23B6C43
:1017B80008339B081BB21B031BB213431AB23B69C5
:1017C80092B21A80264B1B681A683B6992B25A80FB
:1017D8003C6905F03DFF034663603B695A68224B4C
:1017E8001B685B699A4204D21F4B1B68DA68013296
:1017F800DA603A691C4B1B6852685A613B69BA68DF
:101808009A603B697A68DA603B6910333A6C3968E8
:101818001846FEF7F3FE134B1B68186839693B6CD2
:1018280003F1100207F1140300F0A0FCBB69BB62CE
:10183800BB6A83F3108800BF0023064A1168FA6A5E
:1018480051404FF0000201D003F0DAF9184634375E
:10185800BD4690BD18000020AC3B0020A43B0020F2
:1018680084000020C03B0020B83B002090B58FB01A
:1018780000AF78613961FA60BB60BB6C7B604F4B2D
:101888001B687B634FF000030023BB610023FB61EF
:10189800FB6C033323F00303FB64FB6C1433402B12
:1018A80001D92C23FB64464B1B6803F00103002B72
:1018B80004D0444B1B685B68002B01D101236FE007
:1018C800EFF31083BB62BB6A3B6201237B627B6AD6
:1018D80083F3108800BF3C4B1B681A6801321A60FA
:1018E8003A4B1B681868FB6C143307F11802194649
:1018F80000F024FB0346012B07D13B6AFB62FB6A1D
:1019080083F3108800BF01234AE07B691AB2FB6C9D
:101918000C339B081BB21B031BB213431AB2BB69DF
:1019280092B21A80284B1B681A68BB6992B25A8017
:10193800BC6905F08DFE03466360BB695A68244B99
:101948001B685B699A4204D2214B1B68DA68013232
:10195800DA60BA691E4B1B6852685A61BB693A69FA
:101968009A60BB69FA68DA60BB69BA681A61BB69D0
:101978001433FA6C79681846FEF740FE134B1B685F
:101988001868B969FB6C03F1140207F11C0300F035
:10199800EDFB3B6A3B633B6B83F3108800BF00237E
:1019A800064A11687A6B51404FF0000201D003F0EB
:1019B80027F918463C37BD4690BD00BF18000020E7
:1019C800AC3B0020A43B002084000020C03B00204A
:1019D800B83B002090B58FB000AF78613961FA60EC
:1019E800BB60FB6C7B60504B1B687B634FF0000354
:1019F8000023BB610023FB613B6D033323F003032A
:101A08003B653B6D1833402B01D928233B65474B79
:101A18001B6803F00103002B04D0454B1B685B686F
:101A2800002B01D1012372E0EFF31083BB62BB6A84
:101A38003B6201237B627B6A83F3108800BF3D4BC6
:101A48001B681A6801321A603B4B1B6818683B6DAB
:101A5800183307F11802194600F070FA0346012BF3
:101A680007D13B6AFB62FB6A83F3108800BF01233E
:101A78004DE07B691AB23B6D10339B081BB21B0308
:101A88001BB213431AB2BB6992B21A80294B1B6866
:101A98001A68BB6992B25A80BC6905F0D9FD034641
:101AA8006360BB695A68254B1B685B699A4204D21C
:101AB800224B1B68DA680132DA60BA691F4B1B686F
:101AC80052685A61BB693A699A60BB69FA68DA6018
:101AD800BB69BA681A61BB69BA6C5A61BB691833C9
:101AE8003A6D79681846FEF789FD134B1B6818682C
:101AF800B9693B6D03F1180207F11C0300F036FBCE
:101B08003B6A3B633B6B83F3108800BF0023064AA4
:101B180011687A6B51404FF0000201D003F070F861
:101B280018463C37BD4690BD18000020AC3B00204D
:101B3800A43B002084000020C03B0020B83B0020CC
:101B480090B58FB000AF78613961FA60BB603B6DCA
:101B58007B60524B1B687B634FF000030023BB6123
:101B68000023FB617B6D033323F003037B657B6DEF
:101B78001C33402B01D924237B65494B1B6803F098
:101B88000103002B04D0474B1B685B68002B01D175
:101B9800012375E0EFF31083BB62BB6A3B6201234C
:101BA8007B627B6A83F3108800BF3F4B1B681A680F
:101BB80001321A603D4B1B6818687B6D1C3307F1B6
:101BC8001802194600F0BAF90346012B07D13B6AFF
:101BD800FB62FB6A83F3108800BF012350E07B6936
:101BE8001AB27B6D14339B081BB21B031BB2134341
:101BF8001AB2BB6992B21A802B4B1B681A68BB6970
:101C080092B25A80BC6905F023FD03466360BB6944
:101C18005A68274B1B685B699A4204D2244B1B689D
:101C2800DA680132DA60BA69214B1B6852685A6176
:101C3800BB693A699A60BB69FA68DA60BB69BA68D5
:101C48001A61BB69BA6C5A61BB69FA6C9A61BB6963
:101C58001C337A6D79681846FEF7D0FC134B1B6865
:101C68001868B9697B6D03F11C0207F11C0300F0C9
:101C78007DFA3B6A3B633B6B83F3108800BF00230C
:101C8800064A11687A6B51404FF0000201D002F009
:101C9800B7FF18463C37BD4690BD00BF180000206E
:101CA800AC3B0020A43B002084000020C03B002067
:101CB800B83B002090B58FB000AF78613961FA6009
:101CC800BB607B6D7B60534B1B687B634FF00003ED
:101CD8000023BB610023FB61BB6D033323F00303C7
:101CE800BB65BB6D2033402B01D92023BB654A4B14
:101CF8001B6803F00103002B04D0484B1B685B688A
:101D0800002B01D1012378E0EFF31083BB62BB6A9B
:101D18003B6201237B627B6A83F3108800BF404BE0
:101D28001B681A6801321A603E4B1B681868BB6D45
:101D3800203307F11802194600F000F90346012B79
:101D480007D13B6AFB62FB6A83F3108800BF01235B
:101D580053E07B691AB2BB6D18339B081BB21B0397
:101D68001BB213431AB2BB6992B21A802C4B1B6880
:101D78001A68BB6992B25A80BC6905F069FC0346CF
:101D88006360BB695A68284B1B685B699A4204D236
:101D9800254B1B68DA680132DA60BA69224B1B6886
:101DA80052685A61BB693A699A60BB69FA68DA6035
:101DB800BB69BA681A61BB69BA6C5A61BB69FA6CCB
:101DC8009A61BB693A6DDA61BB692033BA6D79688B
:101DD8001846FEF713FC134B1B681868B969BB6DEE
:101DE80003F1200207F11C0300F0C0F93B6A3B63D2
:101DF8003B6B83F3108800BF0023064A11687A6B97
:101E080051404FF0000201D002F0FAFE18463C376C
:101E1800BD4690BD18000020AC3B0020A43B00202C
:101E280084000020C03B0020B83B002080B483B071
:101E380000AF786039607B681B881B0B9BB203F08E
:101E48000F0302339A003B681A60002318460C37C8
:101E5800BD465DF8047B704780B485B000AFF8607C
:101E6800B9607A603B60FB68BA68DA60FB68002298
:101E78001A60FB6800225A60FB683A689A60FB683F
:101E88003A685A61FB687A689A62FB6800229A612C
:101E9800FB680022DA61FB6800221A62064B1B68A5
:101EA80043F08003044A1360002318461437BD46E4
:101EB8005DF8047B704700BFAC3B002080B584B060
:101EC80000AF78601C4B1B68FB604FF000030023D9
:101ED800BB607B685A687B6899687B689B69CB1A8A
:101EE8009A4203D37B6800225A6017E07B689A6A9B
:101EF8007B685B68134407F1080211461846FFF730
:101F080095FF7B685A68BB6813447A689268B3FB8C
:101F1800F2F101FB02F29A1A7B685A600023064A22
:101F28001168FA6851404FF0000201D002F068FED3
:101F380018461037BD4680BD1800002080B588B00F
:101F480000AFF860B9607A60FB689B683B61FB682A
:101F5800DB68012B40F09380FB681A68FB685B68BC
:101F68009A4241D3FB681B683A69D31ABA689A4205
:101F780014D2FB689A6AFB681B681A447B681A606B
:101F8800FB681A68BB6813443A69B3FBF2F2396913
:101F980001FB02F29A1AFB68DA61E2E0F868FFF7DF
:101FA8008DFFFB685B68043BFB61FA69BB689A427A
:101FB800F4D3FB681B683A69D21AFB689A61FB681C
:101FC80000221A60FB689A6A7B681A60FB681A68C4
:101FD800BB6813443A69B3FBF2F2396901FB02F2B8
:101FE8009A1AFB68DA61BCE0FB685A68FB681B68F0
:101FF800D31A043BFB61FA69BB689A4231D2FB6889
:102008009A68FB681B68D31ABA689A4210D9F868AC
:10201800FFF754FFFB685B68002BF8D0FB689A68F1
:10202800FB681B68D21AFB689A61FB6800221A6079
:10203800F868FFF743FFFB685A68FB681B68D31A08
:10204800043BFB61FA69BB689A42F1D3FB685B68A1
:10205800002B06D1FB689A6AFB681B681A447B68E8
:102068001A60FB689A6AFB681B681A447B681A60E6
:10207800FB681A68BB681A44FB68DA6171E0FB68A0
:102088001B687B61FB685B68BB617A69BB699A42C4
:102098004DD33A697B69D21ABB691344043BFB618F
:1020A800FA69BB689A4204D27B6800221A6001234D
:1020B80058E03A697B69D31ABA689A4213D2FB6826
:1020C8009A6AFB681B681A447B681A607A69BB685D
:1020D80013443A69B3FBF2F2396901FB02F29A1A26
:1020E800FB68DA613DE0BB69FB61FA69BB689A424B
:1020F80004D27B6800221A60012333E03A697B69C5
:10210800D21AFB689A61FB689A6A7B681A60FB6856
:102118009A697B691A44BB6813443A69B3FBF2F2C3
:10212800396901FB02F29A1AFB68DA6119E0BA69A7
:102138007B69D31A043BFB61FA69BB689A4204D2F3
:102148007B6800221A6001230CE0FB689A6AFB682E
:102158001B681A447B681A607A69BB681A44FB6872
:10216800DA61002318462037BD4680BD80B485B0AB
:1021780000AFF860B9607A603B60094B1B68DA68A9
:10218800FB681A62FB68DA69FB681A607A683B6860
:102198001A60002318461437BD465DF8047B704763
:1021A800B83B002080B483B000AF78607B68002221
:1021B8001A607B6800225A607B689A687B685A615B
:1021C8007B6800229A617B680022DA610023184646
:1021D8000C37BD465DF8047B7047000080B483B0BF
:1021E80000AF7860094A7B681360084B1B68FD22C2
:1021F8001A60074B1B6843F48073054A1360002379
:1022080018460C37BD465DF8047B704788000020EF
:10221800AC3B002080B58EB004AF78613961FA60BC
:10222800BB603B6B7B60134B1B687B624FF000030A
:102238003B69BB61FB68FB61BB683B627B680293DF
:102248004FF00043019307F11803009303237A69C1
:102258000021F22000F078F90346064A11687A6AEC
:1022680051404FF0000201D002F0CAFC184628374E
:10227800BD4680BD1800002080B586B000AFF8606C
:10228800B9607A60174B1B687B614FF00003FB68ED
:10229800002B01D1012318E0BB68002B09D0FB6893
:1022A8005B683B613A697B68D31A3B613A69FB68B2
:1022B8005A60BB68002B01D0392300E0EA23B968D3
:1022C8007A681846FEF720FF0023064A11687A69E3
:1022D80051404FF0000201D002F092FC1846183726
:1022E800BD4680BD1800002080B487B000AF78607C
:1022F8001B4A7B6813600023FB6020E0184B1968B9
:10230800FA6813469B001344DB000B447B610023EF
:102318003B6107E07B693A69002143F822103B6979
:1023280001333B613B69072BF4D97B694FF0FF32DE
:102338001A627B6900225A62FB680133FB60FB6802
:10234800002BDBD0074B1B6843F48053054A13600E
:10235800002318461C37BD465DF8047B704700BF54
:102368008C000020AC3B002080B483B000AF7860C4
:102378007B68002B01D101230BE0094A7B681360BD
:10238800074B1B6800221A60054B1B6800225A6025
:10239800002318460C37BD465DF8047B704700BF24
:1023A800F004002090B585B004AF1A4B1B681B6879
:1023B800002B09D1174B1B6800934FF40033002200
:1023C80000211548FFF726FF124B1B685B68002B9E
:1023D8001AD1104B1C68114B0293114B0193002327
:1023E800009300234FF480720E490F480AF0AEFEA6
:1023F80003466360074B1B685B68002B04D106200B
:10240800FEF7ACFC012300E0002318460437BD4664
:1024180090BD00BFF0040020B81901089004002006
:1024280090000020C41901083524000880B582B046
:1024380000AF786000F07AFE4FF4FA700BF0A2F863
:1024480000BFF7E780B582B000AF786039607B687D
:10245800002B01D1012315E03B68002B01D101239A
:1024680010E03B6800221A60002178680BF040FEFB
:1024780002463B681A603B681B68002B01D10123A8
:1024880000E0002318460837BD4680BD80B400AF81
:10249800034B1B681B681846BD465DF8047B7047F4
:1024A800F004002080B586B000AFF860B9607A60AB
:1024B8003B603B6823F003037B6100233B6121E021
:1024C8003B697A6902FB03F37A68D118FB683A69B9
:1024D80043F82210FB683A6953F822003B697A698D
:1024E80002FB03F32C337A681A447B692C3BB968E6
:1024F800FFF7B2FC0346012B01D1012306E03B693B
:1025080001333B613B69002BDAD0002318461837AA
:10251800BD4680BD80B584B000AF78600023FB6005
:1025280009E07B68FA6853F822301846FFF73AFE4C
:10253800FB680133FB60FB68002BF2D000231846D0
:102548001037BD4680BD000080B592B002AF7861FB
:102558003961FA60BB60BB6C7B603B6D3B605D4B77
:102568001B68FB634FF00003EFF31083FB62FB6A09
:102578007B620123BB62BB6A83F3108800BF3B699F
:10258800002B1AD007F118031846FEF735FA034650
:10259800002B04D1BB693A691A60002300E00123CB
:1025A800002B07D07B6A3B633B6B83F3108800BF2B
:1025B800012381E03B69FB6112E007F1180318462B
:1025C800FEF71AFA0346012B07D17B6A7B637B6B04
:1025D80083F3108800BF01236EE0BB691B68FB61B1
:1025E80000233B620CE03B6A9B007A681344B9699C
:1025F8001A683B6A9B000B445A603B6A01333B6292
:102608003A6ABB689A42EED3BB691969BB69FA6C2E
:102618000A431A61BA693B681A607B6ABB63BB6B81
:1026280083F3108800BFFB68002B08D0FB681B7879
:10263800002B04D0BB69F968184600F095F8BB6810
:10264800032B36D801A252F823F000BF65260008F4
:10265800712600088326000899260008FB69194698
:102668007869FEF7C3FC26E0FB6919467B681B689E
:102678001A467869FEF748FD1DE0FB6919467B6834
:102688001A687B6804331B687869FEF7CFFD12E08F
:10269800FB6918467B681A687B68043319687B688D
:1026A80008331B6800930B4601467869FEF754FE11
:1026B80001E0012300E00023064A1168FA6B51404B
:1026C8004FF0000201D002F09BFA18464037BD4691
:1026D80080BD00BF1800002080B58AB000AFF86048
:1026E800B9607A601F4B1B687B624FF000030023C0
:1026F8007B610023BB61FB681B687B61FB6814334B
:10270800BB610023FB6102E0FB690133FB61BA692D
:10271800FB6913441B78002B02D0FB697F2BF3D98C
:10272800FB693B627B691946BA693B6A013303203E
:10273800FEF742FF7B697A681946B868FEF7E4FC41
:10274800F868FEF7C9F90346064A11687A6A5140E3
:102758004FF0000201D002F053FA18462837BD4660
:1027680080BD00BF1800002080B586B000AF78603B
:102778003960194B1B687B614FF000030023BB6075
:102788003B68002B01D1154B3B607B681B68BB6025
:102798000023FB6002E0FB680133FB603A68FB68DA
:1027A80013441B78002B02D0FB687F2BF3D9FB68FE
:1027B8003B613A6939687868FEF702FA0346064AC7
:1027C80011687A6951404FF0000201D002F018FAFE
:1027D80018461837BD4680BD18000020CC190108DE
:1027E80080B58AB004AFF860B9607A603B60104B7E
:1027F8001B687B614FF0000307F11003029300236D
:1028080001933B46009301237A68B968F868FFF79B
:102818009BFE0346064A11687A6951404FF0000250
:1028280001D002F0EDF918461837BD4680BD00BF4B
:102838001800002080B58CB000AFF860B9607A60ED
:102848001D4B1B68FB624FF00003EFF310833B62E4
:102858003B6A7B610123FB61FB6983F3108800BF3E
:1028680007F110031946B868FEF77EF90346012BF5
:1028780007D17B697B627B6A83F3108800BF0123E1
:102888000DE03B697A68F9681846FFF725FFB861DB
:102898007B69BB62BB6A83F3108800BFBB69064AC9
:1028A8001168FA6A51404FF0000201D002F0A8F90D
:1028B80018463037BD4680BD1800002080B58AB064
:1028C80000AF78603960254B1B687B624FF00003CE
:1028D800EFF31083BB61BB69FB6001237B617B69FC
:1028E80083F3108800BF07F1080319467868FEF7DC
:1028F8003BF90346012B17D107F108031846FEF7E9
:102908007BF80346002B04D1BB687A681A60002361
:1029180000E00123002B07D0FB68FB61FB6983F310
:10292800108800BF01230CE0BB6839681846FFF720
:102938001BFF3861FB683B623B6A83F3108800BF6A
:102948003B69064A11687A6A51404FF0000201D08B
:1029580002F056F918462837BD4680BD18000020F9
:1029680080B483B000AF78600B4A7B6813600A4B71
:102978001B6800221A60084B1B6800225A60074B2C
:102988001B6843F40043054A1360002318460C37BC
:10299800BD465DF8047B7047F4040020AC3B002082
:1029A80080B586B002AF78603960164B1B6803F4B7
:1029B8000043002B01D101231FE03B68002B01D10C
:1029C800114B3B600023BB6002E0BB680133BB6076
:1029D8003A68BB6813441B78002B02D0BB687F2B76
:1029E800F3D9BB680133FB60002300930023FA6826
:1029F8003968786800F092F8034618461037BD46E3
:102A080080BD00BFAC3B0020D01901080EB480B5D2
:102A180087B000AF78607B6A3B60144B1B687B61B2
:102A28004FF00003124B1B6803F40043002B01D145
:102A380001230BE007F12803FB6007F10C031A469A
:102A48003968786800F016F838613B69074A1168F8
:102A58007A6951404FF0000201D002F0D1F81846CF
:102A68001C37BD46BDE8804003B070471800002001
:102A7800AC3B002080B58AB002AFF860B9607A60DC
:102A88000023BB61234B1B6803F40043002B01D1D7
:102A980001233BE0BB68002B01D11F4BBB60002327
:102AA8007B611EE0BA687B6913441B78252B15D11E
:102AB8007B690133BA6813441B78002B0DD07B69FE
:102AC8000133BA6813441B78252B02D0BB69013344
:102AD800BB617B6901337B6100E000BF7B69013327
:102AE8007B61BA687B6913441B78002B02D07B6931
:102AF8007F2BD7D97B690133FB617B680093BB6966
:102B0800FA69B968F86800F009F8034618462037EA
:102B1800BD4680BDAC3B0020D019010880B592B0FD
:102B280006AFF860B9607A603B603B689133BB617F
:102B3800FB68002B13D1734B1B681B68002B0AD151
:102B4800704B1B681946704800F05CFC0346012B6B
:102B580001D10123D1E06B4B1B681B68FB603B680C
:102B6800052B00F2C68001A252F823F08D2B000835
:102B78009D2B0008BF2B0008F32B0008392C0008F8
:102B8800912C0008F9687B68BA68B869FEF714FDEB
:102B98007861B1E0BB6B1B68191DBA6B11601B68CB
:102BA800FB61F9687B680093BB68FA69B869FEF74E
:102BB800AFFD7861A0E0BB6B1B68191DBA6B116093
:102BC8001B68FB61BB6B1B68191DBA6B11601B6826
:102BD8003B62F9687B680193BB6800933B6AFA69BA
:102BE800B869FEF743FE786186E0BB6B1B68191D68
:102BF800BA6B11601B68FB61BB6B1B68191DBA6B54
:102C080011601B683B62BB6B1B68191DBA6B1160B6
:102C18001B687B62F9687B680293BB6801937B6AD7
:102C280000933B6AFA69B869FEF7D4FE786163E0FD
:102C3800BB6B1B68191DBA6B11601B68FB61BB6B12
:102C48001B68191DBA6B11601B683B62BB6B1B6864
:102C5800191DBA6B11601B687B62BB6B1B68191D61
:102C6800BA6B11601B68BB62F9687B680393BB6829
:102C78000293BB6A01937B6A00933B6AFA69B8695D
:102C8800FEF75EFF786137E0BB6B1B68191DBA6BF6
:102C980011601B68FB61BB6B1B68191DBA6B116067
:102CA8001B683B62BB6B1B68191DBA6B11601B6804
:102CB8007B62BB6B1B68191DBA6B11601B68BB621A
:102CC800BB6B1B68191DBA6B11601B68FB62F96846
:102CD8007B680493BB680393FB6A0293BB6A019306
:102CE8007B6A00933B6AFA69B869FEF7E3FF78618B
:102CF80002E001237B6100BF7B6918463037BD467F
:102D080080BD00BFF4040020E419010880B483B03A
:102D180000AF7860074A7B681360074B1B6843F471
:102D28008023054A1360002318460C37BD465DF81A
:102D3800047B7047F8040020AC3B002080B582B0CB
:102D480000AF6C4B1B68002B01D00023CDE004F0D2
:102D58005FFC694B694A1A60674B1B6800221A605E
:102D6800654B1B6800225A6000237B6009E0624BB8
:102D78001B687A680232002143F822107B6801330D
:102D88007B607B68002BF2D05B4B1B6814331846C2
:102D9800FDF7C8FD0346012B01D10123A5E0564BE1
:102DA8001B6803F5575330331846FDF7EBFC034611
:102DB800012B01D1012398E04F4B1B6803F55753B2
:102DC8003433184600F0DEFB0346012B01D1012302
:102DD8008BE0494B1B685433184600F01FFD03462F
:102DE800012B01D1012380E0434B1B6803F55753A6
:102DF80018331846FDF7E2FC0346012B01D10123E5
:102E080073E03D4B1B6803F557532C331846FFF707
:102E1800E5F90346012B01D1012366E0364B1B6817
:102E280003F54D5304331846FFF770FF0346012B93
:102E380001D1012359E0304B1B6803F55653043385
:102E48001846FEF7ABF80346012B01D101234CE0ED
:102E5800294B1B6803F556530C331846FFF780FDC2
:102E68000346012B01D101233FE0234B1B6803F5E7
:102E7800565314331846FDF71FFF0346012B01D1A3
:102E8800012332E01C4B1B6803F5565320331846C8
:102E9800FFF72AFA0346012B01D1012325E0164B3F
:102EA8001B6803F557531033184600F0F3FA03462E
:102EB800012B01D1012318E00F4B1B6803F5575371
:102EC80008331846FFF750FA0346012B01D10123B6
:102ED8000BE0094B1B684FF0FF32DA60054B1B68AB
:102EE80043F00103034A1360002318460837BD4620
:102EF80080BD00BFAC3B0020A43B0020FC040020A8
:102F080080B584B000AF7860414BFB607B68002BD4
:102F180001D1012378E043F2F02000F061FA034682
:102F2800012B01D101236FE0082000F059FA034674
:102F3800012B01D1012367E0082000F051FA034674
:102F4800012B01D101235FE0324A7B681360314BCA
:102F58001B68314A1A602F4B1B680E229A802D4B32
:102F68001B6841F6A122DA800023BB6013E0FA68EF
:102F7800BB681344274A12681978BB68134418338E
:102F88000A461A70FA68BB6813441B78002B06D0EF
:102F9800BB680133BB60BB68072BE8D900E000BF02
:102FA8001C4B1B6800229A821A4B1B6802229A75D6
:102FB800184B1B680122DA75164B1B680122DA6070
:102FC800144B1B68DA68134B1B6842F44072DA60D2
:102FD800104B1B6800221A610E4B1B6800229A6076
:102FE8000C4B1A680B4B1B6892689A6000F0E4F867
:102FF8000346002B07D0074B1B689A68054B1B68D4
:1030080042F008029A60002318461037BD4680BD7A
:10301800EC190108A83B00200046535080B586B043
:1030280000AF7860294B1B687B614FF0000307F104
:103038000C0300221A605A60FFF780FE0346012B3A
:1030480001D1012334E0FFF7ADF90346012B01D18B
:1030580001232DE07B68022B17D10023BB60BB68DE
:10306800082B0CD107F10C03184600F067F903464A
:10307800002B04D007F10C03184600F09AF9144B02
:103088001B685B68002BE8D011E07B68012B09D135
:1030980001233B7301237B7307F10C03184600F0EF
:1030A80088F904E07B68002B01D0012300E00023AD
:1030B800064A11687A6951404FF0000201D001F0C8
:1030C8009FFD18461837BD4680BD00BF1800002078
:1030D800A43B002080B500AF00F0D0F800231846CC
:1030E80080BD000080B483B000AF786039600E4BBB
:1030F8001B68002B05D07B68002B02D03B68002B97
:1031080001D101230AE0084B1B6803F154027B68D4
:103118001A603B6843F2F0221A60002318460C3705
:10312800BD465DF8047B7047A43B002080B584B0A1
:1031380000AF1E4B1B68FB604FF000033B1D0022D5
:103148001A605A6000233B603B68082B0AD13B1D7C
:10315800184600F0F3F80346002B03D03B1D184631
:1031680000F027F9124B1B6803F00103002B3B68A2
:10317800002BE7DC0E4B1B6803F00103002B06D085
:103188000C4B1B685B68002B01D0FDF789FB002303
:10319800064A1168FA6851404FF0000201D001F068
:1031A8002FFD18461037BD4680BD00BF180000200F
:1031B800AC3B0020A43B002080B400AF002318469D
:1031C800BD465DF8047B704780B588B000AF274BDB
:1031D8001B68FB614FF0000300237B600023BB608A
:1031E800234B1B685B68012B33D0224B1B689B6801
:1031F8007B607B68002B03D11E4B1B681E4A9A60BC
:103208001C4B1B685B68BB60BB68002B03D1194B68
:103218001B6800225A60EFF31083BB61BB69FB6037
:1032280001237B617B6983F3108800BF00F0B2FB48
:1032380000F04AF80E4B1B681A6801321A600C4BF2
:103248001B6801225A60FB683B613B6983F3108865
:1032580000E000BF054B1A68FB695A404FF00003B5
:1032680001D001F0CDFC2037BD4680BD18000020FC
:10327800A43B0020B83B0020000E270780B485B08F
:1032880000AF104B1B685B68002B14D0EFF3108362
:10329800FB60FB683B600123BB60BB6883F310885D
:1032A80000BF084B1B6800225A603B687B607B6844
:1032B80083F3108800E000BF1437BD465DF8047B37
:1032C800704700BFA43B002080B584B000AF194B05
:1032D8001B68FB604FF0000300233B6000237B600A
:1032E80010E0154B1B687A6853F822303B603B6846
:1032F8001A467B689B0010333B4443F8082C7B68D4
:1033080001337B607B68002BEBD007F108030422B4
:1033180019460120FEF7BAF800BF064B1A68FB6889
:103328005A404FF0000301D001F06AFC1037BD4647
:1033380080BD00BF18000020B03B002080B485B0DD
:1033480000AF78607B681A787B685B781344DAB2E0
:103358007B689B781344DAB27B68DB781344DAB273
:103368007B681B791344DAB27B685B791344DBB260
:10337800DB43FB817B68DA79FB891B0A9BB2DBB2F2
:103388009A4201D000230EE07B689A79FB89DBB270
:103398009A4201D0002306E07B681B78012B01D9F3
:1033A800002300E0012318461437BD465DF8047B6E
:1033B800704780B582B000AF78607B681B78012BBE
:1033C80009D17B685B78012B02D1FFF7FDFE03E092
:1033D800FFF754FF00E000BF00BF0837BD4680BDBF
:1033E80080B483B000AF78607B6803F00303002BE0
:1033F80014BF01230023DBB218460C37BD465DF825
:10340800047B704780B586B000AF78603960204B88
:103418001B687B614FF0000300233B6107F1080341
:103428001846FDF7E9FA0346012B01D1012322E0F2
:103438000023FB6002E0FB680133FB60FB687A68ED
:1034480013441B78002B02D0FB681B2BF3DDFB68B1
:103458003B61BB683A6979681846FDF7B1FBBA6801
:103468003B681A60BB6819463B6901337A680320D8
:10347800FEF7A2F80346064A11687A6951404FF0F0
:10348800000201D001F0BCFB18461837BD4680BDCC
:103498001800002080B485B000AF78600F4A7B68C0
:1034A80013600023FB6008E00C4B1B68FA680221DC
:1034B80043F82210FB680133FB60FB68002BF3DD47
:1034C800074B1B6843F48013054A13600023184612
:1034D8001437BD465DF8047B704700BFB03B002041
:1034E800AC3B002080B588B000AF7860396001231C
:1034F800FB60214B1B6803F00103002B01D1FB6823
:1035080035E01D4B1B6803F00103002B04D01B4B57
:103518001B685B68002B05D1194B1B687A681A6019
:10352800FB6824E0154B1B6801229A60EFF31083B7
:10353800FB61FB693B610123BB61BB6983F31088B5
:1035480000BF0F4B1B687A681A607B683A68194697
:103558003720FDF7D9FDF860084B1B6802229A60F6
:103568003B697B617B6983F3108800BFFB68184661
:103578002037BD4680BD00BFAC3B0020A43B0020E7
:10358800B03B002080B485B000AF78604D4A7B68BE
:1035980013604C4B1B6800221A600023FB6009E093
:1035A800484B1A68FB689B00134400225A60FB686A
:1035B8000133FB60FB68002BF2D0424B1B680022F2
:1035C8009A600023FB6046E03E4B1968FA68134690
:1035D8005B001344DB000B440C3300221A60394BA8
:1035E8001968FA6813465B001344DB000B44103378
:1035F80000221A60334B1968FA6813465B001344BB
:10360800DB000B44143300221A602E4B1968FA6849
:1036180013465B001344DB000B44183300221A6086
:10362800284B1968FB685A1C13465B001344DB00DF
:103638000B44083300221A60224B1968FB685A1C95
:1036480013465B001344DB000B44043364221A6006
:10365800FB680133FB60FB68042BB5D90023FB60D2
:1036680020E0184B1B680022C3F88420154B1B6808
:10367800002283F88820134B1B680022C3F8A4207B
:10368800104B1B680022C3F8A8200E4B1B680022B1
:10369800C3F8AC200B4B1B680022C3F8B020FB68B2
:1036A8000133FB60FB68042BDBD9074B1B6843F431
:1036B8000003054A1360002318461437BD465DF819
:1036C800047B7047B43B0020AC3B002080B483B03F
:1036D80000AF78607B68002B01D1012304E0054B23
:1036E8001B687A689A60002318460C37BD465DF857
:1036F800047B7047B43B002080B586B000AF78608B
:10370800284B1B687B614FF000030023BB6000233C
:10371800FB6000233B6103F09BFF0346FB60224BE9
:103728001B685A69FB689A4204D91F4B1B68DA6800
:103738000132DA601C4B1B68FA685A61FA681B4B45
:103748001B685B68D31A3B61184B1B68FA685A60A0
:103758007B68002B01D1012317E007F10803194604
:103768007868FEF76FFE0346012B01D101230CE0B8
:10377800BB681B68002B01D1012306E0BB685968B0
:10378800BB683A690A445A600023064A11687A6994
:1037980051404FF0000201D001F032FA18461837B4
:1037A800BD4680BD18000020B83B0020B43B002077
:1037B80080B483B000AF7860164A7B681360154BFD
:1037C8001B6800229A60134B1B6800225A60114B39
:1037D8001B684FF47A721A610E4B1B6800229A61BB
:1037E8000C4B1B680022DA600A4B1B6801221A6026
:1037F800084B1B6800225A61074B1B6843F40013EF
:10380800054A1360002318460C37BD465DF8047B53
:10381800704700BFB83B0020AC3B002080B584B0A7
:1038280000AF78607B68002B01D10123A9E0574ADB
:103838007B681360554B1B680433FB60544AFB6874
:103848001360FB684FF42052C3F8D82A4F4B1B680B
:103858001846FB6803F6DC224FF420530121FEF7DB
:1038680021FE0346012B01D101238AE0FB681033B6
:103878001846FFF745FB0346012B01D1012380E0E1
:10388800FB684C331846FDF75DF80346012B01D160
:10389800012376E0FB6830331846FFF789FF0346BB
:1038A800012B01D101236CE0FB6803F540530A2288
:1038B80083F8DC22FB6803F540530B2283F8DD22F2
:1038C800FB6803F540530C2283F8DE22FB6803F5FE
:1038D80040530D2283F8DF22FB6803F54053712221
:1038E80083F8E022FB6803F54053722283F8E12253
:1038F800FB6803F54053732283F8E222FB6803F563
:103908004053742283F8E322FB6803F54053F12205
:1039180083F8E422FB6803F54053F22283F8E5229A
:10392800FB6803F54053F32283F8E622FB6803F5AE
:103938004053F42283F8E722FB6805221A71FB68DA
:1039480006225A71FB6807229A71FB680822DA710D
:10395800FB6875221A72FB6876225A72FB68772216
:103968009A72FB687822DA72FB68F5221A73FB6890
:10397800F6225A73FB68F7229A73FB68F822DA7307
:10398800002318461037BD4680BD00BFC03B00204D
:10399800BC3B002080B500AF034B1B681846FEF700
:1039A800B9FD0346184680BDC03B002080B586B0EF
:1039B80000AFF860B9607A60094AB968F8680BF036
:1039C800B7FC03467B617B69002B04D07B687A696E
:1039D8001A60002300E0012318461837BD4680BD51
:1039E800F819010880B586B000AFF860B9607A6050
:1039F800094AB968F8680BF09BFC03467B617B6950
:103A0800002B04D07B687A691A60002300E0012348
:103A180018461837BD4680BD0C1A010880B500AF9E
:103A28000349044800F008F80346184680BD00BF63
:103A3800B5390008ED39000880B582B000AF78606C
:103A480039604A4B1B68002B05D1494949480BF09E
:103A58005DFC012385E07B68002B05D1464945487C
:103A68000BF054FC01237CE03B68002B05D1434953
:103A780040480BF04BFC012373E03C4B1B6840F6BD
:103A8800344200211846FCF72FFE3D4A7B6813603C
:103A98003C4A3B681360354B1B680433184601F0F9
:103AA800F1FB0346012B05D1374932480BF02EFCB8
:103AB800012356E02D4B1B68A433184602F0DEF8AC
:103AC8000346012B05D131492A480BF01FFC01237D
:103AD80047E0264B1B6803F50373184600F09CF873
:103AE8000346012B05D12A4922480BF00FFC01237C
:103AF80037E01E4B1B6803F57873184601F026FA69
:103B08000346012B05D123491A480BF0FFFB01237B
:103B180027E0164B1B68B033184600F07DFC0346BF
:103B2800012B05D11C4913480BF0F0FB012318E0C9
:103B38000E4B1B68A833184601F078FE0346012B8C
:103B480005D116490B480BF0E1FB012309E001F010
:103B580093FF064B1B6801221A60002001F026FC27
:103B6800002318460837BD4680BD00BF000000206E
:103B7800201A01084C1A0108501A0108841A010871
:103B8800F8470020FC470020B01A0108E81A01088D
:103B9800241B0108581B01088C1B0108C01B0108C5
:103BA80080B400AF034B1B681846BD465DF8047B24
:103BB800704700BFC43B002080B582B000AF78607A
:103BC800786801F0B1FE034618460837BD4680BD47
:103BD80080B582B000AF7860786801F0F9FE002304
:103BE80018460837BD4680BD80B582B000AF786002
:103BF800786800F033FC034618460837BD4680BD98
:103C080080B582B000AF7860786800F06FFC002360
:103C180018460837BD4680BD80B582B000AF7860D1
:103C28007B68002B05D10F490F480BF06FFB012370
:103C380014E00E4A7B6813600C4B1B680022C3F823
:103C4800D0210A4B1B6801221A60084B1B68181DFB
:103C5800074B0122032100F0DDF903461846083717
:103C6800BD4680BDF81B0108281C010880480020BB
:103C78002C1C010880B586B000AFF860B9607A6086
:103C880001F012FC0346002B01D101234FE02A4B1F
:103C98001B68002B01D1012349E0274B1B681B68D7
:103CA800002B01D1012342E07B68002B01D10123C5
:103CB8003DE0BB68002B01D1012338E0BB681B78CD
:103CC800002B01D1012332E01B4B1B6804337B61BD
:103CD800786900F02FFA7B6903229A717B69FA6888
:103CE8001A6101F0DBFC0346012B01D101231EE020
:103CF80000233B6112E0BA683B69134419787A697A
:103D08003B6913449C330A461A70BA683B691344EA
:103D18001B78002B06D03B6901333B613B69672B5D
:103D2800E9D900E000BF7B687A691A600023184669
:103D38001837BD4680BD00BF8048002080B586B0DA
:103D480000AFF860B9607A60FB687B6101F0ACFB9A
:103D58000346002B01D1012334E01C4B1B68002BC8
:103D680001D101232EE0194B1B681B68002B01D1E0
:103D7800012327E07B69002B01D1012322E0134BAB
:103D88001B685B7B072B04D9042001F0CBFC0123C3
:103D980018E00E4B1B685B7B7A690233DB00134427
:103DA800BA685A60094B1B685B7B7A690233DB008F
:103DB80013447A689A60054B1B685A7B0132D2B269
:103DC8005A73002318461837BD4680BD8048002026
:103DD80080B586B000AFF860B9607A603B60FB6878
:103DE8007B6101F061FB0346002B01D101237AE0DE
:103DF8003F4B1B68002B01D1012374E03C4B1B682F
:103E08001B68002B01D101236DE07B69002B01D1D8
:103E1800012368E0BB68002B01D1012363E07B68C4
:103E2800002B01D101235EE03B68002B01D1012367
:103E380059E03B681B78002B01D1012353E02C4B40
:103E48001B68D3F8D031072B01D901234BE0284B4D
:103E58001968274B1B68D3F8D02113465B0013441D
:103E6800DB000B4403F58873BA681A60204B1968A5
:103E78001F4B1B68D3F8D02113465B001344DB00AB
:103E88000B4403F58A737A681A6000233B611DE0CE
:103E98003A683B691344164A1168154A1268D2F801
:103EA800D021187813465B001344DB00CA183B691D
:103EB800134403F58C7302461A703A683B6913443D
:103EC8001B78002B06D03B6901333B613B690F2B04
:103ED800DED900E000BF064B1B68D3F8D0210132C1
:103EE800C3F8D021002318461837BD4680BD00BF4F
:103EF8008048002080B584B000AF786039607B6866
:103F0800FB6001F0D1FA0346002B01D101231CE02C
:103F1800104B1B68002B01D1012316E00D4B1B68C9
:103F28001B68002B01D101230FE0FB68002B01D196
:103F380001230AE03B68002B01D1012305E0FB685F
:103F480003F19C023B681A60002318461037BD46EF
:103F580080BD00BF8048002080B584B000AF786085
:103F680039607B68FB6001F09FFA0346002B01D1A2
:103F7800012340E0224B1B68002B01D101233AE0CA
:103F88001F4B1B681B68002B01D1012333E0FB6822
:103F9800002B01D101232EE04FF48471F86800F062
:103FA8002FFA0246FB68C3F808213B6803F48073C4
:103FB800002B0BD01349144800F022F90346002BBC
:103FC80004D1F86800F0B6F8002314E03B6803F465
:103FD8000073002B0BD00D490D4800F011F9034672
:103FE800002B04D1F86800F0A5F8002303E0F86876
:103FF80000F0A0F8012318461037BD4680BD00BF69
:1040080080480020093C0008F13B0008D93B000823
:10401800C13B000880B588B000AFF8607A603B60AB
:104028000B46FB72FB68FB6148237B613C4B1B68BA
:10403800002B05D13B493C480BF068F901236AE0A5
:10404800FB69002B05D1394937480BF05FF901238B
:1040580061E03B68002B05D1354933480BF056F930
:10406800012358E02E4B1B6850221A712C4B1B68F9
:1040780044225A712A4B1B6866229A71284B1B6886
:104088006D22DA71264B1B684FF47F621A81244B2C
:104098001B68FA7A9A72224B1B6808221A737A698B
:1040A8001F4B1B68D2B2DA721D4B1B6868229A73C9
:1040B8001B4B1B687A681A610023BB6112E03A68DF
:1040C800BB6913441978FA69BB69134454330A4627
:1040D8001A703A68BB6913441B78002B06D0BB6979
:1040E8000133BB61BB69472BE9D900E000BFF86920
:1040F80000F020F8FB696D2283F80421FB69662231
:1041080083F80521FB69442283F80621FB695022C4
:1041180083F80721002318462037BD4680BD00BF1D
:1041280080480020401C0108281C0108781C010850
:10413800A81C010880B485B000AF78607B680022B5
:104148009A717B6800221A610023FB6010E07A688C
:10415800FB680233DB00134400225A607A68FB686C
:104168000233DB00134400229A60FB680133FB60D2
:10417800FB68072BEBD97B6800225A727B68002208
:1041880083F89C200023FB6026E01C4B1968FA6822
:1041980013465B001344DB000B4403F588730022CD
:1041A8001A60164B1968FA6813465B001344DB0063
:1041B8000B4403F58A7300221A60104B1968FA68D9
:1041C80013465B001344DB000B4403F58C73002299
:1041D8001A70FB680133FB60FB68072BD5D9074BC6
:1041E8001B680022C3F8D0217B680022C3F808218D
:1041F80000BF1437BD465DF8047B70478048002037
:10420800B0B58EB004AF786039607A4B1B687B62BA
:104218004FF0000300233B61774B1B6804333B627C
:104228007B68002B01D10123D7E03B68002B01D12B
:104238000123D2E007F110031946386A00F0B2FEF4
:104248000346012B01D10123C7E03A697B68104678
:1042580098470346012B01D10123BEE000237B616F
:10426800B2E0654B19687A6913465B001344DB00BA
:104278000B4403F58A731B68013B604AA2FB0323C6
:10428800DB099BB20133FB810023BB617B699BB2D5
:10429800013398B2584B19687A6913465B00134486
:1042A800DB000B4403F58A731C68534B19687A6961
:1042B80013465B001344DB0003F58C73CA1807F13F
:1042C80010030093134622460146386A00F0BCFEEC
:1042D8000346012B74D03A693B6810469847034659
:1042E800012B01D1012378E00023BB8163E04FF467
:1042F800FA63FB61404B19687A6913465B00134403
:10430800DB000B4403F58A731A68BB69D31AFA6990
:104318009A420DD9384B19687A6913465B001344E1
:10432800DB000B4403F58A731A68BB69D31AFB6177
:104338007B699BB2013398B2BB8901339CB22E4B87
:1043480019687A6913465B001344DB000B4403F5D4
:1043580088731B681A46BB6913441D46264B1968A7
:104368007A6913465B001344DB0003F58C730B4436
:10437800F98907F1100203920293FB6901930095F2
:104388000B4622460146386A00F006FF0346012B19
:104398000DD03A693B68104698470346012B01D176
:1043A80001231AE0BA69FB691344BB6100E000BF4E
:1043B800BB890133BB81BA89FB899A4297D300E054
:1043C80000BF7B6901337B610B4B1B68D3F8D0318D
:1043D8007A699A42FFF445AF0023064A11687A6A5F
:1043E80051404FF0000201D000F00AFC184628376F
:1043F800BD46B0BD1800002080480020D34D621093
:1044080080B483B000AF78603960002318460C3759
:10441800BD465DF8047B704780B582B000AF786018
:104428007B68002B01D1012311E07B680433184617
:1044380001F074FD0346012B01D1012307E0064A70
:104448007B681360044B1B6801221A60002318461E
:104458000837BD4680BD00BF8448002080B584B0C1
:1044680000AF78601F4B1B68FB604FF00003002310
:10447800FB721D4B1B68002B01D1012325E01A4B51
:104488001B681B68002B01D101231EE001F00CF80A
:104498000346002B01D1012317E07B68002B01D1D3
:1044A800012312E007F10B03184601F061F90346F6
:1044B800012B01D1012308E0FB7A002B01D1012354
:1044C80003E0786801F03AFD0346064A1168FA6885
:1044D80051404FF0000201D000F092FB184610370F
:1044E800BD4680BD180000208448002080B584B0F7
:1044F80000AF78601F4B1B68FB604FF00003002380
:10450800FB721D4B1B68002B01D1012325E01A4BC0
:104518001B681B68002B01D101231EE000F0C4FFBB
:104528000346002B01D1012317E07B68002B01D142
:10453800012312E007F10B03184601F019F90346AD
:10454800012B01D1012308E0FB7A002B01D10123C3
:1045580003E0786801F0FEFC0346064A1168FA6831
:1045680051404FF0000201D000F04AFB18461037C6
:10457800BD4680BD180000208448002080B400AFEC
:10458800BFF34F8F00BF064BDB6803F4E0620449BA
:10459800044B1343CB60BFF34F8F00BF00BFFDE751
:1045A80000ED00E00400FA050FB407480099016027
:1045B80001994160029981600399C1606146016176
:1045C8000FBC704700BF00009448002080B400AFC3
:1045D8000A4B4FF0FF321A60084B00225A60074B13
:1045E80000221A61054B00229A60044B0022DA600F
:1045F80000BFBD465DF8047B704700BF0400002083
:1046080080B584B000AF224B1B68224A1360204B50
:104618001B6880331F4A53601E4B1B68B3F1005F51
:104628000CD31C4B1B681C4A934207D8194B5B6878
:10463800194A934202D9174B184A5A6018480AF087
:10464800F9FD7860134B1B6823F003033B60114BA3
:104658005B68BB6013E03B68FB607A681049F868E8
:104668000AF026FE0346002B06D13A687B681344FD
:104678000133084A536006E03B6804333B603A68FC
:10468800BB689A42E7D3034B18461037BD4680BD36
:10469800644A00201C000020FFFF0B20FCFF0B20B9
:1046A800C41D010890B589B002AF7860644B1B68DF
:1046B8007B614FF0000300233B610023BB607B68F4
:1046C8001B68604A1360604B604A1A60604B0022A6
:1046D8001A60604B00221A605F4B1B68002B16DBC8
:1046E8005D4B9B68184601F075FA38615A4B5A6859
:1046F800594BDB6801933B6900931346574A802165
:1047080057480AF015FE544B1B68FB6009E0554BEF
:104718001B68554A802152480AF00AFE40F20143BC
:10472800FB60524B00221A60514B1B6803F00103D7
:10473800002B15D04F4B1B685B68002B10D04B4BE0
:1047480001221A604C4B1B68002B03D14A494B4885
:10475800FEF758FE484B1B6841491846FEF720F9FA
:10476800474948480AF0D2FD3D4946480AF0CEFD7F
:10477800454944480AF0CAFDFB68364A3849184694
:10478800FFF778FA0346002B45D107F108031846CE
:1047980001F08EFA2F4B1C68BB682021184601F0E7
:1047A80043FA03461A4601212046FFF7C7FA294B68
:1047B80018687B681B681A460721FFF7BFFA264B63
:1047C8001B68002B14DB234B1C682021386901F07F
:1047D8002BFA03461A4602212046FFF7AFFA1D4B73
:1047E8001B681D4AD26804211846FFF7A7FA07E09C
:1047F800184B1B681B4A126806211846FFF79EFAD9
:104808001A4B1B68002B01D000F044F81F491D48C3
:104818000AF07CFD03E01E491A480AF077FD1A49A0
:1048280018480AF073FD00BF054B1A687B695A40A7
:104838004FF0000301D000F0E3F91C37BD4690BDEE
:1048480018000020644A0020B0480020B848002022
:104858008C4800208848002004000020801D0108A2
:104868000048002028ED00E0D41D0108AC480020D5
:10487800AC3B0020A43B0020A8480020A41D010850
:104888008C1D01089C1D0108A01D0108F41D0108CC
:10489800101E010880B584B000AF124B1B68FB6086
:1048A8004FF0000300237B600023BB6007F1080280
:1048B8003B1D11461846FEF715FC0B4B1868796826
:1048C800BA680A4BFFF784FA00BF064B1A68FB6800
:1048D8005A404FF0000301D000F092F91037BD465E
:1048E80080BD00BF18000020884800203C1E010839
:1048F80080B586B000AFF8600B467A60FB722A4B31
:104908001B681A46294BD31A7B61FB7A7A6803FB2A
:1049180002F27B691344B3F5D67F07D3244B0122F7
:104928001A60244924480AF0F1FC39E0234B1B683B
:10493800234A934205D023491F480AF0E7FC00BFE9
:10494800FDE77B68002B04D11F491B480AF0DEFCF9
:1049580026E0FB7A042B19D0042B1CDC012B02D097
:10496800022B0ED017E0104B1B687A68F9681846BE
:10497800FBF744FE0C4B1A687B6813440A4A136021
:104988000EE07968F86800F023F809E07968F868BB
:1049980000F056F804E00D4907480AF0B7FC00BFDC
:1049A8001837BD4680BD00BFB0480020B848002079
:1049B8008C4800204C1E01089C1D0108884A0020D4
:1049C800ED55CEAC7C1E0108CC1E0108F81E01086E
:1049D80080B586B000AF78603960174B1B687B6183
:1049E8004FF0000300233B6114E07B689A1C7A6057
:1049F8001B88FB81114B1B6807F10E010222184628
:104A0800FBF7FCFD0D4B1B6802330C4A13603B6936
:104A180001333B613A693B689A42E6D300BF064BD3
:104A28001A687B695A404FF0000301D000F0E8F89B
:104A38001837BD4680BD00BF18000020B0480020D0
:104A480080B586B000AF78603960174B1B687B6112
:104A58004FF0000300233B6114E07B681A1D7A6065
:104A68001B68FB60114B1B6807F10C0104221846F8
:104A7800FBF7C4FD0D4B1B6804330C4A13603B69FC
:104A880001333B613A693B689A42E6D300BF064B63
:104A98001A687B695A404FF0000301D000F0B0F863
:104AA8001837BD4680BD00BF18000020B048002060
:104AB80080B584B000AF00237B60424B1B68002B9D
:104AC80042D0414B1B681A46404BD31ABB60404B3F
:104AD8001B68002B01DB3F4B00E03F4BFB603F4B6B
:104AE8001B68002B0DD1374B1868FB68BA6837492B
:104AF800FFF76EF90346002B03D0394939480AF00D
:104B080005FC394B1B68002B10D0384B1B6803F091
:104B18000103002B0AD0364B1B685B68002B05D0BD
:104B2800334B1B6800225A6001237B60254B1B68AE
:104B38004FF4E0611846FFF70FFA0346002B03D045
:104B48002C4928480AF0E2FB214B1B68B3F1FF3FD0
:104B58001DD01F4B1B69012B0FD1274921480AF093
:104B6800D5FB00233B6002E03B6801333B603B68B8
:104B7800224A9342F8DDFFF701FD7B68002B03D042
:104B88001B4B1B6801225A60FFF720FD0FE01A49F2
:104B980014480AF0BBFB00233B6002E03B6801338A
:104BA8003B603B68154A9342F8DDFFF7E7FC054B8D
:104BB80000221A600C4B00221A6001231846103795
:104BC800BD4680BD88480020B0480020B848002075
:104BD80004000020181F0108241F01088C48002029
:104BE800301F01089C1D0108AC480020AC3B002088
:104BF800A43B00205C1F0108AC1D01083F420F00C8
:104C080080B500AFFFF7D0FC104B05221A600F4BA0
:104C18000F4A5A600D4B0F4A9A600C4B40F2ED1246
:104C2800DA600A4B01221A61FEF7BAFF0346002B2D
:104C380006D000F02DF8FBF7FBFA00F057F802E079
:104C4800FFF7C4FC00BF00BFFDE700BF0400002061
:104C5800781F01088C1F010880B483B000AFEFF300
:104C680005833B603B68002B01D000230AE0EFF38B
:104C780014837B607B6803F00203002B01D00123BF
:104C880000E0002318460C37BD465DF8047B7047EA
:104C980080B584B000AFFFF7DFFF0346012B0ED1CC
:104CA800EFF30B837B607B680E4A136000233B6045
:104CB8003B6883F30B8800BFBFF36F8F0EE0EFF301
:104CC8000A83FB60FB68084A13600023BB60BB686B
:104CD80083F30A8800BFBFF36F8F00BF00BF103790
:104CE800BD4680BD684A00206C4A002080B582B06D
:104CF80000AFFFF7B1FF0346012B09D10B4B1B682F
:104D08003B603B6883F30B8800BFBFF36F8F09E0FC
:104D1800074B1B687B607B6883F30A8800BFBFF37F
:104D28006F8F00BF00BF0837BD4680BD684A0020AE
:104D38006C4A002080B400AF20231846BD465DF8B9
:104D4800047B704790B58FB000AF04460846114603
:104D58001A462346FB820346BB820B467B821346D8
:104D68003B82FB6CFB603B6DBB60BB6D7B60754B36
:104D78001B687B634FF00003734B1B680433BB62F3
:104D88000023FB610023FB6200233B6200237B625C
:104D9800FB68002B01D10123C6E0FB681B78002BC0
:104DA80001D10123C0E0BB68002B01D10123BBE086
:104DB8007B6D002B01D10123B6E07B68002B01D16C
:104DC8000123B1E07B8A002B01D10123ACE07A8A70
:104DD8003B8A9A4201D90123A6E007F11C03184631
:104DE80000F088FB0346012B01D101239CE007F169
:104DF8002003184600F070FC0346012B01D1012363
:104E080092E007F12403184600F0E2FB0346012B69
:104E180001D1012388E0BB6AD1221A70BB6AD22271
:104E28005A70BB6AD3229A70BB6AD422DA70BB6A02
:104E38004FF47F629A80BB6A0122DA80BB6AFA8AE1
:104E48001A81BB6ABA8A5A81BB6A7A8A9A81BB6A12
:104E58003A8ADA813A6ABB6A1A61BB6A20229A8264
:104E6800BB6A2022DA82BB6C9AB2BB6A1A83BB6A1D
:104E78007A6DDA61FB6A2033FB62334B1B680433BB
:104E88001A46FB6A13441846FB6920221946FBF7A9
:104E9800B5FBFB6A2033FB622B4B1B6804331A46B5
:104EA800FB6A134418467B6A20221946FBF7A6FBC7
:104EB800FB6A2033FB62244B1B6804331A46FB6AE7
:104EC8001344BA6CF9681846FBF798FBFA6ABB6C8E
:104ED8001344FB621C4B1B6804331A46FB6A1344D9
:104EE8007A6DB9681846FBF789FBFA6A7B6D13443B
:104EF800FB62154B1B6804331A46FB6A13443B6379
:104F0800BB6ADA783B6B1A70BB6A9A783B6B5A704B
:104F1800BB6A5A783B6B9A70BB6A1A783B6BDA703B
:104F28007B68BA6A1A600023064A11687A6B514096
:104F38004FF0000201D0FFF763FE18463C37BD462C
:104F480090BD00BF18000020704A002080B582B0D4
:104F580000AF78607B68002B01D101231BE0104A69
:104F68007B681360FFF7E6FE034603F5DC73B3F5D1
:104F7800056F01D901230EE0FFF7DCFE034603F6B7
:104F88002403B3F5056F01D9012304E0044B1B6822
:104F980001221A60002318460837BD4680BD00BFAD
:104FA800704A002080B58AB006AF78603960244B1B
:104FB8001B68FB604FF000030023BB60214B1B689C
:104FC800002B01D101232EE01E4B1B681B68002B10
:104FD80001D1012327E07B68002B01D1012322E0C6
:104FE80007F1080319467868FEF784FF0346012B8A
:104FF80001D1012317E0BB683A6804924FF4867226
:1050080003927A6802920193682300930123012294
:10501800002141F21250FFF795FE0346012B01D102
:10502800012300E00023064A1168FA6851404FF056
:10503800000201D0FFF7E4FD18461037BD4680BDD9
:1050480018000020704A002080B598B006AF78613B
:10505800FA60BB600B467B823B6D7B604C4B1B68E8
:105068007B644FF0000307F1200324220021184637
:10507800FBF73AFB474B1B68002B01D1012379E072
:10508800444B1B681B68002B01D1012372E07B692C
:10509800002B01D101236DE0FB68002B01D1012316
:1050A80068E0BB68002B01D1012363E0BB681B7873
:1050B800002B01D101235DE07B68002B01D1012386
:1050C80058E0502387F82030442387F821306123A3
:1050D80087F82230502387F823304FF47F63BB844E
:1050E800032387F82630102387F82730FB68BB6234
:1050F8000023FB6113E0BA68FB691344197807F1D0
:105108002C02FB6913440A461A7007F12C02FB694A
:1051180013441B78002B06D0FB690133FB61FB6944
:105128000F2BE8D900E000BF502387F83C306123FB
:1051380087F83D30442387F83E30502387F83F30C6
:1051480000233B64798A7B6804932423039307F143
:1051580020030293BB6801931023009301230122CB
:1051680044F21860FFF7EEFD0346012B01D101233D
:1051780000E00023064A11687A6C51404FF00002A3
:1051880001D0FFF73DFD18464837BD4680BD00BF3A
:1051980018000020704A002080B58AB006AFF86079
:1051A800084611461A4603467B810B463B81134647
:1051B800FB80174B1B68002B01D1012323E0144B04
:1051C8001B681B68002B01D101231CE0FB68002B26
:1051D80001D1012317E0F8883A8979897B6A049319
:1051E800FB690393BB6902933B6A01931023009305
:1051F800034648F27130FFF7A5FD0346012B01D1A4
:10520800012300E0002318461037BD4680BD00BFCB
:10521800704A002080B485B000AF78603960184BC0
:105228001B68002B01D1012323E0154B1B681B6869
:10523800002B01D101231CE07B68002B01D1012345
:1052480017E03B68002B01D1012312E07B68FB606B
:10525800FB689B8A1A46FB68DB8A1344FA68128B40
:105268001A44FB68DB69134403F124023B681A60A3
:10527800002318461437BD465DF8047B704700BF0D
:10528800704A002080B586B000AF7860424B1B683A
:105298007B614FF000037B68002B01D101236EE096
:1052A8003E4A7B6813603D4B1B680022C3F89C2074
:1052B8003A4B1B680122DA60384B1B6800221A72CD
:1052C800364B1B6801225A72344B1B6801229A72B2
:1052D800324B1B6801221A61304B1B68304A5A60F6
:1052E8002E4B1B689B7A002B1CD12E4B1B68002B66
:1052F80001D1012343E02B4B1B68284A126802F1B5
:105308007C0007F10C02202198470346012B01D1AC
:10531800012334E0214B1B6893F87C30002B06D125
:1053280001232CE01D4B1B68002283F87C201B4BBB
:105338001B68002283F85C2000233B6115E0174BB3
:105348001A6819493B690B4419783B6913441433AB
:105358000A461A70114B1A683B69134414331B78B8
:10536800002B06D03B6901333B613B693F2BE6D9F3
:1053780000E000BF094B1B6801221A600023064A9F
:1053880011687A6951404FF0000201D0FFF738FCEC
:1053980018461837BD4680BD18000020744A002002
:1053A80003922871F8470020E81F010880B588B0EB
:1053B80000AF7860374B1B68FB614FF0000307F1C3
:1053C800140300221A605A60334BFB6007F1140380
:1053D8003B61324B1B68002B01D101234DE02F4B61
:1053E8001B681B68002B01D1012346E0FEF7D8FBA0
:1053F8000346002B01D101233FE0284B1B685B6863
:10540800274A934201D1002337E007F1140308210A
:10541800184600F05BFA0346002B0CD107F10C028A
:1054280007F114031146184600F0EAF90346012B68
:1054380001D1194BFB60FB68174A934206D07B6881
:10544800012B0FD1FB68174A93420BD13B6901220C
:105458001A603B69124A5A600821386900F008FA54
:105468000F4BFB60FB680F4A934201D1012304E014
:105478000A4B1B680A4A5A600023064A1168FA69EF
:1054880051404FF0000201D0FFF7BAFB1846203711
:10549800BD4680BD1800002071521093744A002048
:1054A800252715150392287180B500AF0F4B1B688F
:1054B800002B01D1002316E00C4B1B681B68002B46
:1054C80001D100230FE0FEF76BFB0346002B01D14F
:1054D800002308E0054B1B685B68054A93420CBF34
:1054E80001230023DBB2184680BD00BF744A0020A8
:1054F8002527151580B584B000AF7860314B1B683F
:10550800FB604FF000030023BB602F4B1B68002B90
:1055180001D1012349E02C4B1B681B68002B01D1EA
:10552800012342E07B68002B01D101233DE0264B9B
:105538001B6893F87C30002B30D1234B1B689B7A77
:10554800012B29D1214B1B68002B01D101232CE011
:105558001E4B1B681C4A126802F17C0007F1080206
:105568001F2198470346012B01D101231DE0164B4B
:105578001B6893F87C30002B01D1012315E0BB6830
:105588001F2B01D9012310E00F4B1A68BB68134485
:10559800002283F87C2001E0012306E00A4B1B6807
:1055A80003F17C027B681A600023064A1168FA68D6
:1055B80051404FF0000201D0FFF722FB1846103788
:1055C800BD4680BD18000020744A0020F84700201E
:1055D80080B584B000AF78602D4B1B68FB604FF03E
:1055E80000030023BB602B4B1B68002B01D1012358
:1055F80041E0284B1B681B68002B01D101233AE0CE
:105608007B68002B01D1012335E0224B1B6893F8FE
:105618005C30002B28D1204B1B68002B01D10123C3
:1056280029E01D4B1B681B4A126802F15C0007F158
:1056380008021F2198470346012B01D101231AE0D4
:10564800144B1B6893F85C30002B01D1012312E046
:10565800BB681F2B01D901230DE00E4B1A68BB68EC
:105668001344002283F85C200A4B1B6803F15C0298
:105678007B681A600023064A1168FA6851404FF0A7
:10568800000201D0FFF7BCFA18461037BD4680BDAE
:1056980018000020744A0020FC47002080B400AFA6
:1056A8000C4B1B68002B01D101230EE0094B1B6832
:1056B8001B68002B01D1012307E0064B1B68D3F8B8
:1056C8009C200132C3F89C2000231846BD465DF893
:1056D800047B7047744A002080B483B000AF7860C0
:1056E8000F4B1B68002B01D1012312E00C4B1B68E8
:1056F8001B68002B01D101230BE07B68002B01D133
:10570800012306E0064B1B68D3F89C207B681A60CF
:10571800002318460C37BD465DF8047B704700BF70
:10572800744A002080B483B000AF78600F4B1B68C8
:10573800002B01D1012312E00C4B1B681B68002BC6
:1057480001D101230BE0094B1B681B69012B01D018
:10575800012304E0054B1B687A681A610023184688
:105768000C37BD465DF8047B704700BF744A0020C3
:1057780080B483B000AF78600E4B1B68002B01D15A
:10578800012311E00B4B1B681B68002B01D101237F
:105798000AE07B68002B01D1012305E0054B1B685B
:1057A8005A7A7B681A70002318460C37BD465DF894
:1057B800047B7047744A002080B483B000AF7860DF
:1057C8000E4B1B68002B01D1012311E00B4B1B680A
:1057D8001B68002B01D101230AE07B68002B01D153
:1057E800012305E0054B1B681A7A7B681A700023B1
:1057F80018460C37BD465DF8047B7047744A002094
:1058080080B483B000AF786039607B681B68012B77
:1058180001D0012304E07B685A683B681A600023C2
:1058280018460C37BD465DF8047B704780B582B0DA
:1058380000AF78607B68002B01D1012312E00B4A8E
:105848007B681360094B1B680433184600F08EFB15
:105858000346012B01D1012304E0044B1B680122FC
:105868001A60002318460837BD4680BD784A0020D4
:1058780080B582B000AF78603960134B1B68002B8D
:1058880001D101231CE0104B1B681B68002B01D1C0
:10589800012315E0FFF708FE0346002B01D1012381
:1058A8000EE07B68002B01D1012309E03B68002B47
:1058B80001D1012304E03968786800F062FB0346EF
:1058C80018460837BD4680BD784A002080B582B0AA
:1058D80000AF78603960134B1B68002B01D101239E
:1058E8001CE0104B1B681B68002B01D1012315E03D
:1058F800FFF7DAFD0346002B01D101230EE07B6898
:10590800002B01D1012309E03B68002B01D10123C1
:1059180004E03968786800F040FB03461846083709
:10592800BD4680BD784A002080B584B000AF78605D
:10593800254B1B68FB604FF000030223FB72234BCF
:105948001B68002B01D1012331E0204B1B681B6829
:10595800002B01D101232AE0FFF7A6FD0346002B07
:1059680001D1012323E07B68002B01D101231EE034
:1059780007F10B031846FFF71FFF0346012B01D160
:10598800012314E0FB7A002B01D101230FE0FB7AFD
:10599800012B0CBF01230023DBB21946786800F005
:1059A80008FB0346012B01D1012300E00023064A2E
:1059B8001168FA6851404FF0000201D0FFF720F952
:1059C80018461037BD4680BD18000020784A0020D0
:1059D80080B584B000AF7860254B1B68FB604FF042
:1059E80000030223FB72234B1B68002B01D1012308
:1059F80031E0204B1B681B68002B01D101232AE0F2
:105A0800FFF752FD0346002B01D1012323E07B68F9
:105A1800002B01D101231EE007F10B031846FFF705
:105A2800CBFE0346012B01D1012314E0FB7A002BA6
:105A380001D101230FE0FB7A012B0CBF01230023C6
:105A4800DBB21946786800F0C0FA0346012B01D191
:105A5800012300E00023064A1168FA6851404FF01C
:105A6800000201D0FFF7CCF818461037BD4680BDBC
:105A780018000020784A002080B500AF0248FDF7E2
:105A880025FE0346184680BD955A000890B589B092
:105A980002AF7860454B1B687B614FF00003002321
:105AA800FB6000233B617B681A6A7B689B6A9A42A9
:105AB8000BD97B681A1D7B681B6A009313463C4A06
:105AC80080213C4809F034FC1CE07B681A6A7B683A
