:1000000080840020752A0000C3B40000612A00002B
:10001000612A0000612A0000612A0000000000003F
:10002000000000000000000000000000092C00009B
:10003000612A000000000000912B0000612A0000EE
:10004000092E0000092E0000092E0000092E0000D4
:10005000092E0000092E0000092E0000092E0000C4
:10006000092E0000092E0000092E0000092E0000B4
:10007000092E0000092E0000092E0000092E0000A4
:10008000092E0000092E0000092E0000092E000094
:10009000092E0000092E0000092E0000092E000084
:1000A000092E0000092E0000092E0000092E000074
:1000B000092E0000092E0000092E0000092E000064
:1000C000092E0000092E0000092E0000092E000054
:0C00D000092E0000092E0000092E00007F
:1000E00081F0004102E000BF83F0004330B54FEAE9
:1000F00041044FEA430594EA050F08BF90EA020F56
:100100001FBF54EA000C55EA020C7FEA645C7FEAE8
:10011000655C00F0E2804FEA5454D4EB5555B8BF0B
:100120006D420CDD2C4480EA020281EA030382EA7C
:10013000000083EA010180EA020281EA0303362D0E
:1001400088BF30BD11F0004F4FEA01314FF4801CE1
:100150004CEA113102D0404261EB410113F0004FF3
:100160004FEA03334CEA133302D0524263EB4303AA
:1001700094EA050F00F0A780A4F10104D5F1200E48
:100180000DDB02FA0EFC22FA05F2801841F10001A3
:1001900003FA0EF2801843FA05F359410EE0A5F177
:1001A00020050EF1200E012A03FA0EFC28BF4CF0A8
:1001B000020C43FA05F3C01851EBE37101F000455E
:1001C00007D54FF0000EDCF1000C7EEB00006EEB6B
:1001D0000101B1F5801F1BD3B1F5001F0CD34908F5
:1001E0005FEA30004FEA3C0C04F101044FEA44524C
:1001F00012F5800F80F09A80BCF1004F08BF5FEAD3
:10020000500C50F1000041EB045141EA050130BDB2
:100210005FEA4C0C404141EB0101013C28BFB1F5C4
:10022000801FE9D291F0000F04BF01460020B1FA0F
:1002300081F308BF2033A3F10B03B3F120020CDAE2
:100240000C3208DD02F1140CC2F10C0201FA0CF0C0
:1002500021FA02F10CE002F11402D8BFC2F1200C25
:1002600001FA02F120FA0CFCDCBF41EA0C019040DB
:10027000E41AA2BF01EB0451294330BD6FEA040424
:100280001F3C1CDA0C340EDC04F11404C4F120020F
:1002900020FA04F001FA02F340EA030021FA04F321
:1002A00045EA030130BDC4F10C04C4F1200220FA78
:1002B00002F001FA04F340EA0300294630BD21FAB6
:1002C00004F0294630BD94F0000F83F4801306BF7C
:1002D00081F480110134013D4EE77FEA645C18BF70
:1002E0007FEA655C29D094EA050F08BF90EA020F07
:1002F00005D054EA000C04BF1946104630BD91EAFF
:10030000030F1EBF0021002030BD5FEA545C05D101
:100310004000494128BF41F0004130BD14F5800440
:100320003CBF01F5801130BD01F0004545F0FE41B4
:1003300041F470014FF0000030BD7FEA645C1ABFE9
:10034000194610467FEA655C1CBF0B46024650EA20
:10035000013406BF52EA033591EA030F41F400214C
:1003600030BD00BF90F0000F04BF0021704730B5D2
:100370004FF4806404F132044FF000054FF00001A7
:1003800050E700BF90F0000F04BF0021704730B568
:100390004FF4806404F1320410F0004548BF40423D
:1003A0004FF000013EE700BF42004FEAE2014FEA92
:1003B00031014FEA02701FBF12F07F4393F07F4F6D
:1003C00081F06051704732F07F4208BF704793F070
:1003D0007F4F04BF41F40021704730B54FF4607483
:1003E00001F0004521F000411CE700BF50EA010286
:1003F00008BF704730B54FF000050AE050EA01022F
:1004000008BF704730B511F0004502D5404261EB9E
:1004100041014FF4806404F132045FEA915C3FF4DF
:10042000D8AE4FF003025FEADC0C18BF03325FEA7C
:10043000DC0C18BF033202EBDC02C2F1200300FA2D
:1004400003FC20FA02F001FA03FE40EA0E0021FA52
:1004500002F11444BDE600BF70B54FF0FF0C4CF440
:10046000E06C1CEA11541DBF1CEA135594EA0C0FF2
:1004700095EA0C0F00F0DEF82C4481EA030621EA2D
:100480004C5123EA4C5350EA013518BF52EA033568
:1004900041F4801143F4801338D0A0FB02CE4FF01A
:1004A0000005E1FB02E506F00042E0FB03E54FF04A
:1004B0000006E1FB03569CF0000F18BF4EF0010E42
:1004C000A4F1FF04B6F5007F64F5407404D25FEA3E
:1004D0004E0E6D4146EB060642EAC62141EA5551F1
:1004E0004FEAC52040EA5E504FEACE2EB4F1FD0C33
:1004F00088BFBCF5E06F1ED8BEF1004F08BF5FEAB1
:10050000500E50F1000041EB045170BD06F0004662
:1005100046EA010140EA020081EA0301B4EB5C040F
:10052000C2BFD4EB0C0541EA045170BD41F4801107
:100530004FF0000E013C00F3AB8014F1360FDEBF2C
:10054000002001F0004170BDC4F10004203C35DA08
:100550000C341BDC04F11404C4F1200500FA05F38B
:1005600020FA04F001FA05F240EA020001F000422C
:1005700021F0004110EBD37021FA04F642EB0601A2
:100580005EEA430E08BF20EAD37070BDC4F10C04CC
:10059000C4F1200500FA04F320FA05F001FA04F290
:1005A00040EA020001F0004110EBD37041F100017C
:1005B0005EEA430E08BF20EAD37070BDC4F1200587
:1005C00000FA05F24EEA020E20FA04F301FA05F2EF
:1005D00043EA020321FA04F001F0004121FA04F297
:1005E00020EA020000EBD3705EEA430E08BF20EA67
:1005F000D37070BD94F0000F0FD101F000464000A1
:1006000041EB010111F4801F08BF013CF7D041EA22
:10061000060195F0000F18BF704703F00046520026
:1006200043EB030313F4801F08BF013DF7D043EAF7
:100630000603704794EA0C0F0CEA135518BF95EAAD
:100640000C0F0CD050EA410618BF52EA4306D1D134
:1006500081EA030101F000414FF0000070BD50EA53
:10066000410606BF1046194652EA430619D094EADD
:100670000C0F02D150EA013613D195EA0C0F05D1C7
:1006800052EA03361CBF104619460AD181EA03011B
:1006900001F0004141F0FE4141F470014FF00000D3
:1006A00070BD41F0FE4141F4780170BD70B54FF06E
:1006B000FF0C4CF4E06C1CEA11541DBF1CEA1355EE
:1006C00094EA0C0F95EA0C0F00F0A7F8A4EB0504D0
:1006D00081EA030E52EA03354FEA013100F08880C7
:1006E0004FEA03334FF0805545EA131343EA126390
:1006F0004FEA022245EA111545EA10654FEA002645
:100700000EF000419D4208BF964244F1FD0404F5FD
:10071000407402D25B084FEA3202B61A65EB030559
:100720005B084FEA32024FF480104FF4002CB6EB16
:10073000020E75EB030E22BFB61A754640EA0C0096
:100740005B084FEA3202B6EB020E75EB030E22BFD6
:10075000B61A754640EA5C005B084FEA3202B6EB17
:10076000020E75EB030E22BFB61A754640EA9C00D6
:100770005B084FEA3202B6EB020E75EB030E22BFA6
:10078000B61A754640EADC0055EA060E18D04FEA64
:10079000051545EA16754FEA06164FEAC30343EA04
:1007A00052734FEAC2025FEA1C1CC0D111F4801FD1
:1007B0000BD141EA00014FF000004FF0004CB6E7CA
:1007C00011F4801F04BF01430020B4F1FD0C88BF69
:1007D000BCF5E06F3FF6AFAEB5EB030C04BFB6EB74
:1007E000020C5FEA500C50F1000041EB045170BD67
:1007F0000EF0004E4EEA113114EB5C04C2BFD4EB94
:100800000C0541EA045170BD41F480114FF0000E17
:10081000013C90E645EA060E8DE60CEA135594EA93
:100820000C0F08BF95EA0C0F3FF43BAF94EA0C0F96
:100830000AD150EA01347FF434AF95EA0C0F7FF40B
:1008400025AF104619462CE795EA0C0F06D152EA5F
:1008500003353FF4FDAE1046194622E750EA410643
:1008600018BF52EA43067FF4C5AE50EA41047FF454
:100870000DAF52EA43057FF4EBAE12E74FF0FF3CB9
:1008800006E000BF4FF0010C02E000BF4FF0010C8A
:100890004DF804CD4FEA410C7FEA6C5C4FEA430C03
:1008A00018BF7FEA6C5C1BD001B050EA410C0CBF52
:1008B00052EA430C91EA030F02BF90EA020F0020B4
:1008C000704710F1000F91EA030F58BF994208BF1B
:1008D00090422CBFD8176FEAE37040F001007047D8
:1008E0004FEA410C7FEA6C5C02D150EA013C07D12F
:1008F0004FEA430C7FEA6C5CD6D152EA033CD3D07A
:100900005DF8040B704700BF8446104662468C4673
:100910001946634600E000BF01B5FFF7B7FF0028A6
:1009200048BF10F1000F01BD4DF808EDFFF7F4FFCF
:100930000CBF012000205DF808FB00BF4DF808ED5A
:10094000FFF7EAFF34BF012000205DF808FB00BF7D
:100950004DF808EDFFF7E0FF94BF012000205DF89F
:1009600008FB00BF4DF808EDFFF7CEFF94BF012054
:1009700000205DF808FB00BF4DF808EDFFF7C4FF4D
:1009800034BF012000205DF808FB00BF4FEA4102A0
:1009900012F5001215D211D56FF47873B3EB6252D1
:1009A00012D94FEAC12343F0004343EA505311F0F8
:1009B000004F23FA02F018BF404270474FF000008A
:1009C000704750EA013005D111F0004008BF6FF0C8
:1009D000004070474FF00000704700BF53B94AB95C
:1009E000002908BF00281CBF4FF0FF314FF0FF3037
:1009F00000F00CB8ADF1080C6DE904CE00F008F879
:100A0000DDF804E0DDE9022304B07047704700BF61
:100A10002DE9F04786468C460846089E15467446E2
:100A20001946002B40F0C2808542B2FA82F245D9C5
:100A30004AB1C2F1200300FA02FC2EFA03F39540FA
:100A400043EA0C0C94404FEA154EA8B2BCFBFEF8EA
:100A5000230C0EFB18CC08FB00F943EA0C43994524
:100A600028D9EB1808F1FF3704D2994502D9A8F12B
:100A700002072B44A3EB0903A4B2B3FBFEFC0EFB5D
:100A80001C330CFB00F044EA0344A04214D92C1997
:100A90000CF1FF3304D2A04202D9ACF102032C4482
:100AA000241A43EA07401EB1D44000233460736027
:100AB000BDE8F0874746DDE76346F1E792BB431B9D
:100AC00001214FEA154EAFB2B3FBFEFC200C0EFB2A
:100AD0001C330CFB07F840EA0343984562D9EB1836
:100AE0000CF1FF3004D2984502D9ACF102002B443E
:100AF000A3EB0803A4B2B3FBFEFC0EFB1C330CFB00
:100B000007F744EA0344A7424ED92C190CF1FF33EE
:100B100004D2A74202D9ACF102032C44E41B43EAFD
:100B20000040C0E7C2F1200320FA03F19540904055
:100B30002EFA03F303434FEA154EAFB2B1FBFEFCAE
:100B40000EFB1C10190C0CFB07F841EA004188450C
:100B500004FA02F422D969180CF1FF3004D2884556
:100B600002D9ACF102002944A1EB08019BB2B1FB10
:100B7000FEFC0EFB1C110CFB07F743EA01439F42EE
:100B80000ED9EB180CF1FF3104D29F4202D9ACF11F
:100B900002012B44DB1B41EA004192E76046E3E798
:100BA0006146F7E76046A3E76346B7E7834206D9A5
:100BB00016B9002108467BE7C6E900E0F9E7B3FA79
:100BC00083F78FB9834201D3724508D8BEEB020484
:100BD00060EB030301209C461EB9002168E73846FC
:100BE000FAE7C6E9004CF8E7C7F1200CBB4022FA4F
:100BF0000CF41C432EFA0CF120FA0CF3B84001431C
:100C00004FEA14490EFA07F5B3FBF9F81FFA84FE10
:100C100009FB18300B0C08FB0EFA43EA00439A4517
:100C200002FA07F240D9E31808F1FF3004D29A45DE
:100C300002D9A8F102002344A3EB0A0389B2B3FB53
:100C4000F9F809FB183308FB0EFE41EA03418E4513
:100C50002CD9611808F1FF3304D28E4502D9A8F1CE
:100C60000203214443EA0040A0FB0298A1EB0E01DD
:100C70004145CE46434602D306D14D4504D2B9EB99
:100C8000020E68EB04030138002EA6D0B5EB0E026D
:100C900061EB030101FA0CFC22FA07F34CEA0303AF
:100CA000F940C6E9003198E74046C5E74346D9E731
:100CB00010B50F4C0CA3D3E90023D4E90001FFF7D2
:100CC00015FA02460B46C4E9002309F007FC00228E
:100CD000084BFFF7C1FB0022064BFFF707FAFFF7AF
:100CE00055FE10BDAFF300806F1283C0CA21C93F0B
:100CF000F0030020000059402DE9F74F21F0004695
:100D0000B6F1795FCDE9002380468946C0F0848042
:100D100002460B46FFF7A0FB4D4B002204460D4652
:100D2000FFF79AFB3EA3D3E9002382468B46204679
:100D30002946FFF791FB3CA3D3E90023FFF7D6F93F
:100D400022462B46FFF788FB39A3D3E90023FFF7A0
:100D5000CBF922462B46FFF77FFB37A3D3E90023CD
:100D6000FFF7C4F922462B46FFF776FB34A3D3E9FD
:100D70000023FFF7B9F922462B46FFF76DFB32A39C
:100D8000D3E90023FFF7B2F922462B46FFF764FBB5
:100D900022462B46FFF760FBDDE9002304460D46A3
:100DA00040464946FFF758FB0B4602462946204677
:100DB000FFF79AF9274B9E42804689460ED8024695
:100DC0000B4650465946FFF78FF90B46224902461B
:100DD0000020FFF789F903B0BDE8F08F1F4B1E49D3
:100DE0009E428CBF1E4DA6F50015002422462B46C0
:100DF0000020FFF779F9224606460F462B4650465B
:100E00005946FFF771F942464B46FFF76DF9024626
:100E10000B4630463946DCE70F490020DBE700BFD0
:100E2000D43888BEE9FAA8BDC4B1B4BD9EEE213E57
:100E3000AD529C804F7E923E9015CB19A001FA3E98
:100E40007751C1166CC1563F4C5555555555A53F68
:100E50000000E03F3233D33F0000F03F0000E93FA5
:100E60000000D23F000000002DE9F04F1F4621F0A6
:100E70000043B3F1795F85B004460D4616464FD363
:100E800002460B46FFF7E8FA82468B4602460B46BF
:100E900020462946FFF7E0FA3DA3D3E90023804628
:100EA000894650465946FFF7D7FA3BA3D3E90023BA
:100EB000FFF71AF952465B46FFF7CEFA38A3D3E99B
:100EC0000023FFF713F952465B46FFF7C5FA36A336
:100ED000D3E90023FFF708F952465B46FFF7BCFA57
:100EE00033A3D3E90023FFF701F90E9BCDE90001FD
:100EF000DBB902460B4650465946FFF7ADFA2EA322
:100F0000D3E90023FFF7F0F842464B46FFF7A4FA77
:100F100002460B4620462946FFF7E8F804460D46F0
:100F20002046294605B0BDE8F08F274B0022304609
:100F30003946FFF791FADDE90023CDE90201404689
:100F40004946FFF789FA02460B46DDE90201FFF741
:100F5000CBF852465B46FFF77FFA32463B46FFF737
:100F6000C3F817A3D3E9002306460F464046494677
:100F7000FFF772FA02460B4630463946FFF7B4F8DF
:100F800002460B4620462946FFF7AEF8C6E700BFEB
:100F90007CD5CF5A3AD9E53DEB9C2B8AE6E55A3E03
:100FA0007DFEB157E31DC73ED561C119A0012A3F9F
:100FB000A6F810111111813F495555555555C53F9A
:100FC000495555555555C5BF0000E03F000000008C
:100FD0002DE9F04FC24B8DB021F000489845824674
:100FE0008B461446049107D8C2E900AB00230022C7
:100FF000C4E90223002526E0BA4B984576D8049B25
:10100000B94D002BA8A3D3E9002338DDFFF76CF816
:10101000A84506460F461AD0A5A3D3E90023FFF73B
:1010200063F802460B468046894630463946FFF74C
:101030005BF89FA3D3E90023FFF756F8C4E90089C2
:10104000C4E90201012528460DB0BDE8F08F9AA33E
:10105000D3E90023FFF748F899A3D3E90023064614
:101060000F46FFF741F802460B4680468946304658
:101070003946FFF739F892A3D3E90023DCE7FFF7FD
:1010800035F8A84506460F4618D089A3D3E90023B2
:10109000FFF72CF802460B46804689463046394613
:1010A000FFF722F882A3D3E90023FFF71FF84FF0E0
:1010B000FF35C4E90089C4E90201C4E77EA3D3E98E
:1010C0000023FFF713F87EA3D3E9002306460F465B
:1010D000FFF70CF802460B468046894630463946F3
:1010E000FFF702F876A3D3E90023DEE77F4B9845AC
:1010F00000F2CD8021F0004773A3D3E900233946E5
:10110000FFF7AAF97A4B0022FEF7F0FFFFF73EFC4B
:101110000546FFF737F902460B46CDE9022362A3E5
:10112000D3E90023FFF798F902460B4650463946AB
:10113000FEF7DAFF5EA3D3E9002382468B46DDE9A2
:101140000201FFF789F902460B4606460F46504654
:101150005946FEF7C9FF1F2D05DC664B6A1E53F882
:101160002230434508D14FEA28530593C1F30A536F
:10117000C3EB1853102B02DCC4E9000139E04EA385
:10118000D3E90023DDE90201FFF766F906460F46C1
:1011900002460B4650465946FEF7A6FF02460B464E
:1011A0008046894650465946FEF79EFF32463B46EA
:1011B000FEF79AFF42A3D3E9002306460F46DDE976
:1011C0000201FFF749F932463B46FEF78DFF024622
:1011D0000B4606460F4640464946FEF785FF059AF0
:1011E000C1F30A53D31A312B20DCC4E90001C246F3
:1011F000CB46D4E90089504642464B465946FEF755
:1012000073FF3B463246FEF76FFF049B002BC4E999
:101210000201BFF618AF09F10043636001F100431A
:10122000C4F80080A060E3606D420CE728A3D3E916
:101230000023DDE90201FFF70FF906460F460246DB
:101240000B4640464946FEF74FFF82468B46024614
:101250000B4640464946FEF747FF32463B46FEF7FF
:1012600043FF1DA3D3E9002306460F46DDE9020133
:10127000FFF7F2F832463B46FEF736FF06460F46CA
:1012800002460B4650465946FEF72EFF74E71A4BAE
:10129000984533D902460B46FEF726FFC4E9020102
:1012A000C4E90001A6E600BF00004054FB21F93F5D
:1012B0003163621A61B4D03D0000601A61B4D03D60
:1012C0007370032E8A19A33B83C8C96D305FE43F56
:1012D0000000002E8A19A33BC14920259A837B393F
:1012E000FB21E93F7BD90240FB21F93FFB2139413A
:1012F0000000E03F70020100FFFFEF7F4FEA28553A
:10130000A5F21645A8EB05510F46FFF73FFBFFF787
:1013100039F802460B4650463946CDE90623FEF71A
:10132000E3FE224B0022FFF797F80F460646FFF731
:101330002DFBFFF727F802460B4630463946CDE92C
:101340000823FEF7D1FE194B0022FFF785F8CDE9FF
:101350000A010DF130094FF003080026002779E952
:10136000020132463B46C24608F1FF38FFF7DCFA7D
:101370000028F4D10E4B0193022300932A465346D2
:10138000214606A809F01CF9049B002B0546BFF670
:101390005AAED4E9002101F10043C4E90023D4E9A5
:1013A000022101F10043C4E902233DE7000070413E
:1013B000F0020100054B1868072803D80130034BE1
:1013C0001860704700201860704700BFC08400207C
:1013D00038B5264C204604F097FE204609F0D8FE8A
:1013E00006E000F003F94FF4004000210CF0C2FBCE
:1013F000FFF7E0FF04461E4D284604F085FE284610
:1014000009F0C6FE1B4D2146284604F07DFE21460C
:10141000284609F0BDFE072CE5D801A353F824F0B7
:10142000E313000041140000471400004D140000B5
:1014300053140000591400005F14000065140000EC
:1014400000F066F9CFE700F017FACCE700F0A0FA59
:10145000C9E700F0FDFAC6E700F074FBC3E700F04F
:1014600091FBC0E700F010FEBDE700BF28E10000DF
:1014700044E1000070E1000010B588B01E4C204629
:1014800004F042FE204609F083FE05F0A3F801288F
:1014900022D01A4C204604F037FE204609F078FE90
:1014A00005F0F0FF01281FD000220023CDE906231C
:1014B000002304930393029301930093104B4FF482
:1014C000C072104910480CF04DFA104B18601049CA
:1014D00007F01CFE08B010BD0E4C204604F014FEB0
:1014E000204609F055FED4E70B4C204604F00CFED4
:1014F000204609F04DFED7E78CE10000E4E1000052
:10150000D1130000803A002030010020780A00202A
:101510003CE20000B4E1000014E2000000B583B03A
:101520004FF0FF3201A9104809F0B3FC0128F7D1B0
:101530004FF42F714FF4FA7009F05BFC0B4C4FF035
:10154000FF31204609F035FC42F6E06142F22830D6
:1015500009F04FFC204607F0E5FC4FF4FA614FF428
:101560007A7009F046FCDBE7C80A0020880A0020F0
:1015700010B54FF4FA6140F2DC5009F03AFC0D4C22
:101580004FF0FF31204609F014FC4FF4FF714FF487
:10159000F57009F02EFC204607F0C4FC40F24C41E7
:1015A0004FF4617009F025FCA42000210CF0E2FA50
:1015B000DFE700BF880A002000B583B009F030FCE7
:1015C0000190092101A809F083FC41F288314FF410
:1015D0007A6009F00EFC0CF09FFB00900022694637
:1015E000014809F037FCECE7C80A00202DE9F0417A
:1015F00088B0012005F0DEF80A2304223149324880
:101600000CF036F931480CF063F9314C204604F007
:101610007BFD204609F0BCFD00260027CDE90667CA
:101620000024049402230393029401940094294B10
:101630004FF40062284929480CF094F9284D28609D
:10164000284907F063FDCDE906670494032303935B
:10165000029401940094244B4FF4006223492448DF
:101660000CF080F9DFF88C80C8F80000224907F000
:101670004DFDCDE90667049404230393029401947D
:1016800000941E4B4FF400621D491E480CF06AF98D
:101690001D4C20601D4907F039FD4FF4203000211A
:1016A0000CF068FAD8F8000001F058FA286801F048
:1016B00055FA206801F052FA0CF048F808B0BDE87D
:1016C000F08100BFA00A0020C80A0020880A00207C
:1016D00048E200001D150000C04C0020400300201F
:1016E000840A00202CE30000B9150000804400208B
:1016F00090020020800A002034E3000071150000F1
:10170000403C0020E00100207C0A00203CE3000077
:1017100010B588B0164C204604F0F6FC204609F0BF
:1017200037FD012005F046F800220023CDE906230D
:1017300000230493022203920293019300930D4B22
:101740004FF400620C490D480CF00CF90C4C206071
:101750000C4907F0DBFC4FF4203000210CF00AFAB2
:10176000206801F0FBF90BF0F1FF08B010BD00BFDD
:1017700044E300008917000000550020F803002012
:10178000F40A0020F4E4000030B585B003A91F4836
:1017900005F06CF802A91E4805F068F801A91D487B
:1017A00005F064F869461C4805F060F8012410E073
:1017B0002346009A0199992003F0AEFC1AE01749DC
:1017C000029804F051FC01344FF4247000210CF015
:1017D000D1F9039DFFF76CFA02460F49284604F041
:1017E000BDFC0F4B83FB0423A3EBE47303EB430328
:1017F0009C42DDD00B4A82FB04322244E317C3EB48
:10180000A203C3EBC3039C42D9D0DCE708E5000088
:1018100018E5000024E5000034E5000038E500008C
:10182000565555559324499270B50E4C20700E4B69
:1018300053F820100D4B186804F016FE217801EBC8
:1018400081010B4E0B4D06EB8101284604F05CFC38
:10185000217801EB810106EB8101284609F098FC13
:1018600070BD00BF643A0020F80A00200C0B002075
:10187000000000204CE50000F8B5012004F09AFFBC
:10188000324C2146324804F099FD324E324D3246F8
:101890002946206804F0BAFD321D05F114012068C4
:1018A00004F0B4FD06F1080205F12801206804F0F7
:1018B000ADFD06F10C0205F13C01206804F0A6FD27
:1018C00006F1100205F15001206804F09FFD234C41
:1018D000204604F019FC204609F05AFC0320FFF7CB
:1018E000A3FF4FF4A4760027304639460CF042F9A6
:1018F0000020FFF799FF4FF4247400252046294665
:101900000CF038F90120FFF78FFF304639460CF014
:1019100031F90220FFF788FF204629460CF02AF90A
:101920000320FFF781FF304639460CF023F90420ED
:10193000FFF77AFF204629460CF01CF90BF006FF52
:101940004FF4C03000210CF015F9F8BD0C0B00204D
:1019500060E50000F80A00200000002068E50000B3
:1019600000EB4000034B03EB80039B681868C0B298
:10197000704700BF64000020044B5A6942F0100217
:101980005A615A6A42F480225A62704700ED00E0C0
:1019900070B5FFF7F1FF1E4C204604F0B5FB204662
:1019A00009F0F6FB4FF4E03000210CF0E3F80120E1
:1019B00004F000FF174C2146174804F057FF212080
:1019C00000210CF0D7F81549206804F04DFB0020E9
:1019D000FFF7C6FF124D6A68296809F0A7FA0246A8
:1019E000104E3146206804F0B9FB0F49206804F01E
:1019F0003BFB0120FFF7B4FF2A69E96809F096FA7A
:101A000002463146206804F0A9FB0BF09FFE70BD32
:101A10004CE60000100B0020C8E70000D4E70000EF
:101A200064000020FCE700000CE8000010B5041E74
:101A300007DB22460449054B186804F08FFB20465B
:101A400010BD4FF0FF30FBE734E80000140B00201E
:101A500038B51C4C204604F057FB204609F098FB93
:101A60004FF4E03000210CF085F8012004F0A2FED4
:101A7000212000210CF07EF8134C2146134804F07D
:101A8000F5FE1349206804F0EFFA0421032009F061
:101A900058FA02460F4D2946206804F05FFB0E49B4
:101AA000206804F0E1FA6FF002014FF0FF3009F016
:101AB00048FA02462946206804F050FB0BF046FE27
:101AC00038BD00BF48E80000140B0020C8E7000044
:101AD000BCE90000C4E90000D8E9000038B50546BB
:101AE0000C460B4602460A490A48006804F036FBD9
:101AF0000F2C0ADD002005E0074B13F800C005F8A5
:101B000000C00130A042F7DD38BD4FF0FF30FBE7E9
:101B1000E0E90000180B0020FCE9000000B585B0EA
:101B200010216846FFF7DAFF02460449044B1868A3
:101B300004F014FB05B05DF804FB00BF10EA0000E0
:101B4000180B002010B50C4C204604F0DDFA20469E
:101B500009F01EFB4FF4A03000210CF00BF801201F
:101B600004F028FE0549064804F080FEFFF7D6FF82
:101B70000BF0ECFD10BD00BF24EA0000180B0020A4
:101B8000C8E70000F0B589B02C4C204604F0BCFA40
:101B9000204609F0FDFA4FF4A03000210BF0EAFFD7
:101BA000012004F007FE1E21254806F013FB254BFB
:101BB000186000260027CDE906670024049403235B
:101BC00003930294019400941F4B4FF400621F4949
:101BD0001F480BF0C7FE1F4D28601F4907F096FAFB
:101BE000CDE90667049401230393029401940094C1
:101BF0001A4B4FF400621A491A480BF0B3FE1A4C04
:101C000020601A4907F082FA4FF4203000210BF0CF
:101C1000B1FF174E304604F077FA304609F0B8FAB3
:101C200006F050FB06F06CFB286800F097FF206878
:101C300000F094FF0BF08AFD09B0F0BDF4EB00005A
:101C400044ED0000240B0020B51C0000806500203E
:101C500058050020200B002050ED000057AF000079
:101C6000405D0020A80400201C0B00205CED00005B
:101C70006CED000000B583B00CF04EF80C4B83FB0C
:101C80000023C217C2EBE32241F2883303FB1202A6
:101C900002F56A5218320023019302E0019B0133DE
:101CA0000193019B9342F9DB03B05DF804FB00BF95
:101CB000AD8BDB6810B540F2133000210BF05AFFFA
:101CC000044C206806F0B4FAFFF7D4FF206806F051
:101CD0007FFBF0E7240B002000B583B00CF01CF86C
:101CE0000C4B83FB0023C217C2EBA3124FF47A7391
:101CF00003FB120202F59C5208320023019302E01A
:101D0000019B01330193019B9342F9DB03B05DF822
:101D100004FB00BFD34D621008B50BF0FDFF154A60
:101D200082FB0032C317C3EBA20303EB8303B0EBC8
:101D3000430F05D1002001460BF01CFF012008BD18
:101D40000BF0EAFF0B4A82FB0032C317C3EBA2037E
:101D500003EB8303A0EB4303590CDB0340F2E732B0
:101D600098184FF47A724FF0000341F10001FEF72A
:101D700035FEE1E76766666600B583B01922052186
:101D8000002004F0E7FF13E01049114B186804F03D
:101D90006BF941F69A1000210BF0ECFE0D4B00227E
:101DA0001A6000230193019A42F20F739A4209DDEF
:101DB000084B1B68012BE7D04FF4A47000210BF0F7
:101DC000D9FEEEE7019B01330193ECE790ED0000B3
:101DD000380B00203C0B002000B583B01E220021F0
:101DE000084604F0B7FF09E0009B01330093009A16
:101DF000104B9A42F8DD104B00221A60A4200021FB
:101E00000BF0B8FE0C4B1B68012B07D10B490C4B98
:101E1000186804F029F900230093E8E700230193F0
:101E200002E0019B01330193019A41F287339A4208
:101E3000F7DDE3E7EF490200400B0020B4ED0000BE
:101E4000380B002070B50024824B1C6005F01AF896
:101E50002DE0C4B1192C1DD17F4D284604F054F952
:101E6000284609F095F97D4D284604F04DF928469D
:101E700009F08EF905F07AF9284604F045F928466C
:101E800009F086F906E0764D284604F03DF928462B
:101E900009F07EF940F6CD4000210BF06BFE05F015
:101EA00035F806F02BF8051E00F3CA8001346B2CC0
:101EB000F0DC322CCDDBA4F13203392BEAD801A2BD
:101EC00052F823F0AD1F0000951E0000951E000083
:101ED000951E0000951E0000951E0000951E000036
:101EE000951E0000951E0000951E0000951E000026
:101EF000951E0000951E0000951E0000951E000016
:101F0000BD1F0000C51F0000CD1F0000951E000072
:101F1000951E0000951E0000951E0000951E0000F5
:101F2000951E0000951E0000951E0000951E0000E5
:101F3000951E0000951E0000951E0000951E0000D5
:101F4000951E0000951E0000951E0000951E0000C5
:101F5000951E0000951E0000951E0000951E0000B5
:101F6000951E0000EF1F0000951E0000951E00004A
:101F7000951E0000951E0000951E0000951E000095
:101F8000951E0000951E0000951E0000951E000085
:101F9000951E0000951E0000951E0000951E000075
:101FA000FF1F0000072000000F2000002D4D2846D5
:101FB00004F0AAF8284609F0EBF86BE72A4B012257
:101FC0001A6067E7284B00221A6063E7274D28460E
:101FD00004F09AF8284609F0DBF805F0C7F81F4D21
:101FE000284604F091F8284609F0D2F852E7204D2F
:101FF000284604F089F8284609F0CAF84AE71D4B3C
:1020000001221A6046E71B4B00221A6042E71A4C75
:10201000204604F079F8204609F0BAF805F0A6F851
:102020000E4C204604F070F8204609F0B1F8134930
:10203000134B186804F018F8064B01221A6070BDA3
:10204000104E2946304604F05FF82946304609F024
:102050009FF82BE7280B002010EE000044E800005A
:10206000D8ED000044EE0000400B00208CEE000094
:102070009CEE00003C0B0020E4EE0000F8EE0000B7
:10208000380B002004EF0000D0B588B03C493D4833
:1020900004F0ECFB3C4C204604F036F8204609F0F6
:1020A00077F84FF4A03000210BF064FD374E384C28
:1020B0003168204604F028F83168204609F068F8B5
:1020C000012004F077FB05F019FF00260027CDE979
:1020D000066700240494022303930294019400945D
:1020E0002C4B4FF4C0722C492C480BF03BFC2C4B72
:1020F00018602C4907F00AF8CDE906670494032319
:102100000393029401940094274B4FF4C072274923
:1021100027480BF027FC274B1860274906F0F6FFED
:10212000CDE906670494012303930294019400947B
:10213000224B4FF44072224922480BF013FC224BF1
:102140001860224906F0E2FF04E040F6CD4000218D
:102150000BF010FD1E4B1B68002BF6D0104E3068A4
:1021600004F07EFD134C206804F07AFD306800F026
:10217000F5FC206800F0F2FC0BF0E8FA08B0D0BDE6
:10218000380B002018E5000030EF000000010020AF
:102190005CF00000D91D0000C06D00200806002082
:1021A0002C0B002078F00000791D0000806F0020CB
:1021B000B8060020300B002080F00000451E000013
:1021C0004071002068070020340B002088F00000D8
:1021D000280B002008B5024B1B68984708BD00BFBC
:1021E0007C000020014B1860704700BF7C0000207D
:1021F00000B585B00A460023009301930293039330
:1022000002238DF80230044B01930146684607F023
:1022100009FF05B05DF804FBD521000080B5054637
:102220000E461746984607F0C1FB03460BF0FAFD31
:102230000446DFF8189049F80030424639463046E7
:10224000A84754F8090000F089FC00BF1000000006
:1022500008B50446EFF31183202383F31288BFF3FC
:102260006F8F01F06DFD204609F0E2FA024808F098
:102270008FFF09F073F9FCE794F000002DE9F043BB
:1022800083B0044608461546238B13F0080F05D18A
:1022900003F0070600230093019354E0012909D0BD
:1022A00043F02003238385F31188BFF36F8F03B0BE
:1022B000BDE8F08343F010032383F4E7204608F0E1
:1022C0009FFF42E0D4F814904A466946204608F041
:1022D000B0FF4FF00008238B03F00707B74269D027
:1022E000A268002A66D0012243F00803238385F305
:1022F0001188BFF36F8F002A64D1009B2BB14B462E
:102300003A466946204609F00DF8B8F1000F02D0B0
:1023100034492046C047EFF31185202383F3128808
:10232000BFF36F8F238B23F008032383238B13F0DA
:10233000100F4DD023F0100323830120268B06F0CD
:1023400007060028AFD00228B8D00028ABD001384B
:1023500004282BD801A353F820F000BFC5220000A9
:10236000AD230000712300008523000099230000A5
:102370002369D3F800800621204608F017FF4FF0AC
:102380000009A8E72369D3F804800421204608F057
:102390000DFF4FF000099EE72369D3F8088005215F
:1023A000204608F003FF4FF0000994E74FF00008C3
:1023B000C14690E7009A0AB1002295E7B8F1000FF4
:1023C00092D1B3E74A463946204608F0F7FE94E733
:1023D00013F0200F04D023F0200323830220ADE765
:1023E0000020ABE753B30000014B036000207047AF
:1023F000C0F0000008B5034808F0CAFE024808F023
:10240000C7FE08BDC0F00000F8F0000008B50348A2
:10241000034A121A002109F04CF808BD30010020CF
:10242000703A002008B50648064A121A064909F013
:1024300044F80648064A121A064909F03EF808BD53
:1024400000000020300100201804010000000020DE
:10245000000000201804010010B50446836842689B
:102460000168094808F094FE63692269E168074839
:1024700008F08EFEE169064808F08AFEA169054869
:1024800008F086FE10BD00BF28F1000058F10000E2
:1024900088F1000098F1000038B504460D4611B1EE
:1024A0000846FFF7D9FF012C04D02946204606F044
:1024B000C3F938BDEFF305811039024808F068FE12
:1024C000F3E700BFC8F1000008B501460068084AFC
:1024D000116001F120031360CA6912F4007F03D078
:1024E00043F00403024A1360FFF7D6FF08BD00BFA4
:1024F0008C0B002030BFFFF7FDBF00BF38B504468E
:10250000054D2A4605490BF0F1FB054A00216019EB
:102510000BF0FAFB38BD00BF08000000C8E0000067
:102520000800000070B50646064D074B1D444C1BC5
:102530002046FFF7E3FF083CC6F8A44005F1080079
:1025400070BD00BF0800000008000000054B5A697C
:102550009B689A4204D0044A536843F08053536006
:10256000704700BF303A002000ED00E081690D4B5C
:102570005A6942F480725A61BFF34F8FBFF36F8F75
:1025800031F8021C5A6922F480725A61BFF34F8FEE
:10259000BFF36F8F4DF60273994201D00020704750
:1025A0000120704700ED00E04FF0000C83F800C000
:1025B00002F07F4CBCF17F4F12D102F00C0CBCF149
:1025C000080F04D012F0080F07D00846704708B56E
:1025D000044808F0DDFD002008BD01221A70704794
:1025E00000207047DCF10000F8B505460F461446A0
:1025F0002F4808F0CDFD2F4B9B6A13F4805F25D147
:1026000016262C4B9B6A13F4006F24D1294B9B6A2E
:1026100013F4007F24D1274B9B6A13F4806F37D1CA
:10262000244B9B6A13F4807F37D1224B9B6A13F4AF
:10263000005F37D11F4A936A43F47F4393620121BD
:10264000284608F044FF20703046F8BD1A4808F0CC
:102650009FFD1726D5E7194808F09AFD1826D5E7FB
:10266000174808F095FD134B996B9B6A13F4004FC4
:1026700001D11926CFE7134808F08AFD37B10D4A7A
:10268000936A23F4004393621926C4E71926C2E72C
:102690000D4808F07DFD1A26C2E70C4808F078FDC9
:1026A0001B26C7E70A4808F073FD1C26C2E700BFD7
:1026B00008F2000000ED00E020F2000034F200001B
:1026C00048F2000064F200007CF2000098F2000082
:1026D000B4F2000008B5244808F05AFD234B9B6A69
:1026E00013F0007F21D11D20204B9B6A13F0807FC7
:1026F00020D11E4B9B6A13F4002F20D11B4B9B6AE9
:1027000013F4802F20D1194B9B6A13F4003F20D182
:10271000164B9B6A13F4803F20D1144A936A6FEAE8
:1027200003436FEA1343936208BD114808F030FD7C
:102730001E20D9E70F4808F02BFD1F20D9E70E48CF
:1027400008F026FD2120D9E70C4808F021FD2220C1
:10275000D9E70B4808F01CFD2320D9E7094808F009
:1027600017FD2420D9E700BFE4F2000000ED00E0EF
:1027700000F3000014F3000030F3000050F30000F9
:1027800078F3000094F3000008B500230B700248B2
:1027900008F0FEFC08BD00BFC0F3000008B50A4603
:1027A0000F2905DC0349103A034808F0F1FC08BD85
:1027B0000249F8E7E8F300001CF4000000F4000010
:1027C0002DE9F04104460F4615463F4808F0E0FC6D
:1027D0003E4B9B6A13F0100F3CD110263B4B9B6A7B
:1027E00013F0080F3BD1394B9B6A13F0020F3BD11A
:1027F0006FF01508354B9B6A13F0010F50D1334B26
:102800009B6A13F0200F50D1304B9B6A13F0100FCE
:1028100004D12E4B9B6A13F0020F04D02B4B5B6844
:1028200013F4006F46D1294B9B6A13F0200F04D09C
:10283000264A536A23F400535362244A936A43F0AE
:10284000FF0393620121204608F041FE28703046C4
:10285000BDE8F0811E4808F09BFC1126BEE71D482C
:1028600008F096FC1226BEE71B4808F091FC174BB7
:10287000D3F834809B6A13F0800F03D16FF01508F2
:102880001326B7E74146154808F082FC37B10F4AD6
:10289000936A23F0800393621326ABE71326A9E71C
:1028A0000F4808F075FC1426A9E70E4808F070FCE4
:1028B0001526A9E72146404600F03EFA0028B2D08E
:1028C00080F309880226AEE730F4000000ED00E056
:1028D00048F4000034F200007CF4000098F400009A
:1028E000B0F40000B4F2000070B506460D4626486C
:1028F00008F04EFC00232B70244BDC6A14F0020419
:102900000AD1224BDB6A002B0BDB204BDC6A14F074
:1029100080440AD1204670BD1D4808F039FC0024CF
:10292000F8E71C4808F034FCF4E71B4808F030FCDA
:102930003046FFF71BFE98B9144B9B6A13F0FF0F4C
:1029400014D1124B9C6A14F47F4416D10F4B9B6A2E
:10295000B3F5803FDED33046FFF7BCFE0446D9E72F
:1029600031680E4808F014FC3468D3E72A46012188
:102970003046FFF725FF0446CCE72A4601213046C2
:10298000FFF732FE0446C5E7D0F4000000ED00E09A
:10299000E8F400000CF500001CF500003CF5000018
:1029A00030B58BB0264B5D68C5F30805002383F373
:1029B0001188BFF36F8F0DF12603FFF7F5FD044675
:1029C000204A106000F120031360C26912F4007FF6
:1029D00003D043F004031B4A13600DF1270229467C
:1029E000204608F076FD05469DF827300BB10BB068
:1029F00030BD0DF1040C20686168A268E368ACE8A2
:102A00000F0020696169A269E369ACE80F009DF8D5
:102A100026304BB1089BC3F308025AB96FEA53231F
:102A20006FEA4323089305E0089B23F4FF7323F028
:102A30000103089301A92846FFF72EFDD7E700BF41
:102A400000ED00E08C0B0020044B5A6942F01002AC
:102A50005A615A6922F008025A61704700ED00E09D
:102A6000EFF30880EFF3098101B57246FFF798FF95
:102A700001BD00BF002080F31488BFF36F8F14489E
:102A800080F3088800201349087001F091F90020B4
:102A900011490860BFF34F8F00F036F8202080F313
:102AA00011880E484FF0AA014FF4046208F001FDAE
:102AB0000A484FF40461401880F30988EFF314804A
:102AC0000221084380F31488BFF36F8F00F0FEF8F3
:102AD000808400206C3A002094ED00E0C076002055
:102AE000084BD3F89000C0F30720002306E0054A06
:102AF000C2F898300021C2F8A01001338342F6DBFF
:102B0000704700BF00ED00E010B572B6002484F3FA
:102B10001388FFF7E5FF234608E003F120010E4A82
:102B20004FF0FF3042F821000133DBB2072BF4D91C
:102B3000002308E003F16001074A4FF0FF3042F83C
:102B400021000133DBB2072BF4D962B6BFF34F8FFC
:102B5000BFF36F8F10BD00BF00E100E008B50A4B66
:102B60009B68834202D006F027FF08BDEFF3058380
:102B7000002BF8D0054B5A6842F080525A605A6ACE
:102B800022F400425A62EEE7303A002000ED00E005
:102B900001B506F035FBBDE8014018498A684FF0E1
:102BA00030001044EFF3098C80E8F01F202080F300
:102BB0001288BFF36F8F124F4FF000664A698A6028
:102BC0003E60D2F8A4000F4C2060D2F8A800002389
:102BD000C2F8A83080F3118804B5104600F07AF9E5
:102BE000BDE8044002F1300090E8F01F8CF3098842
:102BF00001B50AF0F3FEBDE801407047303A00200D
:102C000004ED00E0440B00201EF0040F0CBFEFF3B6
:102C10000880EFF30980816911F8021C0229FFD0B6
:102C200001B57246FFF750FC01BD00BF002807DB6D
:102C300000F01F02400901239340024A42F820306D
:102C4000704700BF00E100E000280CDB00F01F022D
:102C50004009012393402030034A42F82030BFF35B
:102C60004F8FBFF36F8F704700E100E0002808DB53
:102C70004901C9B200F1604000F5614080F80013DD
:102C8000704700F00F004901C9B2014B1954704759
:102C900014ED00E04209054B53F8222000F01F001C
:102CA000012303FA00F01040704700BF00E100E08C
:102CB000044B23F07F03044A9360BFF34F8FBFF3AD
:102CC0006F8F70470000000000ED00E008B5FFF7CF
:102CD000EFFF074AD2F8883023F47003C2F8883037
:102CE000FFF794FBFFF79EFB00F074F805F0CAFEB7
:102CF00000ED00E010B4A2F120040E4942F8081CD7
:102D000021F0010142F8081C42F8203C019B42F8E6
:102D10001C3C029B42F8183C039B42F8143C4FF0C9
:102D2000807342F8043C04650023C0F8A83010BC4E
:102D3000704700BF1D220000104B9B68BBB110F113
:102D4000160F0BD0D3F89420A2F1400C844510D874
:102D5000824210D98A4207D800207047D3F89420C5
:102D60008A4201D800207047D3F8940070470020B1
:102D70007047002070470020704700BF303A0020A5
:102D800008B504460E4615460D4B9860D0F8A420B1
:102D90000C4B1A600AF022FE204600F09BF82C46ED
:102DA00086F309880020044B984720460021002222
:102DB0000023024C204700004FB500001D220000F8
:102DC000303A0020440B0020014B10221A6170475A
:102DD00000ED00E0002206E003F00F03094919446A
:102DE00020230B760132262A0ADC53B2002BF3DBB8
:102DF00003F1604303F56143202183F80013F1E7F9
:102E0000704700BFFCEC00E008B50AF04AFCEFF3A5
:102E10000583103B054A02EBC301496852F83300B1
:102E200088470AF03FFCFFF791FB08BD00DF000078
:102E300070B582B00346164A92E8030000908DF800
:102E4000041013B31D46134C44263246002120467D
:102E50000AF05AFF2B6823606B686360AB68A3605D
:102E6000EB68E3602B6923616B696361AB69A36104
:102E7000EB69E361084B1B6823620521684600F09B
:102E800079F93146204600F075F902B070BD00BFF7
:102E9000D0E00000480B00208C0B0020044B9B6806
:102EA000834201D0006D7047024B1868704700BF25
:102EB000303A00208C0B002008B5034B034A012157
:102EC000034808F0A4FC08BD000001200000002019
:102ED0005CF5000008B5D0F89430403B044803602E
:102EE00040234360034B8360012108F094FC08BD3C
:102EF000900B002000000B15084AC2F898000B68E0
:102F000023F01F03034343F01003C2F89C308B6887
:102F100043F00103C2F8A030704700BF00ED00E0AD
:102F2000084BD3F89030C3F30723013B984205D8F0
:102F300010B50446FFF7E0FF204610BD6FF0150006
:102F4000704700BF00ED00E010B5034C012322786C
:102F500008F05DFB207010BD653A002008B5002325
:102F60000B4A127808F053FB10F1160F0FD00246EF
:102F700006E0084BC3F898200021C3F8A0100132E6
:102F8000044BD3F89030C3F307239342F1DC08BD20
:102F9000653A002000ED00E0044B0522C3F89420C0
:102FA000BFF34F8FBFF36F8F704700BF00ED00E09E
:102FB000BFF35F8F024B0022C3F89420704700BF1D
:102FC00000ED00E038B51C4B1D681C4BD3F8903069
:102FD000C3F307239D422BD8FFF7EAFF002409E043
:102FE000154B5B6804EB440103EB81012046FFF7BE
:102FF00083FF0134A542F3D81148057008F02FFB78
:1030000010F1160F13D00E4B1A780C4BD3F89030EA
:10301000C3F307239A4207DA084BC3F8982000212C
:10302000C3F8A0100132F0E7FFF7B6FF002038BD6B
:103030004FF0FF30FBE700BF68F5000000ED00E057
:10304000653A002008B5024B1B689847002008BD70
:103050009C0B0020034B1860034A937843F0020353
:10306000937070479C0B00208000002008B5064933
:1030700021F00701C1F1005202F58032034808F047
:1030800007F8002008BD00BFCB840020A00B002063
:1030900068B108B5064A074B1B680749A1FB031333
:1030A0009B0C00FB03F042F00103984708BD7047FA
:1030B000E0E000000001002083DE1B430123044AFE
:1030C000C2F840354FF08042C2F878350020704792
:1030D00000E00140BFF34F8F0549CA6802F4E06287
:1030E000044B1343CB60BFF34F8F00BFFDE700BF1E
:1030F00000ED00E00400FA0508B50448044B036045
:103100003F23436000F044FF002008BDAC0B0020CB
:10311000FFFF0F0000B585B00023019302930393D6
:1031200044F25A53ADF804300223ADF80630039050
:1031300005238DF80A3008F038FAADF80800044B82
:103140009B680C2101A8984705B05DF804FB00BFFF
:103150000801002008B5024B1B68984708BD00BF56
:103160000801002008B5024B5B68984708BD00BF06
:103170000801002028B108B511B1024A92689047B1
:1031800008BD70470801002000487047080C002067
:10319000034BC01A8010034B03FB00F0704700BFC5
:1031A000C80B0020B76DDBB638B505460C46FFF7F7
:1031B000EFFF01464022034808F027FC014628465D
:1031C000A04738BDA0DE000030B583B005460C46F0
:1031D000FFF7DEFF0146402300932346054A0648D9
:1031E00008F02DFC011E01DB03B030BD2846A047CE
:1031F000FAE700BF87BA0000A0DE000008B510B1F2
:1032000001280DD008BD0021084808F08CFB836818
:1032100013F0070FF6D10021044808F0E4FBF1E7B2
:103220000121024808F0DFFBECE700BFA0DE000050
:1032300010B582B0EFF31184202383F31288BFF31B
:103240006F8F134A136843F00201116013F0010FEE
:1032500009D1002384F31188BFF36F8F9BB908F065
:103260001AFC02B010BD0DF1070008F043FB9DF8F9
:103270000730012B01D00023ECE7FFF785FF08F0B2
:10328000A0FB0123E6E70021024808F0ACFBE8E7D9
:10329000180C0020A0DE000010B5EFF311842023ED
:1032A00083F31288BFF36F8F074A136823F002017C
:1032B000116013F0010F04D084F31188BFF36F8FF6
:1032C00010BD08F0EDFBF7E7180C002070B50546BF
:1032D000012807D14FF08043D3F81C3403F00303D7
:1032E000012B4ED00AF02AFB044618B9284B1B7854
:1032F000002B3BD1EFF31186202383F31288BFF319
:103300006F8F012424B94FF080430222C3F80823B1
:103310004FF08043D3F81824D3F8183403F0030394
:1033200012F4803F03D0012B26D0012D24D0FCB114
:10333000304608F025F94FF08043D3F81835002BBC
:10334000E6D14FF08043D3F80431002BE0D04FF0AA
:1033500080430022C3F80421D3F804210122C3F8DA
:1033600018250C49C1F880219A60D1E70026C9E7E9
:10337000012008F09AFBDEE724B186F31188BFF341
:103380006F8F70BD4FF080430222C3F80423F8E72B
:103390006C3A002000E100E000B587B001AB0022EC
:1033A00001925A609A60DA601A61019302930122D5
:1033B0000492074A08F05FFB002805DB4FF48042C7
:1033C000002301A805F05AFE07B05DF804FB00BF1A
:1033D000D7BA0000F8B5064600220121104608F0D1
:1033E000A7F8114800F016FED8B9074600F030FEE5
:1033F000002403E00123AB601C44E4B2012C0ED88E
:103400002146304608F08FFA05462146304608F03E
:1034100095FA064907F0ABFF031EEBDA1F46384664
:10342000F8BD6FF00407FAE7FD31000098F50000E1
:1034300008B5064B1B7803B108BD4FF4A5700AF020
:10344000C1F9024B01221A70F6E700BF663A00206C
:1034500010B50446104B0121BFF35B8F53E8002FDA
:1034600043E800100028F9D1BFF35B8F1AB1631E47
:10347000012B0DD910BD094808F060FA0849002356
:103480004B608B60CB6001238B6007F08DFFEEE714
:103490002046FFF71BFFEDE7C40B0020A0DE000075
:1034A000B40B002010B504460A2806D0E1B2064845
:1034B00083685B689847204610BD034883685B6853
:1034C0000D219847F2E700BFE0DE000010B5044C84
:1034D0002046FFF7BFFD2046FEF784FE10BD00BF6B
:1034E000A534000008B505480AF095F918B1FFF7B2
:1034F000EDFF002008BD6FF01200FBE7E0DE0000EA
:1035000008B9024870470020704700BFC0DE0000C5
:1035100038B504464568284608F0AFFB20B90E4987
:10352000204608F059FB38BDA86809F04EFF002876
:10353000F5D10021A86809F044FF50B900220749DD
:10354000A86809F036FF00220521062007F0F0FFE9
:10355000E5E76FF00400E6E74BBD00002DBD00007D
:1035600030B500F01F0C400917D14FF0A04E0CF5FC
:10357000E0705EF820500A4C2C4041EA420141EADA
:1035800083039DF80C2043EA02239DF8102043EAB0
:10359000024323434EF8203030BD4FF0000EE6E7E3
:1035A000F0F8FCFF2DE9F04F85B080468B46039282
:1035B000002423E04FF0FF3638E0039BC3F80C658E
:1035C000012702973946B6F1FF3F15D0B1F1FF3F11
:1035D00040F0E48058F80A3013F4004F40F0E280E5
:1035E000029D00220192CDF80090C3F341233A4698
:1035F00029463046FFF7B4FF0134E4B25C4580F061
:10360000D3804FEA840A58F82430C3F3C725C3F3A4
:10361000C322C3F3080615F0080540F0C7806749C8
:1036200011F8029040F2FF129642C3D01B0E192BE4
:1036300000F2BF8001A252F823F000BFBB350000AA
:10364000A5360000B5360000C3360000D3360000B2
:10365000E3360000F1360000B3370000B337000056
:10366000B3370000B3370000013700001737000000
:10367000B3370000B3370000B3370000B3370000A2
:10368000B3370000B3370000B3370000B337000092
:10369000B33700002D3700004137000055370000D8
:1036A00069370000039BC3F814652F4602954FF05D
:1036B000FF3188E7039BC3F8086501270297394665
:1036C00081E7039BC3F810652F4602954FF0FF3149
:1036D00079E7039BC3F808652F4601230293002175
:1036E00071E7039BC3F80C650127029700216AE785
:1036F000039BC3F810652F4602954FF0FF3162E738
:10370000039BC3F80865B9F1000F37D02F46029527
:103710004FF0FF3157E7039BC3F80C65B9F1000F79
:1037200034D02F4602954FF0FF314CE7039BC3F88E
:10373000606558F80A10C1F300410127029742E77B
:10374000039BC3F8646558F80A10C1F300410127D0
:10375000029738E7039BC3F8686558F80A10C1F36D
:103760000041012702972EE7039BC3F86C6558F8C8
:103770000A10C1F300410127029724E74F46CDF814
:1037800008904FF0FF314FF006091CE74F46CDF887
:1037900008904FF0FF314FF0060914E7304608F06B
:1037A00042FC17E701271CE7002004E06FF015003A
:1037B00001E06FF0850005B0BDE8F08FE8F500008E
:1037C000F8B505460E4647680AF0B8F820B9154B1B
:1037D0001B7843B1002300E0012353B9284608F0C9
:1037E000CEFC044611E00123F7E784F31188BFF310
:1037F0006F8FEFF31184202383F31288BFF36F8F51
:10380000284608F06DFC0028EFD0BB691E7001222D
:10381000B969284608F078FC84F31188BFF36F8FEC
:10382000F8BD00BF6C3A002038B504464568012158
:10383000E86808F0C9FC63681A682B69C2F8243587
:103840006B7D297D0B43C2F86C35204608F010FDD6
:1038500000B138BD0249204608F000FCF9E700BF7E
:1038600031C20000C1F30E0100F5A870014B43F80E
:1038700020107047001001404FF480338340024A0B
:10388000C2F84433704700BF001001404FF480334A
:103890008340024AC2F84833704700BF001001401D
:1038A000014BD3F80405704700100140034B044A54
:1038B000C3F80823C3F84823704700BF0010014035
:1038C00001000F0010B5012383406FEA030C0E4A7C
:1038D000BFF35B8F52E8001F01EA0C0E42E800E4E0
:1038E000002CF7D1BFF35B8F4FF480328240074842
:1038F000C0F80823BFF35F8FBFF36F8F0B4214BF75
:103900000120002010BD00BF3C0C00200010014031
:103910004FF480338340144AD2F80423134201D178
:103920000020704710B5044601238340DB430F4954
:10393000BFF35B8F51E8002F02EA030041E8000C5F
:10394000BCF1000FF6D1BFF35B8F22FA04F313F042
:10395000010F03D1204608F024FD18B1204608F0DD
:103960002DFD012010BD00BF00100140340C0020CF
:1039700001B9704701238340114ABFF35B8F52E8BE
:1039800000CF4CEA030C42E800C10029F7D1BFF395
:103990005B8F4FF4803383400A4AC2F80433BFF38D
:1039A0005B8F094B1B68BFF35B8FC34013F0010FA4
:1039B000DFD0064B4FF40032C3F80021D9E700BF37
:1039C0003C0C002000100140340C002000E100E01D
:1039D00038B514461046194608F0FCFC02460D495D
:1039E0000B68E01A1B184C6844F100040B604C6033
:1039F000A2F58053B3F5C04F09D2074B1B68590C91
:103A0000DB03D41841F10005044BC3E9004506F07F
:103A10002DFA38BD38080020400C00204008002056
:103A200038B5134B1C68650CE403BFF35F8FFFF7D9
:103A300037FF47F6FF73984213D0041945F100058C
:103A4000B0F5006F0AD20B4BD3E90023944275EB1B
:103A5000030303D214F5004445F10005204629462E
:103A600038BD044BD3E90023A242AB41EBD3E4E7DA
:103A7000400C0020400800202DE9F0410646144685
:103A80001D469DF820801046194608F0A3FC074605
:103A9000FFF7C6FFA04271EB05031AD2201A65EBAF
:103AA000010144F20103984271F100012FD21B4B36
:103AB00003EB0613D3E90223AB4208BFA24201D1B4
:103AC000002018E042463946304608F093FC90B199
:103AD0001BE0B8F1000F1DD10123B340104ABFF322
:103AE0005B8F52E8000F184342E800010029F8D12B
:103AF000BFF35B8F0020094B320103EB0616C6E9CA
:103B0000024506999950079B7360BDE8F0816FF0FC
:103B10001500FAE76FF01500F7E700BF180800205E
:103B2000340C002010B586B0FFF7C0FE0023294AF0
:103B3000C2F808350FE0284A02EB03124FF0FF30BD
:103B40004FF0FF31C2E902014FF480329A4021491F
:103B5000C1F804230133012BEDDD204B4FF400327B
:103B6000C3F8802100220121112007F0E1FC11207F
:103B700007F0D4FC174C0120A0602060184B0322F2
:103B80001A60002302930193164B009343F6FF72D1
:103B9000002308F077FC0220FFF75AFC124A136852
:103BA00023F0010313604FF48033C4F8443347F625
:103BB000FF73C4F840350DF117020C490C4800F0B2
:103BC000FBF9002804DB9DF8170000F00BFA002039
:103BD00006B010BD001001401808002000E100E010
:103BE0003C0C0020D1390000380C002008100140A6
:103BF000401101402DE9F04782B00446FFF788FEEE
:103C000010B902B0BDE8F087FFF70AFF82460D4603
:103C100008F0E3FB0646154B03EB0413D3E90289D6
:103C2000C24575EB09050BD20025304608F0DDFBD7
:103C3000002DE6D0009742464B462046A847E0E7D5
:103C40000A4A230102EB0411D5584F680020D050D6
:103C50004FF0FF324FF0FF33C1E902232046FFF758
:103C600015FE204608F0AAFBDFE700BF1808002079
:103C700010B50D4BD3F8043313F4803F03D1012466
:103C8000012C0CDD10BD4FF48031074808F04FFBCC
:103C90000028F4D0054A136801331360EFE720468B
:103CA000FFF7A8FF0134EBE700100140400C0020B3
:103CB00010B584B0B0F1FF3F1AD001281EDD43F6E5
:103CC000FF739842A8BF18460446154B01221A708C
:103CD000FFF7A6FE134B1A685B68801AB0F5804F99
:103CE0000ED22044B0F5804F0CD343F6FF7009E0AC
:103CF0000B4B00221A7043F6FF74E9E70124E4E756
:103D000043F6FF70002112180291019106490091BB
:103D100043F10003012008F0B5FB04B010BD00BF63
:103D2000693A002038080020D139000008B5FFF7B3
:103D300077FE024B1B68C01A08BD00BF3808002080
:103D400008B5074B01225A60112007F0ECFBFFF782
:103D5000ADFD044B4FF40032C3F8802108BD00BF15
:103D60000010014000E100E0BFF34F8F0549CA6831
:103D700002F4E062044B1343CB60BFF34F8F00BFEC
:103D8000FDE700BF00ED00E00400FA05024BD3F8A8
:103D90000034002BFAD0704700E0014008B5034B17
:103DA000C3F80405FFF7F2FF08BD00BF00E00140C3
:103DB00038B508F083FB40B14FF08053D3F824337B
:103DC000C3F304236B4AC2F8403508F089FB10B1F5
:103DD000694B6A4A5A6708F099FB48B14FF0805323
:103DE000D3F84432C3F342334FF08042C2F83C353B
:103DF00008F09EFB30B1624AD2F8FC3023F08073A9
:103E0000C2F8FC3008F0AAFB40B14FF0804300221A
:103E1000C3F80C21C3F81021C3F8382508F0B0FB13
:103E200020B14FF080430322C3F8A02508F0BEFB69
:103E300060B1544B0522C3F810260122C3F888262E
:103E40000022C3F818263F22C3F8142608F0C4FB4A
:103E5000002846D04FF08052D2F804144A4BC3F8E1
:103E60002015D2F80814C3F82415D2F80C14C3F89E
:103E70002815D2F81014C3F82C15D2F81414C3F86E
:103E80003015D2F81814C3F83415D2F81C14C3F83E
:103E90004015D2F82014C3F84415D2F82414C3F8FE
:103EA0004815D2F82814C3F84C15D2F82C14C3F8CE
:103EB0005015D2F83014C3F85415D2F83414C3F89E
:103EC0006015D2F83814C3F86415D2F83C14C3F85E
:103ED0006815D2F84014C3F86C15D2F84424C3F81E
:103EE000702508F09BFB48B14FF08053D3F858324F
:103EF00003F04F034FF08042C2F8E43E08F0A0FB0D
:103F000060B14FF08043D3F8003413F0010F05D0B7
:103F10004FF080436FF00102C3F8002408F0A2FBC9
:103F200030B11A4AD2F83C3743F48063C2F83C37C8
:103F300008F0C0FB4FF01023D3F80032002B06DB53
:103F40004FF01023D3F80432002B00DB38BD0120E2
:103F5000FFF724FF4FF010241525C4F80052FFF797
:103F600015FFC4F80452FFF711FF0020FFF716FFFA
:103F7000FFF7FAFE0030014000C007400DF0ADBA77
:103F800000ED00E00050004000C000400010004084
:103F9000014B1860704700BF440C002010B5144658
:103FA000044B186808F09CFB002801DB20700020FF
:103FB00010BD00BF440C002070B505460C461646E7
:103FC00000210846FFF7EAFF002808DB3278044B9F
:103FD000A23243F8325003EBC2035C60002070BD94
:103FE00000F0014001238340014AC2F804357047C4
:103FF00000F0014008B5024B1B680020984708BD3F
:10400000480C002008B5024B1B68984708BD00BF4C
:10401000480C002008B50B4B1B797BB9094B186085
:1040200001221A7100B1084800F04EF828B9054B7A
:10403000186800B1054800F0A5F808BD6FF07700DA
:10404000FBE700BF480C0020F53F000005400000E2
:1040500008B5034B1B680BB108F085FB08BD00BF1A
:10406000480C002010B54FF080430122C3F808230C
:104070005A600022C3F80021D3F8003142F21074D4
:1040800006E00023ABB1012008F026FB013C0ED076
:104090004FF08043D3F80C24D3F80C3403F0010321
:1040A00012F4803FEDD0002BECD00123EAE700238F
:1040B00000E001232BB108F07AFB10B1014B002284
:1040C0005A7110BD500C002008B5094B1B7953B92B
:1040D000074B186001221A7108F069FB30B100200B
:1040E000034B587103E06FF0770000E0002008BD3B
:1040F000500C00204FF080430022C3F80021D3F879
:10410000002101221A600B4B1B6823B14FF0804342
:10411000C3F8042370474FF08043D3F80031002BDD
:10412000F9D04FF080430022C3F80021D3F80031CA
:10413000704700BF500C002008B54FF08043D3F803
:10414000043313F0010F1AD04FF08043D3F800313D
:10415000ABB14FF080430022C3F80021D3F8002117
:104160000122C3F8082308F022FB28B1044B5B7935
:104170002BB9034B01225A71014B1B68984708BDAC
:10418000500C002008B5094B1B795BB9074B186030
:1041900001221A7108F053FB4FF08043C3F8180551
:1041A000002008BD6FF07700FBE700BF580C00202F
:1041B00000B583B04FF08043D3F81824D3F81834F7
:1041C00003F00303019312F4803F26D14FF08043A4
:1041D000D3F8143413F0010F23D108F030FB019011
:1041E0004FF08043019AC3F818250022C3F8042138
:1041F000D3F8043108F001FB002835D14FF080439B
:1042000001229A60214B1B6893B34FF08043022236
:10421000C3F8042303B05DF804FB01A808F02DFBEC
:10422000DEE74FF08043D3F81C3403F0030301931F
:1042300001A808F022FB0028D2D0144B1B682BB138
:104240004FF080430222C3F80423E3E74FF080439A
:10425000D3F80431002BF9D04FF080430022C3F88B
:104260000421D3F80431D5E78A2008F035FAC5E7F0
:104270004FF08043D3F80431002BF9D04FF0804346
:104280000022C3F80421D3F80431C3E7580C0020FE
:1042900010B54FF08043D3F8044304F01A0402E051
:1042A000184B1B68984764B3B4FA84F0C0F11F0040
:1042B0000122824083009BB203F580739BB2C0B29F
:1042C000D2B224EA020403F1804319680029EAD03B
:1042D000002119601B684FF08043C3F80823022AAD
:1042E000DED1D3F81814D3F8183413F0030FD7D154
:1042F0004FF080430121C3F81815C3F804239960D7
:10430000D1E710BD580C002000F01F0240090CD16D
:104310004FF0A04102F5E07251F82200044B034037
:1043200043F0020341F8223070470021F2E700BF5A
:10433000F0F8FCFF00487047040100200048704777
:104340005CF6000000B583B002F044F9094B1B682D
:10435000B83301934FF49C7300936323022204212A
:10436000054801F00DFC012002F024FA002003B002
:104370005DF804FB600C002064F6000030B589B0E5
:104380000D4D2868083000220023CDE906230024C3
:1043900004940394029401940094084B4FF4007227
:1043A000074909F0DFFA28680830064904F0AEFE34
:1043B000204609B030BD00BF600C00203FD4000093
:1043C0008074002070F60000034630B1044A10608B
:1043D00000201860C3F8B80070470120704700BF84
:1043E000600C002039B100B509F01CFD034A1150E2
:1043F00000205DF804FB0120704700BF140000009E
:1044000049B100B509F00EFD054B1B580B6023B1F7
:1044100000205DF804FB012070470120F9E700BF90
:104420001400000008B509F0FDFC054B185810B148
:1044300002F0E6FC08BD05F0B9FA0028F8D1F9E76A
:104440001000000010B509F0EDFC084B1C583CB101
:10445000204609F079FA0146204602F05FFA10BDC5
:1044600005F0A4FA04460028F2D1F8E71000000095
:1044700070B582B04FF0FF330193234B1B68B3B983
:1044800004460D46204B01221A60204B1B6813F096
:10449000020F0FD01E4B186803686BB11C4B1B68D2
:1044A00001AA0021186800F0D5FB019B4BB1042044
:1044B00009F0FAF802B070BD00F0B2F90128EDD1B0
:1044C000F8E70023E05C18B17F2B01DC0133F9E74A
:1044D000013B00E0013B002B04DBE05C5C2801D0E9
:1044E0002F28F7D10A4E32680133E118106801F025
:1044F00041FC33682A460021186800F0C9FA0120FF
:1045000000F0C8FCD3E700BF640C00209C0C002026
:10451000680C002008B550B10346084A106000201E
:104520001860074A136843F00203136008BD1B219B
:104530000448FFF79DFF0120F8E700BF680C00204A
:104540009C0C002078F6000038B548B10C460546B2
:1045500061B1124B1B6813F0020F0DD1012038BD61
:1045600058210F48FFF784FF0120F8E75A210C4833
:10457000FFF77EFF0120F2E700212160094B1B6855
:104580002246186800F066FB23682BB1054B1B68B8
:104590001B682B600020E2E70120E0E79C0C002074
:1045A00078F60000680C002008B550B10346084AB0
:1045B000106000201860074A136843F480031360FA
:1045C00008BD13210448FFF753FF0120F8E700BF9F
:1045D0006C0C00209C0C0020B8F6000008B520B13F
:1045E00001460B4B1860002309E016210948FFF72C
:1045F0003FFF01200BE0002241F823200133042B70
:10460000F9D9054A136843F008031360002008BD78
:10461000700C0020F8F600009C0C002008B50E4B32
:104620001B6813F0080F0AD004280ED80B4B1A6829
:1046300052F820300B4442F82030002008BD4421BD
:104640000748FFF715FF0120F8E747210448FFF767
:104650000FFF0120F2E700BF9C0C0020700C00202F
:10466000F8F6000008B50F4B1B6813F0080F0BD0CD
:1046700004280FD80C4B1B6853F820208A420FDA0D
:1046800043F82010002008BD5B210848FFF7F0FE2A
:104690000120F8E75E210548FFF7EAFE0120F2E776
:1046A0000020F0E79C0C0020700C0020F8F60000C1
:1046B00008B51E4B1B6813F0080F35D01C4B1B6848
:1046C0005B68002B10DC1A4B1B681B681C2B13DC6F
:1046D000174B1B689B68002B16DC154B1B68DB68AF
:1046E000002B19DC002008BD082000F0B1FB104BA6
:1046F0001B6800225A60E6E7092000F0A9FB0C4B7A
:104700001B6800221A60E3E70A2000F0A1FB084BB7
:104710001B6800229A60E0E70E2000F099FB044B32
:104720001B680020D860DEE70120DCE79C0C00203D
:10473000700C0020002303E0054A1268D3540133B3
:10474000372BF9D9024B1B6838229A630020704737
:10475000740C0020094B1A68936B6BB11178013B04
:10476000936312F803C082F800C04FF0FF0C02F808
:1047700003C001700020704701207047740C0020B6
:1047800008B520B1054A1060FFF7D4FF08BD282105
:104790000348FFF76DFE0120F8E700BF740C00200E
:1047A0003CF7000010B550B104461A4B186038238E
:1047B00003601C23436003238360002119E034213C
:1047C0001548FFF755FE012022E001EB410302EB03
:1047D0008303023304EB8303002098600132022A32
:1047E000F3D901EB410304EB0313002283F82020EB
:1047F0000131372906D801EB410304EB03130022F2
:10480000DA60ECE7054A136843F0100313600020F8
:1048100010BD00BF780C00203CF700009C0C00206D
:10482000294B1B6813F0100F4CD0F0B583B0044631
:10483000E0B1EFF31185202383F31288BFF36F8F6C
:104840000DF10700FFF786FFB0B9204B1F689DF8F8
:10485000072002EB4206360108363E44043602EBDE
:10486000420307EB0313DE6001461AE05D2118489E
:10487000FFF7FEFD012023E0012008F015FF85F37E
:104880001188BFF36F8F01201AE002EB420301EBA6
:104890008303023307EB83034FF0000CC3F808C017
:1048A00001310229F1D902EB420307EB0313002186
:1048B000D96183F82010266085F31188BFF36F8FCC
:1048C00003B0F0BD012070479C0C0020780C002044
:1048D0003CF7000008B5234B1B6813F0100F28D0DD
:1048E000214B1A6802F10C03834228D802F68C226D
:1048F000824224D9C31A1D4AA2FB0323C3F34713E0
:10490000372B22D8EFF3118C202282F31288BFF3C9
:104910006F8F0268FAB10022026015490868816B46
:104920004354013181638CF31188BFF36F8F1046BC
:104930000AE084210F48FFF79BFD012004E0872156
:104940000C48FFF795FD012008BD8E210948FFF7AF
:104950008FFD0120F8E78CF31188BFF36F8F0120E2
:10496000F2E700BF9C0C0020780C0020ABAAAAAA9A
:10497000740C00203CF7000010B5194B1B6813F0B5
:10498000100F03D041B168B1002212E0AC211548EC
:10499000FFF76EFD01201FE0AF211248FFF768FD11
:1049A000012019E0B2210F48FFF762FD012013E05A
:1049B0000132372A11D80C4B1C6802EB42031B0151
:1049C00008332344043302EB420C04EB0C14E46878
:1049D0008442EDD10B60002010BD0120FCE700BF38
:1049E0009C0C00203CF70000780C002070B5194B9F
:1049F0001B6813F0100F1AD005460E461446E1B19D
:104A000021460020FFF72EFE1B2C19D8621C124BEA
:104A10001B6803F10C01A94203D803F68C23AB42B7
:104A200010D8DE210D48FFF723FD012070BDC621FF
:104A30000A48FFF71DFD0120F8E70024084EDFE7D4
:104A40001C22E4E7314605F1140009F04FF900207B
:104A5000ECE700BF9C0C0020780C00203CF7000025
:104A6000F0E4000038B540B10C4605460846FFF7B3
:104A7000D7FE48B923681D6007E04FF484710348EE
:104A8000FFF7F6FC012000E0012038BD3CF70000F4
:104A900008B5154B1B6813F0100F10D0022915D85C
:104AA000124B1B6803F10C0C844516D803F68C23BB
:104AB000834212D900EB81014A60002008BD4FF407
:104AC00088710B48FFF7D4FC0120F7E740F213117F
:104AD0000748FFF7CDFC0120F0E74FF48B71044845
:104AE000FFF7C6FC0120E9E79C0C0020780C0020B1
:104AF0003CF7000008B5114B1B6813F0100F0ED0E7
:104B00000F4B1B6803F10C0282420FD803F68C2373
:104B100083420BD903690B430361002008BD4FF4A6
:104B20008F710848FFF7A4FC0120F7E74FF491715B
:104B30000448FFF79DFC0120F0E700BF9C0C00201B
:104B4000780C00203CF7000008B5144B1B6813F0EC
:104B5000100F0ED0A1B1124B1B6803F10C02824260
:104B600015D803F68C23834211D903680B6000200B
:104B700008BD4FF49B710B48FFF77AFC0120F7E763
:104B800040F239110748FFF773FC0120F0E740F2CB
:104B90003D110448FFF76CFC0120E9E79C0C002064
:104BA000780C00203CF7000008B50F4B1B6813F091
:104BB000100F0BD00D4B1B6803F10C0282420CD876
:104BC00003F68C23834208D9006808BD40F24511E2
:104BD0000748FFF74DFC0020F7E740F24911044871
:104BE000FFF746FC0020F0E79C0C0020780C00202A
:104BF0003CF7000008B5144B1B6813F0100F0ED0E3
:104C0000A1B1124B1B6803F10C02824215D803F6C6
:104C10008C23834211D914300860002008BD4FF462
:104C2000A9710B48FFF724FC0120F7E740F255116A
:104C30000748FFF71DFC0120F0E740F25911044836
:104C4000FFF716FC0120E9E79C0C0020780C0020FF
:104C50003CF7000008B51A4B1B6813F0100F12D078
:104C6000C2B102291DD8174B1B6803F10C0C8445F7
:104C70001ED803F68C2383421AD900EB81014B68BE
:104C80001360002008BD40F261110F48FFF7F0FBF0
:104C90000120F7E74FF4B2710B48FFF7E9FB012061
:104CA000F0E740F267110848FFF7E2FB0120E9E76F
:104CB00040F26B110448FFF7DBFB0120E2E700BF85
:104CC0009C0C0020780C00203CF700000E2841D8F6
:104CD000DFE800F0443C282C30343824080C101451
:104CE000181C20001E4B0B60002070471D4B0B60F2
:104CF000002070471C4B0B60002070471B4B0B6063
:104D0000002070471A4B0B6000207047194B0B6056
:104D100000207047184B0B6000207047144B0B604D
:104D200000207047154B0B6000207047144B0B6040
:104D300000207047134B0B6000207047124B0B6034
:104D400000207047114B0B6000207047104B0B6028
:104D5000002070470F4B0B60002070470120704708
:104D600080F70000A0F70000CCF70000E0F700009B
:104D70000CF8000038F8000054F8000074F8000047
:104D800088F80000A0F80000B4F80000D0F8000097
:104D9000E8F80000F8F8000010B584B004461B4B9A
:104DA00019688B6893B103A92046FFF78FFF012C88
:104DB00013D014B3A31E0C2B1FD8144B1B680399DC
:104DC000986801F051F9002004B010BD0831104876
:104DD00001F04CFD0128E6D1F6E702A901A8FFF792
:104DE000B3FB0128F0D0094B1868029B019A039984
:104DF000806801F0B3F90020E6E7044B1B68224607
:104E00000449986801F0AAF90120DDE77C0C002034
:104E100014F90000F8F8000008B560B10346094A2B
:104E200010600020186058609860074A136843F0CB
:104E30002003136008BD1B210448FFF719FB012064
:104E4000F8E700BF7C0C00209C0C00201CF900003F
:104E500010B50E4B1B6813F0200F14D00C4B1A68C2
:104E60001368411E23FA01F414F0010402D0002457
:104E7000204610BD4FF0010C0CFA01F10B431360FA
:104E8000FFF78AFFF4E70124F2E700BF9C0C002043
:104E90007C0C002038B5134B1B6813F0200F1FD07B
:104EA000114B1B685C6814B10024204638BD1A6899
:104EB000451E0121A9400A431A605860FFF76CFFA4
:104EC0000546012808D0084B1B680849986801F07E
:104ED000CBF808F03BFCE8E708F038FC2C46E4E7A8
:104EE0000124E2E79C0C00207C0C002058F9000013
:104EF00008B550B10B4A1060002363B10A4A136829
:104F000043F040031360002008BD9B210748FFF7D2
:104F1000AFFA0120F8E7034A1268002142F8331083
:104F20000133EAE7800C00209C0C002080F900008F
:104F300030B583B0002301930093204B1B6813F01E
:104F4000010F37D004461E4B1B685B680BB901206C
:104F500031E0EFF31185202383F31288BFF36F8FC5
:104F6000184B1A6813680133136001AA0821164B05
:104F7000186800F0C7FE012817D0019B1C80114B58
:104F80001B681A88019B5A800198043001F020FDAB
:104F90006B46082201990C48006800F0C1FE85F3B9
:104FA0001188BFF36F8F002005E085F31188BFF3F0
:104FB0006F8F00E0012003B030BD00BF9C0C0020CB
:104FC000A40C0020800C0020482C002070B582B07A
:104FD000002301930093224B1B6813F0010F3CD078
:104FE00005460C461F4B1B685B680BB9012035E07A
:104FF000EFF31186202383F31288BFF36F8F1A4BD0
:105000001A6813680133136001AA0C21174B186842
:1050100000F078FE01281BD0A8B240F48050019B1C
:105020001880114B1B681A88019B5A800198043024
:1050300001F0CEFC01998C606B460C220B48006895
:1050400000F06EFE86F31188BFF36F8F002005E03D
:1050500086F31188BFF36F8F00E0012002B070BDAE
:105060009C0C0020A40C0020800C0020482C002068
:10507000F0B583B0002301930093234B1B6813F01A
:10508000010F3ED004460E461546204B1B685B6858
:105090000BB9012036E0EFF31187202383F3128848
:1050A000BFF36F8F1A4B1A6813680133136001AA9C
:1050B0001021184B186800F025FE01281CD0A4B25E
:1050C00044F40054019B1C80114B1B681A88019BFF
:1050D0005A800198043001F07BFC01998E60CD600C
:1050E0006B4610220B48006800F01AFE87F3118807
:1050F000BFF36F8F002005E087F31188BFF36F8F38
:1051000000E0012003B0F0BD9C0C0020A40C0020A6
:10511000800C0020482C00202DE9F04182B004468C
:105120001D46002001900090234B1B6813F0010FD7
:105130003ED00F461646214B1B685B680BB9012019
:1051400037E0EFF31188202383F31288BFF36F8FCA
:105150001B4B1A6813680133136001AA1421194B01
:10516000186800F0CFFD01281DD0A4B244F44054CB
:10517000019B1C80124B1B681A88019B5A80019866
:10518000043001F025FC01998F60CE600D616B4603
:1051900014220C48006800F0C3FD88F31188BFF3A7
:1051A0006F8F002005E088F31188BFF36F8F00E058
:1051B000012002B0BDE8F0819C0C0020A40C00206E
:1051C000800C0020482C00202DE9F04182B00446DC
:1051D0001D46002001900090244B1B6813F0010F26
:1051E00040D00F461646224B1B685B680BB9012066
:1051F00039E0EFF31188202383F31288BFF36F8F18
:105200001C4B1A6813680133136001AA18211A4B4A
:10521000186800F077FD01281FD0A4B244F4804440
:10522000019B1C80134B1B681A88019B5A800198B4
:10523000043001F0CDFB01998F60CE600D61089BB9
:105240004B616B4618220C48006800F069FD88F33A
:105250001188BFF36F8F002005E088F31188BFF33A
:105260006F8F00E0012002B0BDE8F0819C0C0020AF
:10527000A40C0020800C0020482C00202DE9F041D7
:1052800082B005460E46002301930093D41C24F0FF
:10529000030404F10803402B00D93824EFF31188EC
:1052A000202383F31288BFF36F8F1D4B1A68136896
:1052B0000133136004F1080701AA3946194B186835
:1052C00000F020FD012825D02DB2174B03EA8423DE
:1052D0001D43019B1D80124B1B681A88019B5A803D
:1052E0000198043001F074FB019D2246314605F11E
:1052F000080008F0FBFC6B463A462946094800685E
:1053000000F00EFD88F31188BFF36F8F002002B00C
:10531000BDE8F08188F31188BFF36F8FF7E700BF16
:10532000800C0020482C002000F0FF0F2DE9F043F6
:1053300083B005460F461646002201920092DC1CFF
:1053400024F0030404F10C03402B00D93424284B2F
:105350001B6813F0010F46D0264B1B685B680BB926
:10536000012041E0EFF31189202383F31288BFF37A
:105370006F8F214B1A6813680133136004F10C0816
:1053800001AA41461D4B186800F0BCFC012825D03D
:105390002DB2221D1A4B03EA82231D43019B1D805F
:1053A000154B1B681A88019B5A800198043001F044
:1053B0000FFB019DAF602246314605F10C0008F05D
:1053C00095FC6B46424629460C48006800F0A8FC54
:1053D00089F31188BFF36F8F002005E089F31188EE
:1053E000BFF36F8F00E0012003B0BDE8F08300BF82
:1053F0009C0C0020A40C0020800C0020482C0020D5
:1054000000F0FF0F2DE9F04782B0054688461746A9
:105410001E460023019300930A9C033424F00304E6
:1054200004F11003402B00D93024294B1B6813F0E2
:10543000010F49D0274B1B685B680BB9012044E082
:10544000EFF3118A202383F31288BFF36F8F224B6F
:105450001A6813680133136004F1100901AA494660
:105460001E4B186800F04EFC012828D02DB204F124
:1054700008021B4B03EA82231D43019B1D80164B30
:105480001B681A88019B5A800198043001F0A0FA29
:10549000019DC5F80880EF602246314605F11000F5
:1054A00008F024FC6B464A4629460C48006800F088
:1054B00037FC8AF31188BFF36F8F002005E08AF371
:1054C0001188BFF36F8F00E0012002B0BDE8F087C4
:1054D0009C0C0020A40C0020800C0020482C0020F4
:1054E00000F0FF0F2DE9F04782B0054688461746C9
:1054F0001E460023019300930B9C033424F0030405
:1055000004F11403402B00D92C242A4B1B6813F000
:10551000010F4AD0284B1B685B680BB9012045E09E
:10552000EFF3118A202383F31288BFF36F8F234B8D
:105530001A6813680133136004F1140901AA49467B
:105540001F4B186800F0DEFB012829D02DB204F1B2
:105550000C021C4B03EA82231D43019B1D80174B49
:105560001B681A88019B5A800198043001F030FAB8
:10557000019DC5F80880EF602E6122460A9905F169
:10558000140008F0B3FB6B464A4629460C480068F5
:1055900000F0C6FB8AF31188BFF36F8F002005E08F
:1055A0008AF31188BFF36F8F00E0012002B0BDE8DD
:1055B000F08700BF9C0C0020A40C0020800C002071
:1055C000482C002000F0FF0F2DE9F04782B005467F
:1055D000884617461E460023019300930C9C033413
:1055E00024F0030404F11803402B00D928242B4B8A
:1055F0001B6813F0010F4CD0294B1B685B680BB97B
:10560000012047E0EFF3118A202383F31288BFF3D0
:105610006F8F244B1A6813680133136004F1180963
:1056200001AA4946204B186800F06CFB01282BD0DA
:105630002DB204F110021D4B03EA82231D43019B8E
:105640001D80184B1B681A88019B5A8001980430F2
:1056500001F0BEF9019DC5F80880EF602E610A9B3C
:105660006B6122460B9905F1180008F03FFB6B4671
:105670004A4629460C48006800F052FB8AF311881C
:10568000BFF36F8F002005E08AF31188BFF36F8F9F
:1056900000E0012002B0BDE8F08700BF9C0C0020B4
:1056A000A40C0020800C0020482C002000F0FF0FEC
:1056B0002DE9F04782B00546884617461E4600236E
:1056C000019300930D9C033424F0030404F11C03A4
:1056D000402B00D924242C4B1B6813F0010F4ED013
:1056E0002A4B1B685B680BB9012049E0EFF3118A74
:1056F000202383F31288BFF36F8F254B1A6813683A
:105700000133136004F11C0901AA4946214B1868B2
:1057100000F0F8FA01282DD02DB204F114021E4B2E
:1057200003EA82231D43019B1D80194B1B681A88C5
:10573000019B5A800198043001F04AF9019DC5F897
:105740000880EF602E610A9B6B610B9BAB61224668
:105750000C9905F11C0008F0C9FA6B464A46294627
:105760000C48006800F0DCFA8AF31188BFF36F8FF1
:10577000002005E08AF31188BFF36F8F00E001205D
:1057800002B0BDE8F08700BF9C0C0020A40C0020F4
:10579000800C0020482C002000F0FF0F2DE9F0477E
:1057A00082B00546884617461E46002301930093A3
:1057B0000E9C033424F0030404F12003402B00D991
:1057C00020242D4B1B6813F0010F50D02B4B1B686E
:1057D0005B680BB901204BE0EFF3118A202383F3C0
:1057E0001288BFF36F8F264B1A681368013313605A
:1057F00004F1200901AA4946224B186800F082FAF8
:1058000001282FD02DB204F118021F4B03EA822386
:105810001D43019B1D801A4B1B681A88019B5A80EF
:105820000198043001F0D4F8019DC5F80880EF60BC
:105830002E610A9B6B610B9BAB610C9BEB6122465B
:105840000D9905F1200008F051FA6B464A462946A9
:105850000C48006800F064FA8AF31188BFF36F8F78
:10586000002005E08AF31188BFF36F8F00E001206C
:1058700002B0BDE8F08700BF9C0C0020A40C002003
:10588000800C0020482C002000F0FF0F08B548B124
:1058900079B103881B0B02339A00102B10D80A60D1
:1058A000002008BD40F215210948FEF7E1FD012066
:1058B000F7E74FF406710648FEF7DAFD0120F0E73E
:1058C00040F21B210248FEF7D3FD0120E9E700BFAB
:1058D00080F9000010B582B00446002301934268AD
:1058E000836881695B1A9A4203D30020606002B02A
:1058F00010BD806A01A91044FFF7C8FF48B963686A
:10590000019A1344A268B3FBF2F102FB1133636006
:10591000EDE752210248FEF7ABFD0120E7E700BFAB
:10592000BCF9000008B5D0B18446F2B11BB3C16028
:105930000020CCF80000CCF80400CCF80830CCF8FB
:105940001430CCF82820CCF81800CCF81C00CCF887
:1059500020000C4A136843F08003136008BD132134
:105960000948FEF785FD0120F8E716210648FEF7F5
:105970007FFD0120F2E719210348FEF779FD0120A0
:10598000ECE700BF9C0C0020BCF90000F8B508B3A0
:105990000D46164604461AB387683FB38F422BD391
:1059A000C368012B2ED0026843689A42C0F09380EE
:1059B000B81AC11804398D4276D8A84278D9A36A9A
:1059C000134433602A44B2FBF7F307FB1322E2616E
:1059D000002010E063214748FEF74AFD01200AE05D
:1059E00066214448FEF744FD012004E06A21414855
:1059F000FEF73EFD0120F8BD6E213E48FEF738FD62
:105A00000120F8E7026843689A4224D3BB1A8B420C
:105A10000BD9836A1344336003680B44B3FBF7F27A
:105A200007FB1233C3610020E5E72046FFF752FF72
:105A30006368043B9D42F8D82368FB1AA3610020E9
:105A40002060A36A336023682B44B3FBF7F207FBA3
:105A50001233E361CFE79B1A043B99421BD9BA1A70
:105A60008A420BD22046FFF735FF6368002BF9D03E
:105A7000A36822689B1AA361002323602046FFF7D6
:105A800029FF62682168531A043B9D42F6D812B977
:105A9000A36A0B443360A36A22681344336023680B
:105AA0002B44E3610020A6E7002333600120A2E736
:105AB0009D420CD8A061A36A3360A36913442B44B0
:105AC000B3FBF7F207FB1233E361002093E70023F7
:105AD000336001208FE79B1A043B994206D8836A02
