:020000040800F2
:1000000000000C20A5480008390200083902000849
:100010003902000839020008390200089148000836
:1000200000000000000000000000000091900008A7
:10003000F54800080000000035900008D58D000844
:10004000F5480008F5480008F5480008F54800089C
:10005000F5480008F5480008F5480008F54800088C
:10006000F5480008F5480008F548000895480008DC
:10007000F5480008F5480008F5480008F54800086C
:10008000F5480008F5480008F5480008F54800085C
:10009000F5480008F5480008F5480008F54800084C
:1000A000F5480008F5480008F5480008F54800083C
:1000B000F5480008F5480008F5480008F54800082C
:1000C000F5480008F5480008F5480008F54800081C
:1000D000F5480008F5480008F5480008F54800080C
:1000E000F5480008F5480008F5480008F5480008FC
:1000F000F5480008F5480008F5480008F5480008EC
:10010000F5480008F5480008F5480008F5480008DB
:10011000F5480008F5480008F5480008F5480008CB
:10012000F5480008F5480008F5480008F5480008BB
:10013000F5480008F5480008F5480008F5480008AB
:10014000F5480008F5480008F5480008F54800089B
:10015000F5480008F5480008F5480008F54800088B
:10016000F5480008F5480008F5480008F54800087B
:10017000F5480008F5480008F5480008F54800086B
:10018000F5480008F5480008F5480008F54800085B
:10019000F5480008F5480008F5480008F54800084B
:1001A000F5480008F5480008F5480008F54800083B
:1001B000F5480008F5480008F5480008F54800082B
:1001C000F5480008F5480008F5480008F54800081B
:1001D000F5480008F5480008F5480008F54800080B
:1001E000F5480008F5480008F5480008F5480008FB
:1001F000F5480008F5480008F5480008F5480008EB
:10020000F5480008F5480008F5480008F5480008DA
:10021000F5480008F5480008F5480008F5480008CA
:10022000F5480008F5480008F5480008F5480008BA
:08023000F5480008F54800083C
:100238002DE9005002F0FAFEBDE80050EFF3038309
:10024800EFF30982EFF30881DFF820D02DE9FE4FA4
:10025800684603F0BBFCBDE8FE4F8D462DE9005013
:1002680002F002FFBDE8005070470000C44F0020B4
:10027800F1EE101AA0EC200A01607047A0EC108A79
:10028800704700BF53B94AB9002908BF00281CBFEE
:100298004FF0FF314FF0FF3000F06AB9ADF1080CB4
:1002A8006DE904CE00F006F8DDF804E0DDE902238C
:1002B80004B070472DE9F0478C468E46089E1546D7
:1002C80004461946002B40F0D080724547D9B2FA4F
:1002D80082F74FB1C7F120030EFA07FCBD40BC40BE
:1002E80020FA03F343EA0C0C4FEA154EA8B2230C8C
:1002F800BCFBFEF80EFB18CC08FB00F943EA0C43E4
:10030800994528D9EB1808F1FF3204D2994502D94A
:10031800A8F102022B44A3EB0903A4B2B3FBFEFC31
:100328000EFB1C330CFB00F044EA0344A04214D932
:100338002C190CF1FF3304D2A04202D9ACF102030C
:100348002C44241A43EA02401EB1FC4000233460C6
:100358007360BDE8F0874246DDE76346F1E7002AAF
:1003680079D0B2FA82F3002B3FD01946C1F12003AD
:1003780002FA01F500FA01F42EFA03F20EFA01FE70
:1003880020FA03F3AFB243EA0E034FEA154EB2FB6D
:10039800FEFC0EFB1C201A0C0CFB07F842EA00427C
:1003A80090455AD9AA180CF1FF3004D2904502D9C9
:1003B800ACF102002A44A2EB08029BB2B2FBFEFC9D
:1003C8000EFB1C220CFB07F743EA02439F4246D967
:1003D800EB180CF1FF3204D29F4202D9ACF10202B1
:1003E8002B44DB1B42EA004202E0AEEB020301228F
:1003F8004FEA154EAFB2200CB3FBFEFC0EFB1C33CC
:100408000CFB07F840EA034398452AD9EB180CF18E
:10041800FF3004D2984502D9ACF102002B44A3EB7B
:100428000803A4B2B3FBFEFC0EFB1C330CFB07F75E
:1004380044EA0344A74216D92C190CF1FF3304D21D
:10044800A74202D9ACF102032C44E41B43EA004062
:100458000F46114678E71F2188E76046ABE76246FA
:10046800BFE76046DBE76346EFE7734506D916B991
:10047800002108466DE7C6E9000EF9E7B3FA83F7ED
:1004880087B9734501D3824207D8841A6EEB0303F8
:1004980001209C461EB900215BE73846FAE7C6E909
:1004A800004CF8E7C7F1200CBB4000FA07F422FA29
:1004B8000CF520FA0CF1BA401D432EFA0CF30EFA93
:1004C80007FE4FEA154941EA0E011FFA85FEB3FB04
:1004D800F9F809FB18300B0C08FB0EFA43EA004345
:1004E8009A4540D9EB1808F1FF3004D29A4502D951
:1004F800A8F102002B44A3EB0A0389B2B3FBF9F875
:1005080009FB183308FB0EFE41EA03418E452CD93E
:10051800691808F1FF3304D28E4502D9A8F1020305
:10052800294443EA0040A1EB0E01A0FB0298414593
:10053800CE46434602D306D14C4504D20138B9EB26
:10054800020E68EB0503002EA5D0B4EB0E0261EB9A
:10055800030101FA0CFC22FA07F3F9404CEA030301
:10056800C6E9003197E74046C5E74346D9E70000AA
:10057800704700BF844641EA000313F0030349D1E2
:10058800403A23D30B6803604B6843608B688360F1
:10059800CB68C3600B6903614B6943618B698361F5
:1005A800CB69C3610B6A03624B6A43628B6A8362DD
:1005B800CB6AC3620B6B03634B6B43638B6B8363C5
:1005C800CB6BC36340304031403ADBD230320BD37F
:1005D8000B6803604B6843608B688360CB68C360BB
:1005E80010301031103AF3D20C3205D351F8043BD5
:1005F80040F8043B043AF9D2043208D0D2071CBFB1
:1006080011F8013B00F8013B01D30B8803806046D9
:10061800704700BF082A13D38B07B1D010F003032B
:10062800AED0C3F10403D21ADB071CBF11F8013B9B
:1006380000F8013BA4D331F8023B20F8023B9FE7C6
:10064800043AD9D3013A11F8013B00F8013BF9D239
:100658000B7803704B7843708B78837060467047D3
:1006680070B4840746D0541E002A41D0CDB2034648
:1006780002E0621EE4B3144603F8015B9A07F8D15E
:10068800032C2ED9CDB245EA05250F2C45EA0545A0
:1006980019D9264603F11002103E0F2E42F8105CBD
:1006A80042F80C5C42F8085C42F8045C02F1100263
:1006B800F2D8A4F1100222F00F0204F00F04103255
:1006C800032C13440DD91E462246043A032A46F841
:1006D800045BFAD8221F22F003020432134404F008
:1006E80003042CB1C9B21C4403F8011BA342FBD17B
:1006F80070BC704714460346C2E70000064A80B53E
:10070800034610600020054A1860136800AF43F4E0
:100718008003136080BD00BF60000020EC0400204F
:10072800084A80B5034610600020074AC3E9000064
:10073800C3E902001861136800AF43F008031360AF
:1007480080BD00BF64000020EC040020054B80B58C
:100758001A6800AF52F820300B4442F820300020CD
:1007680080BD00BF6400002080B5012100AFFFF705
:10077800EDFF002080BD0000054B80B51B6800AF71
:1007880053F820208A42B8BF43F82010002080BDCB
:100798006400002098B5184B00AF1B681B0728D5CC
:1007A800164C23685A68002A05DD082000F084F9F1
:1007B800002223685A601A681C2A05DD092000F007
:1007C8007BF9002223681A609A68002A05DD0A204E
:1007D80000F072F9002223689A60DB68002B01DCC4
:1007E800002098BD0E2000F067F900222368DA6027
:1007F800F6E70120F5E700BFEC04002064000020C4
:10080800054B80B51860002300AFC3540133382B63
:10081800FBD18363002080BD680000200E4B80B5AB
:10082800382218601C23C0E90023032383600023B7
:1008380000AF00F5286280F82030C0E90333C0E932
:10084800053330309042F6D1044A0020136843F053
:100858001003136080BD00BF6C000020EC04002072
:10086800B0B5184B05461B6800AFDB060CD5EFF397
:100878001084012080F31088134B1A68936B2BB9EE
:10088800FFF772FF84F310880120B0BD013B93632A
:10089800D05C11781070FF20D054302200205143D2
:1008A8000A4B01F10C021B681A440B44C3E904000B
:1008B800C3E90600DA6083F820002A6084F3108810
:1008C800E3E700BFEC040020680000206C00002073
:1008D80030210E4B90B51B6802460C33C31AB3FB8C
:1008E800F1F300AFDBB2EFF31084012080F310883E
:1008F800116811B984F3108890BD00201060044A73
:1009080011688A6B8B5401328A63F3E76C0000200C
:10091800680000200B4BF0B51A683025002300AFA3
:1009280002F10C0C05FB03F45CF80460864204D168
:1009380000200C3422440A60F0BD0133382BF1D179
:100948000120F9E76C000020F8B5064614460D466C
:1009580000AF09B90C46084D21460020FFF70CFFEF
:100968001B2C28BF1B242946621C06F11400FFF724
:1009780001FE0020F8BD00BF0FBC000880B500AF25
:100988000E2825D8DFE800F02622181A1C1E20128F
:10099800080C0E10121416000F4B00200B6080BDBF
:1009A8000E4BFAE70E4BF8E70E4BF6E70E4BF4E763
:1009B8000E4BF2E70E4BF0E70E4BEEE70E4BECE773
:1009C8000E4BEAE70E4BE8E70E4BE6E70E4BE4E783
:1009D8000E4BE2E70120E2E718B8000835B8000836
:1009E8005EB8000872B800089BB80008C5B80008CF
:1009F800DEB80008FDB8000810B9000825B90008DD
:100A080037B9000850B9000868B9000878B9000873
:100A1800B0B582B01A4D1B4B296800AF1B687B60CC
:100A28004FF000038B680446CBB139462046FFF7E8
:100A3800A5FF012C09D10120124B1A687B685A4086
:100A48004FF0000318D002F0D1FAA31E0C2B2B682C
:100A58000CD83968986801F083F90020ECE70A4857
:100A6800083101F041FB0128DFD1E4E722460749BC
:100A7800986801F0BFF9DEE70837BD46B0BD00BF92
:100A8800700000203000002093B9000878B90008F1
:100A9800074A80B5034610600020064AC3E90000F3
:100AA8009860136800AF43F02003136080BD00BF57
:100AB80070000020EC04002098B50C4A00AF1268C2
:100AC800910611D50A4A431E11680C6824FA03F2EC
:100AD800D20701D5002098BD012202FA03F323436F
:100AE8000B60FFF795FFF5E70120F4E7EC04002021
:100AF80070000020B0B5114B00AF1B689B0612D5E3
:100B08000F4D2B68596809B10020B0BD0124411E62
:100B18008C4019682143C3E90010FFF779FF0128C9
:100B280003D101F0A9FA0120EFE72B68054998687D
:100B380001F016F901F0A0FAE6E700BFEC04002086
:100B48007000002098B90008064A80B50346106076
:100B58000020054A1860136800AF43F04003136093
:100B680080BD00BF74000020EC0400202DE9F04790
:100B780084B0314B00AF1B68FB604FF000030023CB
:100B8800C7E901332D4B04461B680D46DB071CD50E
:100B98002B4B1B685B68C3B1EFF31086012383F30B
:100BA8001088DFF8A4A0DFF8A480DAF800200C2170
:100BB800136801331360D8F800303A1D186800F044
:100BC8009FFD01280BD186F3108801201A4B1A6863
:100BD800FB685A404FF0000329D002F007FADAF810
:100BE8000030D7F804901B6844F48054A9F8023008
:100BF800A9F8004003F062FD124B79681B68C9F838
:100C080004005A694868904238BFDA685861D8F8D1
:100C180000003CBF0132DA6000680C228D6007F1E9
:100C2800080300F0DBFD86F310880020CEE71037BC
:100C3800BD46BDE8F08700BF30000020EC0400206E
:100C4800F0040020A43B002074000020A83B0020F2
:100C58002DE9F04F85B0324B00AF1B68FB604FF0B9
:100C680000030023C7E901332E4B04461B680E46D8
:100C7800DB0715461CD52C4B1B685B68C3B1EFF32B
:100C88001088012383F31088DFF8A4B0DFF8A4905C
:100C9800DBF800201021136801331360D9F8003005
:100CA8003A1D186800F02CFD01280BD188F3108834
:100CB80001201B4B1A68FB685A404FF000032AD0EA
:100CC80002F094F9DBF80030D7F804A01B6844F46C
:100CD8000054AAF80230AAF8004003F0EFFC134BC6
:100CE80079681B68CAF804005A694868904238BF96
:100CF800DA685861D9F800003CBF0132DA60006850
:100D08001022C1E9026507F1080300F067FD88F3C6
:100D180010880020CDE71437BD46BDE8F08F00BF2E
:100D280030000020EC040020F0040020A43B002048
:100D380074000020A83B00202DE9F04F87B01D4625
:100D4800324B00AF1B687B614FF000030023C7E9FB
:100D580003332F4B04461B688846DB0716461DD510
:100D68002C4B1B685B68CBB1EFF31089012383F32D
:100D78001088DFF8A8B0DFF8A8A0DBF8002014215D
:100D8800136801331360DAF8003007F10C021868B1
:100D980000F0B6FC01280BD189F3108801201B4B09
:100DA8001A687B695A404FF000032AD002F01EF9F6
:100DB800DBF80020FB68126844F440541C805A8019
:100DC8007B6003F07BFC7B68F9685860124B4A68CB
:100DD8001868436942619A4238BFC3684FF01402E9
:100DE8003CBF0133C360DAF80000C1E902860D6137
:100DF80007F11003006800F0F1FC89F31088002067
:100E0800CDE71C37BD46BDE8F08F00BF300000209D
:100E1800EC040020F0040020A43B00207400002013
:100E2800A83B00202DE9F04F87B01D46334B00AF9B
:100E38001B687B614FF000030023C7E90333304B85
:100E480004461B688846DB0716461DD52D4B1B68D4
:100E58005B68CBB1EFF31089012383F31088DFF8C7
:100E6800ACB0DFF8ACA0DBF8002018211368013320
:100E78001360DAF8003007F10C02186800F040FC43
:100E880001280BD189F3108801201C4B1A687B6953
:100E98005A404FF000032CD002F0A8F8DBF80020ED
:100EA800FB68126844F480441C805A807B6003F01D
:100EB80005FC7B68F9685860134B4A6818684369F1
:100EC80042619A4238BFC3684FF018023CBF0133F1
:100ED800C3603B6CDAF800004B61C1E902860D6122
:100EE80007F11003006800F079FC89F310880020EE
:100EF800CBE71C37BD46BDE8F08F00BF30000020AF
:100F0800EC040020F0040020A43B00207400002022
:100F1800A83B00202DE9F04F87B0334B00AF1B688A
:100F28007B614FF000030023D41C24F0030404F178
:100F38000806402E0546884684BF40263824C7E95F
:100F48000333EFF31089012383F31088DFF8A0B08F
:100F5800DFF8A0A0DBF800203146136801331360E6
:100F6800DAF8003007F10C02186800F0C9FB012814
:100F78000AD189F310881C4B1A687B695A404FF0D4
:100F880000032CD002F032F8DBF80020FB6812686E
:100F980045EA84251D805A807B6003F08FFB7B68BF
:100FA8005860124BF8681B6841685A6908309142CA
:100FB80038BFDA6859613CBF0132DA6041462246DF
:100FC800FFF7D8FADAF800003246F96807F110039B
:100FD800006800F003FC89F310880020CBE71C3779
:100FE800BD46BDE8F08F00BF30000020A43B0020C4
:100FF80074000020A83B00202DE9F04F87B000AF17
:101008007A60374ADC1C12687A614FF000020022CD
:1010180024F0030404F10C03412B324B28BF342481
:101028001B680546DB078846C7E903221ED52E4BF9
:101038001B685B68D3B1EFF31089012383F3108831
:101048002A4BDFF8B0B01968DBF800000A6804F131
:101058000C0A01320A600068514607F10C0200F0E0
:101068004FFB0128214B0BD189F3108801201C4B21
:101078001A687B695A404FF000032DD001F0B6FF83
:101088001B68211DFE681B68890845EA01357380C5
:10109800358003F013FB164B70601B68F8685A69BB
:1010A80041680C30914238BFDA6859613CBF01325F
:1010B800DA607968224640F8048CFFF75BFADBF8BF
:1010C80000005246F96807F11003006800F086FB3B
:1010D80089F310880020CAE71C37BD46BDE8F08FA9
:1010E80030000020EC040020F004002074000020F0
:1010F800A43B0020A83B00202DE9F04F87B000AFAB
:101108007B603A4B3C6C1B687B614FF0000300230B
:10111800033424F00304C7E9033304F11003412B1B
:10112800334B28BF30241B680546DB078846164624
:101138001ED5304B1B685B68D3B1EFF310890123D0
:1011480083F310882C4BDFF8B8B01968DBF800007F
:101158000A6804F1100A01320A600068514607F172
:101168000C0200F0CDFA0128234B0BD189F310882B
:1011780001201E4B1A687B695A404FF0000330D09B
:1011880001F034FF1B6804F10801FA681B6889083C
:1011980045EA0135158053803A6003F08FFA3A68C2
:1011A800164B50601B68F8685A694168914238BF0D
:1011B800DA6859613CBF0132DA6079682246C0E9D1
:1011C80002861030FFF7D6F9DBF800005246F968BE
:1011D80007F11003006800F001FB89F31088002074
:1011E800C7E71C37BD46BDE8F08F00BF30000020C0
:1011F800EC040020F004002074000020A43B002030
:10120800A83B00202DE9F04F89B000AF9B46BB6C8E
:10121800FA60BB603A4BFC6C1B68FB614FF0000343
:101228000023033424F00304C7E9053304F114034D
:10123800412B344B28BF2C241B680546DB070E4680
:101248001ED5314B1B685B68D3B1EFF310880123BF
:1012580083F310882D4BDFF8BCA01968DAF800007A
:101268000A6804F1140901320A600068494607F166
:10127800140200F045FA0128244B0BD188F310889A
:1012880001201F4B1A68FB695A404FF0000332D007
:1012980001F0ACFE1B6804F10C017A691B6889082F
:1012A80045EA0135158053807A6003F007FA7A68B9
:1012B800174B50601B6878695A694168914238BF7A
:1012C800DA6859613CBF0132DA60FB682246C0E93E
:1012D800033BB96886601430FFF74CF9DAF8000070
:1012E8004A46796907F11803006800F077FA88F32D
:1012F80010880020C5E72437BD46BDE8F08F00BF41
:1013080030000020EC040020F004002074000020CD
:10131800A43B0020A83B00202DE9F04F89B000AF86
:101328009B46FB6CFA60BB603B4B3C6D1B68FB61EA
:101338004FF000030023033424F00304C7E9053306
:1013480004F11803412B354B28BF28241B68054698
:10135800DB070E461ED5324B1B685B68D3B1EFF333
:101368001088012383F310882E4BDFF8C0A019687A
:10137800DAF800000A6804F1180901320A60006806
:10138800494607F1140200F0BBF90128254B0BD19F
:1013980088F310880120204B1A68FB695A404FF0E7
:1013A800000334D001F022FE1B6804F110017A69B1
:1013B8001B68890845EA0135158053807A6003F077
:1013C8007DF97A68184B50601B6878695A694168DA
:1013D800914238BFDA6859613CBF0132DA60FB6874
:1013E8002246C0E9033BBB6CB9688660436118308C
:1013F800FFF7C0F8DAF800004A46796907F11803E0
:10140800006800F0EBF988F310880020C3E7243760
:10141800BD46BDE8F08F00BF30000020EC0400207E
:10142800F004002074000020A43B0020A83B00200A
:101438002DE9F04F87B000AF9B46BB6CFC6C7B601E
:101448003B4B03341B687B614FF00003002324F0FF
:101458000304C7E9033304F11C03412B354B28BFB0
:1014680024241B680546DB07884616461CD5324BE4
:101478001B685B68C3B1EFF31089012383F31088FD
:101488002E4B04F11C0A19680A6801320A602C4ABA
:101498005146106807F10C02006800F031F9012884
:1014A800264B0BD189F310880120214B1A687B69E0
:1014B8005A404FF0000336D001F098FD1B6804F144
:1014C8001401FA681B68890845EA013515805380BC
:1014D8003A6003F0F3F83A681A4B50601B68F868F2
:1014E8005A694168914238BFDA6859613CBF013294
:1014F800DA603B6C224643617B6CC0E902867968FE
:10150800C0F810B083611C30FFF734F80C4B52461A
:101518001868F96807F11003006800F05FF989F3AB
:1015280010880020C1E71C37BD46BDE8F08F00BF1A
:1015380030000020EC040020F0040020740000209B
:10154800A83B0020A43B00202DE9F04F87B000AF56
:101558009B46FB6C3C6D7B603C4B03341B687B619A
:101568004FF00003002324F00304C7E9033304F118
:101578002003412B364B28BF20241B680546DB0778
:10158800884616461CD5334B1B685B68C3B1EFF31E
:101598001089012383F310882F4B04F1200A19685E
:1015A8000A6801320A602D4A5146106807F10C0298
:1015B800006800F0A5F80128274B0BD189F31088A3
:1015C8000120224B1A687B695A404FF0000338D03B
:1015D80001F00CFD1B6804F11801FA681B68890802
:1015E80045EA0135158053803A6003F067F83A6898
:1015F8001B4B50601B68F8685A694168914238BFB4
:10160800DA6859613CBF0132DA603B6C22464361BB
:101618007B6CC0E902868361BB6C7968C0F810B046
:10162800C3612030FEF7A6FF0C4B52461868F968D4
:1016380007F11003006800F0D1F889F31088002042
:10164800BFE71C37BD46BDE8F08F00BF3000002063
:10165800EC040020F004002074000020A83B0020C7
:10166800A43B0020038880B51B0B02339B0000209D
:1016780000AF0B6080BD000090B583B00446D0E990
:101688000102134B00AF1B687B604FF0000300237F
:10169800A1693B60521A90420CD2A36A3946184499
:1016A800FFF7E0FF3A6863681344A268B3FBF2F1FE
:1016B80002FB11336360064B1A687B685A404FF08F
:1016C800000301D001F092FC0C37BD4690BD00BF6D
:1016D8003000002090B50446C1600020A262074A8D
:1016E800A36063611368C4E9000043F08003C4E9A0
:1016F800060000AF2062136090BD00BFEC0400201C
:101708002DE9F0410D46C1689046D0E90032012923
:101718000446866800AF47D1934220D3F21AAA4202
:101728000BD9A16A19442B44B3FBF6F206FB12331A
:10173800C8F800100020E36142E02046FFF79CFF54
:101748006368043B9D42F8D82368A16AF31AA36131
:1017580000232360B5FBF6F306FB1353E8E7043ACE
:10176800D21A95421CD9F31AAB420BD22046FFF786
:1017780083FF6368002BF9D02268A3689B1AA361D2
:10178800002323602046FFF777FFD4E900310A1FC2
:10179800D21A9542F6D819B9A26A1A44C8F8002094
:1017A800A16A19442B44C3E79342A2F1040111D35F
:1017B800F01A01448D4205D900230120C8F80030F1
:1017C800BDE8F081A842ACD89542F5D8A16AA061DD
:1017D8003544BFE7C91AA942E2D2EDE7054980B509
:1017E800096800AFC9680162C169016000201A6018
:1017F80080BD00BFA43B00200346002080B59A6846
:10180800C3E90000C3E9052000AFD86180BD00002E
:10181800064B80B51860FD23054A03601368002055
:1018280043F4807300AF136080BD00BF78000020D0
:10183800EC040020B0B588B0104C04AF2468FC60FC
:101848004FF00004BB603B6AC7E9001202934FF0F7
:1018580000430246019300210323F220009700F081
:10186800F3F8064B1A68FB685A404FF0000301D0A2
:1018780001F0BCFB1037BD46B0BD00BF30000020F2
:1018880080B500AF50B139B143689B1A4360392025
:10189800FFF7DEF9002080BDEA20F9E70120FAE72A
:1018A8000B4A80B50346106000204FF0FF32C3E9B1
:1018B8000820084AC3E90000C3E90200C3E904009C
:1018C800C3E90600136800AF43F48053136080BD7A
:1018D8007C000020EC04002080B500AF00F0F2FB93
:1018E8004FF4FA7006F096FEF8E7000080B500AFF6
:1018F80030B1044B18600023C0E90033184680BD9E
:101908000120FCE780000020B0B584B0134C04AF80
:1019180023681A6832B9009311464FF4003310480F
:10192800FFF788FF25686B6813B10020BD46B0BD7E
:101938000C4A0D4902920D4A0D48CDE900324FF488
:10194800807206F08BFB236868605B68002BECD123
:101958000620FFF7CFF80120E8E700BF800000204D
:10196800BEB900088400002061B90008E400002026
:10197800E118000898B50C4600AF48B141B1002104
:10198800216006F0D9FF2060B0FA80F0400998BDC8
:101998000120FCE780B5024B00AF1B68186880BDCA
:1019A8008000002098B5044623F003032260104607
:1019B80000AF2C3B2C32FFF78DFE431E5842584196
:1019C80098BD80B5006800AFFFF716FF002080BD06
:1019D8002DE9F0411646024604460D4600F1130172
:1019E800002052F8148B00AF11F801CF431CBCF152
:1019F800000F01D080280ED141460320FFF7FCFAE2
:101A0800324641462846FFF723F92046BD46BDE841
:101A1800F041FEF75DBF1846E6E70000094B0022DB
:101A2800002918BF0B4680B400AF995C09B1802A21
:101A380005D11946BD465DF8047BFEF785BF013226
:101A4800F3E700BF0FBC00082DE9F04F85B09846BA
:101A5800384B02AF06460C4691461B687B604FF038
:101A680000033D6BD7F838A0EFF3108B012383F305
:101A78001088384661B3FEF7F3FE68BB3B681C600C
:101A880039682A1F0B4601EB8800834233D10B6962
:101A98007A6B13430B61CAF800108BF31088B9F105
:101AA800000F06D099F800301BB149463868FFF797
:101AB800B5FFB8F1020F29D0B8F1030F2DD0B8F156
:101AC800010F1DD021463046FFF750F8002006E0F0
:101AD800FEF7C6FE01280BD18BF310880120154BA9
:101AE8001A687B685A404FF000031FD001F07EFA55
:101AF8003B681C68C4E752F804CF43F804CFC4E736
:101B0800214630462A68FFF7A3F8DFE72146D5E9E2
:101B180000233046FFF710F9D8E7AB682146009359
:101B28003046D5E90023FFF77DF9CFE70C37BD46EE
:101B3800BDE8F08F3000002090B589B004AF7B601D
:101B48000D4B1B68FB604FF0000307F1080302937D
:101B5800002301933B1D00930123FFF775FF064BFC
:101B68001A68FB685A404FF0000301D001F03EFAB2
:101B78001437BD4690BD00BF30000020F0B583B0DB
:101B8800134B00AF0446154608461B687B604FF0B0
:101B98000003EFF31086012383F310883946FEF71C
:101BA800B9FE01280AD186F31088094B1A687B68A8
:101BB8005A404FF0000307D001F018FA2A46214690
:101BC8003868FFF705FFEEE70C37BD46F0BD00BFEC
:101BD800300000202DE9F04182B0174B00AF0646D7
:101BE8000D461B687B604FF00003EFF3108801235C
:101BF80083F310883946FEF78DFE0128044605D187
:101C08003846FEF72DFE30B93B681E602946386815
:101C1800FFF704FF044688F31088074B1A687B68AF
:101C28005A404FF0000301D001F0E0F92046083790
:101C3800BD46BDE8F08100BF300000202DE9F0432B
:101C480087B006AF0D461646984601463C6A40B92D
:101C5800DFF8E490D9F800100B6853B1D9F80030D8
:101C68001968B8F1050F09D8DFE808F00D16232F19
:101C78003E50304800F038FA0128EFD101200437EF
:101C8800BD46BDE8F08333462A4691200437BD4659
:101C9800BDE8F043FFF7B0B922689220131D236016
:101CA8002B463E6212680437BD46BDE8F043FFF795
:101CB80023BA2068034653F8082B2360CDE9005661
:101CC80043689320FFF79EFAD9E7206800F10C0CCF
:101CD800D0E90023C4F800C0CDE90156806800901F
:101CE8009420FFF719FBCAE7206800F1100ED0F81E
:101CF80008C0D0E90023C4F800E0CDE90256C06866
:101D0800CDE900C09520FFF793FBB8E7206800F104
:101D18001408D0E90023D0E902CEC4F80080CDE948
:101D280003560069CDF800C0CDE901E09620FFF721
:101D38000BFCA4E7CAB90008E4040020064A80B5F1
:101D4800034610600020054AC3E90000136800AF8D
:101D580043F40043136080BDE4040020EC04002039
:101D680090B583B00C4B02AF1B681B0412D50B4B0C
:101D7800002908BF19460023CC5C5A1C0CB1802BE3
:101D880006D100230093FFF759FF0437BD4690BDE5
:101D98001346F1E70120F8E7EC0400200FBC000827
:101DA800F0B583B0114B15461B6802AF1B041AD55A
:101DB8000F4B002908BF194600231C460E5D621C04
:101DC8000EB17F2C05D90095FFF738FF0437BD46C3
:101DD800F0BD252E05D18E5C1EB11446252E18BFE8
:101DE80001330134EAE70120F0E700BFEC040020EA
:101DF8000FBC00080EB480B583B0114B00AF1B6850
:101E08007B604FF000030F4B79691B681B040ED5EC
:101E180007F118033A463B60FFF7C2FF084B1A6800
:101E28007B685A404FF0000303D001F0DFF801202F
:101E3800F4E70C37BD46BDE8804003B0704700BFEB
:101E480030000020EC04002080B5054A054B00AFA7
:101E580018601368002043F48023136080BD00BF1E
:101E6800EC040020E8040020F8B53E4E00AF3568C9
:101E7800002D74D102F008FC3B4C3C48C0E90055E9
:101E8800206085601430FEF7BBFC012801D10120D9
:101E9800F8BD206800F557503030FEF72FFC0128B8
:101EA800F5D0206800F55750343000F087F9012844
:101EB800EDD02068543000F00FFA0128E7D02068F0
:101EC80000F557501830FEF72BFC0128DFD02068AA
:101ED80000F557502C30FFF79BFC0128D7D020681D
:101EE80000F54D500430FFF7AFFF0128CFD0206830
:101EF80000F556500430FEF727FE0128C7D02068A9
:101F080000F556500C30FFF719FF0128BFD02068A4
:101F180000F556501430FEF7BBFD0128B7D02068F5
:101F280000F556502030FFF7BBFC0128AFD02068E1
:101F380000F55750103000F007F90128A7D02068A5
:101F480000F557500830FFF7D1FC01289FD04FF01B
:101F5800FF322368DA60336843F0010333600020FE
:101F680096E700BFEC040020F0040020F4040020F1
:101F780090B500AFD0B10E4A0E4B00F11F04C0E976
:101F880000230D4A00F1170312F8011B03F8011F83
:101F980009B1A342F8D1002340F20132C0E902326C
:101FA8004FF0817203614261184690BD0120FCE741
:101FB800004653500E00A11AD2B900082DE9F0418D
:101FC80082B0284B00AF05461B687B604FF00003CA
:101FD800FFF74AFF0128044609D10124214B1A685A
:101FE8007B685A404FF0000336D000F0FFFFFFF740
:101FF8008BFC0128F1D0022D05D11B4B1B685B68B7
:10200800002BEBD1FEE7012D22D1174E33685B6818
:10201800012BE3D0154B1B689A680AB9144A9A60D9
:10202800EFF31088012585F3108800F0C1F9114BF2
:1020380004221B6839461B6828463B60FEF76AFF86
:1020480033681A682A44C3E9002588F31088C5E76D
:102058002C1E18BF0124C1E720460837BD46BDE83D
:10206800F08100BF30000020F0040020A43B0020D5
:10207800000E27079C3B0020084B80B51A6800AF6C
:1020880052684AB1EFF31082012181F310880021D0
:102098001B68596082F31088002080BDF00400207E
:1020A80080B5074B00AF1B6843B138B131B1543329
:1020B800036043F2F02300200B6080BD0120FCE7A1
:1020C800F004002080B5064B00AF1B68DB0705D580
:1020D800044B1B685B680BB1FEF75CFB002080BDFE
:1020E800EC040020F0040020F0B583B0154B00AFDD
:1020F800044638460D461B687B604FF00003FEF728
:10210800AFFB012810D00022A35C561C0BB11C2A7F
:1021180013D121463868FEF717FC39683346224642
:1021280003202960FEF768FF064B1A687B685A404F
:102138004FF0000303D000F059FF3246E4E70C37B4
:10214800BD46F0BD30000020064B80B51860022364
:10215800054A03601368002043F4801300AF13603E
:1021680080BD00BF9C3B0020EC040020B0B5104BA4
:102178000A461B6800AFDB0706D50E4C0E4B2568D8
:10218800696819B91B6818600120B0BD0121A960F0
:10219800EFF3108581F310881B680146186037201B
:1021A800FEF756FD022223689A6085F31088ECE753
:1021B800EC040020F00400209C3B0020114B90B55B
:1021C8001860002302466424C0E9003300AF83602E
:1021D80000F17801C2E90333C2E90533C2E90743D4
:1021E80018328A42F6D1084AC0E92933C0E92B33AC
:1021F800C0F8843080F888301368002043F4000366
:10220800136090BDA03B0020EC04002080B500AF17
:1022180020B1034B1B689860002080BD0120FCE7BB
:10222800A03B0020F0B583B01B4B00AF1B687B6060
:102238004FF00003002305463B6002F03FFA174BBE
:1022480004461B685A69586190423EBFDA680132F9
:10225800DA60134B1B685E6858604DB901200E4B5D
:102268001A687B685A404FF0000311D000F0BEFE98
:1022780039462846FFF77EFB0128EFD03A681368F5
:10228800002BEBD0536800209B1B23445360E6E7E8
:102298000C37BD46F0BD00BF30000020A43B002035
:1022A800A03B00200A4A80B5034610604FF47A72BA
:1022B8001A61012200201A60064AC3E901009861E8
:1022C800D8605861136800AF43F40013136080BDF1
:1022D800A43B0020EC04002098B5044600AF08B9E0
:1022E800012098BD304B314A1860031D13604FF42C
:1022F80020530121C0F8DC3A00F52E62FFF752FBAB
:102308000128EDD004F11400FFF732FE0128E7D0D0
:1023180004F15000FEF782FA0128E1D004F13400FC
:10232800FFF7C0FF0128DBD00A2204F5405383F8E9
:10233800E0220B2283F8E1220C2283F8E2220D220C
:1023480083F8E322712283F8E422722283F8E522DB
:10235800732283F8E622742283F8E722F12283F8B5
:10236800E822F22283F8E922F32283F8EA22F4220F
:1023780083F8EB2205232372062363720723A372D3
:102388000823E37275232373762363737723A37378
:102398007823E373F5232374F6236374F723A37474
:1023A800F8230020E3749CE7A83B0020AC3B002006
:1023B80080B4044B00AF1868BD465DF8047BFFF796
:1023C80000BB00BFA83B002098B5144600AF044AE4
:1023D80006F0C0FF10B12060002098BD0120FCE786
:1023E800DBB9000898B5144600AF044A06F0B2FFFE
:1023F80010B12060002098BD0120FCE7ECB900086E
:10240800B0B50C46054600AF28B92949294806F059
:102418008FFF0120B0BD09B92749F7E740F63442DC
:1024280000212648FEF71CF9254B1D60254B1C6032
:10243800224B181D00F0B2FF012801D12249E5E71F
:102448001E4B03F1A40001F0D3FA012801D11F4962
:10245800DCE71A4B03F5037000F028F9012801D1D5
:102468001B49D3E7154B03F5787000F0B7FE012838
:1024780001D11849CAE7114B03F1B00000F038FA4E
:10248800012801D11449C1E70C4B03F1A80001F060
:1024980007F9012801D11149B8E701F033FA0123FE
:1024A800064A0020136000F0A3FF0020B2E700BF37
:1024B800FEB900082FBA000832BA0008383C0020DC
:1024C800343C0020303C00205EBA000894BA000872
:1024D800CDBA000801BB000835BB000869BB00087D
:1024E80080B40449044800AFBD465DF8047BFFF79B
:1024F80087BF00BFD1230008ED23000880B5024B39
:1025080000AF186880BD00BF383C00200023024699
:1025180090B500F1400100AF83710361C2E9053352
:1025280008328A42FAD1437280F89C30084B002264
:1025380019680B4601F1C00483F81821C3E9442245
:102548001833A342F8D1C1F8D021C0F8082190BDB2
:102558006C48002080B500AF01F024F9002080BD50
:1025680080B400AFBD465DF8047B01F0E1B880B5EA
:1025780000AF00F005FA002080BD80B400AFBD4672
:102588005DF8047B00F0C8B92DE9F04F8BB000244A
:10259800DFF8149104AFD9F80060424B0436796033
:1025A800054607F1100130461B687B614FF00003B8
:1025B8003C6100F01FFE012809D10120394B1A683F
:1025C8007B695A404FF0000367D000F00FFD38696F
:1025D800A8470128F1D0D9F80030D3F8D021A24279
:1025E80001D80020EAE7182202FB04FA03EB0A02EA
:1025F800D2F81451621C92B2FA600AF58C723A60F1
:1026080007F1100200920AF58C72134430462A46EC
:10261800F96800F02BFE012801D10134DBE73869A5
:102628007B6898470128C8D04FF4FA634FF0000838
:10263800013DB5FBF3F5C3460135ABB2BB60BA68E3
:10264800D9F800309345E8D203EB0A01D1F81451C8
:1026580007F11000A5EB0805B5F5FA6F28BF4FF490
:10266800FA6503900BF101021FFA82FB3A683046C3
:102678001344CDE90153D1F810315A46434400932D
:10268800BB68F96800F054FE0128D8D038697B6827
:102698009847012891D0A844D1E71C37BD46BDE82A
:1026A800F08F00BF300000206C480020B0B582B029
:1026B800044600AF38B91949194806F039FE012017
:1026C8000837BD46B0BD174B482218600023C0F834
:1026D800D03101237A60144A40F8043B62604FF419
:1026E8007F6222810322A272082222737A68236100
:1026F800E2726822A2730D4A04F1570304F19F05A0
:1027080012F8011B03F8011F09B1AB42F8D1FFF71A
:10271800FDFE074B0020C4F80831D1E79FBB000835
:102728002FBA00086C4800205044666DCDBB0008E5
:102738006D6644502DE9F84300AF80460D461646B5
:1027480000F0ACFE10B90120BDE8F883144B1C68FA
:10275800002CF8D02368002BF5D0002EF3D0002DE4
:10276800F1D02B78002BEED004F104094846FFF78E
:10277800CDFE0323C4F81480A37200F03BFF0128A8
:10278800E1D06B1E9F34673513F8012F04F8012F31
:102798000AB1AB42F8D10020C6F80090D4E700BFD8
:1027A8006C480020F8B500AF04460E46154600F008
:1027B80075FE58B10C4B1B6843B11A6832B12CB185
:1027C800587B072804D9042000F038FF0120F8BD01
:1027D80004EBC00046615A7B002004EBC204A561EB
:1027E8005A7B01325A73F2E76C4800202DE9F04118
:1027F80000AF0546884616461C4600F04FFE38B323
:10280800144B1B6823B31A6812B30DB3B8F1000F49
:102818001ED0EEB1E4B12278D2B1D3F8D051072D51
:1028280016D8182068431A18C2E9448600F217120D
:10283800611E1A440F3411F8010F02F8010F08B194
:10284800A142F8D100200135C3F8D051BDE8F0818C
:102858000120FBE76C480020B0B500AF04460D46E8
:1028680000F01CFE50B1064B1B683BB11B682BB136
:1028780024B11DB100209C342C60B0BD0120FCE7C0
:102888006C480020B0B500AF04460D4600F006FEC7
:1028980010B1124B1B680BB90120B0BD1B68002B8F
:1028A800FAD0002CF8D00023EA05C4F8083109D57D
:1028B8000B490C48FFF768FE20B92046FFF726FEB3
:1028C8000020EAE7AB0505D507490848FFF75CFE95
:1028D8000028F2D02046FFF719FEDDE76C480020FB
:1028E80077250008832500085D250008692500086C
:1028F80098B5044600AF08B9012098BD043001F02E
:1029080021F90128F8D0034B00201C600123236023
:10291800F3E700BF7048002090B583B0164B00AFB6
:102928001B687B604FF000030023FB70134B0446C9
:102938001B684BB90120104B1A687B685A404FF04E
:10294800000316D000F052FB1B68002BF2D000F0F9
:10295800A5FD0028EED0002CECD0F81C00F080FE7D
:102968000128E7D0FB78002BE4D0204601F0F2F8EC
:10297800E1E70C37BD4690BD3000002070480020CC
:1029880090B583B0164B00AF1B687B604FF0000317
:102998000023FB70134B04461B684BB90120104BF6
:1029A8001A687B685A404FF0000316D000F01EFBEF
:1029B8001B68002BF2D000F071FD0028EED0002C2F
:1029C800ECD0F81C00F04CFE0128E7D0FB78002B77
:1029D800E4D0204601F0C5F8E1E70C37BD4690BDCC
:1029E800300000207048002080B500AFBFF34F8F43
:1029F8000549064BCA6802F4E0621343CB60BFF393
:102A08004F8F00BFFDE700BF00ED00E00400FA05AE
:102A18000FB40648009901600199416002998160EC
:102A28000399C160614601610FBC7047E44A002008
:102A380000224FF0FF3180B5034B00AFC3E900120D
:102A4800C3E902221A6180BD340000202DE9F0415B
:102A580086B000243A4D3B4B02AFA8681B68FB6068
:102A68004FF000037C6000F057FFD5E90338CDE94B
:102A78000003354A6B6880210646344806F06AFC34
:102A88003349344806F054FC3049324806F050FCCB
:102A98003149304806F04CFC2C4928683A1DFFF7AC
:102AA80049FE18BB3146EA68786800F054FF2B4BA2
:102AB8001C6814F0010414D0294E33685B6833B3E2
:102AC800284D2B681BB929462748FFF70DFB1F49DE
:102AD8002868FFF745F9786800F060FF002233683E
:102AE8005A604FF4E0617868FFF7CCFEFFF7A0FF6B
:102AF800B8F1010F11D11D49164806F019FC002341
:102B08001B4ABB60BB68934203DDFFF76DFF1C46A1
:102B1800E7E7BB680133BB60F4E71CB10122104B47
:102B28001B685A60074B1A68FB685A404FF000034D
:102B380001D000F05BFA1037BD46BDE8F08100BF58
:102B48003400002030000020DBBB0008B03B002030
:102B5800E7BB00082FBA00080EBC0008EC040020F0
:102B6800F0040020E04A0020F4BB0008FABB00088B
:102B78003F420F00144B2DE9F0411B68134A144ED5
:102B88001A44B2F5967F34BF124A03F5967212487A
:102B980000AFC6E9003206F05FFB04463568D6F898
:102BA800048025F00305454508D2224628460A49EF
:102BB80006F090FB28B901342C4474600448BDE841
:102BC800F0810435EFE700BF7C4800202C01F4DFDA
:102BD80000000020FCFF0B2010BC00082DE9F04F7E
:102BE80087B000245C4B02AF1B68FB604FF000030A
:102BF80002685A4B5A4D1A605A4B5B4A5B4E1A6030
:102C08005B4B80461C602B683C60A3423460C0F27A
:102C18008980A86800F080FEEB680446CDE90003CF
:102C280080216B68534A544806F094FBD5F800B0ED
:102C38000023DFF87091C9F80030504B1B68DB07A0
:102C480014D54F4B1B685B6883B10123DFF858A18B
:102C5800C9F80030DAF800301BB951464948FFF787
:102C680043FA4549DAF80000FFF77AF84649474839
:102C780006F05EFB4049454806F05AFB4449434884
:102C880006F056FB5846394A3B49FFF753FD0028E2
:102C98005BD1384600F0B5FE20213868D6F800A090
:102CA80000F04BFE012102465046FFF77BFDD8F8A5
:102CB800002007213068FFF775FD2B68D6F80080E3
:102CC800002B3BDB2021204600F037FE0221024684
:102CD8004046FFF767FD0421EA683068FFF762FDA8
:102CE800D9F800306BB1002307F10801381DC7E996
:102CF8000133FFF7D5F9D7E90112264B3068FFF702
:102D080075FD2549214806F013FB21491F4806F0A7
:102D18000FFB114B1A68FB685A404FF0000316D09E
:102D280000F064F94FF0E0238021D3F8283D1B4AD6
:102D3800114806F00FFB40F2014B79E74FF0E02312
:102D480006214046D3F8282DC8E71549DAE7143795
:102D5800BD46BDE8F08F00BF300000207C48002051
:102D680034000020D84A002080480020FC4A002077
:102D7800F84A0020DBBB0008B03B0020EC04002030
:102D8800F0040020F4BB0008E7BB00082FBA0008D5
:102D98000EBC00083BBC00084ABC00081DBC00086B
:102DA80065BC0008DC4A0020E04A00202DE9F0411B
:102DB80082B03E4B3E4D00AF06461B687B604FF02D
:102DC800000328683B4B1446C31A02FB0133B3F5D2
:102DD800167F13D30122384B1A60344B1A687B686C
:102DE8005A404FF0000301D000F000F9334934484D
:102DF8000837BD46BDE8F04106F09ABA314BD3F822
:102E080000C0314B9C4504D030492D4806F090FA5B
:102E1800FEE742B9254B1A687B685A404FF0000319
:102E2800E2D12B49E3E7022914D0042923D0012950
:102E380032D13146FDF79EFB2B6823442B601B4B98
:102E48001A687B685A404FF00003CDD10837BD4659
:102E5800BDE8F0814FF0000836F8183002223946F4
:102E68003B80FDF787FB286808F1010802304445DC
:102E78002860F1D1E3E74FF0000856F82830042223
:102E880039463B60FDF776FB286808F101080430F5
:102E980044452860F1D1D2E7044B1A687B685A4050
:102EA8004FF00003A0D10B49A1E700BF300000207C
:102EB800D84A002080480020F84A002091BC000829
:102EC8002FBA0008144B0020ED55CEACBFBC00084B
:102ED8000EBD00083ABD0008F0B583B0344D354E3C
:102EE800286800AF002840D0334A3168334B13EAD2
:102EF800210338BF1346324A126852B9314A32495F
:102F08001268521AFFF772FC18B13049304806F0BF
:102F18000FFA304B1C6854B12F4B1C6814F0010495
:102F280005D02E4B1A685368EBB1002353604FF459
:102F3800E0612868FFF7A6FC18B12949244806F083
:102F4800F7F93368013325D03369012B13D12549AB
:102F58001F4806F0EDF90023234A3B603B68934283
:102F680005DDFFF741FD1C46E1E70446E9E73B685C
:102F780001333B60F2E71CB10122184B1B685A6011
:102F8800FFF756FD01200023124A0C372B6013600F
:102F9800BD46F0BD13490E4806F0CAF90023124A8F
:102FA8007B607B689342DCDC7B6801337B60F8E7FD
:102FB800FC4A00203400002059BD000862BD00080A
:102FC800F84A0020D84A0020804800206CBD00083C
:102FD8002FBA0008DC4A0020EC040020F00400208E
:102FE80095BD0008FABB00083F420F0080B500AF4E
:102FF800FFF70EFD05220A4B40F2ED111A60094A4F
:103008005A60094A9A600122C3E90312FFF776FA67
:1030180010B1FFF71BFDFEE7FFF70AFDFBE700BF56
:1030280034000020B0BD0008C1BD000880B500AF65
:10303800EFF3058363B9EFF31482920708D5EFF332
:103048000B81074A116083F30B88BFF36F8F80BD34
:10305800EFF30A82034B1A60002383F30A88F4E72C
:10306800784800207448002080B500AFEFF305834E
:1030780053B9EFF314839B0706D5064B1B6883F3FC
:103088000B88BFF36F8F80BD034B1B6883F30A88DF
:10309800F7E700BF78480020744800202DE9F04F7A
:1030A80089B01646002200AFC7E90110D7E9155AC2
:1030B8009846D7E91393454CFB60454BD4F800B0CC
:1030C8001B68FB614FF00003C7E90422BA61B9F13C
:1030D800000F09D101203E4B1A68FB695A404FF096
:1030E80000036ED0FFF782FF99F80020002AF1D084
:1030F800FB68002BEED0002DECD0BAF1000FE9D020
:10310800002EE7D04645E5D807F1100000F0E0F9B9
:103118000128DFD007F1140000F07EFA0128D9D089
:1031280007F1180000F01EFA0128D3D0294B2A4ACB
:103138002068CBE901327A69BB68CBF814204FF0DC
:103148002012ABF80C307B683969ABF80E30BB6CD9
:10315800ABF81060ABF81C30CBF81820ABF8128035
:103168002022CBF820502430FDF704FA20682022D2
:10317800B9694430FDF7FEF920684946BA6C6430F5
:10318800FDF7F8F9BB6C206803F1600604302A46A5
:10319800F9683044FDF7EEF95B4622689BF80700B2
:1031A80004323244505551199BF8062000204A70C9
:1031B8009BF805208A7013F8042FCA70CAF80030EB
:1031C80089E72437BD46BDE8F08F00BF004B0020DB
:1031D80030000020D1D2D3D4F00F0100034680B5CF
:1031E800012000AF1BB118600020014A136080BDA8
:1031F800004B0020F0B589B000261A4B06AF1B68BB
:103208007B604FF00003184B04461B680D463E6078
:103218004BB90120134B1A687B685A404FF00003E2
:103228001CD0FFF7E3FE1B68002BF2D00028F0D07B
:103238003946FFF711FB0128EBD04FF48673CDE92F
:10324800024304953B6831460193682300930123A8
:1032580041F212501A46FFF721FFDBE70C37BD4653
:10326800F0BD00BF30000020004B00202DE9F047E2
:1032780090B01C4606AF294B80460E4615460021E5
:10328800242238461B687B624FF00003D7F848A019
:10329800FDF7E6F9224BB9461B68002B37D01B68AF
:1032A800002B34D0B8F1000F31D085B37CB323782C
:1032B8006BB3BAF1000F2AD01A4A1B4BBD60C7E99D
:1032C800002304F10F00631E07F10B0213F8011F1E
:1032D80002F8011F09B18342F8D1144B3146FB6152
:1032E8002423CDE9029310230093012344F21860AC
:1032F8001A46CDF810A00194FFF7D0FE074B1A68C4
:103308007B6A5A404FF0000303D0FFF76FFE01209D
:10331800F4E72837BD46BDE8F08700BF300000203D
:10332800004B002050446150F00F0310506144508E
:1033380090B587B00C4C06AF24689CB124688CB15A
:1033480080B1F86904907869039038690290B86987
:1033580001901020009048F27130FFF79FFE04376B
:10336800BD4690BD0120FAE7004B002080B50A4B0E
:1033780000AF1B6873B11B6863B158B151B1C36921
:10338800828A24331344C28A1344028B00201344D4
:103398000B6080BD0120FCE7004B002080B500AF2A
:1033A800F0B11049104B41604FF480710122186050
:1033B800002301810D49C0E903228272C0F89C30C4
:1033C80080F87C3080F85C3000F1130211F8013B82
:1033D80002F8013F002BF9D101220260184680BD96
:1033E8000120FCE703922871044B0020CDBB0008A4
:1033F800F0B585B0254B00AF1B68FB604FF00003AC
:103408000023234DC7E901332B6806464BB9012039
:103418001E4B1A68FB685A404FF0000332D0FFF782
:10342800E5FD1B68002BF2D0FFF768F80028EED006
:103438002B68184C5B68A34201D10020E8E70821FB
:10344800381D00F05BF980B97B68012B0DD1BB6892
:10345800114A934209D0A2F10752A2F51F12012E78
:10346800A2F16E020BD1934206D101230821381D27
:10347800C7E9013400F028F92B685C60DDE7934266
:10348800FAD1C4E71437BD46F0BD00BF30000020B4
:10349800044B0020252715157152109398B50A4C36
:1034A80000AF23680BB9002098BD1B68002BFAD029
:1034B800FFF724F80028F6D023685868034BC31A8E
:1034C80058425841F0E700BF044B00202527151546
:1034D8002DE9F04182B0204B00AF1B687B604FF0B4
:1034E800000300231D4E3B60336804464BB901209E
:1034F800194B1A687B685A404FF0000328D0FFF731
:1035080075FD1A68002AF2D00028F0D093F87C5094
:10351800D5B99A7A012AEAD1114AD2F80080B8F1CD
:10352800000FE4D03A461F2103F17C00C047012870
:10353800DDD0336893F87C20002AD8D03A681F2A57
:10354800D5D81A4482F87C507C3300202360CFE71A
:103558000837BD46BDE8F08130000020044B00204C
:10356800343C00202DE9F04182B01F4B00AF1B68AE
:103578007B604FF0000300231C4E3B603368044619
:103588004BB90120184B1A687B685A404FF000036A
:1035980025D0FFF72BFD1A68002AF2D00028F0D0BA
:1035A80093F85C50BDB9124AD2F80080B8F1000F08
:1035B800E7D03A461F2103F15C00C0470128E0D05C
:1035C800336893F85C20002ADBD03A681F2AD8D8E1
:1035D8001A4482F85C505C3300202360D2E7083735
:1035E800BD46BDE8F08100BF30000020044B00203C
:1035F800303C002080B5074B00AF1B6843B11A6808
:1036080032B10020D3F89C200132C3F89C2080BD41
:103618000120FCE7044B002080B5074B00AF1B6876
:103628003BB11A682AB120B1D3F89C30036000205E
:1036380080BD0120FCE700BF044B002080B5074B8C
:1036480000AF1B683BB11A682AB11A69012A02D176
:103658001861002080BD0120FCE700BF044B00205A
:1036680080B5064B00AF1B6833B11A6822B118B198
:103678005B7A0370002080BD0120FCE7044B00202A
:1036880080B5064B00AF1B6833B11A6822B118B178
:103698001B7A0370002080BD0120FCE7044B00204A
:1036A80098B500AF08B9012098BD064C20600430D9
:1036B80000F05EFA0128F6D00122236800201A6083
:1036C800F2E700BF084B0020B0B50B4B04461B685F
:1036D8000D4600AF6BB11B685BB1FFF7DFFE40B171
:1036E8003CB135B129462046BD46BDE8B04000F0A2
:1036F80043BA0120B0BD00BF084B0020B0B50B4B4A
:1037080004461B680D4600AF6BB11B685BB1FFF741
:10371800C5FE40B13CB135B129462046BD46BDE89D
:10372800B04000F02DBA0120B0BD00BF084B00200A
:1037380090B583B0194B00AF1B687B604FF0000356
:103748000223FB70164B04461B684BB90120134B30
:103758001A687B685A404FF000031CD0FFF746FCFC
:103768001B68002BF2D0FFF799FE0028EED0002C42
:10377800ECD0F81CFFF784FF0128E7D0F97800297E
:10378800E4D04B1E59425941204600F0FDF9421E33
:1037980050425041DBE70C37BD4690BD3000002059
:1037A800084B002090B583B0194B00AF1B687B60B5
:1037B8004FF000030223FB70164B04461B684BB9FD
:1037C8000120134B1A687B685A404FF000031CD045
:1037D800FFF70CFC1B68002BF2D0FFF75FFE0028F8
:1037E800EED0002CECD0F81CFFF74AFF0128E7D0F8
:1037F800F9780029E4D04B1E59425941204600F07F
:10380800C7F9421E50425041DBE70C37BD4690BD18
:1038180030000020084B0020B0B586B02F4B02AF17
:103828001B68FB604FF000030023826AC7E901337D
:10383800036A041D934244D900932346284A8021F1
:10384800284805F087FD3A4606202649FEF772FF0C
:1038580070BB254D2B681BB929462448FEF744FC4C
:1038680020492868FEF77CFAFEF706FC07F10801F4
:10387800381DFEF715FCD7E901121D4B3868FEF715
:10388800B5FF1C2120463D6800F057F8012102468B
:103898002846FEF787FF4FF4E0613868FEF7F2FF2D
:1038A80018B11449144805F043FD0120FEF786FBC2
:1038B8000A4B1A68FB685A404FF000030AD0FFF71A
:1038C80095FB426A0093934238BF0C4A234628BFAF
:1038D8000B4AB4E71037BD46B0BD00BF300000202A
:1038E8001ABE0008B03B00200C4B0020F4BB0008B7
:1038F8003BBC000895BD00082FBA000848BE000868
:1039080076BE000880B4034800AFBD465DF8047B6E
:10391800FEF77CBC2138000898B500AF044605F0D6
:103928009BFC28B102460138235C2F2B02D114449A
:10393800204698BD5C2BF4D1F9E780B500AF30B1D3
:103948000346014400201A780AB18B4200D180BD99
:1039580010440133F7E7F8B505461446084600AFAA
:10396800B9B12021FFF7E9FF022102462846FEF7F8
:1039780019FF06465CB1224604212846FEF712FFCD
:103988003043003818BF0120F8BD0126F3E70120B5
:10399800F6E7002AF9D10120F6E7000090B585B0D6
:1039A800114B00AF1B68FB604FF000030023044677
:1039B80007F10801381DC7E90133FEF771FB70B93B
:1039C800D7E901122046094BFEF710FF064B1A688B
:1039D800FB685A404FF0000303D0FFF707FB0120B4
:1039E800F4E71437BD4690BD300000203BBC00080A
:1039F80080B5034600AF10B10020186080BD0120DB
:103A0800FCE798B5044600AF08B9012098BD04F05A
:103A1800ABFF0028F9D004F075FC20600020F5E722
:103A28002DE9F04786B03D4B3D4E00AF1B687B61EA
:103A38004FF00003336804464BB90120374B1A682E
:103A48007B695A404FF0000364D0FFF7CFFA002893
:103A5800F3D0391DFFF78AFC0128EED07B68B3F557
:103A6800803FEAD22F49304805F062FC0025214604
:103A7800D7F8048008EB040081421BD14FF00009FD
:103A88001423B9FBF3FAC84503FB1A9A20DCBAF1F0
:103A9800000F03D02549244805F04AFC2B46502145
:103AA800234A306805F056FC31681F4805F040FC91
:103AB8000020C3E711F8012B6A4082EA0212D2B251
:103AC800D30083EA022383EA152383EA1215D3E796
:103AD8000A2114F80930174A07F1080005F03AFCE2
:103AE800BAF1000F03D114490F4805F021FC0E4824
:103AF80007F1080105F01CFC104B09F1010903FB53
:103B080009F30F4AB2EBB30FBAD30849064805F0D8
:103B18000FFCB5E71837BD46BDE8F0873000002038
:103B2800104B0020B3BE00082FBA000803BF0008DE
:103B3800DFBE0008D0BE0008D6BE0008CDCCCCCC75
:103B4800CCCCCC0C80B5024B00AF1860002080BDF7
:103B5800104B002080B400AFBD465DF8047BFFF732
:103B68005FBF80B400AFBD465DF8047BFFF758BF68
:103B780080B5002000AF80BD80B5012000AF80BDBA
:103B880080B5012000AF80BD80B5012000AF80BDA9
:103B980080B5012000AF80BD98B5044600AF20462F
:103BA8001CB154F80C3B013300D198BD0822012107
:103BB800FFF7FCF854F80C0C54F8082C14F8041C03
:103BC800121AB2FBF1F2FFF7F1F8E8E72DE9F0413C
:103BD800A8B0C26A604B00AF12F0040F1B68C7F8A8
:103BE8009C304FF00003D0E9003118BF0B46C7E9FD
:103BF8000003D0064CBF03F1200203F16802DB6921
:103C08000021DB0903F004031343FB604FF0E023BA
:103C1800B960D3F8883D042603F4A003A3F5A001F6
:103C28004B424B41BB6000234FF001084B4C3B61BA
:103C38004B4D07F10C002C60FEF7D0FF0422012148
:103C48004848FFF7B3F80422012107F10800FFF7FD
:103C5800ADF8102201217868FFF7A8F8386820220B
:103C680001210C30FFF7A2F87868042201211030F6
:103C7800FFF79CF80422012107F10C00FFF796F8E2
:103C880078680C2201211430FFF790F80C220121EA
:103C98003868FFF78BF8BB68DA0718D53B68DB6A2A
:103CA800DB0650D407F15400FCF7E8FA79684022A3
:103CB800203107F11400FCF75DFC7B681B6EC7F828
:103CC80094308422012107F11400FFF76FF8FEF702
:103CD80051FFFFF761FF4FF0E023D3F8003D03F4F5
:103CE8007023B3F5402F0ED01F4B07F114007B61F2
:103CF8001433BB614FF0FF333E77C7E9083387F8C9
:103D08002880FFF749FF2B68A34208D0174B0422ED
:103D1800012107F19800C7F89830FFF747F8FFF737
:103D2800DBF8002884D03B691BB17A6893690233B9
:103D38009361094B1A68D7F89C305A404FF000033A
:103D480006D0FFF753F907F11400FCF791FAB8E72A
:103D5800A037BD46BDE8F08130000020ED55CEAC5F
:103D6800144B00208EC4000828ED00E0ACCE55EDC1
:103D780090B41346054C064A00AF002908BF2246F6
:103D880001460448BD4690BC05F0D2BA0DBF0008F4
:103D980008BF000812BF0008F8B5044685690F4936
:103DA80040680F4E2A46002808BF314663690D480F
:103DB80000AF05F0BDFA062D03D063680BB90123E7
:103DC8006360002301222046C4E90232C4E90533B6
:103DD800BD46BDE8F84000F00BBA00BF27BF000899
:103DE8009FC200082FBF0008B0B58EB0894B02AF44
:103DF8001B68FB624FF00003874B07F11C0203F1BD
:103E08000805144618685968083303C4AB422246AB
:103E1800F7D118681B7920603846237100F0A4F99F
:103E280020BB7E4800F026FA384600F09DF93A6833
:103E38007B497C4805F07CFAFB68082B07D13A6877
:103E48007749794805F074FA002004F05FF9774B58
:103E58007968774A002918BF1A46FB68023B052B88
:103E680020D8DFE803F08B1F825014877968012976
:103E780003D9704805F05CFAD3E73B696E48CDE991
:103E880000136749FB683A6805F052FAD4E7B96845
:103E98006A4805F04DFA00210123C7E902133846A4
:103EA80000F0A6F9664C2368DA076CD5654B1B68E9
:103EB8005B68002B73D064496448FEF715F9B0FAC3
:103EC80080F1634A63484909FFF752FF5E4D7C68F9
:103ED800002C6FD0082300243846C7E9024300F0BD
:103EE80087F93A684E49504805F022FA204604F00E
:103EF8000DF9484B1A68FB6A5A404FF0000300F06E
:103F08008680FFF773F849BB40F2F733BC689C42E0
:103F180024D1D7E9052346494F4805F009FA7969BC
:103F28004E4AB1FA81F142484909FFF721FF397E2B
:103F38004B4AC1F3400181F001013D4801F0010104
:103F4800FFF716FF7B683A49384A0133002B08BF50
:103F58000A463A4821467B6005F0EAF90023012227
:103F6800C7E90533C7E9023299E74FF0FF337B61B0
:103F78000423BB613846FFF70FFF93E74FF0FF3389
:103F88007B610223F5E7FDF76FFFB0FA80F1354A50
:103F980030484909FFF7ECFE2368DB0786D4012087
:103FA800FEF70CF8B0FA80F12F4A2A484909FFF7C2
:103FB800DFFE80E722461E492C4805F0B9F940F299
:103FC800F7322B492868FDF715FF40F2F733BB603D
:103FD80002233846FB60C7E9054400F009F9144894
:103FE80000F08AFA12490246224805F0A1F97B68D6
:103FF80038460133C7E901340123C7E90544FB60AA
:1040080000F0F6F84FF4967004F004FB5FE73037E1
:10401800BD46B0BD3000002010BC00089FFBB39225
:1040280068BF000877BF0008F0BF000864BF000839
:104038009FC2000891BF0008C0BF00080DC000085B
:10404800EC040020F00400202490002091C0000817
:104058009BC000087BC0000821C0000850C00008B1
:104068005CC0000869C0000883C00008B4C000082C
:10407800C6C00008D0C0000880B5024B00AF186861
:1040880080BD00BF2490002090B585B0194804AFCA
:1040980005F04EF900F064F9FDF7E6FE38B1164870
:1040A80005F046F94FF0FF300437BD4690BDFEF7E6
:1040B80017FA08B11148F3E70120FDF77FFF04461E
:1040C80008B10F48ECE700F095F90E4B4FF4805219
:1040D80002930D4B0D49019303230D48009323468A
:1040E80003F0BCFF08B90B48DAE704F089F80A487E
:1040F800D6E700BFE5C0000824C100084DC100088C
:1041080074C10008C48F0020C44F002098C1000863
:10411800F13D0008A1C10008C5C1000890B589B0EB
:10412800104B00AF044638461B68FB614FF0000394
:1041380000F01AF848B1FB68082B06D0C7E9054318
:1041480007233846FB6000F053F8064B1A68FB69F2
:104158005A404FF0000301D0FEF748FF2437BD4610
:1041680090BD00BF300000201D4B2DE9F04FD3F863
:1041780000B0D3F804A0D3F80890D3F80CE0D3F833
:1041880010C05E699A69DD691C6A596AD3F828808B
:10419800144B00AF9B4520D1BAF1020F1DD1124B31
:1041A80099451AD1531E072B17D88EEA010383EAC3
:1041B8000C0373405340DFF834906B40634083EA4C
:1041C8000909C84509D1C0E900ECC0E90262C0E9A3
:1041D800045481610120BDE8F08F0020FBE700BF97
:1041E80080A002204D465444D0BDE3D67A8A8B3B4A
:1041F8000346D0E900C09A692DE9F043D3E9026586
:10420800D3E904418CEA0203434073406B406340A6
:10421800DFF854E04B4000AF83EA0E0EEFF310884E
:1042280072B64FF000090F4BC3F82890DFF83C90A6
:10423800C3F800904FF00209C3F80490DFF83090FB
:10424800C3F80890C3F80CC018615E619D61DC6119
:1042580019625A62C3F828E0B8F1000F00D162B6BB
:10426800BDE8F08380A002207A8A8B3B4D465444F7
:10427800D0BDE3D690B589B00E4B00AF18220446E6
:104288000021381D1B68FB614FF00003FCF7E8F9BB
:1042980001233846FB603C60FFF7AAFF054B1A680C
:1042A800FB695A404FF0000301D0FEF79FFE243708
:1042B800BD4690BD3000002090B589B0114B00AFCD
:1042C8001B68FB614FF00003002304463846FB607F
:1042D800FFF74AFF50B1FB68032B07D1BB68A34225
:1042E80004D104233846FB60FFF782FF054B1A68A8
:1042F800FB695A404FF0000301D0FEF777FE2437E0
:10430800BD4690BD30000020F0B589B0134B00AF1A
:104318001B68FB614FF000030023064638460D4634
:104328001446FB60FFF720FF60B1FB68042B09D13E
:10433800BB68B34206D105233846C7E90554FB607C
:10434800FFF756FF054B1A68FB695A404FF0000308
:1043580001D0FEF74BFE2437BD46F0BD30000020EB
:10436800F0B589B01F4B00AF38461B68FB614FF0B2
:104378000003FFF7F9FE28B3FB68032B22D140F2B4
:10438800F233BC689C421DD12046FFF795FFEFF33E
:104398000585EFF31486FEF73BFB134B134A1521F3
:1043A8005A60134A1C609A600122C3E90312FEF79F
:1043B800A5F880B1FEF74AFB3246294640F2F230B2
:1043C800FFF7A2FF074B1A68FB695A404FF000033A
:1043D80004D0FEF70BFEFEF72BFBEDE72437BD46B6
:1043E800F0BD00BF3000002034000020F0C10008FC
:1043F800FAC10008F0B589B0214B00AF38461B68F8
:10440800FB614FF00003FFF7AFFE50B3FB68032BCF
:1044180027D140F2ED33BC689C4222D12046FFF7F9
:104428004BFFEFF30585EFF314861648324629460D
:1044380004F07EFFFEF7ECFA134B144A2A215A6067
:10444800134A1C609A600022C3E90312FEF756F86B
:1044580080B1FEF7FBFA3246294640F2ED30FFF70D
:1044680053FF074B1A68FB695A404FF0000304D00A
:10447800FEF7BCFDFEF7DCFAEDE72437BD46F0BDDC
:10448800300000203CC20008340000206AC2000846
:10449800FAC1000898B500AFEFF30583104C23600C
:1044A800FFF7EAFD22680F49FDF7A4FCFEF7B0FA12
:1044B80040F2EE320C4B37211A600C4A5A600C4A13
:1044C8009A600022C3E90312FEF718F828B1FEF734
:1044D800BDFA0122074B1A7098BDFEF7A9FAF8E752
:1044E8002C90002074C20008340000208FC20008FD
:1044F800FAC100082890002080B500AFFEF788FABE
:1045080040F2F732094B91211A60094A5A60094A68
:104518009A600022C3E90312FDF7F0FF18B1FEF715
:1045280095FA002080BDFEF783FAFAE734000020F0
:104538009AC20008FAC1000880B500AF00F044F83C
:1045480000F080F9BD46BDE88040FFF79DBD000042
:1045580080B500AFBFF34F8F0549064BCA6802F418
:10456800E0621343CB60BFF34F8F00BFFDE700BF8E
:1045780000ED00E00400FA0580B5002000AF80BD22
:1045880080B483B00F4B00AFD3F8942042F00402FC
:10459800C3F89420D3F8942002F004023A603A68F1
:1045A800D3F8A82042F00202C3F8A820D3F8A83014
:1045B80003F002037B607B680C37BD465DF8047B23
:1045C80000F0B8BB000C024690B5A1B02C4B00AF70
:1045D8001B68FB674FF0000300F0AEF918220021BA
:1045E800381DFCF73DF86022002107F11C00FCF79C
:1045F80037F84FF4403000F051FB00B1FEE71023CC
:104608000122FB61C7E90E2302230324C7E91532FF
:104618004FF40052C7E917420F22C7E91B33C7E915
:1046280019230C233864C7E91D3007F11C0000F07A
:10463800DFFD0028E2D11F23C7E90300C7E9050011
:104648002146381DC7E9013400F060FC0028D5D1A7
:1046580000F006FB00F016FB4FF00062094B9A6071
:10466800BFF34F8FBFF36F8F054B1A68FB6F5A402C
:104678004FF0000301D0FEF7B9FC8437BD4690BD6A
:104688003000002000ED00E00A4A80B5D2F8FC3086
:1046980000AF43F08073C2F8FC300022064B5A602A
:1046A8001A6842F001021A60BFF34F8FBFF36F8F91
:1046B80080BD00BF00ED00E0001000E080B5024BB7
:1046C80000AF586880BD00BF001000E0044B80B503
:1046D8000360044B00AF0B604FF48073136080BD20
:1046E800909C002090980020044B80B50360044BF8
:1046F80000AF0B604FF40073136080BD309800204A
:104708003090002080B5054800AF04F011FE052068
:10471800FFF704FD04F078FCFFF71AFFA4C20008B5
:1047280080B50A4600AF0146044804F001FE0120A6
:10473800FFF7F4FC04F068FCFFF70AFFC1C20008A9
:1047480090B583B00D4B00AF1B687B604FF0000342
:1047580001224FF0FF33F8700446F91C084802F0B4
:1047680081FF064B1A687B685A404FF0000301D05E
:10477800FEF73CFC20460C37BD4690BD30000020BB
:10478800F09C002090B5BDB0044600AF294B142220
:10479800002107F10C001B68C7F8EC304FF000034C
:1047A800FBF75EFFC822002107F12000FBF758FF46
:1047B8002268214B9A422FD10122002307F12000C1
:1047C800C7E9082301F08EFA1C4B1D48D3F8A42032
:1047D80007F10C0142F48042C3F8A420D3F8A420C6
:1047E80002F480427A607A68D3F88C2042F00102A1
:1047F800C3F88C20D3F88C304FF4C06203F0010367
:10480800BB60BB680223C7E903230022C7E905236D
:104818000723FB6100F00CF9064B1A68D7F8EC3057
:104828005A404FF0000301D0FEF7E0FBF437BD46D5
:1048380090BD00BF3000002000380140000C024647
:10484800000002420E490F4B80B54FF4E1220B6085
:104858000023C1E901230C2200AF0846C1E9033354
:10486800C1E90523C1E90733C1E9093302F0B1FF02
:1048780018B9034802F0DDFF00B1FEE780BD00BFB4
:10488800F09C002000380140FBF7D2BC80B400AF98
:10489800BD465DF8047BFFF7FDBD0000DFF834D0AE
:1048A80000F026F8002103E00B4B5B58435004311D
:1048B8000A480B4B42189A42F6D30A4A02E00023F0
:1048C80042F8043B084B9A42F9D304F0F3FCFFF793
:1048D80033FEFEE700000C20E8C8000800000020B6
:1048E800600000206000002080A00220FEE7000099
:1048F80001220F4880B5D0F8883000AF43F4700328
:10490800C0F888300B4B1A600022DA611A625A62CA
:10491800196821F0A85121F4102119609A621968C8
:1049280021F4802119601A654FF00063836080BD0F
:1049380000ED00E0000C024698B5032000AF00F03F
:1049480027F800F05FFA0B4B0B4A1B6A03F00F03C2
:10495800D35CD840094B1860042000F02DF80020E3
:10496800FFF70AFE044618B9FFF70AFE204698BD6D
:104978000124FBE7000C0246E0C4000858000020B0
:1049880080B5024B00AF186880BD00BF789D00203D
:10499800084980B5CA68030222F4E062120403F4ED
:1049A800E063120C134343F0BF6343F4003300AFDA
:1049B800CB6080BD00ED00E080B500AF04280AD8C8
:1049C800DFE800F00A18260903004FF0E022136917
:1049D80043F00403136180BD4FF0E022136923F014
:1049E80004031361114AD2F8E03023F44003C2F8FB
:1049F800E030F0E74FF0E022136923F0040313617D
:104A08000A4AD2F8E03023F4400343F48003EEE787
:104A18004FF0E022136923F004031361034AD2F82C
:104A2800E03023F4400343F40003E0E7000C0246BF
:104A38002DE9F04F864B85B000AF7B60002203461E
:104A4800844C854E04EA9024B9603C60B9680C68CF
:104A580034FA02F503D11437BD46BDE8F08F0121C1
:104A680001FA02FE1EEA0404FC6000F09680B968B0
:104A78004C687A4924F01005884240F09380036816
:104A8800796823EA0E0C04F00103934043EA0C030F
:104A98000360D1F804C00F217B684FEADC081B686B
:104AA8000CF0070903EB8808D8F820E04FEA8909D9
:104AB80001FA09FA2EEA0A0A4FF00B0E03210EFA40
:104AC80009FE4EEA0A0EC8F820E0D3F800804FEA43
:104AD8004C0901FA09FE28EA0E084FF0020E0EFAF8
:104AE80009FE4EEA080EC3F800E0013D012D40F230
:104AF8008580032C51D003214FEA4C0CDD6801FA64
:104B08000CFEB96825EA0E0E8D6805FA0CF545EA23
:104B18000E05DD60E50040D50F2122F0030C0CF1F5
:104B28008C4C02F003050CF5083CED00DCF86080C5
:104B380001FA05FE396828EA0E0E01FA05F5F9684A
:104B480045EA0E05CCF860506FEA010CE10248BF57
:104B5800F96835684CBF0D430CEA05053560A102BC
:104B680048BFF96875684CBF0D430CEA05057560C8
:104B7800A103D6F884504ABFF9680CEA05050D432D
:104B8800C6F88450E103D6F8805049BFFC680CEAA7
:104B980005052C432546C6F880507C680132083448
:104BA8007C6053E703214FEA420901FA09FC022D10
:104BB8006FEA0C0C3ED122FA01FE0F2102F0070821
:104BC8004FEA880801FA08FBB96800EB8E0EDEF898
:104BD80020A009692AEA0B0A01F00F0B0BFA08FB5F
:104BE8004BEA0A0BCEF820B0D3F800E005FA09F535
:104BF8000EEA0C0E944645EA0E051D6003214FEAA5
:104C08004C089D6801FA08FEB96825EA0E0ECD68C1
:104C1800012105FA08F545EA0E059D605D6801FA6F
:104C28000CFE25EA0E0E250905FA0CF545EA0E05D7
:104C38005D6060E7D3F800E00EEA0C0E04F0030CA8
:104C48000CFA09FC4CEA0E0CC3F800C094464CE779
:104C5800F0C400087F7F2F000020024600000246B3
:104C68000146074A80B5106800AF10F0010009BF7F
:104C78001368012023F004030B4308BF136080BDB1
:104C88000004034080B5044A0020136800AF43F0D5
:104C98000103136080BD00BF000403401E4B80B5B4
:104CA800DA6B00AF02F44032824208D1B2F5803F9D
:104CB80082BFDA6842F48022DA60002080BDDA68B8
:104CC800B0F5803F22F4E02242EA000288BF42F4B5
:104CD8008022DA604FF47A72104B32211B68B3FBE2
:104CE800F2F34B43B3FBF2F301331A460A49C8689F
:104CF800000404D40AB90320E0E7013AF7E7002AE0
:104D0800F9D0054AD16B090403D4002BF3D0013B39
:104D1800F8E7002BD1D1EEE7000802465800002042
:104D280080B5034B00AFD86B00F4403080BD00BFA6
:104D38000008024680B5034A00AFD36A43F0010376
:104D4800D36280BD00080246B0B582B02B4D044640
:104D5800D5F8943000AF5B0718D5FFF7E1FF20F4D2
:104D68008033B3F5003F26D1B4F1805F2CBF00201B
:104D78000120234A136823F00F03034313601368C9
:104D880003F00F03181A18BF01201BE0D5F8943060
:104D980043F00403C5F89430D5F8943003F00403C5
:104DA8007B607B68FFF7BCFFD5F8943023F00403E1
:104DB800C5F89430D3E7B4F1805F06D2B0F5803FF0
:104DC80016D001200837BD46B0BDB4F1005F06D942
:104DD80080B9B4F1405F8CBF00200120C9E7B4F16D
:104DE800805F09D1B0F5803F0CBF01200220C0E7E9
:104DF8000320BEE70020BCE70120BAE7000C02460A
:104E0800002002403D4AB0B5D36900AF13F00C034F
:104E1800916A05D00C2B3FD101F0030101293BD148
:104E28009168090254BFD2F8F4209268344954BFFB
:104E3800C2F30332120F51F82200002B5AD02F4927
:104E4800B7EE006A8C6A8B6A8D6AC3F303238A6B98
:104E5800013307EE903AC2F3CC03C5F30012534373
:104E680006EE903A04F00304022CB8EEE77AFAEE64
:104E7800E96A1FD0032C1DD04B6BC3F3080307EE60
:104E8800903AF8EEE77A77EEA67A06EE900A77EE91
:104E9800867AB8EE666A1AE0D26902F00C02042A31
:104EA80006D0082B27D000200C2B23D10020C6E7E2
:104EB8001448F9E74B6BC3F3080307EE903AF8EE92
:104EC800E77A77EEA67A77EE867A9FED0F6A0B4B34
:104ED800C6EE076A5B6B67EEA67AC3F30663013317
:104EE80007EE103AB8EEC77AC7EE876AFCEEE67AA4
:104EF80017EE900AB0BD0348FCE700BF000C02465D
:104F080098C400080024F4000024744B2DE9F043F1
:104F180083B00D46044600AF20B901200C37BD46CA
:104F2800BDE8F0839A4A136803F00F038B426FD3EE
:104F38002368DE0678D418070DD5964920690A6AD1
:104F4800120902F07002904281BF0A6A22F4E062FC
:104F580042EA00120A6259070BD58E49E0680A6ACC
:104F680002F07002904281BF0A6A22F07002024386
:104F78000A629A070BD58749A0680A6A02F00F02ED
:104F8800904281BF0A6A22F00F0202430A62DE07DA
:104F980057D42268900700F1E1807D490B6803F03F
:104FA8000F03AB4200F2E780500700F1FD801107C4
:104FB8000DD5784920690B6A1B0903F070039842E4
:104FC8003FBF0B6A23F4E06343EA00130B62D30686
:104FD8000BD5704A6169536A03F0700399423FBF69
:104FE800536A23F070030B435362FFF70BFF694BBF
:104FF800694A1B6A0C3703F00F03D35CD840674B30
:105008001860674B1868BD46BDE8F043FFF7B4BAAF
:10501800136823F00F030B431360136803F00F03A7
:105028008B427FF47AAF83E75A4960694A6A02F093
:105038007002904281BF4A6A22F0700202434A62BB
:1050480079E76268534B032A53D1D3F89420510768
:1050580041D44FF00108D3F8942042F00402C3F879
:105068009420D3F8943003F004037B607B68FFF747
:1050780087FCDFF830910646D9F80C305A032DD456
:10508800444BB8F1000F05D0D3F8942022F0040265
:10509800C3F894201B6813F0007F3FF43EAF3D4EE9
:1050A8006268F36941F2883923F003031343F3611B
:1050B800FFF766FC63688046032B27D1F36903F08A
:1050C8000C030C2B3FF465AFFFF75AFCA0EB08006C
:1050D8004845F3D90BE04FF00008C8E7D9F80C3081
:1050E8005B04CDD4FFF74CFC801B0228F6D90320C3
:1050F80014E7022A1B6802D113F4003FCDE712B966
:1051080013F0040FC9E713F4806FC6E7022B0CD124
:10511800F36903F00C03082B3FF43BAFFFF730FCB7
:10512800A0EB08004845F3D9E1E78BB9F36913F020
:105138000C0F3FF42EAFFFF723FCA0EB0800484507
:10514800F4D9D4E7FFF71CFCA0EB08004845CED8FB
:10515800F36903F00C03042BF4D11AE70D49A06896
:105168000B6A03F00F0398423FBF0B6A23F00F034B
:1051780003430B6211E70B6823F00F032B430B600B
:105188000B6803F00F03AB427FF4C7AE0CE700BF18
:1051980000200240000C0246E0C40008580000202D
:1051A8005C000020000802460649E0680B6A03F02C
:1051B800700398423FBF0B6A23F0700303430B62EE
:1051C800F5E600BF000C024680B500AFFFF71AFEF7
:1051D800044B054A1B6A03F00F03D35CD840034B0A
:1051E800186080BD000C0246E0C40008580000208A
:1051F8002DE9F04385B0044600AF00283AD0A54B0E
:10520800DE699B6A06F00C0603F003080368DA06F9
:1052180040F19C80C36926B10C2E77D1B8F1010FFB
:1052280074D13BB39B4D606AAB681B0256BFD5F87F
:10523800F430AB681B0403F07043984239D9AEB11F
:10524800AB6843F40003AB60AB68616A23F070435A
:105258000B43AB60B1F1404F226A0DD20029EB68D5
:105268001BDA23F4787343EA421309E0FFF76CFD75
:105278000028E5D001200CE0EB6823F01F0313435E
:10528800EB60FFF7A1FF844B1868FFF775F900285A
:105298005CD01437BD46BDE8F083B1F1804F2BBF19
:1052A80023F4F84323F4782343EA822343EAC233FE
:1052B800E6E7AB68B0F1404F43F40003AB60AB687E
:1052C80023F0704343EA0003AB60226AEB680AD319
:1052D80023F01F031343EB60002ED2D1FFF734FDF8
:1052E8000028CED0C6E7002804DA23F4787343EA0E
:1052F8004213F0E7B0F1804F2BBF23F4F84323F4B7
:10530800782343EA822343EAC233E4E7614D002B62
:1053180075D02B6843F001032B60FFF731FB814602
:105328002B6859074FD5AB6843F40003AB60AB68F3
:10533800616A23F070430B43AB60B1F1404F226ABE
:10534800EB6848D323F01F031343EB602368DB07A4
:1053580066D423689D0700F1BF802368180740F1D1
:105368003C814C4BD3F89420510700F1F48001267E
:10537800D3F8942042F00402C3F89420D3F8943070
:1053880003F004037B607B68444DAB6ADA0740F1A5
:10539800E48063693F4D002B40F0F180D5F8F03090
:1053A80023F0A053C5F8F030FFF7EAFA8046D5F8A5
:1053B800F0301B0140F10981FFF7E2FAA0EB080089
:1053C8000528F4D905E0FFF7DBFAA0EB090002286D
:1053D800A6D903205DE7002904DA23F4787343EAA9
:1053E8004213B2E7B1F1804F04D323F4F84343EA00
:1053F8008223AAE723F4782343EAC233A5E72B687C
:1054080023F001032B60FFF7BBFA81462B685A078C
:105418009CD5FFF7B5FAA0EB09000228F6D9D8E722
:10542800082E636804D00C2E05D1B8F1030F02D101
:10543800002B8ED11EE7B3F5803F164D13D12B6894
:1054480043F480332B60FFF79BFA0546DFF844905E
:10545800D9F8003098033FF57CAFFFF791FA401B6D
:105468006428F5D9B5E7B3F5A02F08D12B6843F424
:1054780080232B602B6823F480132B60DFE7B3F5C0
:10548800A81F0DD12B6843F480232B602B6843F4AD
:105498008013F2E7000C02465C0000200008024678
:1054A8002A6822F480322A602A6822F480222A603C
:1054B8002A6822F480122A60002BC4D1FFF760FA10
:1054C80081462B6899037FF544AFFFF759FAA0EBA3
:1054D80009006428F5D97CE7042EE36804D00C2E73
:1054E8000ED1B8F1020F0BD1002B3FF4C3AEAD4A79
:1054F8002169136923F4F81343EA014313612CE784
:10550800A84DBBB12B6843F480732B60FFF738FAC2
:1055180006462B685A0507D52B69226923F4F81328
:1055280043EA02432B6118E7FFF72AFA801B022897
:10553800EFD94EE72B6823F480732B60FFF720FA2E
:1055480006462B685B057FF508AFFFF719FA801B45
:105558000228F6D93DE7002616E7AB6A43F00103B7
:10556800AB62FFF70DFA8046AB6ADB073FF511AF78
:10557800FFF706FAA0EB08000228F5D929E7D5F8C5
:10558800F030A16903F08052914210D003F04062DC
:10559800B2F1006F3FF46EAE58016DD4814AA16933
:1055A800D2F8F03023F080530B43C2F8F0307D4D31
:1055B800D5F8F03043F08063C5F8F030FFF7E0F934
:1055C8008046D5F8F0301A016AD536B1754AD2F856
:1055D800943023F00403C2F8943023685E0740F146
:1055E800AD80704BD3F89420550760D44FF0010874
:1055F800D3F8942042F00402C3F89420D3F89430EE
:1056080003F00403BB60BB68674DAB6AD80751D58C
:10561800A368644D13F0010F5CD1D5F8F02022F097
:105628000102C5F8F020D5F8F02022F00402C5F8F0
:10563800F020002B5DD1FFF7A3F941F28839064627
:10564800D5F8F030990700F1A580D5F8F0301A06A2
:105658006AD541F28839D5F8F03023F08003C5F8CF
:10566800F030504DD5F8F0301B055DD5FFF788F9BF
:10567800801B4845F6D9ACE6D5F8F03023F0A053A6
:10568800C5F8F030FFF77CF98046D5F8F0301901FD
:1056980084D5FFF775F9A0EB08000528F5D998E639
:1056A800FFF76EF9A0EB080005288AD991E64FF0BC
:1056B8000008A9E7AB6A43F00103AB62FFF760F9A2
:1056C8000646AB6AD907A3D4FFF75AF9801B02280C
:1056D800F7D97EE613F0040FD5F8F0301EBF43F07B
:1056E8000403C5F8F030D5F8F03043F00103C5F8ED
:1056F800F030FFF745F941F288390546294ED6F8CA
:10570800F0309A0729D5A36813F0800FD6F8F03047
:105718002FD041F2883943F08003C6F8F030214E8B
:10572800D6F8F0301B051ED5B8F1000F06D01D4A7B
:10573800D2F8943023F00403C2F894302368980612
:1057480034D42368190654D423685D0674D4A16B35
:10575800002940F0C18000209BE5FFF711F9401BAC
:105768004845CCD935E6FFF70BF9401B4845D7D952
:105778002FE641F2883923F08003C6F8F030094E4D
:10578800D6F8F0301805CFD5FFF7FAF8401B484592
:10579800F6D91EE6FFF7F4F8801B48457FF650AFB0
:1057A80017E600BF000C024600080246E36A9D4D5A
:1057B8007BB12B6843F480532B60FFF7E1F8064672
:1057C8002B689A04BDD4FFF7DBF8801B0228F7D9B1
:1057D800FFE52B6823F480532B60FFF7D1F80646CA
:1057E8002B689B04ADD5FFF7CBF8801B0228F7D9AF
:1057F800EFE5236B8B4D7BB12B6843F480432B6023
:10580800FFF7BEF806462B6818049DD4FFF7B8F8D2
:10581800801B0228F7D9DCE52B6823F480432B6032
:10582800FFF7AEF806462B6819048DD5FFF7A8F8E0
:10583800801B0228F7D9CCE5636B7A4D002B3AD050
:10584800AB6843F40003AB60AB68A26A23F07063F3
:105858001343AB60D4E90823B3F1404F16D3EB6888
:1058680023F01F031343EB606E4D2B6843F01003C6
:105878002B60FFF785F806462B689A063FF567AF59
:10588800FFF77EF8801B0228F6D9A2E5002B05DA7F
:10589800EB6823F4787343EA4213E4E7B3F1804FEB
:1058A800EB682BBF23F4F84323F4782343EA8223DD
:1058B80043EAC233D7E72B6823F010032B60FFF7C6
:1058C8005FF806462B689B067FF541AFFFF758F84F
:1058D800801B0228F6D97CE5524DEB6903F00C03D6
:1058E8000C2B00F0A5802B68022923F080732B6015
:1058F80040F08480FFF744F80646296811F00071EB
:1059080070D1D5F894305E070CD40121D5F89430C5
:1059180043F00403C5F89430D5F8943003F0040339
:10592800FB60FB68404DEE68EB6823F48023EB6076
:105938003C4B606CD3F828C0E26B02432CF47F40E8
:1059480020F003000243206C013842EA00229A62E8
:10595800A26CD3F834C03548013A0CEA0000C2F30F
:1059680008020243E06C0138400280B20243206D15
:105978000138000400F4FE000243606D013800069F
:1059880000F0FE4002435A639A6A22F010029A62BB
:10599800E26DD2009A639A6A42F010029A629A6A99
:1059A800A06D22F00C0202439A62700342BFEA68BB
:1059B80042F48022EA6029B1D3F8942022F004024C
:1059C800C3F894201A68174C42F080721A60FEF7E8
:1059D800D7FF054623689A010AD5A36A43F48023B2
:1059E800A362B8E6FEF7CCFF801B022885D9F0E455
:1059F800FEF7C6FF401B0228ECD9EAE4FEF7C0FF19
:105A080004462B689B0106D4AB6A23F4E02323F0F9
:105A18000303AB629FE6FEF7B3FF001B0228F0D931
:105A2800D7E400BF000C0246000802460000808050
:105A38000129AA6A6B6B3FF41DACE06B02F003010D
:105A480081427FF417AC216CC2F3032001398842EC
:105A58007FF410AC616C02F470428A427FF40AACA5
:105A6800A26CC3F30801013A91427FF403ACE26CE3
:105A7800C3F34621013A91427FF4FCAB226DC3F394
:105A88000641013A91427FF4F5AB626DC3F30663B8
:105A9800013A93427FF4EEAB0D4BE16D9A6BC2F382
:105AA800CC028A423FF457AE9A6A22F010029A62F8
:105AB800FEF766FF0546FEF763FFA842FBD0E26DDE
:105AC800034BD2009A639A6A42F010029A6242E645
