:020000040800F2
:1000000000000C2035590008C1020008C102000898
:10001000C1020008C1020008C102000821590008FD
:100020000000000000000000000000000DAA000811
:100030008559000800000000B1A9000851A7000878
:100040008559000885590008855900088559000818
:100050008559000885590008855900088559000808
:100060008559000885590008855900082559000858
:1000700085590008855900088559000885590008E8
:1000800085590008855900088559000885590008D8
:1000900085590008855900088559000885590008C8
:1000A00085590008855900088559000885590008B8
:1000B00085590008855900088559000885590008A8
:1000C0008559000885590008855900088559000898
:1000D0008559000885590008855900088559000888
:1000E0008559000885590008855900088559000878
:1000F0008559000885590008855900088559000868
:100100008559000885590008855900088559000857
:100110008559000885590008855900088559000847
:100120008559000885590008855900088559000837
:100130008559000885590008855900088559000827
:100140008559000885590008855900088559000817
:100150008559000885590008855900088559000807
:1001600085590008855900088559000885590008F7
:1001700085590008855900088559000885590008E7
:1001800085590008855900088559000885590008D7
:1001900085590008855900088559000885590008C7
:1001A00085590008855900088559000885590008B7
:1001B00085590008855900088559000885590008A7
:1001C0008559000885590008855900088559000897
:1001D0008559000885590008855900088559000887
:1001E0008559000885590008855900088559000877
:1001F0008559000885590008855900088559000867
:100200008559000885590008855900088559000856
:100210008559000885590008855900088559000846
:100220008559000885590008855900088559000836
:080230008559000885590008FA
:1002380088B01E4801680091416801918168029167
:10024800C168039101690491CDF814E07146A1F1E8
:10025800040121F001010691EFF3038141F080715F
:1002680007911349C1F800D0EFF3038343F080737B
:10027800EFF30982EFF30881DFF8380085462DE9AE
:10028800FE4FEFF31481C1F340014FF6B872CFF679
:10029800FF7242EA81020B92684603F03BFC0CB005
:1002A8000349096848698D4608B00047E44A0020B8
:1002B800F84A0020C84F00202DE9005002F082FEC5
:1002C800BDE80050EFF30383EFF30982EFF30881F1
:1002D800DFF820D02DE9FE4F684603F01BFCBDE88F
:1002E800FE4F8D462DE9005002F08AFEBDE8005011
:1002F80070470000C84F0020F1EE101AA0EC200A49
:1003080001607047A0EC108A704700BFF0B5EFF3AA
:100318001484EFF3088580F3088824F0020787F334
:100328001488BFF36F8F04F06BFD84F31488BFF358
:100338006F8F85F30888F0BD53B94AB9002908BF03
:1003480000281CBF4FF0FF314FF0FF3000F06AB9B2
:10035800ADF1080C6DE904CE00F006F8DDF804E014
:10036800DDE9022304B070472DE9F0478C468E463C
:10037800089E154604461946002B40F0D080724569
:1003880047D9B2FA82F74FB1C7F120030EFA07FC3A
:10039800BD40BC4020FA03F343EA0C0C4FEA154E6B
:1003A800A8B2230CBCFBFEF80EFB18CC08FB00F926
:1003B80043EA0C43994528D9EB1808F1FF3204D2D7
:1003C800994502D9A8F102022B44A3EB0903A4B270
:1003D800B3FBFEFC0EFB1C330CFB00F044EA0344A9
:1003E800A04214D92C190CF1FF3304D2A04202D92F
:1003F800ACF102032C44241A43EA02401EB1FC402B
:10040800002334607360BDE8F0874246DDE7634649
:10041800F1E7002A79D0B2FA82F3002B3FD01946CF
:10042800C1F1200302FA01F500FA01F42EFA03F2F1
:100438000EFA01FE20FA03F3AFB243EA0E034FEAC5
:10044800154EB2FBFEFC0EFB1C201A0C0CFB07F829
:1004580042EA004290455AD9AA180CF1FF3004D25A
:10046800904502D9ACF102002A44A2EB08029BB2E3
:10047800B2FBFEFC0EFB1C220CFB07F743EA02430F
:100488009F4246D9EB180CF1FF3204D29F4202D9A1
:10049800ACF102022B44DB1B42EA004202E0AEEB65
:1004A800020301224FEA154EAFB2200CB3FBFEFC4B
:1004B8000EFB1C330CFB07F840EA034398452AD986
:1004C800EB180CF1FF3004D2984502D9ACF10200C8
:1004D8002B44A3EB0803A4B2B3FBFEFC0EFB1C33B6
:1004E8000CFB07F744EA0344A74216D92C190CF170
:1004F800FF3304D2A74202D9ACF102032C44E41B17
:1005080043EA00400F46114678E71F2188E7604616
:10051800ABE76246BFE76046DBE76346EFE7734554
:1005280006D916B9002108466DE7C6E9000EF9E7B5
:10053800B3FA83F787B9734501D3824207D8841A7F
:100548006EEB030301209C461EB900215BE7384689
:10055800FAE7C6E9004CF8E7C7F1200CBB4000FAFF
:1005680007F422FA0CF520FA0CF1BA401D432EFAD2
:100578000CF30EFA07FE4FEA154941EA0E011FFA7D
:1005880085FEB3FBF9F809FB18300B0C08FB0EFAD3
:1005980043EA00439A4540D9EB1808F1FF3004D2EA
:1005A8009A4502D9A8F102002B44A3EB0A0389B2A9
:1005B800B3FBF9F809FB183308FB0EFE41EA0341C7
:1005C8008E452CD9691808F1FF3304D28E4502D91B
:1005D800A8F10203294443EA0040A1EB0E01A0FB65
:1005E80002984145CE46434602D306D14C4504D233
:1005F8000138B9EB020E68EB0503002EA5D0B4EB69
:100608000E0261EB030101FA0CFC22FA07F3F94030
:100618004CEA0303C6E9003197E74046C5E743467D
:10062800D9E70000704700BF844641EA000313F091
:10063800030349D1403A23D30B6803604B684360F6
:100648008B688360CB68C3600B6903614B69436146
:100658008B698361CB69C3610B6A03624B6A43622E
:100668008B6A8362CB6AC3620B6B03634B6B436316
:100678008B6B8363CB6BC36340304031403ADBD232
:1006880030320BD30B6803604B6843608B68836020
:10069800CB68C36010301031103AF3D20C3205D356
:1006A80051F8043B40F8043B043AF9D2043208D02C
:1006B800D2071CBF11F8013B00F8013B01D30B889E
:1006C80003806046704700BF082A13D38B07B1D058
:1006D80010F00303AED0C3F10403D21ADB071CBF2A
:1006E80011F8013B00F8013BA4D331F8023B20F894
:1006F800023B9FE7043AD9D3013A11F8013B00F8CD
:10070800013BF9D20B7803704B7843708B78837078
:100718006046704770B4840746D0541E002A41D002
:10072800CDB2034602E0621EE4B3144603F8015B4F
:100738009A07F8D1032C2ED9CDB245EA05250F2CFE
:1007480045EA054519D9264603F11002103E0F2E39
:1007580042F8105C42F80C5C42F8085C42F8045C11
:1007680002F11002F2D8A4F1100222F00F0204F0F4
:100778000F041032032C13440DD91E462246043AA6
:10078800032A46F8045BFAD8221F22F00302043237
:10079800134404F003042CB1C9B21C4403F8011B30
:1007A800A342FBD170BC704714460346C2E7000061
:1007B800064A80B5034610600020054A1860136891
:1007C80000AF43F48003136080BD00BF60000020C9
:1007D800EC040020084A80B5034610600020074A50
:1007E800C3E90000C3E902001861136800AF43F0D1
:1007F8000803136080BD00BF64000020EC040020E3
:10080800054B80B51A6800AF52F820300B4442F807
:100818002030002080BD00BF6400002080B5012189
:1008280000AFFFF7EDFF002080BD0000054B80B54D
:100838001B6800AF53F820208A42B8BF43F8201045
:10084800002080BD6400002098B5184B00AF1B68DD
:100858001B0728D5164C23685A68002A05DD08208E
:1008680000F084F9002223685A601A681C2A05DD02
:10087800092000F07BF9002223681A609A68002A90
:1008880005DD0A2000F072F9002223689A60DB680F
:10089800002B01DC002098BD0E2000F067F9002233
:1008A8002368DA60F6E70120F5E700BFEC040020D2
:1008B80064000020054B80B51860002300AFC354C6
:1008C8000133382BFBD18363002080BD68000020F2
:1008D8000E4B80B5382218601C23C0E9002303237F
:1008E8008360002300AF00F5286280F82030C0E95B
:1008F8000333C0E9053330309042F6D1044A002072
:10090800136843F01003136080BD00BF6C00002023
:10091800EC040020B0B5184B05461B6800AFDB0699
:100928000CD5EFF31084012080F31088134B1A685C
:10093800936B2BB9FFF772FF84F310880120B0BDC9
:10094800013B9363D05C11781070FF20D0543022A3
:10095800002051430A4B01F10C021B681A440B4456
:10096800C3E90400C3E90600DA6083F820002A60BE
:1009780084F31088E3E700BFEC040020680000203F
:100988006C00002030210E4B90B51B6802460C33DA
:10099800C31AB3FBF1F300AFDBB2EFF3108401200D
:1009A80080F31088116811B984F3108890BD002075
:1009B8001060044A11688A6B8B5401328A63F3E72A
:1009C8006C000020680000200B4BF0B51A68302539
:1009D800002300AF02F10C0C05FB03F45CF8046083
:1009E800864204D100200C3422440A60F0BD013351
:1009F800382BF1D10120F9E76C000020F8B5064644
:100A080014460D4600AF09B90C46084D2146002092
:100A1800FFF70CFF1B2C28BF1B242946621C06F17C
:100A28001400FFF701FE0020F8BD00BF85D50008BF
:100A380080B500AF0E2825D8DFE800F02622181A66
:100A48001C1E2012080C0E10121416000F4B00204A
:100A58000B6080BD0E4BFAE70E4BF8E70E4BF6E73E
:100A68000E4BF4E70E4BF2E70E4BF0E70E4BEEE7BA
:100A78000E4BECE70E4BEAE70E4BE8E70E4BE6E7CA
:100A88000E4BE4E70E4BE2E70120E2E790D10008C5
:100A9800ADD10008D6D10008EAD1000813D2000869
:100AA8003DD2000856D2000875D2000888D2000846
:100AB8009DD20008AFD20008C8D20008E0D20008D2
:100AC800F0D20008B0B582B01A4D1B4B296800AFB0
:100AD8001B687B604FF000038B680446CBB1394636
:100AE8002046FFF7A5FF012C09D10120124B1A68F7
:100AF8007B685A404FF0000318D002F09BFAA31EFF
:100B08000C2B2B680CD83968986801F083F9002001
:100B1800ECE70A48083101F041FB0128DFD1E4E79E
:100B280022460749986801F0BFF9DEE70837BD4655
:100B3800B0BD00BF70000020300000200BD30008BB
:100B4800F0D20008074A80B5034610600020064A24
:100B5800C3E900009860136800AF43F020031360F6
:100B680080BD00BF70000020EC04002098B50C4A3E
:100B780000AF1268910611D50A4A431E11680C6825
:100B880024FA03F2D20701D5002098BD012202FA07
:100B980003F323430B60FFF795FFF5E70120F4E724
:100BA800EC04002070000020B0B5114B00AF1B68AA
:100BB8009B0612D50F4D2B68596809B10020B0BDAE
:100BC8000124411E8C4019682143C3E90010FFF736
:100BD80079FF012803D101F0A9FA0120EFE72B687A
:100BE8000549986801F016F901F0A0FAE6E700BF98
:100BF800EC0400207000002010D30008064A80B5DD
:100C0800034610600020054A1860136800AF43F0DF
:100C18004003136080BD00BF74000020EC04002076
:100C28002DE9F04784B0314B00AF1B68FB604FF0F3
:100C380000030023C7E901332D4B04461B680D460A
:100C4800DB071CD52B4B1B685B68C3B1EFF3108621
:100C5800012383F31088DFF8A4A0DFF8A480DAF872
:100C680000200C21136801331360D8F800303A1DB6
:100C7800186800F09FFD01280BD186F31088012029
:100C88001A4B1A68FB685A404FF0000329D002F04B
:100C9800D1F9DAF80030D7F804901B6844F480548E
:100CA800A9F80230A9F8004004F030FD124B796829
:100CB8001B68C9F804005A694868904238BFDA6866
:100CC8005861D8F800003CBF0132DA6000680C2295
:100CD8008D6007F1080300F0DBFD86F31088002023
:100CE800CEE71037BD46BDE8F08700BF30000020D2
:100CF800EC040020F0040020A43B00207400002035
:100D0800A83B00202DE9F04F85B0324B00AF1B689F
:100D1800FB604FF000030023C7E901332E4B044664
:100D28001B680E46DB0715461CD52C4B1B685B68F9
:100D3800C3B1EFF31088012383F31088DFF8A4B060
:100D4800DFF8A490DBF8002010211368013313604A
:100D5800D9F800303A1D186800F02CFD01280BD195
:100D680088F3108801201B4B1A68FB685A404FF023
:100D780000032AD002F05EF9DBF80030D7F804A0AF
:100D88001B6844F40054AAF80230AAF8004004F0A2
:100D9800BDFC134B79681B68CAF804005A69486897
:100DA800904238BFDA685861D9F800003CBF013278
:100DB800DA6000681022C1E9026507F1080300F053
:100DC80067FD88F310880020CDE71437BD46BDE8DD
:100DD800F08F00BF30000020EC040020F004002059
:100DE800A43B002074000020A83B00202DE9F04F10
:100DF80087B01D46324B00AF1B687B614FF0000384
:100E08000023C7E903332F4B04461B688846DB07DA
:100E180016461DD52C4B1B685B68CBB1EFF31089C8
:100E2800012383F31088DFF8A8B0DFF8A8A0DBF867
:100E380000201421136801331360DAF8003007F139
:100E48000C02186800F0B6FC01280BD189F3108851
:100E580001201B4B1A687B695A404FF000032AD0C7
:100E680002F0E8F8DBF80020FB68126844F440540C
:100E78001C805A807B6004F049FC7B68F9685860E4
:100E8800124B4A681868436942619A4238BFC3687E
:100E98004FF014023CBF0133C360DAF80000C1E927
:100EA80002860D6107F11003006800F0F1FC89F378
:100EB80010880020CDE71C37BD46BDE8F08F00BF85
:100EC80030000020EC040020F0040020A43B0020A7
:100ED80074000020A83B00202DE9F04F87B01D4684
:100EE800334B00AF1B687B614FF000030023C7E959
:100EF8000333304B04461B688846DB0716461DD56E
:100F08002D4B1B685B68CBB1EFF31089012383F38A
:100F18001088DFF8ACB0DFF8ACA0DBF800201821AF
:100F2800136801331360DAF8003007F10C0218680F
:100F380000F040FC01280BD189F3108801201C4BDC
:100F48001A687B695A404FF000032CD002F072F8FF
:100F5800DBF80020FB68126844F480441C805A8047
:100F68007B6004F0D3FB7B68F9685860134B4A68D0
:100F78001868436942619A4238BFC3684FF0180243
:100F88003CBF0133C3603B6CDAF800004B61C1E938
:100F980002860D6107F11003006800F079FC89F3FF
:100FA80010880020CBE71C37BD46BDE8F08F00BF96
:100FB80030000020EC040020F0040020A43B0020B6
:100FC80074000020A83B00202DE9F04F87B0334B78
:100FD80000AF1B687B614FF000030023D41C24F092
:100FE800030404F10806402E0546884684BF4026BF
:100FF8003824C7E90333EFF31089012383F31088FA
:10100800DFF8A0B0DFF8A0A0DBF8002031461368B5
:1010180001331360DAF8003007F10C02186800F0A9
:10102800C9FB01280AD189F310881C4B1A687B690F
:101038005A404FF000032CD001F0FCFFDBF80020F1
:10104800FB68126845EA84251D805A807B6004F09D
:101058005DFB7B685860124BF8681B6841685A69E9
:101068000830914238BFDA6859613CBF0132DA6012
:1010780041462246FFF7D8FADAF800003246F96806
:1010880007F11003006800F003FC89F310880020C2
:10109800CBE71C37BD46BDE8F08F00BF300000200D
:1010A800A43B002074000020A83B00202DE9F04F4D
:1010B80087B000AF7A60374ADC1C12687A614FF05B
:1010C8000002002224F0030404F10C03412B324BEC
:1010D80028BF34241B680546DB078846C7E9032276
:1010E8001ED52E4B1B685B68D3B1EFF31089012323
:1010F80083F310882A4BDFF8B0B01968DBF80000DA
:101108000A6804F10C0A01320A600068514607F1C6
:101118000C0200F04FFB0128214B0BD189F31088FA
:1011280001201C4B1A687B695A404FF000032DD0F0
:1011380001F080FF1B68211DFE681B68890845EACD
:1011480001357380358004F0E1FA164B70601B6836
:10115800F8685A6941680C30914238BFDA685961B9
:101168003CBF0132DA607968224640F8048CFFF708
:101178005BFADBF800005246F96807F110030068D3
:1011880000F086FB89F310880020CAE71C37BD46AB
:10119800BDE8F08F30000020EC040020F0040020AF
:1011A80074000020A43B0020A83B00202DE9F04F4C
:1011B80087B000AF7B603A4B3C6C1B687B614FF09B
:1011C80000030023033424F00304C7E9033304F1C4
:1011D8001003412B334B28BF30241B680546DB071F
:1011E800884616461ED5304B1B685B68D3B1EFF3B3
:1011F8001089012383F310882C4BDFF8B8B01968E5
:10120800DBF800000A6804F1100A01320A6000687D
:10121800514607F10C0200F0CDFA0128234B0BD1FF
:1012280089F3108801201E4B1A687B695A404FF0D9
:10123800000330D001F0FEFE1B6804F10801FA68D3
:101248001B68890845EA0135158053803A6004F027
:101258005DFA3A68164B50601B68F8685A6941682D
:10126800914238BFDA6859613CBF0132DA60796867
:101278002246C0E902861030FFF7D6F9DBF80000F5
:101288005246F96807F11003006800F001FB89F382
:1012980010880020C7E71C37BD46BDE8F08F00BFA7
:1012A80030000020EC040020F0040020740000202E
:1012B800A43B0020A83B00202DE9F04F89B000AFE7
:1012C8009B46BB6CFA60BB603A4BFC6C1B68FB61CD
:1012D8004FF000030023033424F00304C7E9053367
:1012E80004F11403412B344B28BF2C241B680546FA
:1012F800DB070E461ED5314B1B685B68D3B1EFF395
:101308001088012383F310882D4BDFF8BCA01968DF
:10131800DAF800000A6804F1140901320A6000686A
:10132800494607F1140200F045FA0128244B0BD175
:1013380088F3108801201F4B1A68FB695A404FF048
:10134800000332D001F076FE1B6804F10C017A69C3
:101358001B68890845EA0135158053807A6004F0D6
:10136800D5F97A68174B50601B6878695A694168E3
:10137800914238BFDA6859613CBF0132DA60FB68D4
:101388002246C0E9033BB96886601430FFF74CF980
:10139800DAF800004A46796907F11803006800F096
:1013A80077FA88F310880020C5E72437BD46BDE8E2
:1013B800F08F00BF30000020EC040020F004002073
:1013C80074000020A43B0020A83B00202DE9F04F2A
:1013D80089B000AF9B46FB6CFA60BB603B4B3C6D31
:1013E8001B68FB614FF000030023033424F003045F
:1013F800C7E9053304F11803412B354B28BF2824CE
:101408001B680546DB070E461ED5324B1B685B681A
:10141800D3B1EFF31088012383F310882E4BDFF844
:10142800C0A01968DAF800000A6804F11809013246
:101438000A600068494607F1140200F0BBF9012868
:10144800254B0BD188F310880120204B1A68FB69C3
:101458005A404FF0000334D001F0ECFD1B6804F152
:1014680010017A691B68890845EA0135158053809F
:101478007A6004F04BF97A68184B50601B687869F9
:101488005A694168914238BFDA6859613CBF0132F4
:10149800DA60FB682246C0E9033BBB6CB96886602A
:1014A80043611830FFF7C0F8DAF800004A46796956
:1014B80007F11803006800F0EBF988F310880020A2
:1014C800C3E72437BD46BDE8F08F00BF30000020D9
:1014D800EC040020F004002074000020A43B00204D
:1014E800A83B00202DE9F04F87B000AF9B46BB6CAE
:1014F800FC6C7B603B4B03341B687B614FF0000343
:10150800002324F00304C7E9033304F11C03412B2F
:10151800354B28BF24241B680546DB07884616463A
:101528001CD5324B1B685B68C3B1EFF310890123EC
:1015380083F310882E4B04F11C0A19680A680132DB
:101548000A602C4A5146106807F10C02006800F046
:1015580031F90128264B0BD189F310880120214B42
:101568001A687B695A404FF0000336D001F062FDDB
:101578001B6804F11401FA681B68890845EA0135FB
:10158800158053803A6004F0C1F83A681A4B5060ED
:101598001B68F8685A694168914238BFDA6859612E
:1015A8003CBF0132DA603B6C224643617B6CC0E988
:1015B80002867968C0F810B083611C30FFF734F8F0
:1015C8000C4B52461868F96807F11003006800F0E0
:1015D8005FF989F310880020C1E71C37BD46BDE8D4
:1015E800F08F00BF30000020EC040020F004002041
:1015F80074000020A83B0020A43B00202DE9F04FF8
:1016080087B000AF9B46FB6C3C6D7B603C4B033462
:101618001B687B614FF00003002324F00304C7E933
:10162800033304F12003412B364B28BF20241B68C9
:101638000546DB07884616461CD5334B1B685B6896
:10164800C3B1EFF31089012383F310882F4B04F102
:10165800200A19680A6801320A602D4A5146106842
:1016680007F10C02006800F0A5F80128274B0BD100
:1016780089F310880120224B1A687B695A404FF081
:10168800000338D001F0D6FC1B6804F11801FA6891
:101698001B68890845EA0135158053803A6004F0D3
:1016A80035F83A681B4B50601B68F8685A694168FE
:1016B800914238BFDA6859613CBF0132DA603B6C4D
:1016C800224643617B6CC0E902868361BB6C796802
:1016D800C0F810B0C3612030FEF7A6FF0C4B52468D
:1016E8001868F96807F11003006800F0D1F889F369
:1016F80010880020BFE71C37BD46BDE8F08F00BF4B
:1017080030000020EC040020F004002074000020C9
:10171800A83B0020A43B0020038880B51B0B0233A4
:101728009B00002000AF0B6080BD000090B583B027
:101738000446D0E90102134B00AF1B687B604FF0F1
:1017480000030023A1693B60521A90420CD2A36A9D
:1017580039461844FFF7E0FF3A6863681344A26803
:10176800B3FBF2F102FB11336360064B1A687B6826
:101778005A404FF0000301D001F05CFC0C37BD4625
:1017880090BD00BF3000002090B50446C160002025
:10179800A262074AA36063611368C4E9000043F0CA
:1017A8008003C4E9060000AF2062136090BD00BF4B
:1017B800EC0400202DE9F0410D46C1689046D0E9BF
:1017C800003201290446866800AF47D1934220D3EE
:1017D800F21AAA420BD9A16A19442B44B3FBF6F2B8
:1017E80006FB1233C8F800100020E36142E02046EF
:1017F800FFF79CFF6368043B9D42F8D82368A16A01
:10180800F31AA36100232360B5FBF6F306FB135319
:10181800E8E7043AD21A95421CD9F31AAB420BD224
:101828002046FFF783FF6368002BF9D02268A3687E
:101838009B1AA361002323602046FFF777FFD4E9B2
:1018480000310A1FD21A9542F6D819B9A26A1A4469
:10185800C8F80020A16A19442B44C3E79342A2F1B7
:10186800040111D3F01A01448D4205D90023012047
:10187800C8F80030BDE8F081A842ACD89542F5D848
:10188800A16AA0613544BFE7C91AA942E2D2EDE7CF
:10189800054980B5096800AFC9680162C16901607E
:1018A80000201A6080BD00BFA43B00200346002032
:1018B80080B59A68C3E90000C3E9052000AFD86184
:1018C80080BD0000064B80B51860FD23054A036003
:1018D8001368002043F4807300AF136080BD00BF1D
:1018E80078000020EC040020B0B588B0104C04AF9C
:1018F8002468FC604FF00004BB603B6AC7E9001233
:1019080002934FF000430246019300210323F22083
:10191800009700F0F3F8064B1A68FB685A404FF03E
:10192800000301D001F086FB1037BD46B0BD00BFF3
:101938003000002080B500AF50B139B143689B1A20
:1019480043603920FFF7DEF9002080BDEA20F9E77F
:101958000120FAE70B4A80B50346106000204FF0DB
:10196800FF32C3E90820084AC3E90000C3E90200BE
:10197800C3E90400C3E90600136800AF43F48053C9
:10198800136080BD7C000020EC04002080B500AF0F
:1019980000F0F2FB4FF4FA7008F072F9F8E7000073
:1019A80080B500AF30B1044B18600023C0E90033A4
:1019B800184680BD0120FCE780000020B0B584B047
:1019C800134C04AF23681A6832B9009311464FF4D8
:1019D80000331048FFF788FF25686B6813B10020B3
:1019E800BD46B0BD0C4A0D4902920D4A0D48CDE9DD
:1019F80000324FF4807207F0C3FD236868605B68AB
:101A0800002BECD10620FFF7CFF80120E8E700BF54
:101A18008000002036D3000884000020D9D20008B6
:101A2800E40000209519000898B50C4600AF48B1AD
:101A380041B10021216008F0B5FA2060B0FA80F0C9
:101A4800400998BD0120FCE780B5024B00AF1B6838
:101A5800186880BD8000002098B5044623F0030371
:101A68002260104600AF2C3B2C32FFF78DFE431E40
:101A78005842584198BD80B5006800AFFFF716FF7F
:101A8800002080BD2DE9F0411646024604460D4669
:101A980000F11301002052F8148B00AF11F801CFA8
:101AA800431CBCF1000F01D080280ED14146032011
:101AB800FFF7FCFA324641462846FFF723F920464D
:101AC800BD46BDE8F041FEF75DBF1846E6E70000F9
:101AD800094B0022002918BF0B4680B400AF995C5F
:101AE80009B1802A05D11946BD465DF8047BFEF789
:101AF80085BF0132F3E700BF85D500082DE9F04F17
:101B080085B09846384B02AF06460C4691461B688E
:101B18007B604FF000033D6BD7F838A0EFF3108BD4
:101B2800012383F31088384661B3FEF7F3FE68BBE0
:101B38003B681C6039682A1F0B4601EB880083420A
:101B480033D10B697A6B13430B61CAF800108BF31E
:101B58001088B9F1000F06D099F800301BB149463A
:101B68003868FFF7B5FFB8F1020F29D0B8F1030FB5
:101B78002DD0B8F1010F1DD021463046FFF750F89F
:101B8800002006E0FEF7C6FE01280BD18BF3108873
:101B98000120154B1A687B685A404FF000031FD08C
:101BA80001F048FA3B681C68C4E752F804CF43F8D0
:101BB80004CFC4E7214630462A68FFF7A3F8DFE7D9
:101BC8002146D5E900233046FFF710F9D8E7AB687E
:101BD800214600933046D5E90023FFF77DF9CFE78A
:101BE8000C37BD46BDE8F08F3000002090B589B0B5
:101BF80004AF7B600D4B1B68FB604FF0000307F1DF
:101C080008030293002301933B1D00930123FFF770
:101C180075FF064B1A68FB685A404FF0000301D065
:101C280001F008FA1437BD4690BD00BF300000200F
:101C3800F0B583B0134B00AF0446154608461B6841
:101C48007B604FF00003EFF31086012383F31088C5
:101C58003946FEF7B9FE01280AD186F31088094BE8
:101C68001A687B685A404FF0000307D001F0E2F988
:101C78002A4621463868FFF705FFEEE70C37BD46D0
:101C8800F0BD00BF300000202DE9F04182B0174BB5
:101C980000AF06460D461B687B604FF00003EFF36C
:101CA8001088012383F310883946FEF78DFE01283A
:101CB800044605D13846FEF72DFE30B93B681E6054
:101CC80029463868FFF704FF044688F31088074B55
:101CD8001A687B685A404FF0000301D001F0AAF956
:101CE80020460837BD46BDE8F08100BF300000201F
:101CF8002DE9F04387B006AF0D46164698460146D3
:101D08003C6A40B9DFF8E490D9F800100B6853B189
:101D1800D9F800301968B8F1050F09D8DFE808F0DC
:101D28000D16232F3E50304800F038FA0128EFD125
:101D380001200437BD46BDE8F08333462A4691208A
:101D48000437BD46BDE8F043FFF7B0B922689220DA
:101D5800131D23602B463E6212680437BD46BDE85A
:101D6800F043FFF723BA2068034653F8082B236093
:101D7800CDE9005643689320FFF79EFAD9E720681B
:101D880000F10C0CD0E90023C4F800C0CDE90156DD
:101D9800806800909420FFF719FBCAE7206800F1DB
:101DA800100ED0F808C0D0E90023C4F800E0CDE94F
:101DB8000256C068CDE900C09520FFF793FBB8E74D
:101DC800206800F11408D0E90023D0E902CEC4F855
:101DD8000080CDE903560069CDF800C0CDE901E0E7
:101DE8009620FFF70BFCA4E742D30008E404002088
:101DF800064A80B5034610600020054AC3E9000082
:101E0800136800AF43F40043136080BDE40400206E
:101E1800EC04002090B583B00C4B02AF1B681B0488
:101E280012D50B4B002908BF19460023CC5C5A1C5D
:101E38000CB1802B06D100230093FFF759FF04371C
:101E4800BD4690BD1346F1E70120F8E7EC040020F9
:101E580085D50008F0B583B0114B15461B6802AF55
:101E68001B041AD50F4B002908BF194600231C462E
:101E78000E5D621C0EB17F2C05D90095FFF738FF67
:101E88000437BD46F0BD252E05D18E5C1EB1144623
:101E9800252E18BF01330134EAE70120F0E700BF1F
:101EA800EC04002085D500080EB480B583B0114B32
:101EB80000AF1B687B604FF000030F4B79691B680C
:101EC8001B040ED507F118033A463B60FFF7C2FF23
:101ED800084B1A687B685A404FF0000303D001F0A2
:101EE800A9F80120F4E70C37BD46BDE8804003B0EF
:101EF800704700BF30000020EC04002080B5054A80
:101F0800054B00AF18601368002043F4802313606A
:101F180080BD00BFEC040020E8040020F8B53E4E68
:101F280000AF3568002D74D103F0D6FB3B4C3C481C
:101F3800C0E90055206085601430FEF7BBFC01281D
:101F480001D10120F8BD206800F557503030FEF768
:101F58002FFC0128F5D0206800F55750343000F0E8
:101F6800ADF90128EDD02068543000F035FA012889
:101F7800E7D0206800F557501830FEF72BFC0128F1
:101F8800DFD0206800F557502C30FFF79BFC012864
:101F9800D7D0206800F54D500430FFF7AFFF012877
:101FA800CFD0206800F556500430FEF727FE0128F0
:101FB800C7D0206800F556500C30FFF719FF0128EC
:101FC800BFD0206800F556501430FEF7BBFD01283D
:101FD800B7D0206800F556502030FFF7BBFC012829
:101FE800AFD0206800F55750103000F007F90128ED
:101FF800A7D0206800F557500830FFF7D1FC01281A
:102008009FD04FF0FF322368DA60336843F0010352
:102018003360002096E700BFEC040020F0040020A5
:10202800F404002090B500AFD0B10E4A0E4B00F179
:102038001F04C0E900230D4A00F1170312F8011B21
:1020480003F8011F09B1A342F8D1002340F201327D
:10205800C0E902324FF0817203614261184690BDB7
:102068000120FCE7004653500E00A11A4AD300088D
:102078002DE9F04182B0284B00AF05461B687B6014
:102088004FF00003FFF74AFF0128044609D1012455
:10209800214B1A687B685A404FF0000336D000F095
:1020A800C9FFFFF78BFC0128F1D0022D05D11B4B8E
:1020B8001B685B68002BEBD1FEE7012D22D1174E80
:1020C80033685B68012BE3D0154B1B689A680AB923
:1020D800144A9A60EFF31088012585F3108800F000
:1020E800E7F9114B04221B6839461B6828463B60F8
:1020F800FEF76AFF33681A682A44C3E9002588F3A3
:102108001088C5E72C1E18BF0124C1E720460837F0
:10211800BD46BDE8F08100BF30000020F00400207B
:10212800A43B0020000E27079C3B0020084B80B5ED
:102138001A6800AF52684AB1EFF31082012181F3A7
:10214800108800211B68596082F31088002080BD28
:10215800F004002080B5074B00AF1B6843B138B1CD
:1021680031B15433036043F2F02300200B6080BD8B
:102178000120FCE7F004002080B5064B00AF1B6887
:10218800DB0705D5044B1B685B680BB1FEF75CFBEE
:10219800002080BDEC040020F0040020F0B583B0DE
:1021A800154B00AF044638460D461B687B604FF060
:1021B8000003FEF7AFFB012810D00022A35C561CD9
:1021C8000BB11C2A13D121463868FEF717FC396871
:1021D8003346224603202960FEF768FF064B1A683B
:1021E8007B685A404FF0000303D000F023FF3246CB
:1021F800E4E70C37BD46F0BD30000020064B80B543
:1022080018600223054A03601368002043F4801312
:1022180000AF136080BD00BF9C3B0020EC04002091
:10222800B0B582B0104B00AF0C46394605461B6866
:102238007B604FF00003FEF7C7FB012807D03B681F
:102248002246294604205C60FEF75CFD0020064B10
:102258001A687B685A404FF0000301D000F0EAFE8C
:102268000837BD46B0BD00BF30000020B0B5104BE8
:102278000A461B6800AFDB0706D50E4C0E4B2568D7
:10228800696819B91B6818600120B0BD0121A960EF
:10229800EFF3108581F310881B680146186037201A
:1022A800FEF730FD022223689A6085F31088ECE778
:1022B800EC040020F00400209C3B0020114B90B55A
:1022C8001860002302466424C0E9003300AF83602D
:1022D80000F17801C2E90333C2E90533C2E90743D3
:1022E80018328A42F6D1084AC0E92933C0E92B33AB
:1022F800C0F8843080F888301368002043F4000365
:10230800136090BDA03B0020EC04002080B500AF16
:1023180020B1034B1B689860002080BD0120FCE7BA
:10232800A03B0020F0B583B01B4B00AF1B687B605F
:102338004FF00003002305463B6003F0E7F9174B15
:1023480004461B685A69586190423EBFDA680132F8
:10235800DA60134B1B685E6858604DB901200E4B5C
:102368001A687B685A404FF0000311D000F062FEF3
:1023780039462846FFF758FB0128EFD03A6813681A
:10238800002BEBD0536800209B1B23445360E6E7E7
:102398000C37BD46F0BD00BF30000020A43B002034
:1023A800A03B00200A4A80B5034610604FF47A72B9
:1023B8001A61012200201A60064AC3E901009861E7
:1023C800D8605861136800AF43F40013136080BDF0
:1023D800A43B0020EC04002098B5044600AF08B9DF
:1023E800012098BD304B314A1860031D13604FF42B
:1023F80020530121C0F8DC3A00F52E62FFF72CFBD0
:102408000128EDD004F11400FFF70CFE0128E7D0F5
:1024180004F15000FEF75CFA0128E1D004F1340021
:10242800FFF7C0FF0128DBD00A2204F5405383F8E8
:10243800E0220B2283F8E1220C2283F8E2220D220B
:1024480083F8E322712283F8E422722283F8E522DA
:10245800732283F8E622742283F8E722F12283F8B4
:10246800E822F22283F8E922F32283F8EA22F4220E
:1024780083F8EB2205232372062363720723A372D2
:102488000823E37275232373762363737723A37377
:102498007823E373F5232374F6236374F723A37473
:1024A800F8230020E3749CE7A83B0020AC3B002005
:1024B80080B4044B00AF1868BD465DF8047BFFF795
:1024C800DABA00BFA83B002098B5144600AF044A0A
:1024D80008F0FEFB10B12060002098BD0120FCE749
:1024E80053D3000898B5144600AF044A08F0F0FB2F
:1024F80010B12060002098BD0120FCE764D30008DB
:10250800B0B50C46054600AF28B92949294808F056
:10251800CDFB0120B0BD09B92749F7E740F63442A1
:1025280000212648FEF7F6F8254B1D60254B1C6058
:10253800224B181D00F022FF012801D12249E5E7AE
:102548001E4B03F1A40001F0F6F9012801D11F493F
:10255800DCE71A4B03F5037000F028F9012801D1D4
:102568001B49D3E7154B03F5787000F027FE0128C7
:1025780001D11849CAE7114B03F1B00000F038FA4D
:10258800012801D11449C1E70C4B03F1A80001F05F
:1025980077F8012801D11149B8E701F0A3F901231F
:1025A800064A0020136000F013FF0020B2E700BFC6
:1025B80076D30008A7D30008AAD30008383C002027
:1025C800343C0020303C0020D6D300080CD400084E
:1025D80045D4000879D40008ADD40008E1D4000837
:1025E80080B40449044800AFBD465DF8047BFFF79A
:1025F80087BF00BFD1240008ED24000880B5024B36
:1026080000AF186880BD00BF383C00200023024698
:1026180090B500F1400100AF83710361C2E9053351
:1026280008328A42FAD1437280F89C30084B002263
:1026380019680B4601F1C00483F81821C3E9442244
:102648001833A342F8D1C1F8D021C0F8082190BDB1
:102658006C48002080B500AF01F094F8002080BDE0
:1026680080B400AFBD465DF8047B01F051B880B579
:1026780000AF00F005FA002080BD80B400AFBD4671
:102688005DF8047B00F0C8B92DE9F04F8BB0002449
:10269800DFF8149104AFD9F80060424B0436796032
:1026A800054607F1100130461B687B614FF00003B7
:1026B8003C6100F08FFD012809D10120394B1A68CF
:1026C8007B695A404FF0000367D000F0B3FC3869CB
:1026D800A8470128F1D0D9F80030D3F8D021A24278
:1026E80001D80020EAE7182202FB04FA03EB0A02E9
:1026F800D2F81451621C92B2FA600AF58C723A60F0
:1027080007F1100200920AF58C72134430462A46EB
:10271800F96800F09BFD012801D10134DBE7386935
:102728007B6898470128C8D04FF4FA634FF0000837
:10273800013DB5FBF3F5C3460135ABB2BB60BA68E2
:10274800D9F800309345E8D203EB0A01D1F81451C7
:1027580007F11000A5EB0805B5F5FA6F28BF4FF48F
:10276800FA6503900BF101021FFA82FB3A683046C2
:102778001344CDE90153D1F810315A46434400932C
:10278800BB68F96800F0C4FD0128D8D038697B68B7
:102798009847012891D0A844D1E71C37BD46BDE829
:1027A800F08F00BF300000206C480020B0B582B028
:1027B800044600AF38B91949194808F077FA0120DA
:1027C8000837BD46B0BD174B482218600023C0F833
:1027D800D03101237A60144A40F8043B62604FF418
:1027E8007F6222810322A272082222737A682361FF
:1027F800E2726822A2730D4A04F1570304F19F059F
:1028080012F8011B03F8011F09B1AB42F8D1FFF719
:10281800FDFE074B0020C4F80831D1E717D50008A2
:10282800A7D300086C4800205044666D45D50008C1
:102838006D6644502DE9F84300AF80460D461646B4
:1028480000F01CFE10B90120BDE8F883144B1C6889
:10285800002CF8D02368002BF5D0002EF3D0002DE3
:10286800F1D02B78002BEED004F104094846FFF78D
:10287800CDFE0323C4F81480A37200F0ABFE012838
:10288800E1D06B1E9F34673513F8012F04F8012F30
:102898000AB1AB42F8D10020C6F80090D4E700BFD7
:1028A8006C480020F8B500AF04460E46154600F007
:1028B800E5FD58B10C4B1B6843B11A6832B12CB115
:1028C800587B072804D9042000F0A8FE0120F8BD91
:1028D80004EBC00046615A7B002004EBC204A561EA
:1028E8005A7B01325A73F2E76C4800202DE9F04117
:1028F80000AF0546884616461C4600F0BFFD38B3B3
:10290800144B1B6823B31A6812B30DB3B8F1000F48
:102918001ED0EEB1E4B12278D2B1D3F8D051072D50
:1029280016D8182068431A18C2E9448600F217120C
:10293800611E1A440F3411F8010F02F8010F08B193
:10294800A142F8D100200135C3F8D051BDE8F0818B
:102958000120FBE76C480020B0B500AF04460D46E7
:1029680000F08CFD50B1064B1B683BB11B682BB1C6
:1029780024B11DB100209C342C60B0BD0120FCE7BF
:102988006C480020B0B500AF04460D4600F076FD57
:1029980010B1124B1B680BB90120B0BD1B68002B8E
:1029A800FAD0002CF8D00023EA05C4F8083109D57C
:1029B8000B490C48FFF768FE20B92046FFF726FEB2
:1029C8000020EAE7AB0505D507490848FFF75CFE94
:1029D8000028F2D02046FFF719FEDDE76C480020FA
:1029E80077260008832600085D2600086926000867
:1029F80098B5044600AF08B9012098BD043001F02D
:102A080045F80128F8D0034B00201C6001232360FF
:102A1800F3E700BF7048002090B583B0164B00AFB5
:102A28001B687B604FF000030023FB70134B0446C8
:102A38001B684BB90120104B1A687B685A404FF04D
:102A4800000316D000F0F6FA1B68002BF2D000F055
:102A580015FD0028EED0002CECD0F81C00F0F0FD9D
:102A68000128E7D0FB78002BE4D0204601F016F8C7
:102A7800E1E70C37BD4690BD3000002070480020CB
:102A880090B583B0164B00AF1B687B604FF0000316
:102A98000023FB70134B04461B684BB90120104BF5
:102AA8001A687B685A404FF0000316D000F0C2FA4B
:102AB8001B68002BF2D000F0E1FC0028EED0002CBF
:102AC800ECD0F81C00F0BCFD0128E7D0FB78002B07
:102AD800E4D0204600F0E9FFE1E70C37BD4690BDA1
:102AE800300000207048002080B500AFBFF34F8F42
:102AF8000549064BCA6802F4E0621343CB60BFF392
:102B08004F8F00BFFDE700BF00ED00E00400FA05AD
:102B18000FB40648009901600199416002998160EB
:102B28000399C160614601610FBC7047E44A002007
:102B380000224FF0FF3180B5034B00AFC3E900120C
:102B4800C3E902221A6180BD34000020144B2DE92C
:102B5800F0411B68134A144E1A44B2F5967F34BFED
:102B6800124A03F59672124800AFC6E9003208F01F
:102B780031F804463568D6F8048025F00305454544
:102B880008D2224628460A4908F062F828B90134D2
:102B98002C4474600448BDE8F0810435EFE700BFB9
:102BA8007C4800202C01F4DF00000020FCFF0B20F3
:102BB80086D500082DE9F04F87B000245C4B02AFA2
:102BC8001B68FB604FF0000302685A4B5A4D1A60AD
:102BD8005A4B5B4A5B4E1A605B4B80461C602B6805
:102BE8003C60A3423460C0F28980A86800F084FE8B
:102BF800EB680446CDE9000380216B68534A5448CA
:102C080008F066F8D5F800B00023DFF87091C9F82D
:102C18000030504B1B68DB0714D54F4B1B685B68B3
:102C280083B10123DFF858A1C9F80030DAF8003081
:102C38001BB951464948FFF7B1FA4549DAF800008F
:102C4800FFF7E8F84649474808F030F84049454852
:102C580008F02CF84449434808F028F85846394AFF
:102C68003B49FFF7E7FD00285BD1384600F06CFED2
:102C780020213868D6F800A000F04FFE0121024656
:102C88005046FFF70FFED8F8002007213068FFF7FD
:102C980009FE2B68D6F80080002B3BDB202120465C
:102CA80000F03BFE022102464046FFF7FBFD0421EF
:102CB800EA683068FFF7F6FDD9F800306BB10023F9
:102CC80007F10801381DC7E90133FFF743FAD7E9CF
:102CD8000112264B3068FFF709FE2549214807F005
:102CE800E5FF21491F4807F0E1FF114B1A68FB680F
:102CF8005A404FF0000316D000F09CF94FF0E02343
:102D08008021D3F8283D1B4A114807F0E1FF40F223
:102D1800014B79E74FF0E02306214046D3F8282DF0
:102D2800C8E71549DAE71437BD46BDE8F08F00BF9C
:102D3800300000207C48002034000020D84A0020C1
:102D480080480020004B0020FC4A002051D5000894
:102D5800B03B0020EC040020F00400206AD50008F5
:102D68005DD50008A7D3000884D50008B1D50008B0
:102D7800C0D5000893D50008DBD50008DC4A002040
:102D8800E04A00202DE9F04182B03E4B3E4D00AFB5
:102D980006461B687B604FF0000328683B4B1446CF
:102DA800C31A02FB0133B3F5167F13D30122384B44
:102DB8001A60344B1A687B685A404FF0000301D000
:102DC80000F038F9334934480837BD46BDE8F041CA
:102DD80007F06CBF314BD3F800C0314B9C4504D091
:102DE80030492D4807F062FFFEE742B9254B1A68C3
:102DF8007B685A404FF00003E2D12B49E3E70229F0
:102E080014D0042923D0012932D13146FDF70CFC16
:102E18002B6823442B601B4B1A687B685A404FF081
:102E28000003CDD10837BD46BDE8F0814FF000085A
:102E380036F81830022239463B80FDF7F5FB286842
:102E480008F10108023044452860F1D1E3E74FF06A
:102E5800000856F82830042239463B60FDF7E4FBA9
:102E6800286808F10108043044452860F1D1D2E708
:102E7800044B1A687B685A404FF00003A0D10B49F5
:102E8800A1E700BF30000020D84A00208048002079
:102E9800FC4A002007D60008A7D30008184B0020DA
:102EA800ED55CEAC35D6000884D60008B0D600085B
:102EB800F0B583B0344D354E286800AF002840D0B7
:102EC800334A3168334B13EA210338BF1346324A79
:102ED800126852B9314A32491268521AFFF706FD90
:102EE80018B13049304807F0E1FE304B1C6854B146
:102EF8002F4B1C6814F0010405D02E4B1A68536838
:102F0800EBB1002353604FF4E0612868FFF73AFD06
:102F180018B12949244807F0C9FE3368013325D080
:102F28003369012B13D125491F4807F0BFFE002341
:102F3800234A3B603B68934205DDFFF7D5FD1C46FD
:102F4800E1E70446E9E73B6801333B60F2E71CB17F
:102F58000122184B1B685A60FFF7EAFD0120002385
:102F6800124A0C372B601360BD46F0BD13490E485A
:102F780007F09CFE0023124A7B607B689342DCDCEE
:102F88007B6801337B60F8E7004B002034000020A9
:102F9800CFD60008D8D60008FC4A0020D84A00201E
:102FA80080480020E2D60008A7D30008DC4A0020A9
:102FB800EC040020F00400200BD7000870D50008AE
:102FC8003F420F0080B500AFEFF3058363B9EFF31D
:102FD8001482920708D5EFF30B81074A116083F337
:102FE8000B88BFF36F8F80BDEFF30A82034B1A6023
:102FF800002383F30A88F4E7784800207448002007
:1030080080B500AFEFF3058353B9EFF314839B0743
:1030180006D5064B1B6883F30B88BFF36F8F80BD03
:10302800034B1B6883F30A88F7E700BF7848002042
:103038007448002080B500AFFFF76AFD05220C4BED
:1030480040F2ED111A600B4A5A600B4A9A6001224D
:10305800C3E90312FFF7D2FA30B1FFF7B3FFFDF768
:10306800E7F8FFF7CDFFFEE7FFF762FDFBE700BFDC
:103078003400002026D7000837D700082DE9F04F84
:1030880089B01646002200AFC7E90110D7E9155AE2
:103098009846D7E91393454CFB60454BD4F800B0EC
:1030A8001B68FB614FF00003C7E90422BA61B9F15C
:1030B800000F09D101203E4B1A68FB695A404FF0B6
:1030C80000036ED0FFF7B6FF99F80020002AF1D070
:1030D800FB68002BEED0002DECD0BAF1000FE9D040
:1030E800002EE7D04645E5D807F1100000F0E0F9DA
:1030F8000128DFD007F1140000F07EFA0128D9D0AA
:1031080007F1180000F01EFA0128D3D0294B2A4AEB
:103118002068CBE901327A69BB68CBF814204FF0FC
:103128002012ABF80C307B683969ABF80E30BB6CF9
:10313800ABF81060ABF81C30CBF81820ABF8128055
:103148002022CBF820502430FDF76EFA2068202288
:10315800B9694430FDF768FA20684946BA6C6430AA
:10316800FDF762FABB6C206803F1600604302A465A
:10317800F9683044FDF758FA5B4622689BF8070067
:1031880004323244505551199BF8062000204A70E9
:103198009BF805208A7013F8042FCA70CAF800300B
:1031A80089E72437BD46BDE8F08F00BF044B0020F7
:1031B80030000020D1D2D3D4F00F0100034680B5EF
:1031C800012000AF1BB118600020014A136080BDC8
:1031D800044B0020F0B589B000261A4B06AF1B68D7
:1031E8007B604FF00003184B04461B680D463E6099
:1031F8004BB90120134B1A687B685A404FF0000303
:103208001CD0FFF717FF1B68002BF2D00028F0D066
:103218003946FFF7A1FB0128EBD04FF48673CDE9BF
:10322800024304953B6831460193682300930123C8
:1032380041F212501A46FFF721FFDBE70C37BD4673
:10324800F0BD00BF30000020044B00202DE9F047FE
:1032580090B01C4606AF294B80460E461546002105
:10326800242238461B687B624FF00003D7F848A039
:10327800FDF750FA224BB9461B68002B37D01B6864
:10328800002B34D0B8F1000F31D085B37CB323784C
:103298006BB3BAF1000F2AD01A4A1B4BBD60C7E9BD
:1032A800002304F10F00631E07F10B0213F8011F3E
:1032B80002F8011F09B18342F8D1144B3146FB6172
:1032C8002423CDE9029310230093012344F21860CC
:1032D8001A46CDF810A00194FFF7D0FE074B1A68E4
:1032E8007B6A5A404FF0000303D0FFF7A3FE01208A
:1032F800F4E72837BD46BDE8F08700BF300000205E
:10330800044B002050446150F00F031050614450AA
:1033180090B587B00C4C06AF24689CB124688CB17A
:1033280080B1F86904907869039038690290B869A7
:1033380001901020009048F27130FFF79FFE04378B
:10334800BD4690BD0120FAE7044B002080B50A4B2A
:1033580000AF1B6873B11B6863B158B151B1C36941
:10336800828A24331344C28A1344028B00201344F4
:103378000B6080BD0120FCE7044B002080B500AF46
:10338800F0B11049104B41604FF480710122186070
:10339800002301810D49C0E903228272C0F89C30E4
:1033A80080F87C3080F85C3000F1130211F8013BA2
:1033B80002F8013F002BF9D101220260184680BDB6
:1033C8000120FCE703922871084B002045D500082E
:1033D800F0B585B0254B00AF1B68FB604FF00003CC
:1033E8000023234DC7E901332B6806464BB901205A
:1033F8001E4B1A68FB685A404FF0000332D0FFF7A3
:1034080019FE1B68002BF2D0FFF7F8F80028EED061
:103418002B68184C5B68A34201D10020E8E708211B
:10342800381D00F05BF980B97B68012B0DD1BB68B2
:10343800114A934209D0A2F10752A2F51F12012E98
:10344800A2F16E020BD1934206D101230821381D47
:10345800C7E9013400F028F92B685C60DDE7934286
:10346800FAD1C4E71437BD46F0BD00BF30000020D4
:10347800084B0020252715157152109398B50A4C52
:1034880000AF23680BB9002098BD1B68002BFAD049
:10349800FFF7B4F80028F6D023685868034BC31A1E
:1034A80058425841F0E700BF084B00202527151562
:1034B8002DE9F04182B0204B00AF1B687B604FF0D4
:1034C800000300231D4E3B60336804464BB90120BE
:1034D800194B1A687B685A404FF0000328D0FFF751
:1034E800A9FD1A68002AF2D00028F0D093F87C5081
:1034F800D5B99A7A012AEAD1114AD2F80080B8F1EE
:10350800000FE4D03A461F2103F17C00C047012890
:10351800DDD0336893F87C20002AD8D03A681F2A77
:10352800D5D81A4482F87C507C3300202360CFE73A
:103538000837BD46BDE8F08130000020084B002068
:10354800343C00202DE9F04182B01F4B00AF1B68CE
:103558007B604FF0000300231C4E3B603368044639
:103568004BB90120184B1A687B685A404FF000038A
:1035780025D0FFF75FFD1A68002AF2D00028F0D0A6
:1035880093F85C50BDB9124AD2F80080B8F1000F28
:10359800E7D03A461F2103F15C00C0470128E0D07C
:1035A800336893F85C20002ADBD03A681F2AD8D801
:1035B8001A4482F85C505C3300202360D2E7083755
:1035C800BD46BDE8F08100BF30000020084B002058
:1035D800303C002080B5074B00AF1B6843B11A6828
:1035E80032B10020D3F89C200132C3F89C2080BD62
:1035F8000120FCE7084B002080B5074B00AF1B6893
:103608003BB11A682AB120B1D3F89C30036000207E
:1036180080BD0120FCE700BF084B002080B5074BA8
:1036280000AF1B683BB11A682AB11A69012A02D196
:103638001861002080BD0120FCE700BF084B002076
:1036480080B5064B00AF1B6833B11A6822B118B1B8
:103658005B7A0370002080BD0120FCE7084B002046
:1036680080B5064B00AF1B6833B11A6822B118B198
:103678001B7A0370002080BD0120FCE7084B002066
:1036880098B500AF08B9012098BD064C20600430F9
:1036980000F012FA0128F6D00122236800201A60EF
:1036A800F2E700BF0C4B0020B0B50B4B04461B687B
:1036B8000D4600AF6BB11B685BB1FFF7DFFE40B191
:1036C8003CB135B129462046BD46BDE8B04000F0C2
:1036D800F7B90120B0BD00BF0C4B0020B0B50B4BB3
:1036E80004461B680D4600AF6BB11B685BB1FFF762
:1036F800C5FE40B13CB135B129462046BD46BDE8BE
:10370800B04000F0E1B90120B0BD00BF0C4B002073
:1037180090B583B0194B00AF1B687B604FF0000376
:103728000223FB70164B04461B684BB90120134B50
:103738001A687B685A404FF000031CD0FFF77AFCE8
:103748001B68002BF2D0FFF799FE0028EED0002C62
:10375800ECD0F81CFFF784FF0128E7D0F97800299E
:10376800E4D04B1E59425941204600F0B1F9421E9F
:1037780050425041DBE70C37BD4690BD3000002079
:103788000C4B002090B583B0194B00AF1B687B60D1
:103798004FF000030223FB70164B04461B684BB91D
:1037A8000120134B1A687B685A404FF000031CD065
:1037B800FFF740FC1B68002BF2D0FFF75FFE0028E4
:1037C800EED0002CECD0F81CFFF74AFF0128E7D018
:1037D800F9780029E4D04B1E59425941204600F09F
:1037E8007BF9421E50425041DBE70C37BD4690BD85
:1037F800300000200C4B0020B0B586B02F4B02AF34
:103808001B68FB604FF000030023826AC7E901339D
:10381800036A041D934244D900932346284A802111
:10382800284807F055FA3A4606202649FFF702F8D5
:1038380070BB254D2B681BB929462448FEF7AEFC02
:1038480020492868FEF7E6FAFEF770FC07F1080140
:10385800381DFEF77FFCD7E901121D4B3868FFF7CA
:1038680045F81C2120463D6800F057F80121024622
:103878002846FFF717F84FF4E0613868FFF782F839
:1038880018B11449144807F011FA0120FEF7F0FBAB
:103898000A4B1A68FB685A404FF000030AD0FFF73A
:1038A800C9FB426A0093934238BF0C4A234628BF9B
:1038B8000B4AB4E71037BD46B0BD00BF300000204A
:1038C80090D70008B03B0020104B00206AD50008B4
:1038D800B1D500080BD70008A7D30008BED7000849
:1038E800ECD7000880B4034800AFBD465DF8047B00
:1038F800FEF70CBD0138000898B500AF044607F084
:1039080069F928B102460138235C2F2B02D11444EF
:10391800204698BD5C2BF4D1F9E780B500AF30B1F3
:103928000346014400201A780AB18B4200D180BDB9
:1039380010440133F7E780B5034600AF10B100200B
:10394800186080BD0120FCE798B5044600AF08B9AF
:10395800012098BD06F05AFB0028F9D006F008F8B7
:1039680020600020F5E700002DE9F04786B03D4BC8
:103978003D4E00AF1B687B614FF00003336804467F
:103988004BB90120374B1A687B695A404FF0000346
:1039980064D0FFF74FFB0028F3D0391DFFF7D6FCA2
:1039A8000128EED07B68B3F5803FEAD22F49304832
:1039B80007F07CF900252146D7F8048008EB0400BD
:1039C80081421BD14FF000091423B9FBF3FAC84513
:1039D80003FB1A9A20DCBAF1000F03D025492448CA
:1039E80007F064F92B465021234A306807F070F934
:1039F80031681F4807F05AF90020C3E711F8012B76
:103A08006A4082EA0212D2B2D30083EA022383EA2E
:103A1800152383EA1215D3E70A2114F80930174A47
:103A280007F1080007F054F9BAF1000F03D114495F
:103A38000F4807F03BF90E4807F1080107F036F97F
:103A4800104B09F1010903FB09F30F4AB2EBB30F5D
:103A5800BAD30849064807F029F9B5E71837BD462B
:103A6800BDE8F08730000020144B002029D800085A
:103A7800A7D3000879D8000855D8000846D8000808
:103A88004CD80008CDCCCCCCCCCCCC0C80B5024BDF
:103A980000AF1860002080BD144B002080B400AF38
:103AA800BD465DF8047BFFF75FBF80B400AFBD463D
:103AB8005DF8047BFFF758BF80B5002000AF80BDDC
:103AC80080B5012000AF80BD80B5012000AF80BD6A
:103AD80080B5012000AF80BD80B5012000AF80BD5A
:103AE80098B5044600AF20461CB154F80C3B01338E
:103AF80000D198BD08220121FFF744F954F80C0CB5
:103B080054F8082C14F8041C121AB2FBF1F2FFF74F
:103B180039F9E8E72DE9F041A8B0C26A604B00AF77
:103B280012F0040F1B68C7F89C304FF00003D0E96F
:103B3800003118BF0B46C7E90003D0064CBF03F19C
:103B4800200203F16802DB690021DB0903F00403AA
:103B58001343FB604FF0E023B960D3F8883D042697
:103B680003F4A003A3F5A0014B424B41BB60002323
:103B78004FF001084B4C3B614B4D07F10C002C609A
:103B8800FFF718F8042201214848FFF7FBF8042240
:103B9800012107F10800FFF7F5F8102201217868E4
:103BA800FFF7F0F83868202201210C30FFF7EAF817
:103BB8007868042201211030FFF7E4F8042201217B
:103BC80007F10C00FFF7DEF878680C2201211430A9
:103BD800FFF7D8F80C2201213868FFF7D3F8BB6843
:103BE800DA0718D53B68DB6ADB0650D407F15400C6
:103BF800FCF788FB79684022203107F11400FCF7B4
:103C080013FD7B681B6EC7F894308422012107F1ED
:103C18001400FFF7B7F8FEF799FFFFF761FF4FF0C1
:103C2800E023D3F8003D03F47023B3F5402F0ED002
:103C38001F4B07F114007B611433BB614FF0FF3356
:103C48003E77C7E9083387F82880FFF749FF2B68D4
:103C5800A34208D0174B0422012107F19800C7F8A6
:103C68009830FFF78FF8FFF723F9002884D03B69D5
:103C78001BB17A68936902339361094B1A68D7F8C4
:103C88009C305A404FF0000306D0FFF7D3F907F1F4
:103C98001400FCF731FBB8E7A037BD46BDE8F0815A
:103CA80030000020ED55CEAC184B0020BDE50008D3
:103CB80028ED00E0ACCE55ED90B41346054C064A0D
:103CC80000AF002908BF224601460448BD4690BC03
:103CD80006F0ECBF83D800087ED8000888D8000812
:103CE8004368B0B50F2B85699DBF0F4A1B01D1589A
:103CF8000E49436904462A460D4800AF06F0D6FF30
:103D0800062D04D063680F2B9CBF0133636000232A
:103D180001222046C4E90232C4E90533BD46BDE8A4
:103D2800B04000F087BA00BFC4E500089DD800087D
:103D3800A5D800082DE9F04391B0954B02AF1B6858
:103D48007B634FF00003934B07F1240203F108054E
:103D5800144618685968083303C4AB422246F7D1A1
:103D680018681B792060237107F1080000F01EFA1B
:103D780038BB894800F0A0FA07F1080000F016FAED
:103D8800BA688649864806F091FF7B69082B07D1F7
:103D9800BA688249834806F089FF002005F048FC8C
:103DA800FB680F2B9EBF80491A018A58796988BF22
:103DB8007E4A0239052921D8DFE801F0932089518C
:103DC800148EF968102903D9794806F06FFFD0E7F7
:103DD800BB697848CDE9001370497B69BA6806F079
:103DE80065FFD2E73969744806F060FF00210123B6
:103DF800C7E9041307F1080000F01CFA6F4C2368A8
:103E0800DA0773D56E4B1B685B68002B7BD06D4956
:103E18006D48FEF7C3F9B0FA80F16C4A6C4849095D
:103E2800FFF74AFF604EFA680F2A77D90823002463
:103E3800F818C7E9044300F0FDF9BA68574959482A
:103E480006F034FF204605F0F3FB514B1A687B6BF4
:103E58005A404FF0000300F01F81FFF7EBF80F2BDB
:103E68002ED8514C1A0104EB03133D695B68AB4231
:103E780026D1A6585748D7E90723314606F016FF3A
:103E8800F9693046B1FA81F1534A4909FFF714FF3D
:103E980097F82010514AC1F3400181F001013046E2
:103EA80001F00101FFF708FFFB68294601330F2BDA
:103EB800FB609ABF1B01E2583C4A3F4806F0F6FEF9
:103EC80000230122C7E90733C7E9043292E74FF01C
:103ED800FF33FB6104233B6207F10800FFF700FF93
:103EE8008CE74FF0FF33FB610223F4E7FEF716F887
:103EF800B0FA80F13A4A36484909FFF7DDFE2368EF
:103F0800DB073FF57FAF0120FEF7B2F8B0FA80F18A
:103F1800344A2F484909FFF7CFFE78E71301F458D0
:103F280006EB02152146304806F0C0FE95F80890C9
:103F3800D5F80480B9F1010F5ED1032300257B6118
:103F4800BB6907F108000133BB61C7E90755C7F82A
:103F5800108000F06FF92146244806F0A7FE42F2CF
:103F68000F727D607B6893420CD9BFF34F8F204955
:103F7800204BCA6802F4E0621343CB60BFF34F8F53
:103F880000BFFDE700BF7B6801337B60EAE700BF45
:103F98003000002086D500089FFBB392E2D80008C5
:103FA800E8D8000861D90008C4E50008DAD8000894
:103FB80002D9000831D900087ED90008EC04002095
:103FC800F00400202890002002DA00080CDA00082B
:103FD800ECD9000892D90008C1D90008CDD9000849
:103FE800DAD90008F4D9000825DA000837DA000819
:103FF80000ED00E00400FA05294B424618682949FB
:10400800FDF752FF0023C7E90733A9F10203012B8B
:10401800C7F810802ED8244A244B07F10800B9F1BC
:10402800020F14BF90469846FB680133FB600623D5
:104038007B61BB690133BB6100F0FCF84246214655
:104048001B4806F033FE2046EB6898472146024697
:10405800184806F02BFE0023012207F10800C7E9E3
:104068000432C7E9073300F0E5F84FF4967005F01D
:1040780007FED8E6022307F108007B6100F0DAF8B2
:10408800EB6820469847214602460B4806F00EFE8C
:10409800FB680133FB60DEE73C37BD46BDE8F083D3
:1040A8002890002058DA000844D30008DED8000819
:1040B80062DA00087EDA0008B1DA000880B5024B3F
:1040C80000AF186880BD00BF2890002090B585B06B
:1040D800194804AF06F0EAFD00F082FCFDF71EFF68
:1040E80038B1164806F0E2FD4FF0FF300437BD4600
:1040F80090BDFEF775FA08B11148F3E70120FDF706
:10410800B7FF044608B10F48ECE700F0B7FC0E4BC8
:104118004FF4805202930D4B0D49019303230D4830
:104128000093234605F02CFA08B90B48DAE705F0A6
:104138009DFB0A48D6E700BFC6DA000805DB000881
:104148002EDB000855DB0008C88F0020C84F002070
:1041580079DB00083D3D000882DB0008A6DB00088B
:1041680090B589B0104B00AF044638461B68FB6118
:104178004FF0000300F01AF848B1FB68082B06D08E
:10418800C7E9054307233846FB6000F053F8064BA0
:104198001A68FB695A404FF0000301D0FEF74AFF46
:1041A8002437BD4690BD00BF300000201D4B2DE9CF
:1041B800F04FD3F800B0D3F804A0D3F80890D3F8A0
:1041C8000CE0D3F810C05E699A69DD691C6A596A07
:1041D800D3F82880144B00AF9B4520D1BAF1020FC9
:1041E8001DD1124B99451AD1531E072B17D88EEAA9
:1041F800010383EA0C0373405340DFF834906B40AB
:10420800634083EA0909C84509D1C0E900ECC0E95F
:104218000262C0E9045481610120BDE8F08F0020EA
:10422800FBE700BF70B402204D465444D0BDE4D62D
:104238007A8A8C3B0346D0E900C09A692DE9F0439D
:10424800D3E90265D3E904418CEA02034340734091
:104258006B406340DFF854E04B4000AF83EA0E0E3A
:10426800EFF3108872B64FF000090F4BC3F828908F
:10427800DFF83C90C3F800904FF00209C3F80490AF
:10428800DFF83090C3F80890C3F80CC018615E617D
:104298009D61DC6119625A62C3F828E0B8F1000F29
:1042A80000D162B6BDE8F08370B402207A8A8C3BF4
:1042B8004D465444D0BDE4D690B589B00E4B00AFFE
:1042C800182204460021381D1B68FB614FF00003CB
:1042D800FCF720FA01233846FB603C60FFF7AAFF91
:1042E800054B1A68FB695A404FF0000301D0FEF7EE
:1042F800A1FE2437BD4690BD3000002090B589B09E
:10430800114B00AF1B68FB614FF00003002304460C
:104318003846FB60FFF74AFF50B1FB68032B07D113
:10432800BB68A34204D104233846FB60FFF782FF31
:10433800054B1A68FB695A404FF0000301D0FEF79D
:1043480079FE2437BD4690BD30000020F0B589B015
:10435800134B00AF1B68FB614FF0000300230646B8
:1043680038460D461446FB60FFF720FF60B1FB6836
:10437800042B09D1BB68B34206D105233846C7E9E7
:104388000554FB60FFF756FF054B1A68FB695A4056
:104398004FF0000301D0FEF74DFE2437BD46F0BDB7
:1043A80030000020B0B582B000AFD7E906542C44E5
:1043B8001C4414440C446A40044450403C607860F7
:1043C800FEF7A6FB40F2F6320F4B20211A600F4A87
:1043D8005A600F4A9A600022C3E90312FEF70EF9E9
:1043E80070B1FEF7EFFDFBF723FFFEF709FE3B6810
:1043F8007A6808375340074A13601068BD46B0BD55
:10440800FEF796FBF3E700BF34000020EFDB00085F
:10441800F9DB0008309000202DE9F04198460A2386
:104428000D461646044684B002AF7B60FFF746FE91
:104438000B49FDF7EFFC7B6A324601933B6A29463C
:10444800009320464346FFF7ADFF064A7968136894
:104458004B4013607B6808371844BD46BDE8F081BF
:104468003EDC0008309000202DE9F0419846642396
:104478000D461646044684B002AF7B60FFF71EFE69
:104488000B49FDF7C7FC7B6A324601933B6A294614
:10449800009320464346FFF7BFFF064A7968136832
:1044A8000B4413607B6808375840BD46BDE8F0816F
:1044B8005EDC00083090002080B582B002AFFFF7C4
:1044C800FDFD01220C49FDF7EFFCFFF7F7FD062281
:1044D8000A49FDF7E9FC052306220221CDE900324D
:1044E800012004230322FFF7BFFF054A1368434056
:1044F8001360BD4680BD00BF7FDC000890DC00086B
:104508003090002080B500AFFFF7D6FF002080BDB7
:104518002DE9F0411D46642382B000AF04461646DB
:104528007B608846FEF7F4FA40F2EA3312486822C4
:104538000360124B4360124B83600023C0E90323DE
:10454800FEF75CF8A0B1FEF73DFDFBF771FEFEF744
:1045580057FD7B6884EA08045C40337808375C4080
:104568002B685C40074B1C601868BD46BDE8F081AD
:10457800FEF7DEFAEDE700BF34000020A1DC0008FA
:10458800F9DB0008309000202DE9F04116469846E6
:104598000D46044600AFFFF791FD0A49FDF73AFCC6
:1045A800FFF78CFD0849FDF735FC4346324629469E
:1045B8002046FFF7ADFF054A136803441360BDE8C2
:1045C800F08100BFABDC0008D3DC0008309000208D
:1045D80080B500AFFFF772FD07221449FDF764FCB0
:1045E800FFF76CFD1E221249FDF75EFCFFF766FD22
:1045F8001049FDF70FFCFFF761FD0F49FDF70AFCB5
:10460800FFF75CFD0D49FDF705FCFFF757FD0C4969
:10461800FDF700FC1E210B4B0B4A0720FFF7B4FFE8
:104628000A4A13684340136080BD00BFFADC0008E3
:104638000DDD000822DD00083BDD00084DDD000827
:1046480061DD0008C4E6000832DD00083090002073
:1046580080B500AFFFF7BCFF002080BD80B582B0F9
:1046680000F5CA7000AF7860FEF752FA4FF47B721B
:104678000C4BCB211A600C4A5A600C4A9A600022F3
:10468800C3E90312FDF7BAFF48B1FEF79BFCFBF73D
:10469800CFFDFEF7B5FC78680837BD4680BDFEF74C
:1046A80047FAF8E73400002076DD0008F9DB000857
:1046B80080B500AFFFF702FD0949FDF7ABFBFFF737
:1046C800FDFC0849FDF7A6FBFFF7F8FC0649FDF7D6
:1046D800A1FB4FF47A60FFF7C1FF044A106080BD68
:1046E80080DD000896DD0008B6DD00083090002067
:1046F80080B500AFFFF7DCFF024A13684340136040
:1047080080BD00BF30900020B0B500AFFFF7F0FFCC
:1047180041F2341504460749074A084BA84218BF16
:104728000A460749074806F0C1FA601B18BF4FF050
:10473800FF30B0BD83D800087ED80008DEDD000851
:104748007BDD000888D8000890B583B000AF044628
:104758007960FEF7DDF940F2EF320E4BF721C3E93D
:1047680000240D4A9A600022C3E90312FDF746FFB0
:1047780068B1FEF727FCFBF75BFDFEF741FC074A33
:10478800796813680C374B401360BD4690BDFEF73F
:10479800CFF9F4E734000020F9DB0008309000205E
:1047A80080B500AFFFF78AFC0549FDF733FB4621CA
:1047B8000448FFF7C9FF044A13680133136080BD3A
:1047C800F4DD000822DE00083090002080B500AF3C
:1047D800FFF774FC0549FDF71DFB47210448FFF767
:1047E800B3FF044A13680133136080BD2DDE00084F
:1047F8005DDE00083090002080B500AFFFF7E6FFCF
:10480800024A13680133136080BD00BF3090002056
:1048180098B51D4C00AFFFF7C3FF2368DA072FD503
:104828001A4B1B4A1B6859681A4B002908BF1A46BD
:10483800194B1A491A4806F039FAFFF73FFC226863
:1048480012F0010205D0114B1B685A68003A18BFD4
:1048580001221449FDF728FBFFF7CEFF2368DB0789
:1048680010D50A4B0A4A1B6859680A4B002908BF29
:104878001A46094B0C490A4806F018FA002098BD58
:10488800044AD5E7034AF4E7EC040020F0040020CA
:104898007ED8000883D8000868DE000827DE0008F4
:1048A80088D8000876DE000862DE000898B500AFF8
:1048B8000446FEF72DF940F2F3320D4B40F22B116E
:1048C8001A600C4A5A600C4A9A600022C3E9031223
:1048D800FDF794FE40B1FEF775FBFBF7A9FCFEF768
:1048E8008FFB064B1C6098BDFEF722F9F9E700BF65
:1048F8003400002097DE0008F9DB00083090002023
:1049080098B5044600AFFFF7D9FB0549FDF782FAD1
:104918002046FFF7CBFF034A13680133136098BDA5
:10492800A1DE000830900020B0B50446074B00AF68
:104938001D68FFF7C3FB22460549FDF7B5FA204677
:10494800A847044A136801331360B0BD2C900020B7
:10495800CADE00083090002080B5064B064A0B20BE
:1049680000AF1A60FFF7E0FF044A136801331360D1
:1049780080BD00BF2C90002009490008309000201D
:1049880080B500AFFFF7E8FF002080BD90B4134664
:10499800054C064A00AF002908BF224601460448D4
:1049A800BD4690BC06F082B983D800087ED80008BE
:1049B80088D800080122084B80B51A7000230748E0
:1049C80000AF1A461946006804F0DAF80020BD4620
:1049D800BDE8804004F02CBE3490002038900020C0
:1049E800F0B589B0214B00AF38461B68FB614FF02A
:1049F8000003FFF7DBFB48B3FB68032B26D140F22B
:104A0800F233BC689C4221D12046FFF777FCEFF3D4
:104A18000585EFF31486FEF77BF8154B154A15212B
:104A28005A60154A1C609A600122C3E90312FDF717
:104A3800E5FDA0B1FEF7C6FAFBF7FAFBFEF7E0FAD0
:104A48003246294640F2F230FFF780FC074B1A68DD
:104A5800FB695A404FF0000304D0FEF7EBFAFEF76B
:104A680067F8EDE72437BD46F0BD00BF30000020F1
:104A780034000020E7DE0008F1DE0008F0B589B058
:104A8800234B00AF38461B68FB614FF00003FFF76C
:104A98008DFB70B3FB68032B2BD140F2ED33BC6860
:104AA8009C4226D12046FFF729FCEFF30585EFF35A
:104AB800148618483246294606F0F8F8FEF728F812
:104AC800154B164A2A215A60154A1C609A60002222
:104AD800C3E90312FDF792FDA0B1FEF773FAFBF7E5
:104AE800A7FBFEF78DFA3246294640F2ED30FFF774
:104AF8002DFC074B1A68FB695A404FF0000304D09D
:104B0800FEF798FAFEF714F8EDE72437BD46F0BD36
:104B18003000002033DF00083400002061DF000887
:104B2800F1DE000898B500AFEFF30583124C23605F
:104B3800FFF7C4FA22681149FDF7B6F9FDF7E8FF57
:104B480040F2EE320E4B37211A600E4A5A600E4A76
:104B58009A600022C3E90312FDF750FD48B1FEF741
:104B680031FAFBF765FBFEF74BFA0122074B1A7087
:104B780098BDFDF7DDFFF8E7549D00206BDF0008C6
:104B88003400002086DF0008F1DE0008509D002078
:104B9800F8B50023254D264C00AF2B60237000F09C
:104BA800BDFD04F0DDFE00F57A76237843B300F00E
:104BB800C5FDFFF783FA2A681E49FDF775F92968CC
:104BC8001D4A003918BF01211C48FFF7DFFE217874
:104BD8001B4A1A48FFF7DAFEFDF79AFF40F2EE3259
:104BE800184B4E211A60184A5A60184A9A600022D7
:104BF800C3E90312FDF702FD48B9FDF799FF0CE080
:104C080004F0AEFEB042D2D205F066FDCDE7FEF765
:104C1800D9F9FBF70DFBFEF7F3F92B6813B12078F0
:104C28000138F8BD4FF0FF30FBE700BF549D00206E
:104C3800509D002091DF0008B3DF0008D1DB000899
:104C4800C0DF000834000020CDDF0008F1DE0008D6
:104C580080B500AFFDF75CFF4FF47C720C4B55211B
:104C68001A600C4A5A600C4A9A600122C3E903127E
:104C7800FDF7C4FC40B1FEF7A5F9FBF7D9FAFEF73A
:104C8800BFF94FF0FF3080BDFDF752FFF9E700BFD5
:104C980034000020D8DF0008F1DE000880B582B0BB
:104CA80000AF7860FDF734FF40F2F1320F4B62211C
:104CB8001A600F4A5A600F4A9A600022C3E9031229
:104CC800FDF79CFC78B1FEF77DF9FBF7B1FAFEF72A
:104CD80097F97B680837A3F1090253425341064A02
:104CE8001370BD4680BDFDF723FFF2E734000020B6
:104CF800E2DF0008F1DE0008F89C002098B50446C1
:104D080000AFFFF7DBF922460549FDF7CDF820464D
:104D1800FFF7C4FF034A1378DBB2137098BD00BFD6
:104D2800ECDF0008F89C0020B0B50C4600AFFFF798
:104D3800C5F90849FDF76EF82046FFF7DFFF0023A5
:104D48001A46194604480068BD46BDE8B04003F05D
:104D580017BF00BF00E00008FC9C0020F0B583B03E
:104D68001F4C02AF206840B9032302460146009356
:104D780001201C4B03F0C8FE2060002104F0FAF863
:104D88000021194E4FF47A7309221848317005F042
:104D980045FC42F210710546206804F0EBF8044621
:104DA8006B1E59425941124A1248FFF7EFFD601E27
:104DB80041424141104A0F48FFF7E8FD31780F4A58
:104DC8000C48FFF7E3FD012D06D1012C04D1307802
:104DD80001380437BD46F0BD4FF0FF30F9E700BF9A
:104DE800FC9C0020009D0020F89C0020314D00080C
:104DF80023E00008E7DF000832E0000841E000088F
:104E0800B0B500AFEFF30583174D2B60EFF31483B4
:104E1800164C2360FFF752F92A681549FDF744F844
:104E2800FFF74CF922681349FDF73EF8FDF770FECD
:104E38004FF47E72104BA5211A60104A5A60104A2E
:104E48009A600022C3E90312FDF7D8FB48B1FEF7C8
:104E5800B9F8FBF7EDF9FEF7D3F80122094B1A7000
:104E6800B0BDFDF765FEF8E7F4940020F09400204B
:104E78004FE0000862E00008340000207AE00008F3
:104E8800F1DE0008EC9400202DE9F0474FF0FF33E5
:104E98004FF00009354E364C364D00AF3360236075
:104EA80085F80090FFF70AF93349FCF7B3FF05F0DE
:104EB80021FC324901F50060FBF728FA05F02AFCCD
:104EC800EFF31488FFF7FAF822682D49FCF7ECFF96
:104ED800FFF7F4F842462B49FCF7E6FF31682A4A07
:104EE800B1FA81F129484909FFF750FD2168284A9C
:104EF800C1F3400181F00101244801F00101FFF7ED
:104F080045FD244A2148C8F34001FFF73FFD224AE6
:104F180029781E48FFF73AFDFDF7FAFD4FF47E7237
:104F28001E4B08F0020A1A601D4A5A601D4A9A6010
:104F3800C422C3E90329FDF761FB88B1FEF742F8F3
:104F4800FBF776F9FEF75CF8336863B923689B07CB
:104F580009D4BAF1000F06D028780138BDE8F087E7
:104F6800FDF7E6FDF0E74FF0FF30F7E7F494002097
:104F7800F0940020EC94002085E00008F8940020CC
:104F8800A5E00008C1E00008C1D90008E0DB00087E
:104F9800CDD90008DCE0000841E00008340000201A
:104FA800E9E00008F1DE00082DE9F04F85B00020A7
:104FB80004AF04F0B7FBDFF8C0918046D9F80000D1
:104FC80048B903230246014600930120574B03F0DA
:104FD8009BFDC9F8000000260021554D03F0CAFFCB
:104FE800022130462E7004F0B7FB04F0AFFCFFF747
:104FF80065F802224F49FCF757FFFFF75FF80422D4
:105008004D49FCF751FF4D4B4FF4807202934C4BC6
:105018004C49019304234C480093334604F0B0FAFA
:105028008246FFF74BF84949FCF7F4FEFDF770FD9F
:1050380040F2FD33464CDFF844B12360454BC4F8D9
:1050480008B06360F123C4E90336FDF7D7FA0028F6
:1050580062D0FDF7B7FFFBF7EBF8FDF7D1FF2E782D
:10506800FFF72CF82A783C49FCF71EFF04F066FD90
:1050780041F28831D9F8000003F07CFF8146FFF740
:105088001DF82A783549FCF70FFFFFF717F84A464D
:105098003349FCF709FF4146002004F05DFBBAF1F3
:1050A800000118BF01212F4A2F4886F00106FFF79B
:1050B8006DFC31462D4A2C48FFF768FCB9F1010F09
:1050C8000CBF297800212A4A08BFC9B22648FFF731
:1050D8005DFCFDF71DFD40F2FD332360254B4FF4C9
:1050E8008272C4E9013B0023C4E90323FDF786FA71
:1050F800A8B1FDF767FFFBF79BF8FDF781FFBAF151
:10510800000F0FD076B1B9F1010F0BD12878013813
:105118000437BD46BDE8F08FFDF70AFD9FE7FDF7B0
:1051280007FDECE74FF0FF30F2E700BF3C900020AE
:1051380034900020F4E000080FE100088C90002073
:10514800EC90002027E10008BD49000831E1000883
:105158003400002062E100086DE1000887E10008E2
:105168009FE10008B3E10008EADB0008C7E1000896
:10517800DCE10008F9E1000838900020F1DE0008C1
:1051880080B500AFFEF79AFF0349FCF743FE00DE47
:105198004FF0FF3080BD00BF04E2000890B4134612
:1051A800054C064A00AF002908BF224601460448BC
:1051B800BD4690BC05F07ABD83D800087ED80008AB
:1051C80088D80008B0B586B0334B00AF1B687B6148
:1051D8004FF00003314B3A1D03F1080514461868D7
:1051E8005968083303C4AB422246F7D118681B79C3
:1051F8002060237100242A4B20461C6004F0EAFE3C
:10520800284D80002860FEF759FF4FF4C0622649F8
:10521800FCF74AFEFEF752FF2A682449FCF744FED1
:10522800FDF776FC40F2FA32214B1A60214A5A60A7
:10523800214A9A603122C3E90324FDF7DFF908B354
:10524800FDF7C0FEFAF7F4FFFDF7DAFE01220024AD
:105258001A4B20461A701A4B1C6004F0BBFE194BFF
:10526800800018601848234622462146006803F04B
:1052780087FC094B1A687B695A404FF0000304D039
:10528800FDF7D8FEFDF754FCE0E720461837BD4689
:10529800BDE8B04004F0CCB93000002086D5000845
:1052A800689D0020609D002031E2000845E200086A
:1052B800340000205BE2000865E20008589D0020E9
:1052C800649D00205C9D00206C9D00202DE9F0412C
:1052D800254C00AFFCF72AFF2368D80749BF234BAA
:1052E80001251B685D6844BFB5FA85F56D09FDF7B2
:1052F8000FFC40F2F9321E4B0E211A601D4AA846D7
:105308005A601D4A9A600022C3E90312FDF776F934
:1053180020B3FDF757FEFAF78BFFFDF771FE236800
:105328002946DB074ABF114B01241B68134A48BFB3
:105338005C68134844BFB4FA84F46409FFF72EFF8D
:105348000F4821460F4AFFF729FF0120FCF790FE7E
:10535800B8F1000F05D0601EBDE8F081FDF7E8FB4D
:10536800DDE74FF0FF30F7E7EC040020F004002001
:1053780034000020A9E2000865E20008B3E2000852
:10538800AEE20008C8E200084FF0FF332DE9F04F05
:1053980085B0414E414D33602B600023DFF83491D6
:1053A800DFF834A13E4CDFF83481D9F80000CAF8A0
:1053B800003004AF236088F8003048B90323024660
:1053C800014600930120374B03F09EFBC9F800000B
:1053D800002103F0CFFD344B4FF4C0720293334BDE
:1053E80033490193042333480093002304F0C8F899
:1053F80042F210718346D9F8000003F0BBFD8146E4
:10540800DAF800204FF4C06123682B4805F04EFC01
:10541800BBF1000118BF0121284A2948FFF7BEFE49
:1054280009F1FF3359425941264A2548FFF7B6FE8C
:1054380098F80010244A2248FFF7B0FE33682BBBC7
:105448002968B1FA81F14909204A1D48FFF7A6FEEB
:1054580021681F4A003918BF01211948FFF79EFE2D
:10546800BBF1000F14D0B9F1010F11D198F8003039
:1054780073B1336863B92B6853B92068B0FA80F008
:10548800400940420437BD46BDE8F08F0021DBE704
:105498004FF0FF30F6E700BF689D0020649D0020B4
:1054A8005C9D0020709D0020C09D0020209E002053
:1054B800DCE20008CD510008E7E20008B8E1000886
:1054C80060E2000825E3000841E0000836E3000830
:1054D8004BE300086C9D0020609D0020589D002033
:1054E800B0B50A2100AF214805F0E0FBFEF7E6FD64
:1054F8001F490A22FCF7D8FCFDF70AFB40F2FB33F0
:105508001C4C672123601C4B1C4D63600023A56065
:10551800C4E90313FDF772F808B3FDF753FDFAF772
:1055280087FEFDF76DFDFEF7C9FD1549FCF772FC16
:10553800FDF7EEFA40F2FB332360124B6A22C4E90E
:1055480001350023C4E90323FDF758F850B1FDF7EE
:1055580039FDFAF76DFEFDF753FD0020B0BDFDF7EC
:10556800E7FAE0E7FDF7E4FAF7E700BF62E30008CF
:1055780080E3000834000020CCE6000865E200085B
:10558800A5E30008C8E3000880B500AF00F044F8C0
:1055980000F0A0F9BD46BDE88040FEF797BD0000C9
:1055A80080B500AFBFF34F8F0549064BCA6802F4B8
:1055B800E0621343CB60BFF34F8F00BFFDE700BF2E
:1055C80000ED00E00400FA0580B5002000AF80BDC2
:1055D80080B483B00F4B00AFD3F8942042F004029C
:1055E800C3F89420D3F8942002F004023A603A6891
:1055F800D3F8A82042F00202C3F8A820D3F8A830B4
:1056080003F002037B607B680C37BD465DF8047BC2
:1056180000F0D8BB000C024690B5A1B02C4B00AFEF
:105628001B68FB674FF0000300F0CEF91822002139
:10563800381DFBF76FF86022002107F11C00FBF70B
:1056480069F84FF4403000F071FB00B1FEE7102319
:105658000122FB61C7E90E2302230324C7E915329F
:105668004FF40052C7E917420F22C7E91B33C7E9B5
:1056780019230C233864C7E91D3007F11C0000F01A
:10568800FFFD0028E2D11F23C7E90300C7E9050091
:105698002146381DC7E9013400F080FC0028D5D127
:1056A80000F026FB00F036FB4FF00062094B9A60D1
:1056B800BFF34F8FBFF36F8F054B1A68FB6F5A40CC
:1056C8004FF0000301D0FDF7B5FC8437BD4690BD0F
:1056D8003000002000ED00E00A4A80B5D2F8FC3026
:1056E80000AF43F08073C2F8FC300022064B5A60CA
:1056F8001A6842F001021A60BFF34F8FBFF36F8F31
:1057080080BD00BF00ED00E0001000E080B5024B56
:1057180000AF586880BD00BF001000E04FF4006281
:10572800702180B5044B00AFC3F8802183F80B13B8
:105738001A60C3F8002180BD00E100E04FF4006268
:1057480080B5054B00AFC3F88020BFF34F8FBFF380
:105758006F8FC3F8802180BD00E100E0044B80B565
:105768000360044B00AF0B604FF48073136080BD7F
:1057780080B0002080AC0020044B80B50360044B4F
:1057880000AF0B604FF40073136080BD20AC0020A5
:1057980020A4002080B5054800AF05F087FA052051
:1057A800FEF7DEFC05F0EEF8FFF7FAFED3E300089B
:1057B80080B50A4600AF0146044805F077FA012093
:1057C800FEF7CEFC05F0DEF8FFF7EAFEF0E300088E
:1057D80090B583B00D4B00AF1B687B604FF00003A2
:1057E80001224FF0FF33F8700446F91C084802F014
:1057F80081FF064B1A687B685A404FF0000301D0BE
:10580800FDF718FC20460C37BD4690BD300000203F
:10581800E0B0002090B5BDB0044600AF294B14227B
:10582800002107F10C001B68C7F8EC304FF00003AB
:10583800FAF770FFC822002107F12000FAF76AFF83
:105848002268214B9A422FD10122002307F1200020
:10585800C7E9082301F08EFA1C4B1D48D3F8A42091
:1058680007F10C0142F48042C3F8A420D3F8A42025
:1058780002F480427A607A68D3F88C2042F0010200
:10588800C3F88C20D3F88C304FF4C06203F00103C6
:10589800BB60BB680223C7E903230022C7E90523CD
:1058A8000723FB6100F00CF9064B1A68D7F8EC30B7
:1058B8005A404FF0000301D0FDF7BCFBF437BD465A
:1058C80090BD00BF3000002000380140000C0246A7
:1058D800000002420E490F4B80B54FF4E1220B60E5
:1058E8000023C1E901230C2200AF0846C1E90333B4
:1058F800C1E90523C1E90733C1E9093302F0B1FF62
:1059080018B9034802F0DDFF00B1FEE780BD00BF13
:10591800E0B0002000380140FAF7CEBC80B400AFF8
:10592800BD465DF8047BFFF7FDB80000DFF834D012
:1059380000F026F8002103E00B4B5B58435004317C
:105948000A480B4B42189A42F6D30A4A02E000234F
:1059580042F8043B084B9A42F9D305F069F9FFF77E
:1059680013FEFEE700000C2028EB000800000020D2
:10597800600000206000002070B40220FEE70000F4
:1059880001220F4880B5D0F8883000AF43F4700387
:10599800C0F888300B4B1A600022DA611A625A622A
:1059A800196821F0A85121F4102119609A62196828
:1059B80021F4802119601A654FF00063836080BD6F
:1059C80000ED00E0000C024698B5032000AF00F09F
:1059D80027F800F05FFA0B4B0B4A1B6A03F00F0322
:1059E800D35CD840094B1860042000F02DF8002043
:1059F800FFF7EAFD044618B9FFF7EAFD204698BD0F
:105A08000124FBE7000C024624E7000858000020A8
:105A180080B5024B00AF186880BD00BF68B1002098
:105A2800084980B5CA68030222F4E062120403F44C
:105A3800E063120C134343F0BF6343F4003300AF39
:105A4800CB6080BD00ED00E080B500AF04280AD827
:105A5800DFE800F00A18260903004FF0E022136976
:105A680043F00403136180BD4FF0E022136923F073
:105A780004031361114AD2F8E03023F44003C2F85A
:105A8800E030F0E74FF0E022136923F004031361DC
:105A98000A4AD2F8E03023F4400343F48003EEE7E7
:105AA8004FF0E022136923F004031361034AD2F88C
:105AB800E03023F4400343F40003E0E7000C02461F
:105AC8002DE9F04F864B85B000AF7B60002203467E
